:020000040800F2
:1000000000040020990100080F0300080B030008FA
:100010000D030008E101000845040008000000008D
:100020000000000000000000000000006103000864
:10003000E30100080000000011030008FD030008B0
:10004000B3010008B3010008B3010008B3010008C0
:10005000B3010008B3010008B3010008B3010008B0
:10006000B3010008B3010008B3010008B3010008A0
:10007000B3010008B3010008B3010008B301000890
:10008000B3010008B3010008B3010008B301000880
:10009000B3010008B3010008B3010008B301000870
:1000A000B3010008B3010008B3010008B301000860
:1000B000B3010008B3010008B3010008B301000850
:1000C000B3010008B3010008B3010008B301000840
:1000D000B3010008B3010008B3010008B301000830
:1000E000B3010008B3010008B3010008B301000820
:1000F000B3010008B3010008B3010008B301000810
:10010000B3010008B3010008B3010008B3010008FF
:10011000B3010008B3010008B3010008B3010008EF
:10012000B3010008B3010008B3010008B3010008DF
:10013000B3010008B3010008B3010008B3010008CF
:10014000B3010008B3010008B3010008B3010008BF
:10015000B3010008B3010008B3010008B3010008AF
:10016000B3010008B3010008B3010008B30100089F
:10017000B3010008B3010008B3010008B30100088F
:10018000B3010008DFF80CD000F018F80048004771
:100190006504000800040020064880470648004720
:1001A000FEE7FEE7FEE7FEE7FEE7FEE7FEE7FEE727
:1001B000FEE7FEE70104000885010008064C074D34
:1001C00006E0E06840F0010394E807009847103427
:1001D000AC42F6D3FFF7DAFFB0040008C004000811
:1001E000FEE770477CB501248DF804408DF8064089
:1001F00002258DF8075000948DF8055069461D487A
:1002000000F042F88DF804408DF806408DF8075054
:1002100000958DF805506946174800F035F88DF8BF
:1002200004408DF806408DF8075000948DF8055075
:100230006946124800F028F88DF8044008208DF82F
:10024000064000908DF807508DF8055069460C481F
:1002500000F01AF88DF80440E0038DF80640009095
:100260008DF807508DF805506946064800F00CF8E7
:100270007CBD000000000240000402400008024073
:10028000000C024000180240F0B5002201230325B3
:100290000E6803FA02F42640A64230D107685400E3
:1002A00005FA04F6B74307600F79D0F800C0A740FD
:1002B00047EA0C0707600F79012F01D0022F12D1F6
:1002C0008768B74387604E798768A6403E4386605B
:1002D000466803FA02F7BE43466046688F79974046
:1002E000BFB23E434660C668570005FA07FC26EADF
:1002F0000C06C660CE79A640C4682643C660521C70
:10030000102AC5D3F0BD41837047FEE7FEE7704772
:1003100070470000054A0029D2F8301801D0014387
:1003200000E08143C2F830187047000000300240FE
:1003300010B500F065F84FF4805000F007F8012187
:10034000BDE810404F20FFF7E5BF000003490A68F1
:1003500022F4604242EAC000086070470838024058
:100360007047000023480021D0F8002842F4803272
:10037000C0F800284FF4A063D0F8002801F1010173
:1003800012F4003F01D19942F6D1D0F80018890348
:100390002ED500F5006081688160816841F40041DC
:1003A0008160816841F4A051816013494160016816
:1003B00041F080710160A0F5006000BFD0F8001826
:1003C0008901FBD540F20371C0F8001CD0F8081871
:1003D00021F00301C0F80818D0F8081841F0020114
:1003E000C0F80818D0F80818C1F381010229F9D122
:1003F0007047000000300240193C40257047000063
:100400000E4810B5016841F0010101604FF0000194
:10041000816002680A4B02EA0302026041600268DE
:1004200022F480220260C160FFF79CFF4FF0E021C0
:100430004FF00060C1F8080D10BD00000038024008
:10044000FFFFF6FEFEE702E008C8121F08C1002AFF
:10045000FAD170477047002001E001C1121F002A45
:10046000FBD1704710B5FFF763FFFFF7BBFE01211B
:100470000A48FFF748FF02210948FFF744FF01211E
:100480000848FFF740FF08210748FFF73CFF4FF4FB
:1004900000410648FFF737FF002010BD0000024072
:1004A0000004024000080240000C02400018024014
:1004B000C0040008000000200004000056040008EA
:040000050800018569
:00000001FF
