:020000040800F2
:10000000A004002099010008530C00082F090008E3
:10001000510C0008310200082912000800000000FD
:10002000000000000000000000000000391100087E
:10003000D906000800000000D90C0008D5110008FE
:10004000B3010008B3010008B3010008B3010008C0
:10005000B3010008B3010008B3010008B3010008B0
:10006000B3010008B3010008B3010008B3010008A0
:10007000B3010008B3010008B3010008B301000890
:10008000B3010008B3010008B3010008B301000880
:1000900035020008B3010008B3010008B3010008ED
:1000A000B3010008B3010008B3010008B301000860
:1000B000B3010008B3010008B3010008B301000850
:1000C000B3010008B3010008B3010008B301000840
:1000D000B3010008B3010008B3010008B301000830
:1000E000B3010008B3010008B3010008B301000820
:1000F000B3010008B3010008B3010008B301000810
:10010000B3010008B3010008B3010008B3010008FF
:10011000B3010008B3010008B3010008B3010008EF
:10012000B3010008B3010008B3010008B3010008DF
:10013000B3010008B3010008B3010008B3010008CF
:10014000B3010008B3010008B3010008B3010008BF
:10015000B3010008B3010008B3010008B3010008AF
:10016000B3010008B3010008B3010008B30100089F
:10017000B3010008B3010008B3010008B30100088F
:10018000B3010008DFF80CD000F040F80048004749
:10019000F9130008A00400200648804706480047DD
:1001A000FEE7FEE7FEE7FEE7FEE7FEE7FEE7FEE727
:1001B000FEE7FEE7D911000885010008D2B201E090
:1001C00000F8012B491EFBD270470022F6E710B55C
:1001D00013460A4604461946FFF7F0FF204610BDB5
:1001E00030B50B46014600202022012409E021FA07
:1001F00002F59D4205D303FA02F5491B04FA02F504
:100200002844151EA2F10102F1DC30BD064C074D59
:1002100006E0E06840F0010394E8070098471034D6
:10022000AC42F6D3FFF7B2FFD42F0008F42F00083A
:10023000FEE7000010B5184A0021184800F0A2F9A6
:1002400015480168A1F54072213A23D1017A0029AD
:1002500020D1817A01291DD1C27A11A1143800F070
:10026000E5FF00F0C5FCC0884FF6FF7400EB4000CE
:1002700004EA40000FA100F031FC00F0B9FCC08896
:10028000054900EB400004EA4000BDE81040143985
:1002900000F024BC10BD00005800002000640040A5
:1002A00020526563696576652044617461203D2054
:1002B0002564000020202020202020202020202035
:1002C0002020202020202020202000002DE9FC419B
:1002D0000121022000F002FD2B4F0922082138469F
:1002E00000F015FB09221146384600F010FB0226EB
:1002F0008DF804604FF440708DF805600024009084
:100300008DF8064001258DF807506946384600F003
:10031000ADFA0121480600F0F9FC1C4F384600F008
:1003200039F81B4800F076F9194805218471C47129
:10033000047244728472C4728470C47001710721A3
:10034000417106800146384600F0A8F810480C308C
:100350008472C4720573048044808480C4800481E4
:10036000457300F02DF80A4840F221311C3001227B
:10037000C0E900154472047285720221384600F00B
:1003800085F8BDE8FC8100000004024000640040E4
:100390006C000020094910B588424FF0010101D1DD
:1003A0004C0601E04FF08064204600F0BBFC204684
:1003B000BDE81040002100F0B5BC00000064004022
:1003C000F0B5827A012191402E4A136843F001036F
:1003D00013602C4B1C331C688C431C60294D067B1E
:1003E000294C0C35A6B92E688E432E604688C788E6
:1003F00046EA0746877A04EBC707C7F840660688CF
:10040000878846EA0746877A04EBC707C7F8446639
:10041000067B012E12D12E680E432E60867A056867
:1004200004EBC6064FEA3545C6F84056867A45685D
:1004300004EBC6044FEA3545C4F84456114CC57A5E
:10044000241D002D256806D00D4325600D4C05891F
:10045000143415B104E08D43F7E725688D4325601A
:100460000589012D02D125680D432560407B0128B7
:1004700002D1186808431860106820F0010010606D
:10048000F0BD00000066004000600040002A4269A4
:1004900001D00A4300E08A434261704710B5036807
:1004A000002223F002030360036843F001030360AA
:1004B0004FF6FF7300E0521C4468E40701D19A42F2
:1004C000F9D14268D2073ED08A79012A02683CD02D
:1004D00022F080020260CA79012A026838D022F034
:1004E000400202600A7A012A026834D022F0200217
:1004F00002604A7A012A026830D022F010020260BB
:100500008A7A012A02682CD022F008020260CA7A94
:10051000012A026828D022F0040202608A78CC788E
:10052000920742EA04620C7942EA04424C79098853
:1005300042EA0452491E0A43C261016821F00101E6
:100540000160002114E0002010BD42F08002C1E7EC
:1005500042F04002C5E742F02002C9E742F0100233
:10056000CDE742F00802D1E742F00402D5E7491C8A
:100570004268D20701D09942F9D14068C007E2D160
:10058000012010BD10B500EB0113D3F8B04114F0F9
:1005900004041472D3F8B04134D0E408C2F8044023
:1005A000D3F8B04104F002045472D3F8B44104F01B
:1005B0000F049472D3F8B441240AD474D3F8B84128
:1005C000D472D3F8B841240A1473D3F8B841240C78
:1005D0005473D3F8B841240E9473D3F8BC41D47348
:1005E000D3F8BC41240A1474D3F8BC41240C5474CD
:1005F000D3F8BC311B0E937439B1016941F020016D
:10060000016110BD640D1460CAE7C16841F02001AA
:10061000C16010BD00218171C1710172417281728E
:10062000C1728170C17003210171022141710121E8
:100630000180704730B50246002093685B0108D402
:100640009068000101D5012003E09068C00037D513
:10065000022002EB0012D2F8803103F00103C2F84D
:1006600080310B7A73B3D2F880414D681C434B7ACA
:1006700043EAC5031C43C2F880418B7A03F00F03A1
:100680008B72D2F8843123F00F03C2F88431D2F890
:1006900084318C7A2343C2F88431CB7ACC6843EA24
:1006A0000423C2F88831CB7B096943EA0121C2F8EF
:1006B0008C11D2F8801141F00101C2F8801130BDD7
:1006C000042030BDD2F880314C7A23430C8843EAB1
:1006D0004453C2F88031D0E77047000010B500F0F5
:1006E00039FB4FF6FF74204600F022F9124800F063
:1006F00099FA1F2000F082FA204600F099FA00F0E3
:1007000077FAC08800EB400101EB001080B20BA12A
:1007100000F0E4F9144800F085FA00F069FA13A13A
:10072000002000F0DBF9204600F068FABDE8104038
:100730001F2000F07DBA00003C0000202020202077
:1007400020202020202043414E20627573206578B0
:10075000616D706C6520202020202020202020202A
:100760002020202000000000340000202020204312
:10077000414E20627573206578616D706C65202034
:10078000000000008000A0F1C0400029016802D0F4
:1007900041F0010101E0024A114001607047000090
:1007A000FEFF0F0010B5D0E901121143D0E9032379
:1007B0001A4311434269114382691143C2691143CB
:1007C000026A1143426A1143826A1143C26A1143A9
:1007D000026B114302689200A2F1C042116081686D
:1007E000082907D101688900A1F1C0410A6842F0D7
:1007F00040020A60416BD1E9002342EA03128B6890
:100800008C891B0243EA04431A430B8A42EA0352CF
:100810000B7D896942EA03620A4301688900A1F1FC
:10082000C0414A60C16AB1F5804F08D000686FF0DE
:1008300070418000A0F1C040C0F8041110BD816B70
:10084000D1E9002342EA03128B680C8A1B0243EAB7
:1008500004531A430B7D896942EA036200680A4324
:100860008000A0F1C040C0F8042110BDF0B5002305
:10087000012403270D6804FA03F21540954242D182
:10088000D0F800C05E0007FA06F52CEA050CC0F8A7
:1008900000C091F804C0D0F800E00CFA06FC4CEA65
:1008A0000E0CC0F800C091F804C0BCF1010F02D0DA
:1008B000BCF1020F1FD1D0F808C02CEA050CC0F81B
:1008C00008C091F805C0D0F808E00CFA06FC4CEA24
:1008D0000E0CC0F808C0D0F804C02CEA020CC0F816
:1008E00004C0426891F806C00CFA03FC1FFA8CFCA5
:1008F00042EA0C024260C268AA43C260CA79C56873
:10090000B2402A43C2605B1C102BB3D3F0BD4B072F
:10091000DB0E9A40C90810B500EB8100016A0F2474
:100920009C40A1430162016A1143016210BDFEE7D0
:1009300030B5002405462146204600F067F94FF007
:10094000D841222048804FF496308D80641C844228
:10095000FBD330BD7CB501213C2000F0BFF9012163
:10096000402000F0BBF94CF23370022400908DF867
:1009700004408DF8054000208DF80600404D8DF8AC
:10098000070069462846FFF771FF0C220021284620
:10099000FFF7BDFF0C2201212846FFF7B8FF0C220C
:1009A00004212846FFF7B3FF0C2205212846FFF754
:1009B000AEFF0C2208212846FFF7A9FF0C220921CF
:1009C0002846FFF7A4FF0C220A212846FFF79FFFC5
:1009D0000C220E212846FFF79AFF0C220F212846F1
:1009E000FFF795FF4FF68070264D00906946284628
:1009F000FFF73CFF0C2207212846FFF788FF0C2257
:100A000008212846FFF783FF0C2209212846FFF71B
:100A10007EFF0C220A212846FFF779FF0C220B21CA
:100A20002846FFF774FF0C2211462846FFF76FFF98
:100A30000C220D212846FFF76AFF0C220E212846C2
:100A4000FFF765FF0C220F212846FFF760FFE00249
:100A50000D4D009069462846FFF708FF0C2211460D
:100A60002846FFF754FF0094084C69462046FFF7DC
:100A7000FDFE0C2201212046FFF749FF7CBD00004E
:100A8000000C024000100240001802400014024016
:100A900001B5009801E0401E00900028FBD108BD80
:100AA0002DE9F04115468846064600240A4F0BE022
:100AB000B86841460379304600F016F8B868641CFF
:100AC0006D1C8088304486B22A78002A01D0282CF8
:100AD000EED3BDE8F08100002800002003460A465E
:100AE00000201946FFF7DCBF2DE9F04700258246BC
:100AF000CEB2202A47D3A2F12000C0B2802A42D22F
:100B0000224CA2681368D288424303EB4207504646
:100B100000F07CF84FF0D84931E022204B46A9F88C
:100B20000200002021E000BF4FF00C0CB1FBFCFCE8
:100B30004FEACC084FF0800C0CFA08FC37F815800F
:100B40004CFA00FC1CEA080F01D10C2908D94FF01F
:100B5000010C0CFA00FC18EA0C0F03D10C2901D986
:100B6000A18800E061889980401C91888142DBD88F
:100B7000761CF6B23146504600F048F86D1CA2686B
:100B8000D088A842C9D8BDE8F0870000280000201E
:100B900000B5012197B0084600F0ACF801218803A8
:100BA00000F0CCF801200F9000200921CDE91001C0
:100BB000149006211590CDE9001012901021CDE976
:100BC0000201139004900590069009020790CDE968
:100BD00008010A900B900C900FA80D900E9068469B
:100BE000FFF7E0FD01210620FFF7CCFD17B000BDA7
:100BF00001488068704700002800002001B5BDF85A
:100C000000000149888008BD2800002010B5044676
:100C10004E2000F015F82146BDE810404F2000F0AE
:100C20000FB80000014988607047000028000020CC
:100C300001B5BDF800000149488008BD280000202A
:100C400003B5BDF800204FF0D840428081800CBD34
:100C5000FEE7704708B514208DF8000000208DF8DD
:100C600001008DF8020001208DF80300684600F0B5
:100C700001F808BD30B50F22C47801780123FCB11A
:100C8000144C246801F1E02104F4E064C4F5E0644C
:100C9000C4F30724C4F10405E2404478AC408578ED
:100CA000154025432A0181F80024007800F01F0137
:100CB0008B404009800000F1E020C0F8003130BDD9
:100CC00001F01F0083404809800000F1E020C0F8D7
:100CD000803130BD0CED00E070470000044A00296F
:100CE000116801D0014300E08143116070470000AA
:100CF00030380240044A0029116801D0014300E065
:100D0000814311607047000038380240044A0029CE
:100D1000116801D0014300E0814311607047000079
:100D200040380240044A0029116801D0014300E024
:100D3000814311607047000020380240044A0029B6
:100D4000116801D0014300E0814311607047000049
:100D5000443802402DE9F047FFF7FCFDFFF718FF8C
:100D6000DD48FFF795FE01210020FFF769FF0A200B
:100D7000FFF78EFE4AF6A4010320FFF761FF0A2069
:100D8000FFF786FE00210C20FFF75AFF0A20FFF72D
:100D90007FFE40F60C010D20FFF752FF0A20FFF7FF
:100DA00077FE4FF42C510E20FFF74AFF0A20FFF781
:100DB0006FFEB0211E20FFF743FF0A20FFF768FEF9
:100DC00046F63F310120FFF73BFF0A20FFF760FEA8
:100DD0004FF4C06421460220FFF732FF0A20FFF7DC
:100DE00057FE00211020FFF72BFF0A20FFF750FECF
:100DF00046F268011120FFF723FF0A20FFF748FEA3
:100E000000210520FFF71CFF0A20FFF741FE00210B
:100E10000620FFF715FF0A20FFF73AFE4EF61C7179
:100E20001620FFF70DFF0A20FFF732FE03211720DF
:100E3000FFF706FF0A20FFF72BFE40F233210720C1
:100E4000FFF7FEFE0A20FFF723FE00210B20FFF72D
:100E5000F7FE0A20FFF71CFE00210F20FFF7F0FE2F
:100E60000A20FFF715FE00214120FFF7E9FE0A20C6
:100E7000FFF70EFE00214220FFF7E2FE0A20FFF7F7
:100E800007FE00214820FFF7DBFE0A20FFF700FEE7
:100E900040F23F1529464920FFF7D2FE0A20FFF70E
:100EA000F7FD00214A20FFF7CBFE0A20FFF7F0FDF7
:100EB00000214B20FFF7C4FE0A20FFF7E9FD4FF4A5
:100EC0006F4841464420FFF7BBFE0A20FFF7E0FDD4
:100ED00000214520FFF7B4FE0A20FFF7D9FD29467F
:100EE0004620FFF7ADFE0A20FFF7D2FD40F207795A
:100EF00049463020FFF7A4FE0A20FFF7C9FD4FF452
:100F0000017631463120FFF79BFE0A20FFF7C0FD36
:100F100031463220FFF794FE0A20FFF7B9FD40F278
:100F2000025739463320FFF78BFE0A20FFF7B0FD4A
:100F3000791D3420FFF784FE0A20FFF7A9FD314612
:100F40003520FFF77DFE0A20FFF7A2FD314636204F
:100F5000FFF776FE0A20FFF79BFD39463720FFF7A3
:100F60006FFE0A20FFF794FD40F2023631463A2028
:100F7000FFF766FE0A20FFF78BFD31463B20FFF7A7
:100F80005FFE0A20FFF784FD00212320FFF758FEB3
:100F90000A20FFF77DFD00212420FFF751FE0A20E3
:100FA000FFF776FD4FF400412520FFF749FE0A20A8
:100FB000FFF76EFD00214F20FFF742FE0A20FFF7EA
:100FC00067FD00214E20FFF73BFE0A20FFF760FD82
:100FD0004FF0D8412220488001210020FFF730FE49
:100FE00021460220FFF72CFE07210C20FFF728FEE8
:100FF00006210D20FFF724FE4FF448510E20FFF785
:101000001FFEBB211E20FFF71BFE46F664210320B6
:10101000FFF716FE00210F20FFF712FE4146442085
:10102000FFF70EFE00214520FFF70AFE2946462065
:10103000FFF706FE00213020FFF702FE40F20671A6
:101040003120FFF7FDFD40F206213220FFF7F8FDC9
:1010500061103320FFF7F4FD02213420FFF7F0FD8B
:1010600000213520FFF7ECFD49463620FFF7E8FD6B
:101070004FF400713720FFF7E3FD40F608113A20E6
:10108000FFF7DEFD40F60D713B20FFF7D9FD06218D
:101090002820FFF7D5FD41F2EB212F20FFF7D0FDEF
:1010A0004FF4E0412620FFF7CBFD4BF2E301202077
:1010B000FFF7C6FD44212720FFF7C2FD47F6456133
:1010C0002E20FFF7BDFD00211020FFF7B9FDBDE880
:1010D000F0470A20FFF7DCBC400D03001CB50446B6
:1010E0000D48012150F82400FFF7F8FD0A48694631
:1010F000103830F81400009001208DF804008DF8AD
:1011000006008DF8070002208DF80500034850F80E
:101110002400FFF7ABFB1CBDF414000818000020EE
:101120000349044A31F8101052F820000183704737
:10113000E414000818000020704700000CB50021DE
:10114000214801910091026842F4803202604FF41C
:10115000A063026802F400320092019A521C0192CC
:10116000009A12B9019A9A42F3D10268920329D5E2
:1011700001210091144908310A680A600A6842F4A2
:1011800000420A600A6842F4A0520A600B1F0F4A2C
:101190001A60026842F08072026002689201FCD517
:1011A0000B4A40F203701060086820F003000860EA
:1011B000086840F0020008600868C0F38100022857
:1011C000FAD10CBD00910CBD00380240193C40051D
:1011D000003C0240704700000F4810B5016841F024
:1011E000010101600C4A00210832116002680B4BBA
:1011F0001A400260031D0A4A1A60026822F4802223
:10120000026005480C300160FFF798FF05494FF078
:101210000060086010BD000000380240FFFFF6FECD
:101220001030002408ED00E0FEE700000FB4084B8A
:1012300010B504A902AA039800F01CF8044602A9FC
:10124000002000F0C1F8204610BC5DF814FB00003F
:10125000C913000802E008C8121F08C1002AFAD109
:1012600070477047002001E001C1121F002AFBD126
:10127000704700002DE9FF4F89B09B4604460025CA
:1012800006E025280BD05A460B999047641C6D1C2C
:1012900020780028F5D10DB02846BDE8F08F002752
:1012A000B8460122474900E0074314F8013F203BBC
:1012B00002FA03F00842F7D120782E2819D114F849
:1012C000010F47F004072A280ED06FF02F02207874
:1012D000A0F1300109290CD808EB880102EB41018B
:1012E00000EB0108641CF2E70A98641C50F8048BB8
:1012F0000A9020780028CED0642808D0692806D02B
:1013000075281ED05A460B9990476D1C58E00A99D3
:101310004FF00A0901C90A91002802DA40422D2142
:1013200002E0390504D52B218DF82010012103E0BE
:10133000F90704D02021F7E78A4608AE0DE0002126
:10134000FAE70A994FF00A0901C90A91F7E74946F5
:10135000FEF746FF303106F8011D0028F7D1ADEB4E
:10136000060000F12009780701D44FF00108C845B4
:1013700002DDA8EB090000E000208046002706E01F
:1013800008A85A46C05D0B9990476D1C7F1C5745B5
:10139000F6DB04E030205A460B9990476D1CB8F1FB
:1013A0000001A8F10108F5DC05E016F8010B5A462A
:1013B0000B9990476D1CB9F10001A9F10109F4DC0A
:1013C000641C65E7092801000A68531C0B60107053
:1013D000704743F6982148434FF0E02148610020D0
:1013E000886101220A610A69D30701D0D203FAD5C4
:1013F00008618861704700008EB00024342168467F
:10140000FEF7E3FEFFF726FC0020FFF767FE012052
:10141000FFF764FE0220FFF761FE0320FFF75EFE88
:101420000020FFF77DFE0120FFF77AFE0220FFF784
:1014300077FE0320FFF774FEFFF750F9FEF746FF33
:10144000124D134E4FF47A77EC7210493046FFF785
:10145000F1F8641CE4B222460EA16846FFF7E6FEEE
:10146000FFF7C6FBC0880FA100EB400080B2FFF77A
:1014700035FBFFF7BDFBC088694600EB400080B23A
:10148000FFF72CFB3846FFF7A4FFDDE788000020BC
:10149000006400402053656E642044617461203D07
:1014A0002025640020202020202020202020202013
:1014B000202020202020202020202020202000006C
:1014C000090A070706000F00280600020004008032
:1014D0000100008001000000100000000100000079
:1014E00001000000400080000002000440000000F5
:1014F000010000002000000020000000200000008B
:1015000020000000000000000000000000000000BB
:1015100000000000000000000000000000000000CB
:1015200000000000000000000000000000000000BB
:101530000000000000008001800180018001800126
:101540008001800180018001800180018001800193
:101550000000000080018001000000000000000089
:101560000000000000000000CC00CC00CC00CC004B
:10157000CC00CC00000000000000000000000000D3
:10158000000000000000000000000000000000005B
:10159000000000000000000000000000000000004B
:1015A000600C600C600C30063006FE1FFE1F30061B
:1015B00038071803FE1FFE1F180318038C018C0147
:1015C0008C01000000008000E003F80F9C0E8C1CD2
:1015D0008C188C009800F801E007800E801C8C1895
:1015E0008C189C18B80CF00FE003800080000000FD
:1015F000000000000000000000000E181B0C110C81
:1016000011061106110311039B018E01C038C06C35
:1016100060446044304430441844186C0C38000076
:10162000000000000000E001F0033807180618066B
:101630003003F001F000F8009C310E33061E061C4A
:10164000061C063FFC73F0210000000000000000B3
:1016500000000000000000000C000C000C000C005A
:101660000C000C0000000000000000000000000062
:10167000000000000000000000000000000000006A
:10168000000000000000000200038001C000C00054
:10169000600060003000300030003000300030006A
:1016A0003000300060006000C000C0008001000316
:1016B00000020000000020006000C00080018001E6
:1016C00000030003000600060006000600060006F0
:1016D000000600060003000380018001C0006000D6
:1016E00020000000000000000000000000000000DA
:1016F000C000C000D806F807E0013003380700003A
:1017000000000000000000000000000000000000D9
:1017100000000000000000000000000000000000C9
:1017200080018001800180018001FC3FFC3F80013D
:1017300080018001800180010000000000000000A5
:101740000000000000000000000000000000000099
:101750000000000000000000000000000000000089
:1017600000000000000080018001000100018000F5
:101770000000000000000000000000000000000069
:10178000000000000000000000000000E007E0078B
:101790000000000000000000000000000000000049
:1017A0000000000000000000000000000000000039
:1017B0000000000000000000000000000000000029
:1017C000000000000000C000C00000000000000099
:1017D000000000000000000C000C000600060006DF
:1017E0000003000300038003800180018001C0002A
:1017F000C000C000600060000000000000000000A9
:10180000000000000000E003F007380E180C0C1870
:101810000C180C180C180C180C180C180C180C18A8
:10182000180C380EF007E003000000000000000074
:1018300000000000000000018001C001F0019801DB
:101840008801800180018001800180018001800188
:101850008001800180018001000000000000000084
:10186000000000000000E003F80F180C0C180C1822
:1018700000180018000C000600038001C000600082
:1018800030001800FC1FFC1F0000000000000000DA
:10189000000000000000E001F807180E0C0C0C0C12
:1018A000000C0006C003C007000C001800180C183C
:1018B0000C18180CF807E0030000000000000000FE
:1018C000000000000000000C000E000F000F800D53
:1018D000C00C600C600C300C180C0C0CFC3FFC3F76
:1018E000000C000C000C000C0000000000000000C8
:1018F000000000000000F80FF80F180018000C009E
:10190000EC03FC071C0E001C0018001800180C1833
:101910001C0C180EF807E003000000000000000097
:10192000000000000000C007F00F381C1818180055
:101930000C00CC03EC0F3C0E1C1C0C180C180C18E3
:10194000181C380EF007E003000000000000000043
:10195000000000000000FC1FFC1F000C0006000639
:10196000000380038001C001C000E000600060004F
:101970007000300030003000000000000000000067
:10198000000000000000E003F007380E180C180CEF
:10199000180C3806F007F007180C0C180C180C1867
:1019A0000C18380CF80FE0030000000000000000E5
:1019B000000000000000E003F007380E1C0C0C18BB
:1019C0000C180C181C1C381EF81BE0190018000C11
:1019D000000C1C0EF807F0010000000000000000E1
:1019E00000000000000000000000000000000000F7
:1019F00080018001000000000000000000000000E5
:101A000000000000800180010000000000000000D4
:101A100000000000000000000000000000000000C6
:101A200080018001000000000000000000000000B4
:101A30000000000080018001000100018000000022
:101A40000000000000000000000000000000000096
:101A5000000000000010001C800FE003F8001800D8
:101A6000F800E003800F001C0010000000000000E0
:101A70000000000000000000000000000000000066
:101A800000000000F81F000000000000F81F000028
:101A90000000000000000000000000000000000046
:101AA0000000000000000000000000000000000036
:101AB0000000000008003800F001C007001F0018F7
:101AC000001FC007F00138000800000000000000FF
:101AD000000000000000E003F80F180C0C180C18B0
:101AE0000018000C000600038001C000C000C00008
:101AF00000000000C000C000000000000000000066
:101B00000000000000000000E00718180420C229AF
:101B1000224A114409440944094409221113E20CE0
:101B2000024004201818E007000000000000000038
:101B300000000000000080038003C006C006C0064D
:101B4000600C600C301830183018F83FF83F1C70EB
:101B50000C600C6006C006C0000000000000000021
:101B6000000000000000FC03FC0F0C0C0C180C180B
:101B70000C180C0CFC07FC0F0C180C300C300C3043
:101B80000C300C18FC1FFC070000000000000000D7
:101B9000000000000000C007F01F38381C300C7037
:101BA0000660060006000600060006000600066045
:101BB0000C701C30F01FE007000000000000000067
:101BC000000000000000FE03FE0F060E06180618B7
:101BD000063006300630063006300630063006186D
:101BE0000618060EFE0FFE030000000000000000B5
:101BF000000000000000FC3FFC3F0C000C000C004B
:101C00000C000C00FC1FFC1F0C000C000C000C0056
:101C10000C000C00FC3FFC3F000000000000000036
:101C2000000000000000F83FF83F180018001800FE
:101C300018001800F81FF81F1800180018001800E6
:101C40001800180018001800000000000000000034
:101C5000000000000000E00FF83F3C780E6006E056
:101C600007C00300030003FE03FE03C007C006C055
:101C70000EC03CF0F83FE00F000000000000000044
:101C80000000000000000C300C300C300C300C3028
:101C90000C300C30FC3FFC3F0C300C300C300C3066
:101CA0000C300C300C300C30000000000000000044
:101CB000000000000000800180018001800180019F
:101CC000800180018001800180018001800180010C
:101CD0008001800180018001000000000000000000
:101CE00000000000000000060006000600060006D6
:101CF000000600060006000600060006000618069C
:101D000018063807F003E0010000000000000000A2
:101D100000000000000006300618060C0606060348
:101D20008601C60066007600DE008E010603060608
:101D3000060C0618063006600000000000000000D7
:101D4000000000000000180018001800180018001B
:101D500018001800180018001800180018001800C3
:101D600018001800F81FF81F000000000000000015
:101D70000000000000000EE01EF01EF01EF036D83D
:101D800036D836D836D866CC66CC66CCC6C6C6C67B
:101D9000C6C6C6C686C386C3000000000000000099
:101DA0000000000000000C301C303C303C306C3037
:101DB0006C30CC30CC308C310C330C330C360C36D0
:101DC0000C3C0C3C0C380C30000000000000000003
:101DD000000000000000E007F81F1C380E700660CD
:101DE00003C003C003C003C003C003C003C0066038
:101DF0000E701C38F81FE007000000000000000013
:101E0000000000000000FC0FFC1F0C380C300C30F0
:101E10000C300C300C18FC1FFC070C000C000C00E4
:101E20000C000C000C000C00000000000000000082
:101E3000000000000000E007F81F1C380E7006606C
:101E400003E003C003C003C003C003C007E0066390
:101E50000E3F1C3CF83FE0F700C00000000000000F
:101E6000000000000000FE0FFE1F0638063006309E
:101E700006300638FE1FFE0706030606060C061887
:101E80000618063006300660000000000000000062
:101E9000000000000000E003F80F1C0C0C180C18E8
:101EA0000C001C00F803E00F001E0038063006305E
:101EB0000E301C1CF80FE0070000000000000000BE
:101EC000000000000000FE7FFE7F80018001800195
:101ED00080018001800180018001800180018001FA
:101EE00080018001800180010000000000000000EE
:101EF0000000000000000C300C300C300C300C30B6
:101F00000C300C300C300C300C300C300C300C30F1
:101F10000C301818F81FE007000000000000000057
:101F200000000000000003600630063006300C1888
:101F30000C180C18180C180C380E300630067007E8
:101F400060036003C001C001000000000000000049
:101F50000000000000000360C361C361C361663319
:101F6000663366336633663366336C1B6C1B6C1BDF
:101F70002C1A3C1E380E380E000000000000000035
:101F80000000000000000FE00C7018303018700CDA
:101F9000600EC00780038003C003E006700C301C95
:101FA00018180C300E6007E0000000000000000070
:101FB00000000000000003C006600C301C38381818
:101FC000300C6006E007C0038001800180018001C1
:101FD00080018001800180010000000000000000FD
:101FE000000000000000FC7FFC7F00600030001853
:101FF000000C000600038001C000600030001800E3
:102000000C000600FE7FFE7F0000000000000000C4
:10201000000000000000E003E003600060006000DA
:1020200060006000600060006000600060006000B0
:102030006000600060006000600060006000E0031D
:10204000E00300000000300030006000600060002D
:10205000C000C000C000C0018001800180010003F9
:10206000000300030006000600000000000000005E
:10207000000000000000E003E00300030003000391
:102080000003000300030003000300030003000338
:102090000003000300030003000300030003E00348
:1020A000E003000000000000C001C0016003600305
:1020B000600330063006180C180C00000000000009
:1020C0000000000000000000000000000000000010
:1020D0000000000000000000000000000000000000
:1020E00000000000000000000000000000000000F0
:1020F000000000000000FFFFFFFF000000000000E4
:102100000000000000000C000C000C000C000C0093
:102110000C000000000000000000000000000000B3
:1021200000000000000000000000000000000000AF
:10213000000000000000000000000000000000009F
:10214000F003F8071C0C0C0C000FF00FF80C0C0C33
:102150000C0C1C0FF80FF01800000000000000002D
:1021600000000000000018001800180018001800F7
:10217000D803F80F380C1818181818181818181849
:102180001818380CF80FD8030000000000000000F9
:10219000000000000000000000000000000000003F
:1021A000C003F007300E180C1800180018001800B3
:1021B000180C300EF007C003000000000000000003
:1021C0000000000000000018001800180018001897
:1021D000C01BF01F301C18181818181818181818D9
:1021E0001818301CF01FC01B000000000000000089
:1021F00000000000000000000000000000000000DF
:10220000C003F00F300C1818F81FF81F1800180042
:102210003818301CF00FC00700000000000000005C
:10222000000000000000800FC00FC000C000C00010
:10223000F007F007C000C000C000C000C000C00030
:10224000C000C000C000C00000000000000000008E
:10225000000000000000000000000000000000007E
:10226000E00DF80F180E0C0C0C0C0C0C0C0C0C0CDC
:102270000C0C180EF80FE00D000C0C0C1C06F807E7
:10228000F0010000000018001800180018001800E5
:10229000D807F80F381C1818181818181818181814
:1022A000181818181818181800000000000000006E
:1022B000000000000000C000C0000000000000009E
:1022C000C000C000C000C000C000C000C000C0000E
:1022D000C000C000C000C0000000000000000000FE
:1022E000000000000000C000C0000000000000006E
:1022F000C000C000C000C000C000C000C000C000DE
:10230000C000C000C000C000C000C000C000F80095
:102310007800000000000C000C000C000C000C0009
:102320000C0C0C060C038C01CC006C00FC009C0116
:102330008C030C030C060C0C0000000000000000D5
:10234000000000000000C000C000C000C000C000CD
:10235000C000C000C000C000C000C000C000C0007D
:10236000C000C000C000C00000000000000000006D
:10237000000000000000000000000000000000005D
:102380007C3CFF7EC7E383C183C183C183C183C11A
:1023900083C183C183C183C100000000000000002D
:1023A000000000000000000000000000000000002D
:1023B0009807F80F381C1818181818181818181833
:1023C000181818181818181800000000000000004D
:1023D00000000000000000000000000000000000FD
:1023E000C003F00F300C18181818181818181818FF
:1023F0001818300CF00FC0030000000000000000AF
:1024000000000000000000000000000000000000CC
:10241000D803F80F380C18181818181818181818A6
:102420001818380CF80FD8031800180018001800F6
:102430001800000000000000000000000000000084
:10244000C01BF01F301C1818181818181818181866
:102450001818301CF01FC01B0018001800180018B6
:102460000018000000000000000000000000000054
:10247000B007F00370003000300030003000300052
:10248000300030003000300000000000000000008C
:10249000000000000000000000000000000000003C
:1024A000E003F003380E180C3800F003C007000CEE
:1024B000180C380EF007E0030000000000000000D8
:1024C00000000000000000008000C000C000C0004C
:1024D000F007F007C000C000C000C000C000C0008E
:1024E000C000C000C007800700000000000000001E
:1024F00000000000000000000000000000000000DC
:10250000181818181818181818181818181818184B
:102510001818381CF01FE01900000000000000002F
:1025200000000000000000000000000000000000AB
:102530000C18180C180C180C300630063006600306
:1025400060036003C001C001000000000000000043
:10255000000000000000000000000000000000007B
:10256000C141C141C3616363636363633636363619
:1025700036361C1C1C1C1C1C000000000000000047
:10258000000000000000000000000000000000004B
:102590001C38381C300C6006600360036003600365
:1025A0006006300C381C1C380000000000000000E1
:1025B000000000000000000000000000000000001B
:1025C0001830301830187018600C600CE00CC00621
:1025D000C00680038003800380018001C001F000F9
:1025E000700000000000000000000000000000007B
:1025F000FC1FFC1F000C000600038001C0006000EF
:1026000030001800FC1FFC1F00000000000000004C
:1026100000000000000000038001C000C000C000F6
:10262000C000C000C00060006000300060004000DA
:10263000C000C000C000C000C000C0008001000396
:102640000000000000008001800180018001800105
:102650008001800180018001800180018001800172
:102660008001800180018001800180018001800162
:102670008001000000006000C000C00180018001F6
:1026800080018001800100030003000600030001B7
:10269000800180018001800180018001C000600014
:1026A000000000000000000000000000000000002A
:1026B00000000000F010F81F080F000000000000EC
:1026C000000000000000000000000000000000000A
:1026D00000000000000000000000000000000000FA
:1026E00000000000000000000000000000000000EA
:1026F000000010001000100010001000100000007A
:102700001000000000000000000028002800280041
:1027100000000000000000000000000000000000B9
:102720000000140014003E00140028007C00280063
:102730002800000000000000100038005400500085
:10274000380014001400540038001000000000008D
:1027500000004400A800A800500014001A002A003D
:102760002400000000000000000020005000500085
:102770002000E800980098006000000000000000C1
:1027800000008000800080000000000000000000C9
:1027900000000000000000000000400080008000F9
:1027A0008000800080008000800080000000000029
:1027B0000000800040004000400040004000400019
:1027C000400040000000000000004000E000400029
:1027D000A000000000000000000000000000000059
:1027E00000000000000020002000F8002000200071
:1027F00000000000000000000000000000000000D9
:102800000000000000000000400040000000000048
:10281000000000000000000000000000C0000000F8
:1028200000000000000000000000000000000000A8
:102830000000000000000000400000000000000058
:1028400000002000200020004000400080008000A8
:102850008000000000000000000060009000900078
:1028600090009000900090006000000000000000C8
:10287000000020006000A0002000200020002000B8
:102880002000000000000000000060009000100028
:102890001000200040008000F00000000000000058
:1028A0000000600090001000600010001000900018
:1028B0006000000000000000000010003000500028
:1028C00050009000F8001000100000000000000010
:1028D0000000700040008000E00010001000900038
:1028E0006000000000000000000060009000800018
:1028F000A000D000900090006000000000000000E8
:102900000000F000100020002000200040004000E7
:1029100040000000000000000000600090009000F7
:102920006000900090009000600000000000000037
:102930000000600090009000B00050001000900077
:1029400060000000000000000000000000004000E7
:102950000000000000000000400000000000000037
:102960000000000000004000000000000000000027
:1029700040004000000000000000000000001000C7
:1029800060008000600010000000000000000000F7
:102990000000000000000000F0000000F000000057
:1029A00000000000000000000000000000008000A7
:1029B00060001000600080000000000000000000C7
:1029C0000000600090001000200040004000000067
:1029D000400000000000000000001C0022005B001E
:1029E000A500A500A500A5009E0041000000000074
:1029F000000020005000500050005000700088007F
:102A000088000000000000000000F000880088003E
:102A1000F000880088008800F0000000000000003E
:102A200000003800440084008000800084004400DE
:102A300038000000000000000000E0009000880066
:102A40008800880088009000E0000000000000007E
:102A50000000F80080008000F80080008000800006
:102A6000F800000000000000000078004000400076
:102A700070004000400040004000000000000000E6
:102A8000000038004400840080009C008400440062
:102A90003800000000000000000088008800880066
:102AA000F80088008800880088000000000000000E
:102AB0000000800080008000800080008000800096
:102AC0008000000000000000000010001000100056
:102AD0001000100090009000600000000000000056
:102AE000000088009000A000E000A000900090008E
:102AF00088000000000000000000800080008000CE
:102B00008000800080008000F000000000000000D5
:102B100000008200C600C600AA00AA00AA00AA00FF
:102B2000920000000000000000008400C400A40027
:102B3000A400940094008C008400000000000000B9
:102B400000003000480084008400840084004800B5
:102B500030000000000000000000F0008800880045
:102B60008800F0008000800080000000000000006D
:102B70000000300048008400840084008400580075
:102B8000340004000000000000007800440044000D
:102B9000780050004800440042000000000000009F
:102BA0000000700088008000700008008800880025
:102BB00070000000000000000000F800200020006D
:102BC0002000200020002000200000000000000065
:102BD0000000840084008400840084008400480095
:102BE0003000000000000000000088008800500055
:102BF0005000500050005000200000000000000075
:102C000000009200AA00AA00AA00AA00AA00AA0036
:102C1000440000000000000000008400480048005C
:102C20003000300048004800840000000000000030
:102C300000008800500050002000200020002000EC
:102C400020000000000000000000F8000800100054
:102C50002000200040008000F8000000000000007C
:102C60000000C000800080008000800080008000A4
:102C70008000800000000000000080008000400014
:102C80004000400040002000200000000000000044
:102C90000000C000400040004000400040004000F4
:102CA000400040000000000000004000A000A00024
:102CB000A000000000000000000000000000000074
:102CC0000000000000000000000000000000000004
:102CD0000000F8000000000000008000400000003C
:102CE00000000000000000000000000000000000E4
:102CF000000000000000E000100070009000900054
:102D00007000000000000000000080008000A000B3
:102D1000D00090009000D000A00000000000000053
:102D20000000000000006000900080008000900023
:102D300060000000000000000000100010005000C3
:102D4000B00090009000B0005000000000000000B3
:102D500000000000000060009000F0008000900083
:102D600060000000000000000000C0008000C00003
:102D700080008000800080008000000000000000D3
:102D80000000000000005000B00090009000B00073
:102D90005000100000000000000080008000A00033
:102DA000D000900090009000900000000000000013
:102DB0000000800000008000800080008000800013
:102DC0008000000000000000000080000000800083
:102DD00080008000800080008000800000000000F3
:102DE0000000800080009000A000C000A0009000C3
:102DF00090000000000000000000800080008000C3
:102E00008000800080008000800000000000000042
:102E1000000000000000A600DA009200920092007C
:102E20009200000000000000000000000000A00070
:102E3000D000900090009000900000000000000082
:102E400000000000000060009000900090009000E2
:102E50006000000000000000000000000000A00072
:102E6000D00090009000D000A00080000000000082
:102E70000000000000005000B00090009000B00082
:102E80005000100000000000000000000000A00042
:102E9000C000800080008000800000000000000072
:102EA000000000000000E0009000400020009000C2
:102EB0006000000000000000000080008000C000F2
:102EC0008000800080008000C00000000000000042
:102ED0000000000000009000900090009000B00002
:102EE000500000000000000000000000000088000A
:102EF000880050005000500020000000000000003A
:102F00000000000000009200AA00AA00AA00AA0087
:102F100044000000000000000000000000008800E5
:102F20005000200020005000880000000000000039
:102F300000000000000088005000500050002000F9
:102F40002000200000000000000000000000F00051
:102F50001000200040008000F00000000000000091
:102F60000000C00080008000800000008000800021
:102F700080008000000000000000800080008000D1
:102F80008000800080008000800080000000000041
:102F90000000C00040004000400020004000400011
:102FA00040004000000000000000000000000000A1
:102FB000E800B00000000000000000000000000079
:102FC00000000000E000A000A000A000A000A00001
:102FD000E0000000F42F0008000000204400000082
:102FE0005412000838300008440000205C0400003F
:102FF000641200080010014000000240000002407E
:1030000000000000001802400000024000140240CE
:1030100000140240001402400014024000000000AE
:10302000FFFF000000000000041500081000180059
:08303000D426000808000C0082
:040000050800018569
:00000001FF
