:020000040800F2
:100000001804002099010008950A00088F030008D1
:10001000930A0008E1010008510F000800000000E9
:10002000000000000000000000000000690E000851
:10003000E301000800000000970A0008050F00080F
:10004000B3010008B3010008B3010008B3010008C0
:10005000B3010008B3010008B3010008B3010008B0
:10006000B3010008B3010008B3010008B3010008A0
:10007000B3010008B3010008B3010008B301000890
:10008000B3010008B3010008B3010008B301000880
:10009000B3010008B3010008B3010008B301000870
:1000A000B3010008B3010008B3010008B301000860
:1000B000B3010008B3010008B3010008B301000850
:1000C000B3010008B3010008B3010008B301000840
:1000D000B3010008B3010008B3010008B301000830
:1000E000B3010008B3010008B3010008B301000820
:1000F000B3010008B3010008B3010008B301000810
:10010000B3010008B3010008B3010008B3010008FF
:10011000B3010008B3010008B3010008B3010008EF
:10012000B3010008B3010008B3010008B3010008DF
:10013000B3010008B3010008B3010008B3010008CF
:10014000B3010008B3010008B3010008B3010008BF
:10015000B3010008B3010008B3010008B3010008AF
:10016000B3010008B3010008B3010008B30100089F
:10017000B3010008B3010008B3010008B30100088F
:10018000B3010008DFF80CD000F018F80048004771
:10019000D110000818040020064880470648004790
:1001A000FEE7FEE7FEE7FEE7FEE7FEE7FEE7FEE727
:1001B000FEE7FEE7090F000885010008064C074D21
:1001C00006E0E06840F0010394E807009847103427
:1001D000AC42F6D3FFF7DAFFD8730208F8730208CF
:1001E000FEE770478000A0F1C0400029016802D0FE
:1001F00041F0010101E0024A114001607047000036
:10020000FEFF0F0010B5D0E901121143D0E903231E
:100210001A4311434269114382691143C269114370
:10022000026A1143426A1143826A1143C26A11434E
:10023000026B114302689200A2F1C0421160816812
:10024000082907D101688900A1F1C0410A6842F07C
:1002500040020A60416BD1E9002342EA03128B6835
:100260008C891B0243EA04431A430B8A42EA035275
:100270000B7D896942EA03620A4301688900A1F1A2
:10028000C0414A60C16AB1F5804F08D000686FF084
:1002900070418000A0F1C040C0F8041110BD816B16
:1002A000D1E9002342EA03128B680C8A1B0243EA5D
:1002B00004531A430B7D896942EA036200680A43CA
:1002C0008000A0F1C040C0F8042110BDF0B50023AB
:1002D000012403270D6804FA03F21540954242D128
:1002E000D0F800C05E0007FA06F52CEA050CC0F84D
:1002F00000C091F804C0D0F800E00CFA06FC4CEA0B
:100300000E0CC0F800C091F804C0BCF1010F02D07F
:10031000BCF1020F1FD1D0F808C02CEA050CC0F8C0
:1003200008C091F805C0D0F808E00CFA06FC4CEAC9
:100330000E0CC0F808C0D0F804C02CEA020CC0F8BB
:1003400004C0426891F806C00CFA03FC1FFA8CFC4A
:1003500042EA0C024260C268AA43C260CA79C56818
:10036000B2402A43C2605B1C102BB3D3F0BD4B07D5
:10037000DB0E9A40C90810B500EB8100016A0F241A
:100380009C40A1430162016A1143016210BDFEE776
:100390002DE9FC4F1646DDF82CA01F460D460446FD
:1003A0001FFA8AF200F088FAB44201D1BD4243D06C
:1003B0004FF00008A64201D3311B00E0A11BAF4261
:1003C00001D3781B00E0E81B81420ADA22462C4662
:1003D000154632463E4617468AB201464FF001089E
:1003E00010464FF0FF32A64201D9012300E0134628
:1003F0009B46AF4200D901224FEA4009401A400013
:10040000CDE90002A9EB010714E0002F01DA4F4407
:1004100003E00198054400980744B8F1000F1FFA63
:100420008AF202D0A1B2A8B201E0A9B2A0B200F053
:1004300043FA5C44B442E8D1BDE8FC8F30B50024F7
:1004400005462146204600F0EDFA4FF0D841222023
:1004500048804FF496308D80641C8442FBD330BDBD
:100460007CB501213C2000F017FB0121402000F069
:1004700013FB4CF23370022400908DF804408DF889
:10048000054000208DF80600404D8DF807006946B4
:100490002846FFF71BFF0C2200212846FFF767FFC5
:1004A0000C2201212846FFF762FF0C220421284676
:1004B000FFF75DFF0C2205212846FFF758FF0C22AD
:1004C00008212846FFF753FF0C2209212846FFF791
:1004D0004EFF0C220A212846FFF749FF0C220E216D
:1004E0002846FFF744FF0C220F212846FFF73FFF65
:1004F0004FF68070264D009069462846FFF7E6FECD
:100500000C2207212846FFF732FF0C22082128463B
:10051000FFF72DFF0C2209212846FFF728FF0C22A8
:100520000A212846FFF723FF0C220B212846FFF75C
:100530001EFF0C2211462846FFF719FF0C220D2141
:100540002846FFF714FF0C220E212846FFF70FFF65
:100550000C220F212846FFF70AFFE0020D4D009004
:1005600069462846FFF7B2FE0C2211462846FFF7DF
:10057000FEFE0094084C69462046FFF7A7FE0C22B9
:1005800001212046FFF7F3FE7CBD0000000C024075
:1005900000100240001802400014024001B500980B
:1005A00001E0401E00900028FBD108BD2DE9F0417C
:1005B00015468846064600240A4F0BE0B8684146B7
:1005C0000379304600F010F8B868641C6D1C808810
:1005D000304486B22A78002A01D0282CEED3BDE818
:1005E000F0810000080000202DE9F0470025824638
:1005F000CEB2202A47D3A2F12000C0B2802A42D234
:10060000224CA2681368D288424303EB420750464B
:1006100000F008FA4FF0D84931E022204B46A9F803
:100620000200002021E000BF4FF00C0CB1FBFCFCED
:100630004FEACC084FF0800C0CFA08FC37F8158014
:100640004CFA00FC1CEA080F01D10C2908D94FF024
:10065000010C0CFA00FC18EA0C0F03D10C2901D98B
:10066000A18800E061889980401C91888142DBD894
:10067000761CF6B23146504600F0D4F96D1CA268E3
:10068000D088A842C9D8BDE8F08700000800002043
:100690002DE9FF4F1F4691460024CEB2009800F08E
:1006A000C1F9DFF8ACA09AF80020FD084FF0800BEC
:1006B00022204FF0D84132B183468846002005FB06
:1006C00004F3802137E04FF0D841222048800020F9
:1006D00005FB04F211E000BF09EBD00300F00708AE
:1006E00012F803C02BFA08F31CEA030F534601D19A
:1006F0009B8800E05B888B80401CB842ECD3761C62
:10070000F6B23146009800F08DF9641C402CDAD323
:10071000BDE8FF8F09EBD00200F0070C9A5C21FACC
:100720000CFC12EA0C0F05D0A8F802B0BAF802C00F
:10073000A8F804C0401CB842ECD3761CF6B231468F
:10074000009800F06FF9641C402CB7D3E0E700007C
:10075000080000202DE9FE4F834603208A46A0EBC7
:1007600042090026154673E00AEB050081B20290AB
:100770000BEB0600019080B200F054F94FF0D84422
:1007800022276780DFF8D080B8F80200A080AAEBAB
:10079000050081B20090019880B200F043F96780B3
:1007A000B8F80200A080029881B2ABEB060001907D
:1007B00080B200F037F96780B8F80200A080009896
:1007C00081B2019880B200F02DF96780B8F802007C
:1007D000A0800AEB060081B202900BEB05000190AD
:1007E00080B200F01FF96780B8F80200A080AAEB81
:1007F000060081B20090019880B200F013F9678082
:10080000B8F80200A080029881B2ABEB050001901D
:1008100080B200F007F96780B8F80200A080009865
:1008200081B2019880B200F0FDF86780B8F802004C
:10083000A080B9F1000F04DA09EB860000F1060987
:1008400005E0711B09EB810000F10A096D1E761CA1
:10085000AE4289D9BDE8FE8F080000202DE9F0479F
:10086000984617460E468246002400F0DBF8222107
:1008700010484FF0D845B8F1000F02D089468046A5
:1008800014E0698002E04188A980641CBC42FAD36C
:10089000BDE8F087A5F80290B8F80200A880761CA1
:1008A000B6B23146504600F0BDF8641CBC42F1D3EC
:1008B000EEE700000800002010B5144600F0B2F882
:1008C0004FF0D84022214180848010BD2DE9F841AD
:1008D000002498460F460546561E15E007EB840097
:1008E000CDF80080C288290C0A4493B282884088DF
:1008F0002A44084481B237F8240092B2284480B2D6
:10090000FFF746FD641CA4B2B442E7DBBDE8F88102
:10091000F0B51D4614460E46074600232A46FFF74B
:100920009DFF301981B200232A463846FFF796FF13
:100930000123224631463846FFF790FF78190123FC
:10094000621C3146BDE8F04080B2FFF787BF2DE959
:10095000F04F8242DDF8249002D90546104600E0AF
:1009600015468B4202D90C46194600E01C46401B36
:1009700087B2081B1FFA80F800264FF0D84A4FF0C4
:10098000220B12E02146284600F04CF85246AAF805
:1009900002B0002003E0A2F80490401C80B2B842EC
:1009A000F9D3641C761CA4B2B6B24645EAD3BDE8BE
:1009B000F08F00B5012197B0084600F079F80121C9
:1009C000880300F081F801200F9000200921CDE973
:1009D0001001149006211590CDE9001012901021FD
:1009E000CDE902011390049005900690090207904A
:1009F000CDE908010A900B900C900FA80D900E9075
:100A00006846FFF7FFFB01210620FFF7EBFB17B05D
:100A100000BD000001B5BDF800000149888008BD97
:100A20000800002010B504464E2000F02AF82146A8
:100A3000BDE810404F2000F024B800000149886054
:100A4000704700000800002001B5BDF80000014912
:100A5000488008BD0800002030B50025044629461E
:100A60002846FFF7DFFF4FF0D840222141804FF4A6
:100A7000963100BF34F8022B82806D1C8D42F9D371
:100A800030BD03B5BDF800204FF0D84042808180D2
:100A90000CBDFEE770477047044A0029116801D079
:100AA000014300E08143116070470000303802408C
:100AB000044A0029116801D0014300E0814311601C
:100AC0007047000038380240044A0029116801D0FC
:100AD000014300E081431160704700004438024048
:100AE0002DE9F047FFF7BCFCFFF763FFDD48FFF798
:100AF00055FD01210020FFF7C4FF0A20FFF74EFD3E
:100B00004AF6A4010320FFF7BCFF0A20FFF746FDC9
:100B100000210C20FFF7B5FF0A20FFF73FFD40F64C
:100B20000C010D20FFF7ADFF0A20FFF737FD4FF452
:100B30002C510E20FFF7A5FF0A20FFF72FFDB02153
:100B40001E20FFF79EFF0A20FFF728FD46F63F31E3
:100B50000120FFF796FF0A20FFF720FD4FF4C06445
:100B600021460220FFF78DFF0A20FFF717FD002125
:100B70001020FFF786FF0A20FFF710FD46F26801FC
:100B80001120FFF77EFF0A20FFF708FD0021052056
:100B9000FFF777FF0A20FFF701FD00210620FFF78E
:100BA00070FF0A20FFF7FAFC4EF61C711620FFF7C3
:100BB00068FF0A20FFF7F2FC03211720FFF761FF0F
:100BC0000A20FFF7EBFC40F233210720FFF759FF23
:100BD0000A20FFF7E3FC00210B20FFF752FF0A2059
:100BE000FFF7DCFC00210F20FFF74BFF0A20FFF787
:100BF000D5FC00214120FFF744FF0A20FFF7CEFC7F
:100C000000214220FFF73DFF0A20FFF7C7FC00212B
:100C10004820FFF736FF0A20FFF7C0FC40F23F15DF
:100C200029464920FFF72DFF0A20FFF7B7FC0021D6
:100C30004A20FFF726FF0A20FFF7B0FC00214B20D7
:100C4000FFF71FFF0A20FFF7A9FC4FF46F4841464A
:100C50004420FFF716FF0A20FFF7A0FC00214520E3
:100C6000FFF70FFF0A20FFF799FC29464620FFF700
:100C700008FF0A20FFF792FC40F20779494630202E
:100C8000FFF7FFFE0A20FFF789FC4FF4017631469B
:100C90003120FFF7F6FE0A20FFF780FC31463220B4
:100CA000FFF7EFFE0A20FFF779FC40F202573946C2
:100CB0003320FFF7E6FE0A20FFF770FC791D342091
:100CC000FFF7DFFE0A20FFF769FC31463520FFF70A
:100CD000D8FE0A20FFF762FC31463620FFF7D1FE2E
:100CE0000A20FFF75BFC39463720FFF7CAFE0A20CF
:100CF000FFF754FC40F2023631463A20FFF7C1FEBE
:100D00000A20FFF74BFC31463B20FFF7BAFE0A20D2
:100D1000FFF744FC00212320FFF7B3FE0A20FFF772
:100D20003DFC00212420FFF7ACFE0A20FFF736FC33
:100D30004FF400412520FFF7A4FE0A20FFF72EFC08
:100D400000214F20FFF79DFE0A20FFF727FC00211E
:100D50004E20FFF796FE0A20FFF720FC4FF0D84107
:100D60002220488001210020FFF78BFE214602202F
:100D7000FFF787FE07210C20FFF783FE06210D20D9
:100D8000FFF77FFE4FF448510E20FFF77AFEBB219C
:100D90001E20FFF776FE46F664210320FFF771FE62
:100DA00000210F20FFF76DFE41464420FFF769FE4A
:100DB00000214520FFF765FE29464620FFF761FE2A
:100DC00000213020FFF75DFE40F206713120FFF771
:100DD00058FE40F206213220FFF753FE6110332007
:100DE000FFF74FFE02213420FFF74BFE0021352094
:100DF000FFF747FE49463620FFF743FE4FF40071E8
:100E00003720FFF73EFE40F608113A20FFF739FE83
:100E100040F60D713B20FFF734FE06212820FFF736
:100E200030FE41F2EB212F20FFF72BFE4FF4E04183
:100E30002620FFF726FE4BF2E3012020FFF721FEDC
:100E400044212720FFF71DFE47F645612E20FFF7BE
:100E500018FE00211020FFF714FEBDE8F0470A201D
:100E6000FFF79CBB400D0300704700000CB500214C
:100E7000214801910091026842F4803202604FF4EF
:100E8000A063026802F400320092019A521C01929F
:100E9000009A12B9019A9A42F3D10268920329D5B5
:100EA00001210091144908310A680A600A6842F475
:100EB00000420A600A6842F4A0520A600B1F0F4AFF
:100EC0001A60026842F08072026002689201FCD5EA
:100ED0000B4A40F203701060086820F003000860BD
:100EE000086840F0020008600868C0F3810002282A
:100EF000FAD10CBD00910CBD00380240193C4025D0
:100F0000003C0240704700000E4810B5016841F0F7
:100F1000010101600B4A00210832116002680A4B8E
:100F20001A400260021D1160026822F480220260F1
:100F300004480C300160FFF799FF04494FF000604E
:100F4000086010BD00380240FFFFF6FE08ED00E02B
:100F5000FEE702E008C8121F08C1002AFAD1704754
:100F60007047002001E001C1121F002AFBD1704729
:100F700010B5002142F2107405E0224602235B1CEA
:100F80009342FCDB491C8142F7DB10BD08B51F20F2
:100F9000FFF740FD4FF6FF70FFF756FD3748FFF7AC
:100FA0004DFD4FF00008642741F288364FF6E0759A
:100FB0004FF080094FF4807A44F6206B1F20FFF732
:100FC0003DFA10232EA21E216420FFF761FB2D2283
:100FD0007821A020FFF7BEFB3046FFF7C9FF1F2096
:100FE000FFF72CFA2AA21E216420FFF7DFFA502215
:100FF000782311466420FFF78BFC3046FFF7B8FFDB
:101000001F20FFF71BFA26A21E215020FFF7CEFA61
:10101000A023DC22502164200095FFF798FC304685
:10102000FFF7A6FF1F20FFF709FA23A21E21642065
:10103000FFF7BCFA68F30F0467F31F442B468022C6
:1010400021492046FFF742FC69F30F042B4680221A
:101050001D492046FFF73AFC6AF30F042B46802215
:1010600019492046FFF732FC3046FFF781FF174849
:10107000FFF7F2FC5846FFF77BFF9FE700000020D8
:101080004C4344204472617720436972636C65006D
:101090004C43442044726177205265637400000021
:1010A0004C434420447261772046696C6C6564202F
:1010B00052656374000000004C4344204472617721
:1010C0002057617665000000D8100008D81200088B
:1010D000FFF706FDFFF75AFF000032000100340061
:1010E000020037000300390004003C0005003E0008
:1010F00006004000070043000800450009004700C3
:101100000A0049000B004C000C004E000D0050007E
:101110000E0052000F005300100055001100570040
:101120001200590013005A0014005B0015005D0006
:1011300016005E0017005F001800600019006100D3
:101140001A0062001B0062001C0063001D006300A7
:101150001E0064001F006400200064002100640081
:101160002200640023006300240063002500620065
:1011700026006200270061002800600029005F004F
:101180002A005E002B005D002C005B002D005A0041
:101190002E0059002F005700300055003100530039
:1011A000320052003300500034004E0035004C0035
:1011B0003600490037004700380045003900430039
:1011C0003A0040003B003E003C003C003D0039003E
:1011D0003E0037003F0034004000320041002F0045
:1011E00042002D0043002B0044002800450026004B
:1011F000460023004700210048001F0049001D0051
:101200004A001A004B0018004C0016004D00140054
:101210004E0012004F00100050000F0051000D0052
:1012200052000B0053000A0054000800550007004C
:10123000560006005700050058000400590003003E
:101240005A0002005B0001005C0001005D0001002B
:101250005E0000005F000000600000006100000010
:1012600062000000630001006400010065000100ED
:1012700066000200670003006800040069000500C2
:101280006A0006006B0007006C0008006D000A0091
:101290006E000B006F000D0070000F007100100059
:1012A000720012007300140074001600750018001C
:1012B00076001A0077001D0078001F0079002100D9
:1012C0007A0023007B0026007C0028007D002B0094
:1012D0007E002D007F002F001A551A4D1A4D1A4D11
:1012E0003A4D3A4D3A4D3A4D1A4D3A4D3A4D3A4DE6
:1012F0005B555B555B553A4D3A4D1A4D3A4D3B5552
:101300003B555B555B5D5B557B5D7B5D7B5D7B65CD
:101310009C65BC6DDC75DD7DDC7DDD7DDC7DDC7D93
:10132000DC7DDC7DDC7DDC7DDC7DDC7DDC7DDC7DF5
:10133000DC75BC759B6D9C655B5D3A553A555B559C
:101340007B5D9C5D9C65BC65BC6DBC6D9B657B5588
:101350005B4D3A451A453A451B453B451B451B45E8
:101360001A451A453A451A451A451B453B453B4522
:101370003B453B453B453B453B453B453B453B456D
:101380003B453B453B451B451A453B453A453A45A0
:101390003A4D5B557B5D7C5D9C659C659C659B6562
:1013A0009B659B659B659B659C659C657B657B5D83
:1013B0007B5D7B5D7B5D5B555B4D5A4D5B555B5546
:1013C0005B557B557B557B557B557B557B5D7B55B5
:1013D0007C5D7B5D7B5D7B5D7B557B557B557B556C
:1013E0007B555B555B555B557B555B555B555B553D
:1013F0005B555B555B555B555B555B555B555B556D
:101400003B553B553B555B553A4D3A4D3A4D3A4D60
:101410003A4D3A4D3A4D3A4D3A4D3A4D5B553A4D6B
:101420003A4D3A4D3A4D3A4D3A553A553A553A5564
:101430003A553A553A553A553A555A555A553A55F4
:101440003A553A553A553A553A553A553A553A5D1C
:101450003D8EDB7D596D7B655A653A6D5A6D596DD0
:101460009A759A759A75596D3965F85CF854D8541F
:10147000D85CD75CD75CD75CD75CD75CD75CD75CD3
:10148000D65CB65CB65CB65CB65C955C95649564FF
:10149000955C95649564956495649564946494648E
:1014A000946C946C946C946C746C946C746C746C9C
:1014B0007474747473747374937493749374937C6A
:1014C000737C737C737C727C727C72847284728491
:1014D0007284728C728C728C728C728C92949294D4
:1014E000929492949294919C9194919C719C919CD1
:1014F000919C919C919C919C919C90A490A490A46F
:10150000B1A4D1ACD2ACD2ACF2B4F2B412B513B532
:1015100033BD33BD53BD53BD54BD54C554C554C56F
:1015200054C554C554C554C534C513C5F3BCF3BC28
:10153000F3BCF3C413C514C534C534C534CD34CDA0
:1015400054CD55CD35CD35CD34D534D534D533D531
:1015500013CDF3CC13CD13CD3B551A551A4D1A4D5F
:101560003A4D3A4D3A4D3A4D3A4D3A4D3A4D3A4D43
:101570003A4D3A555B555B553B4D3B4D3A4D1A4DF7
:101580001A4D3B555B555B557B5D5B5D7B5D7B5DC4
:101590007B5D7B659C6DDC75FD7DFD7DDC7DDC7D93
:1015A000DC7DDC7DDC7DFC7DFC7DFC7DFC7DDC7DF3
:1015B000DC7DDC7DDC75DC759C6D7B655B5D3B5D9E
:1015C0005B5D5B5D7B5D9B659B65DC6DBC6DBC6540
:1015D0009C5D5B553A4D3A453A453A453A453A4560
:1015E0001A451A451A451A451A451A451B453B45E1
:1015F0003B453B453B453B453B453B453B453B45EB
:101600003B453B453B453B453B453A453A453A45DD
:101610003A453A4D5B557C559B5D9B659B659B654B
:101620009C659C659C659C659C659C657B657B5DFC
:101630007B5D7B5D7B5D5B5D5B555B553A4D5B55D3
:101640005B557B557B557B555B555B555B5D7B5592
:101650007B5D7B5D7B5D7B5D7B557B555B555B552A
:101660005B555B555B555B555B555B555B555B55FA
:101670005B555B555B555B555B555B555B555B55EA
:101680003B553B553B553B553A4D3A4D3A4D3A4DFE
:101690003A4D3A4D3A4D3A4D3A4D3A4D3A4D3A4D12
:1016A0003A4D3A4D3A4D3A4D3A4D3A4D3A4D3A4D02
:1016B0003A4D3A4D3A4D3A4D3A553A553A553A55D2
:1016C0003A553A553A553A555A555A551A55395D7B
:1016D0001C86DB7D39655A655A653A6D3A6D596DE0
:1016E0007A759A759A75596D3965F85CD854D854DD
:1016F000D754D75CD754D75CB754B75CB75CB75CEA
:10170000B65CB65CB65CB65CB65C955C955C955CAC
:10171000955C95649564956494649564946494640C
:10172000946C946C946C946C746C946C746C746C19
:101730007474747473747374937493749374737C07
:10174000737C737C737C727C727C7284728472840E
:101750007284728C728C728C728C728C9294929451
:1017600092949294929491949194919C919C919C36
:10177000919C919C919C919C919C91A490A4B1A4CA
:10178000B1ACD1ACD2ACF2ACF2B4F2B412B513B588
:1017900033BD33BD53BD54BD54C554C554C554C5E4
:1017A00054C534C534C533C5F3BCF3BCD2BCF3BC9B
:1017B000F3BCF3C413C514C534C534C534C534C52E
:1017C00034CD34CD34CD34CD14CD14CD13CDF3CCB4
:1017D000D2CCD2CCF2CCF2CC5C5D5C5D5B551A55C0
:1017E0001A4D3A4D3A4D3A4D5B555B4D3B4D3A4D96
:1017F0003A4D3A4D3A4D5B4D5B4D7B555B553B4DFC
:101800001B4D1B4D3B555C557B557B557B5D5B5D97
:101810007B5D5B5D7B659C6DBC6DDC751D7EFD7DC0
:10182000FC7DFC7DFC7DFC7DFC7DFC7DFC7DFC7DF0
:10183000FC7DFC7DFC7DDC7DDC75BC759C6D5B5DA1
:101840005B5D3B555B557B5D9B5DBC65DC6DDD6D1C
:10185000DD75BC655B553A4D3A4D3A453B453B45D8
:101860001A453A451A451A451A451A451A451A4560
:101870003B453B453B453B453B453B453B453B4568
:101880003B453B453B453B455B453B453B453B4538
:101890003A453A453B4D7B559B5D9B5D9B659B6502
:1018A0009C659C6D9C6D9B659C659B657B657C5D6B
:1018B0007B5D7B5D7B5D5B5D5B5D5B553A555A4D4A
:1018C0005B4D5B4D5B557B555B555B555B555B5588
:1018D0007B557B557B557B557B557B555B555B55C8
:1018E0005B555B555B555B555B555B555B555B5578
:1018F0005B555B555B555B555B555B553B553B4DB0
:101900003B4D3B4D3B4D3B4D3A4D3A4D3A4D3A4D9B
:101910003A4D3A4D3A4D3A4D3A4D3A4D3A4D3A4D8F
:101920003A4D3A4D3A4D3A4D3A4D3A4D3A4D3A4D7F
:101930003A4D3A4D3A4D3A4D3A553A553A553A554F
:101940003A553A553A553A553A553A551A55395D38
:101950001C86DB7D39655A655A653A6D3A65596D65
:101960007A6D9A759A75396D195DF85CD854D854AA
:10197000B754D754D754D754B754B754B654B65CA9
:10198000B65C965CB65C965CB55C955C955C956463
:10199000955C95649564956494649564946494648A
:1019A000946C946C946C946C746C746C736C736CB9
:1019B000746C937473747374737493749374737C8E
:1019C000727C727C727C527C727C728472847284AF
:1019D0007284728C728C728C728C929492949294A7
:1019E000929491949194919491949194919C919CBE
:1019F000719C909C919C709C709C70A491A4B1A4CB
:101A0000B1ACD2ACD2ACF2ACF2B4F3B413B513B502
:101A100033BD33BD34BD54BD54C554C554C534C5A0
:101A200034C534C513C5F3BCD2B4D2BCD3BCF3BCEB
:101A3000F3BCF3C414C514C534C534C534C534C5AA
:101A400014C514C514CD14CD14CDF3C4D3C4B2C47D
:101A5000D2CCD2CCD2CCF2CC5B5D5B5D7B5D7B5DCE
:101A60005B551A551A4D3A4D3A4D5B555B555B4DDA
:101A70005A4D3A4D3A4D3A4D3A4D5B4D7C555B557A
:101A80005B553B4D3B4D3B4D3B4D5B555B5D7B5D46
:101A90007C5D7C5D7C5D9C659C65BC6DDC6DFC75D6
:101AA000FC7DFC7DFC7DFC7DFC85FC7D1C7E1C861C
:101AB000FC851C86FC85FC85DB7DDC7DDC75BC6DD6
:101AC0009B655B5D5B555B4D7B557C5DBC65BC6D13
:101AD000DC75DC75BC657B5D3B553B4D3B4D3B4D43
:101AE0003B453B451B451A451A451A451A451A45BB
:101AF0003A451A453B453B453B453B453B453B4508
:101B00003B453B453B453B455B453B455B453B4595
:101B10003A453A453B455B4D5B557B5D9B5D9B651F
:101B20009C659C6D9C6D9C659B659B659C659C659F
:101B30007B5D7B5D7B5D5B5D5B5D5B5D5B555B5595
:101B40005B4D5B4D5B4D7B4D5B555B555B555B5515
:101B50007B557B555B555B557B557B555B555B5585
:101B60005B555B555B555B555B555B555B555B55F5
:101B70005B555B555B555B555B553B4D3B4D3B4D5D
:101B80003B4D3B4D3B4D3B4D3A4D3A4D3A4D3A4D19
:101B90003A4D3A4D3A4D3A4D3A4D3A4D3A4D3A4D0D
:101BA0003A4D3A4D3A4D3A4D1A4D3A4D3A4D1A4D3D
:101BB0003A4D3A4D3A4D3A4D3A4D3A553A551A55F5
:101BC0003A551A553A553A5539553A4D1A4D395DE7
:101BD0001C86DB7D59655A655A653A653A655965D3
:101BE0007A6D9A757A75596D195DF854D754D75432
:101BF000B754B754B754B754B754B754B654B65C87
:101C0000B6549654B65C965C955C955C955C956410
:101C1000955C946494649464956495649464946409
:101C2000946C9464746C946C746C746C746C746C5C
:101C3000747493747374737473747374737473744B
:101C4000727C727C527C527C727C7284728472844C
:101C5000728C728C728C728C728C728C9294729464
:101C600072947194719491949194919C719C719CD3
:101C7000719C709C709C709C709C91A4B1A4B1A448
:101C8000B1A4D2ACD2ACF2ACF2B4F3B413B513B588
:101C900013B533BD33BD34BD34C534BD34C513C5F0
:101CA00013BDF3BCD2BCB2B4B2BCB2BCD3BCF3BCA7
:101CB000F3C413C514C514C514C514C514C514C57F
:101CC00014CDF4C4F4C4F3C4D3C4D3C4D2C4D2CCAA
:101CD000D2CCD2CCD2CCF2CC5B557B557B5D7B5D3C
:101CE0007B5D7B5D5B5D3A551A553A553A555B55C0
:101CF0005B555B555B4D3B4D3B4D3B4D5B4D5B55EC
:101D00005B555C555B553B555B4D3B4D3B555B55C2
:101D10007C5D7C5D9C5D9C5D9C659C65BC6DBC6DCB
:101D2000DC75FC7D1C86FC7DFC7DFC7DFC7D1C86C1
:101D30001C861C861C86FC85FC851C86FC7DFC7D27
:101D4000DC75BC6D7B5D5B555B555B557C5D9C6557
:101D50009B6DBC75DC75DC75BC657B5D3A4D3A4DA1
:101D60003B453B453B453B451A451A451A3D1A45FF
:101D70001A451A453A453B453B453B453B453B45A6
:101D80003B455B455B453B455B455B453B453B45D3
:101D90003A453B453B453A455A4D5B557B5D7B5D3E
:101DA0009C659C659C659B659B659C659C659C652D
:101DB0009B5D7B5D7B5D5B5D5B555B5D7B555B55DB
:101DC0005B555A4D5B4D5B4D5B555B555B555B55AC
:101DD0007B557B557B557B557B555B555B555B55E3
:101DE0005B555B555B555B555B555B555B555B5573
:101DF0005B555B555B555B553A4D3B4D3B4D3B4D04
:101E00003B4D3B4D3B4D3A4D3A4D3A4D3A4D3A4D97
:101E10003A4D3A4D3A4D3A4D3A4D3A4D3A4D3A4D8A
:101E20003A4D3A4D3A4D1A4D1A4D1A4D1A4D1A4D1A
:101E30003A4D3A4D3A4D3A4D3A4D3A4D3A4D1A4D8A
:101E40003A553A553A553A5539553A4D1A4D195D64
:101E50001C86DB7D39655A655A653A653A65396590
:101E60005A6D9A757A75396D185DD854D754B75430
:101E7000B754B754B754B654B654B654965496544F
:101E800096549554965C955C955C955C955C955CD8
:101E9000955C9464946494649564946474649464A8
:101EA000946474647464746C746C746C746C736C2B
:101EB00074749374737473747374737473747374C9
:101EC000727C727C527C527C727C728472847284CA
:101ED000728C728C728C728C728C728C728C9294EA
:101EE000719471947194719471947194719C719CBA
:101EF000719C709C709C709C91A491A4B1A4B1A49D
:101F0000B1A4D2ACD2ACF2ACF2B4F3B413B533BDDD
:101F100013B533BD33BD34BD34C513BD13BDF3BCE0
:101F2000D3BCB2B492B4B2B4B2BCD3BCD3BCF3C4CD
:101F3000F4BC14C514C514BD14C514C514C5F4C42B
:101F4000F3C4D3C4D3C4B3C4B2C4B2C4B2C4D2C43D
:101F5000D2C4D2C4D2CCD2CC5B4D7B557B557B5501
:101F60007B5D7B5D7B5D7B5D5B5D5A553A553A4D94
:101F70003B4D5B4D5C555B4D5B4D3B4D3B4D3B4D98
:101F80005B4D5B557C555B555B555B4D3B4D3B5508
:101F90005B557C5D7C5D9C5D9C5D9C659C6DBC6DBA
:101FA000BC6DBC75DC7D1C86FC7DFC7DFC7DFC7DF8
:101FB000FC7D1C861C861C861C861C861C86FC7D63
:101FC0001C7EFC75BC6D7C655B5D5B5D5B5D7B5DFC
:101FD0007B65BC75BC75DC75DC75BC6D7B5D5A556D
:101FE0003A453B453B453B3D1A451B451A451A457D
:101FF0001A451A451A451A453A453B453B453B4566
:102000003B453B453B453B455B455B453B453B4590
:102010003B453B453B453A453A455B4D5B557C5D11
:102020007B5D7B659B657B659B659B659C659C6516
:102030009C657B5D7B5D7B5D5B555B557B557B5517
:102040005B553B4D5B4D5B4D5B4D5B555B555B5550
:102050005B555B555B555B555B557B557B555B55C0
:102060005B555B555B555B555B555B555B555B55F0
:102070005B553A4D3A4D3A4D3A4D3B4D3B4D3A4DFD
:102080003A4D3B4D3A4D3A4D3A4D3A4D3A4D3A4D17
:102090003A4D3A4D3A4D3A4D3A4D3A4D3A4D3A4D08
:1020A0003A4D3A4D3A4D1A4D1A4D1A4D1A4D1A4D98
:1020B0003A4D3A4D3A4D3A4D3A4D1A4D3A4D1A4D28
:1020C0003A553A551A551A5539553A4D1A4D195D22
:1020D0001C86DB7D39655A5D3A5D39653965396540
:1020E000596D7A757A753965185DD854B754B754F7
:1020F000B754B654B754B654B654965496549654EE
:1021000096549554955C955C955C755C955C955C76
:10211000755C745C7464746474647464746474640E
:1021200074647464746C746C746C746C736C736CC1
:10213000736C736C73747374737473747374737477
:10214000727C727C527C527C52847284728472845F
:10215000728C728C728C728C728C728C718C718C91
:10216000719471947194719471947194719C719C37
:10217000719C509C509C709C91A491A4B1A4B1A45A
:10218000B2A4D2ACD2ACF2ACF2B4F3B413B533BD5A
:1021900013B513B513BD13BD13BDF3BCD2BCB2B49C
:1021A00092B492B4B2B4B2B4B3B4D3BCD4BCF4BCA1
:1021B000F4BC14BD14BD14BD14C514C5F4C4F3C4DB
:1021C000D3C4D3C4B2C4B2C4B2C4B2C4B2C4B2C41D
:1021D000B3C4B3C4D3C4F3CC5B555B555B555B55FB
:1021E0007B5D7B5D7B5D7B5D9B5D7B5D7B555B553F
:1021F0005B4D5B4D5B4D5B4D5B555B4D5B4D5B4D97
:102200003B4D3B4D5B4D5B555C557C555B555B5584
:102210003B555B555B557C559C5D9C5D9C65BC6DE1
:10222000BC6DBB6DDC75DC7DFD7D1D861D861C8651
:102230001C861D861D861C8E1D863D861D863D8640
:102240001D861D86FD7DDD75BD6D7C655B5D5B5509
:102250005B5D7B659C6DBC6DBC75FD75DC6D9C5DCF
:102260005B553B4D3B453B451B451B451A451A45B8
:102270001A451A451A3D1A3D3B453B453B453B45F2
:102280005B455B455B455B453B453B453B453B45CE
:102290003B453B453B453B453A453B453B4D5B5507
:1022A0007B5D7B5D9B5D7B657C657C659C657C6502
:1022B0007B659B5D7B5D7B5D7B5D5B555B557C558D
:1022C0007B555B4D3B4D5B4D5B4D5B555B555B55AE
:1022D0005B555B555B555B555B557B557B555B553E
:1022E0005B555B555B555B555B555B555B555B556E
:1022F0005B553A4D3A4D3A4D3A4D3A4D3A4D3A4D7D
:102300003A4D3A4D3A4D3A4D3A4D3A4D3A4D3A4D95
:102310003A4D3A4D1A4D1A4D1A4D1A4D3A4D1A4D25
:102320003A4D1A4D1A4D1A4D1A4D1A4D3A4D1A4D35
:102330003A4D3A4D3A4D1A4D3A4D3A4D3A4D1A4DA5
:102340001A4D1A4D1A551A553A551A4D1A55195D06
:102350001C86BB7D19653A5D3A5D3A65196539653C
:10236000596D7A757A753965185DD854B754B75474
:10237000B754965496549654B654965496549654CC
:1023800096549554755C755C755C755C755C955C74
:10239000745C745C7464746474647464746474648D
:1023A0007464746C746C736C746C746C736C736C38
:1023B000736C736C73747374737473747374737CED
:1023C000727C527C527C52847284728472847284D5
:1023D000728C728C728C728C928C728C718C718CEF
:1023E000719471947194719471947194719C519CD5
:1023F000509C509C709C91A491A491A4B1A4B1A4B0
:10240000D2ACD2ACD2ACD2ACF2ACF3B413B513B5FF
:1024100013BD13BD13BDF3BCF3BCB2BCB2B492B4D4
:1024200091B492B4B2B4B3BCD3BCD3BCD4BCF4BCEE
:1024300014BD14BD14BD14BD14C5F4C4D3C4D3C499
:10244000B2C4B2C4B2C4B2C4B2C492C4B2C4B2C4FC
:10245000D3C4D3C4F4CC14CD7B655B5D5B5D5B5DA5
:102460005B555B557B5D7C5D7B5D5B5D7C5D9C5DF9
:102470007B555B555B553B4D3B4D3B557C557C55EA
:102480005B555B4D3B4D3B555B557C557C557C55B9
:102490007C555B555B4D5B4D7B557B559C65BC65A9
:1024A000BC65BC6DBC75BC75BC75DC851D863D8688
:1024B0001D8E1D8E1D861C861D8E3D8E3D8E3D8E75
:1024C0003D863D861D861D86FD7DDC6D9B655A5DC6
:1024D0005B555B5D7C5D9C6DBC6DFD6DFD75FD6D43
:1024E000BC657B5D3A4D1A4D3B453B451B451B4545
:1024F000FA441A451B3D1B3D1A3D1A3D3B3D3B45E9
:102500005B455B455B455B453B453B453B453B454B
:102510003B453B453B455B453B453A453A453B4D95
:102520005B557B557B5D7B5D7C657B657C657B65F9
:102530007B659B5D7B5D7B5D5B5D5B555B557B552B
:102540007C555B555B4D3B4D3B4D5B555B555B5542
:102550005B555B555B555B555B555B555B555B55FB
:102560005B555B555B555B555B555B555B555B55EB
:102570005B555B553A4D3A4D3A4D3A4D3A4D1A4DF1
:102580003A4D3A4D3A4D3A4D3A4D3A4D3A4D1A453B
:102590001A451A4D1A4D1A4D1A4D1A4D1A4D1A4D0B
:1025A0001A4D1A4D1A4D1A4D1A4D1A4D1A4D1A4DF3
:1025B0001A4D1A4D1A4D1A4D3A4D1A4D3A4D1A4DA3
:1025C0001A4D1A4D1A4D1A4D194D1A4D1A55F95CDE
:1025D000FC85BB7D19653A5D3A5D396519653965DC
:1025E0005A6D7A755A753965F85CD754B754B75433
:1025F00096549654965496549654965496547554AC
:10260000755495547554755C755C755C755C955C1A
:10261000745C9464746474647464746474647464E2
:10262000746C746C746C736C746C746C736C736CAD
:10263000736C736C73747374737473747374737C6A
:10264000727C527C527C7284728472847284728432
:10265000728C528C728C728C928C728C718C718C8C
:10266000718C71947194519451945194519C509CDB
:10267000509C709C91A491A491A4B1A4B1A4D2A4A3
:10268000D2ACD2ACF2ACF2B4F2B413B513B513B50C
:1026900013BD13BDF3BCD2B4B2BC91B491B492B427
:1026A00092B4B2B4D3BCD3BCD4BCF4BCF4BC14BD9F
:1026B00014C514BD14BD14BDF4BCF3BCD3BCB2BC72
:1026C00092BC92C4B2C4B2C4B2C4B2C4D2C4D3C461
:1026D000F3C414CD14CD35CDBC7D9C759B6D7B654D
:1026E0007B5D7B557B557C557B557B5D7C5D7C5D47
:1026F0007B5D7B5D7B5D5B555A553B555B555B5503
:102700005B555B555B553B553B4D3B4D5C557C5597
:102710007C557C557C555B555B4D7B557B557B5D76
:102720009C5DBC65BC6DBC6DBC75BC75DC7DFD8500
:102730001D863D863D8E1D8E1D8E1D8E1D8E1D8E11
:102740001D8E1D8E1D8E1D861D86FD7DDC75BB6D4F
:102750007B5D7B5D7B5D7B5D9C659C65BD6DDD6DA3
:10276000DD75DC6D7B653A5D1B4D5B455B453B452F
:102770001B451A3D1B3D1B3D1A3D1A3D1A453B4565
:102780003B453B453B453B453B453B453B453B4549
:102790003B453B453B453B453B453A453A453B453B
:1027A0003A455B4D5B557B5D7C5D7C657B657B5D08
:1027B0007B5D7B5D7B5D7B5D7B5D5B5D5B555B55C9
:1027C0005B557B555B555B4D3A4D3A4D5B555B55C3
:1027D0005B555B555B555B555B555B555B555B5579
:1027E0005B555B555B555B555B555B555B555B5569
:1027F0005B553A4D3A4D3A4D3A4D3A4D1A4D1A4DB8
:102800001A4D3A4D3A4D3A4D3A4D3A4D1A4D1A4DF0
:102810001A451A451A45194D1A4D1A4D1A4D1A4D99
:102820001A4D1A4D1A4D1A4D1A4D1A4D1A4D1A4D70
:102830001A4D1A4D1A4D1A4D194519451A4D1A4D72
:10284000194D1A4D1A4D194D1955194DF954F95C78
:10285000FC85BB7D18653A5D3A5D395D3965396542
:102860005A6D5A757A753865D85CB754B754975411
:102870009654965496549654965496549654955409
:102880007554755475547554755C755C955C955CA0
:10289000745C745C745C7464746474647464746490
:1028A000746C746C746C736C746C746C736C736C2B
:1028B000736C736C73747374737473747374737CE8
:1028C000737C727C72847284728472847284728467
:1028D000728C728C728C728C728C728C918C718CEA
:1028E000719471945194519451945194519C519C70
:1028F000509C91A491A491A491A4B1A4B1A4B2AC10
:10290000D2ACD2ACD2B4F2B412B513B513BD13B578
:10291000F3B4D2B4D2B4B2B491B471AC71AC92B4D9
:10292000B3B4D3BCD3BCD4BCF4BCF4BCF4BC14C5A9
:1029300014C514C514C5F3C4D3BCB3BCB2BCB2BC7B
:10294000B2BCB2C4B2C4B2C4B2C4D3C4D3C4F3C45C
:1029500014CD35CD76D596D5FD85DC7DDC75BC7581
:102960009B659B5D7B5D5B5D5B555B5D7B5D7B5DC7
:102970009B5D7B5D7B5D7C5D7B5D5B555B555B55EE
:102980005B555B557B557C555C553B553B555B55C5
:102990005B557C559C559C557C555B4D5B4D5B5503
:1029A0005B559C5DBC65BC6DBC6DBD75DC75DC7D2F
:1029B000FD851D863D863D8E1D8E1D8E1D8E1D8EB8
:1029C0003D8E3D8E1D8E3D8E3D8E3D861C7EFC7562
:1029D000DC6D9C657B5D5B5D7B659C65BC6DBC6DEA
:1029E000DC75FD75DC759C6D7B5D3A4D1A453B458C
:1029F0001A453A453B451A3D1A3D1B451A451A45AD
:102A00003B453B453B455B453B455B4D5B4D3B4556
:102A10003B453B453B453B453B455B455B453B4576
:102A20003A453A4D5B4D5B557B5D7B5D7B5D7B5DE8
:102A30007B5D7B5D7B5D7B5D7B5D5B5D5B5D5B553E
:102A40005B555B555B555B553A4D3A4D3A4D3A4DAA
:102A50005B555B555B555B555B555B555B555B55F6
:102A60005B555B555B555B555B555B553A4D5B550F
:102A70005B553A4D3A4D3A4D3A4D3A4D3A4D3A4DF5
:102A80001A4D1A4D3A4D3A4D3A4D1A4D1A4D1A45B6
:102A90001A451A451A451A4D1A4D1A4D1A4D1A4D16
:102AA0001A4D1A4D1A4D1A4D1A4D1A4D1A4D1A4DEE
:102AB0001A4D1A4D1A4D1A4D194519451945194DFA
:102AC000194D1A4D1A4D194D194D1A4DF94CF9540D
:102AD000FC85BB7D1865195D1A5D195D195D196569
:102AE000396D596D596D1865D75CB754B754975403
:102AF0009654965496549654765475547554755409
:102B00007554755475547554555C545C745C745CA0
:102B1000745C745C745C746474647464746474640D
:102B20005464746C746C736C736C746C736C736CD1
:102B3000736C736C73747374737473747374737C65
:102B4000737C727C728472847284728472847284E4
:102B5000728C728C728C728C728C728C718C718C87
:102B60007194519451945194509450947194719CD7
:102B7000719C71A491A491A491A4B1A4B1A4B1AC8D
:102B8000B2ACB2ACD2ACD2B4F2B4F3B4F3B4F2B4EB
:102B9000D2B4B2B491B471AC71AC71AC92B4B2B401
:102BA000D3B4D3BCD4BCF4BCF4BCF4BCF4BCF4BC0F
:102BB00014C5F4C4D3C4B3C4B2BCB2BCB2BCB2BCBE
:102BC000B2BCB2C492C4B2C4D3C4D3C4F3C414CD8F
:102BD00055CD76D596D596D5DC7DFC7DFC7DFD7DED
:102BE000DC75BC759B6D9B657B5D7B5D7B5D7B5DFB
:102BF0007B5D7B5D7B5D7C5D9C5D7C5D7B5D5B551A
:102C00005B555B555B555B557C555B555B555B5523
:102C10005B555B557C557C559C557C557B555B5570
:102C20005B555B555C5D9C5DBD65DD6DDD6DDC758B
:102C3000DC7DFC7D1C861C863D8E3D8E3D8E3D8E52
:102C40003D8E3D963D963D963D8E3D8E3D8E1D863C
:102C5000FD7DFD75BC6D7C657B5D7B5D9B6DBC6D9D
:102C6000BC6DBC6DDC75DC75BC657B5D3A553A4D61
:102C70003A4D3B453B453A451A451B451B451A45D0
:102C80001B453B453B453B4D3B4D5B4D5B4D3B4DFC
:102C90003B4D3B4D5B4D5B4D3B455B455B4D3B458C
:102CA0003B453B4D3B4D3B4D5B557B5D7B5D7B5DD4
:102CB0007B5D7B5D7B5D7B5D5A5D5A5D5B5D5B55DE
:102CC0005B555B555B555A553A4D3A4D3A4D5B5500
:102CD0005B555B555B555B555B555B555B553B5594
:102CE0003B555B555B555B555B555B555B553A4DAD
:102CF0003A4D3A4D3A4D3A4D3A4D3A4D3A4D3A4D9C
:102D00001A4D1A4D1A4D1A4D1A451A451A451A45AB
:102D10001A451A451A451A451A4D1A4D1A4D1A4D9B
:102D20001A4D1A4D1A4D1A4D1A4D1A4D1A4D1A4D6B
:102D30001A4D1A4D1A4D1A4D194519451945F944A0
:102D4000F94CFA4CFA4CF94C194D194DF94CD9542F
:102D5000FC85BB7D185D395D195D195D19651965C7
:102D6000196D596D596D1865D75CB754B7549654A1
:102D70009654965496549654765475547554755486
:102D80007554755475547554755C755C745C745CDD
:102D9000745C745C745C745C746474647464746493
:102DA000746C746C746C746C746C746C746C746C23
:102DB000746C736C7374737473747374737C737CDA
:102DC000737C727C72847284728472847284728462
:102DD000928C928C728C728C728C718C718C718CC6
:102DE000519451945194519451945094519C719C8C
:102DF000719C71A491A491A4B1A4B1A4B2ACB2ACE1
:102E0000B2ACB2ACD2B4D2B4D2B4D2B4D2B4B2B402
:102E1000B2B491AC71AC71AC91AC92B4B2B4D3B465
:102E2000D3BCD4BCF4BCF4BC15BDF4C4F4C414BD10
:102E3000F4BCF4C4D3C4B3C4B2BCB2BC92BC92BCA4
:102E4000B2BCB2BCB3C4D3C4F3C4F4C435CD75D5DD
:102E500096D596D576CD76CDBC7DDC7DDC7DFC7DB2
:102E6000FC7DFC7DDC7DBB75BB6DBB6D7B657B5DDF
:102E70007B5D5B5D5B5D7B5D9C5D9C5D9C5D7B5D6F
:102E80007B5D7B5D7B5D5B555B555B555C557C5528
:102E90007C557C557C557C555B557C5D7C5D7C5DB3
:102EA0007C5D5C555B555C557C5D9D65DD65DC6DD1
:102EB000DC75FC75FC7DFC7DFD853D865D8E5D8E43
:102EC0005D8E5D963D963D963D963D963D963D9632
:102ED0003D8E3D86FD7DDC75BB6D9B657B659B6591
:102EE000BC6DBC6DDC6DDC75FD75DD759C6D5B5D71
:102EF0005A553B4D1A453A453B453B451B451B45FD
:102F00001B453B453B453B4D3B4D3B4D3B4D3B4DB9
:102F10003B4D3B4D3B4D5B4D5B4D5B4D3B4D3B4D11
:102F20003B4D5B4D3B4D3B4D5A555B557B5D9B5D32
:102F30007B5D7B5D7B657B5D7B5D5B5D5B5D5B5D29
:102F40005B5D5B555B555B555B553A4D3A4D5B554B
:102F50005B555B555B555B555B555B555B555B55F1
:102F60005B555B555B555B555B555B555B555B55E1
:102F70005B555B555B555B553A4D3A4D3A4D3A4D75
:102F80003A4D3A4D3A4D3A4D3A4D3A4D3A4D3A4D09
:102F90001A4D1A4D3A4D3A4D3A4D1A4D1A4D1A4D99
:102FA0001A4D1A4D1A4D1A4D1A4D1A4D1A4D1A4DE9
:102FB0001A4D1A4D1A4D1A4D19453A4D1A4D1A4DC2
:102FC0001A4D1A4D1A4D1A55194D3A55F94CF954D6
:102FD0001C86BB7D19653A5D3A5D395D3965396599
:102FE0003A6D7A7559753965F85CD754B754B7544A
:102FF0009654B654B654B654965495549554955C1C
:10300000965C965C955C955C955C9564955C955C2E
:10301000946494649564946494649464956C946CDE
:10302000946C946C946C946C94749474B474B47440
:10303000B474B474B474B47C947C947CB47CB38461
:10304000938493849384938493849384938C928CB9
:10305000938CB38C928C9294929492949294929436
:103060007194719C719C719C719C719C719C919CE0
:1030700091A491A491A4B1A4B1A4B2ACB2ACD2ACCD
:10308000D2B4D2B4D2B4F3B4D2B4D2B4D2B4B2B40F
:1030900091AC71AC71AC91ACB2B4D2B4D3B4F3BC5A
:1030A000F4BCF4BCF4BCF4BC14BD14BDF4BCF4BC5E
:1030B000D4BCD3BCB3C4B3C4B2C492BC92BCB2C47B
:1030C000B2BCB3C4D3C4F4C414CD55CD76D576D533
:1030D00076D576CD76CD76CD9B6DBC75BC75DC7D19
:1030E000FC7DFC85FC85FC85FC7DFC75BC6D9B6DC9
:1030F0007B657B5D7B5D7C5D7B5D9C5D9C659C5D9C
:103100009C5D7C5D7C5D7B555B557B557C557C5522
:103110007C557C557C557C555B555B555C5D7C5D79
:103120007C5D9C5D7C5D7C5D5C557C5D9C5DBC6577
:10313000DC6DFC75FC75FC7DFC7D1C863D865D8E22
:103140005D965D965D965D965E965E963D963D9625
:103150003D963D8E3D861C7E1C76DC759B6D9B6589
:103160009B65BC6DDD75DC75DC75DC75DD75BC6D76
:103170009C5D5B553A4D3A4D3B4D3B453B451A45B1
:103180001B451A453A453B4D3B4D3B4D5B4D5B4D19
:103190005B4D5B4D5B4D5B4D5B4D5B4D5B4D5B4DEF
:1031A0005B4D3B4D3B4D3B4D3A4D5B555B557B5D20
:1031B0007B5D7B5D7B5D7B5D7B657B5D5B5D5B5D87
:1031C0005B5D5B5D5B555B555B555B555B555B556F
:1031D0005B555B555B555B555B555B555B555B556F
:1031E0005B555B555B555B555B555B555B555A5560
:1031F0005A555B555A555A4D3A4D3A4D3A4D3A4DFE
:103200003A4D3A4D3A4D3A4D3A4D3A4D3A4D3A4D86
:103210003A4D3A4D3A4D1A4D3A4D3A4D1A4D1A4DD6
:103220001A4D1A4D1A4D1A4D1A4D3A4D3A4D1A4D26
:103230001A4D1A4D1A4D1A4D1A4D3A4D1A4D1A4D36
:103240001A4D1A4D1A551A5519551A55194DF95442
:103250001C86BB7D39655A5D5A5D395D39653965B6
:103260005A6D7A755A75396DF85CD754D754B7547E
:10327000B754B754B654B654B65C965C965C965C3C
:10328000955C955C956495649564B564B564B56426
:1032900095649564B56495649564B564B56C956CF6
:1032A000956C956C9474B574B574B474B574B47449
:1032B000B474B47CB47CB47CB47CB47CB47CB4848E
:1032C000B484B384B384B38CB38CB38CB38CB38C1D
:1032D000B394B394B394B39492949294929492943A
:1032E000729C719C719C919C919C919C919C91A4CD
:1032F00091A4B1A4B1A4B1ACD2ACD2ACD2ACD2AC9A
:10330000D2B4D2B4D2B4D2B4D2B4D2B4B2B491ACF6
:1033100071AC91ACB2B4B2B4D3B4D3B4F3B4F4BC22
:1033200014BD14BD14BD14BD14BDF4BCF4BCD4BC98
:10333000D3BCB3BCB3BCB2C4B2BC92BCB2C4B3C401
:10334000D3C4D3C414CD35CD55D576D576D576D561
:1033500055CD55CD76CD76CD7B657B659B6D9B6DD3
:10336000BC75DC7DFC85FC85FC85FC7DFC7DDC750D
:10337000DC759C6D7C657B5D7B5D7B5D9C5D9C5D98
:103380009C5D9C5D9C5D9C5D9C5D7B557C557B55EF
:103390005B557B557C557C557C555B555B553B554A
:1033A0005C557C5D9C5D9D5D9C5D7B5D7B5D7B5D1F
:1033B0009C65DC6DFC75FC7DFD7DFC7D1C863D8E79
:1033C0005D8E5D965D965D965D965D963D963D96AD
:1033D0003D963D965D8E3D8E3D861C7EDC75BB6DBB
:1033E0009B659C65BC6DDC6DDC75BC75DC75FD7525
:1033F000DD6D9C655B5D3B555B4D3B453B453B4512
:103400003A453A451A453B4D3B4D3B4D5B4D5B4D77
:103410005B4D5B4D5B4D5B4D5B4D5B4D5B4D5B4D6C
:103420005B4D5B4D3B4D3B4D3B4D3B4D3B4D5B55F4
:103430007B5D7B5D7B5D7B5D5B5D5B5D5B5D5B5D4C
:103440005B5D5B5D5B555B555B555B555B555B55EC
:103450005B555B553B555B555B555B555B555B550C
:103460005B555B555B555B555B555B555A553A55FE
:103470005A555A555A553A4D3A4D3A4D3A4D3A4D9C
:103480003A4D3A4D3A4D3A4D1A4D1A4D1A4D1A4D84
:103490003A4D3A4D3A4D3A4D1A4D3A4D3A4D3A4D14
:1034A0001A4D1A4D1A4D1A4D1A4D3A4D3A4D1A4DA4
:1034B0001A4D1A4D194D1A4D3A4D3A4D3A4D1A4D75
:1034C0001A551A551A55395519551A551955195D60
:1034D0001C86DB7D39655A653A653965396539651C
:1034E000596D7A755975386DF85CD754D754D754DF
:1034F000B754B754B654B654B65CB65CB65CB65C5A
:10350000B65CB55C9564B564B564B564B564B56422
:10351000B564B564B564B564B564B56CB56CB56CCB
:10352000956CB574B574B574B474B574D474D47C36
:10353000B47CB47CB47CB47CB47CB47CB484B484FB
:10354000B484B484B38CB48CB38CB38CB38CB38C90
:10355000B394B394B394B394B29492949294929497
:10356000729C719C719C919C919C919C91A4B1A422
:10357000B1A4B1A4D2ACD2ACB2ACB1ACD2ACD2B4E6
:10358000D2B4D2B4D2B4B2B4B2B491AC91AC71AC46
:1035900091AC91B4B2B4D2B4D3B4F4B4F4B4F4BC36
:1035A00014BD14BD14BD14BD14BDF4BCD3BCD3BC38
:1035B000B3BCB3BCB2BCB2BCB2BCB2BCB3C4D3C467
:1035C000F4C414CD35CD55D576D576D555CD55CD5C
:1035D00076CD76CD97D5B7D57B5D9C659B657B65B4
:1035E0009B6DBC75BC75FC7DFD85FC85FC7DFC7D03
:1035F000FC7DDC75BC759C6D9C657B657B657B6526
:103600007C5D7C5D9C5D9C5D9C5D9B5D9B5D7C5D54
:103610007B5D7C5D5B5D5B5D7C5D7C5D5C555C5575
:103620007C555C555C559C5D9C65BC659C657B5D73
:103630007B5D9C65BC65BC6DDC75FC7D1C861C8659
:103640001C863D8E5D965D965D965D965D965D965B
:103650005E965E965D963D965D8E3D8E1C86FC7DEB
:10366000DC75BC6D9C6D9C65BC6DDC75DC75DC75BA
:10367000DD75FD75BC6D7B653B553B4D5B4D5A4D16
:103680005B4D3A453A453B4D3B4D3B4D5B4D5B4DAC
:103690005B4D5B4D5B4D7B4D7B4D5B4D7B555B4D82
:1036A0005B4D5B4D5B4D5B4D5B4D3B4D3B4D5B5512
:1036B0007B557B5D7B5D7B5D7B5D7B5D7B5D7B5D52
:1036C0007B5D7B5D7B5D7B5D5B555B555B555B55DA
:1036D0005B553B555B555B555B555B555B555B558A
:1036E0005B555B555B555B557B557B555B555A551B
:1036F0005A555A555A553A553A553A553A553A55F2
:103700003A4D3A553A553A4D3A4D3A4D3A4D1A4D91
:103710001A4D3A4D1A4D3A4D3A4D3A4D3A4D3A4DB1
:103720003A4D3A4D3A4D1A4D3A4D3A4D3A4D3A4D81
:103730003A553A4D3A4D3A4D3A553A553A553A5529
:103740003A553A553A55395539553A553A55395DFC
:103750001C86DB7D396D5A655A65596D596D596DF9
:103760007A759A7D9A7D596D185DF85CD754D75C4F
:10377000D75CD75CD75CD75CD75CD65CD65CD664AC
:10378000D664D664D664D664D664D664D664D66469
:10379000D56CD66CD56CD56CD56CD56CD56CD57418
:1037A000D574D574D57CD57CD57CF57CF57CD47C62
:1037B000F47CD47CD484D484D484D484D484D48439
:1037C000D48CD48CD48CD48CD48CD494D394D394E3
:1037D000D394D394B394B394B29CB29C929C929C95
:1037E000929C929C92A4B2A4B2A4B2A4B2A4B1A49A
:1037F000D2A4D2ACD1ACD1ACD2ACD2ACD2B4D2B4D3
:10380000D2B4D2B4B2B4B2B491AC71AC71AC71AC4C
:10381000B2B4B2B4D2B4D3BCF4BCF4BC14BD14BDC5
:1038200014BD14BD14BD14BDF3BCD3BCD3BCD3BCF8
:10383000B3BCB2BCB2BCB2BCB3C4D3C4F3C414C531
:1038400035CD55CD76CD76D555CD55CD55CD76CD1D
:1038500096D5B7D5B7D5B7D55B555B557B5D7B5D49
:103860009C659C6D9C6D9C75BC7DDC7DFC7DFC85A8
:10387000FC85FC85FC7DDC7DBC759C6D9C6D7C6550
:103880007C657C5D9C5D9C5D9B5D9B5D9C5D9C5DAA
:103890009C5D7C5D7C5D7C5D7C5D7C557C557C5D50
:1038A0007C555C555B555B557B5D9C5DBC65BC6523
:1038B0009C5D7C5D7C5D7C659C6DDC75FC7DFC7D30
:1038C0001C863C863D8E5D965D965D965D965D960A
:1038D0005D965D965D965D965D965D963D8E3D8EA0
:1038E0001D86DC7DBC6D9C6DBC65BC6DDC75FC759E
:1038F000FD75FD75FD75DC6D7B655B553A4D5A4D6B
:103900005A4D3A453A453B4D3B4D3B4D3B4D3B4D6A
:103910005B4D5B4D7B4D7B4D7B4D7B4D7B557B5597
:103920007B4D5B4D5B4D5B4D5B4D3B4D3B4D5B556F
:103930005B555B557B5D5A5D7B5D7B5D7B5D7B5D38
:103940007B5D7B5D5B5D5B5D5B555B555B557B5577
:103950005B555B555B555B555B555B555B555B55E7
:103960005B555B555B557B5D7B555B555B555B558F
:103970005A555A555A555A553A553A553A553A554F
:103980003A4D3A553A553A553A4D3A4D3A4D3A4DE7
:103990003A4D3A4D3A4D3A4D3A4D3A4D3A4D3A4DEF
:1039A0003A4D3A4D3A4D3A4D3A4D3A4D3A4D3A4DDF
:1039B0003A553A553A553A553A553A553A553A558F
:1039C000195539553A55595D395D3A553A55395D6C
:1039D0001C86DB7D396D5A655A6D5A6D596D596D6E
:1039E0009A759A7DBA7D59751865F85CF75CF75C35
:1039F000D75CD75CF75CD75CD75CD75CD764D66400
:103A0000D664D764D664D66CF66CD66CD66CF66C7D
:103A1000D66CD56CD56CD56CD574F56CD674F57444
:103A2000F67CF57CF584F57CF57C157DF57CF57CE4
:103A3000F584F584F584D584F48CF48CF48CD48CE2
:103A4000D48CD48CD494F494F494D494D494D39407
:103A5000D394D394D39CB39CB29CB29CB29C929CC2
:103A6000B29CB2A4B2A4B2A4B2A4B2A4B2A4B1A4AF
:103A7000B1ACB1ACB1ACD1ACD2ACD2B4D2B4D2B4A2
:103A8000D2B4B2B491B471AC71AC71AC91AC92B42B
:103A9000D2B4D3BCF3BCF3BCF4BC14BD14BD14BD90
:103AA00014BD14BD14BD13BDD3BCB3BCD2BCD3BCB8
:103AB000D2BCB2BCB2BCB3C4D3C4F4C414CD35CDF3
:103AC00056CD76CD76CD76CD55CD76CD76D596D5EF
:103AD000B6D5B7D5B7D5B7D55B553B4D3A553B5560
:103AE0005B5D7B5D7C5D9C659B6D9C75BC75DC75D1
:103AF000DC7DFC7DFC7DFC85FC7DFC7DDC75BC7586
:103B00009C6D9C657C5D7C5D7B5D9B5D9B5D9C5D38
:103B10009C659C659C5D9C5D7C5D7C5D7C557C555D
:103B20005B5D7C5D7C5D7B555B557B557C5D9C6501
:103B3000BC65BC659C659C657B657B65BB6DDC7508
:103B40001C7E1D7E3D863D8E3D965D965D967D9EDE
:103B50007D9E5D965D9E5D965D965D965D963D96BD
:103B60003D8E3D86FD7DDC759C6D9C65BC6DDC7578
:103B7000DC75FC75DC75DC75DD75BC657B5D5A55E7
:103B80005A4D5B4D3B4D3B453B4D3B4D3B4D3B4DBE
:103B90005B4D5B4D5B4D5B4D7B557B557B555B5565
:103BA0005B4D5B4D5B4D5B4D5B4D3B4D3B4D5B4D15
:103BB0005B555A555B5D5B5D7B5D7B5D7B5D5B5DF6
:103BC0005B5D5B5D5B5D5B555B555B555B555B555D
:103BD0005B555B555A555B555A555B555B5D5B5D57
:103BE0007B5D7B5D7B5D5B555B555B555B555B55DD
:103BF0005B555B555A555A555A553A553A553A55AB
:103C00003A553A553A553A553A553A553A553A553C
:103C10003A553A553A553A553A553A553A553A552C
:103C20003A4D3A4D3A4D3A4D3A4D3A4D3A4D3A4D5C
:103C30003A4D3A4D3A4D3A4D3A4D3A553A553A5534
:103C40003A553A553A55395D39553A553A55395DEF
:103C50003C86DB7D596D7A657A655A6D5A6D596D72
:103C60007A759A7DBA7D59751865185DF85CF85CAF
:103C7000F75CF75CF75CD75CF764D764D764D7640C
:103C8000D764D664D664D66CF66CD66CD66CD66C1B
:103C9000F66CF66CF56CF56CF574F574F574F67CF1
:103CA000F67CF67CF67CF67C157D158515851585EC
:103CB000F584F584F584F584F58CF58CF48CF48C1E
:103CC000D48CD494F494F494F494F494F494D3941D
:103CD000D394D39CD39CB39CB29CB29CB29CB29C18
:103CE000B29CB2A4B2A4B2A4B1A4B1A4B1A4B2AC27
:103CF000B2ACD1ACD2ACD1ACD1ACD1B4D2B4B2B400
:103D0000B2B491AC71AC71AC91AC91B4B2B4B2B488
:103D1000D3BCF3BCF3BCF4BCF4BCF4BC14BD14BD04
:103D200014BDF3BCF3BCD3BCB3BCB2BCB2BCB2BC1C
:103D3000B3BCB3BCD3C4D3C4F4C434CD55CD55CD7A
:103D400055CD55CD55CD55CD76D596D5B6D5B6D51F
:103D500096D5B7D5D7DDF7DD5B555B555B553A4D4D
:103D60003A4D5B555B557C5D9C659C6D9C6D9C6D77
:103D7000BC75BC7DDC7DFC7DFC85FC85FC7DFC7D13
:103D8000DD75BC6D9C659C659B659C659B5D9B5DC5
:103D90009C5D9C659C659C659C659C5D7C5D7B5D7C
:103DA0005B5D7B5D7C5D9C5D9C5D7B557B557B5D40
:103DB0007C5D9C65BD65BC65BC657B657B659B6505
:103DC000DC6DFC753D7E3D863D8E3D8E5D967D961F
:103DD0007D967D967D9E5D9E5D965D9E5D965D96D3
:103DE0005D963D8E1D861D86FC75DC6DBC65BB6DCC
:103DF000BB6DFC75FC75DC75FD75DD75BC6D7B5DA3
:103E00005B555B555B4D3B4D3B4D3B4D3B4D3B4D02
:103E10003B4D5B4D5B4D5B4D7B555B557B557B5502
:103E20005B555B555B555B555B555B555B555B5512
:103E30003A4D3A555A555B557B5D7B5D7B5D7B5DAD
:103E40005B5D5B5D5B5D5B5D5B5D7B5D5B5D5B5D92
:103E50005B555B555B555B555B555B555B5D5B5DD2
:103E60007B5D7B5D7B5D7B5D7B5D7B5D7B5D7B5D92
:103E70005B5D5B5D5B555B555B555B555A555B55B3
:103E80005A553A553A553A553A553A553A553A559A
:103E90003A553A553A553A553A553A553A553A55AA
:103EA0003A553A553A553A553A553A553A553A559A
:103EB0003A553A553A553A553A555A555A553A554A
:103EC0003A553A555A5D595D3A5D3A553A553A5D1B
:103ED0003C86FB85596D7A6D7A6D5A6D5A6D7A758F
:103EE0009A75BB7DBA85797539651865185DF85C7A
:103EF000F85CF85CF764F764F764F764F764F764F8
:103F0000F764F76CF76CF76CF66CF66CF66CF66CA5
:103F1000F674F674F67416751675F674F67CF67CFF
:103F2000F67CF67C1685168516851685158515850D
:103F30001585158D158DF58C158D158D158D158D9A
:103F4000F494F494F494F494F494F494F49CF39C22
:103F5000F39CD39CD39CD39CD29CD2A4B29CB29C05
:103F6000B2A4B2A4B2A4B2A4D2ACD2ACB2ACB1AC42
:103F7000B1ACD1ACD1ACD1B4B1B4B1B4B1B491B4F1
:103F800091AC71AC71AC71AC92B4B2B4D2B4D3BCDC
:103F9000F3BCF3BCF4BCF4BCF4BCF4BCF4BC14BD82
:103FA000F3BCF3BCD3BCB3BCB2BCB2BCB2BCB2BCFD
:103FB000B2BCD3C4F3C4F4C414CD55CD76CD55CD25
:103FC00055CD55CD76CD76CDB6D596D596D596D55B
:103FD000B7D5D7D5F8DD18DE7B5D5B5D5B555B55EE
:103FE0003B553B553B555B555C557C5D9C659C6DDD
:103FF0009C6D9B6D9B75BB75FC7DFC851C861D7E39
:10400000FD7DDC75DC75BC6D9C6D9C6D7C657B6598
:104010009B5D7C5D9C659C659C659C659C5D9C5DD9
:104020007C5D7B5D7B5D7C5D9C559C5D9C5D7C5D72
:104030007C5D7C5D9C5D9C65BC65DC65BC6D9B6549
:104040009B65BB6DFC751C7E1D863D8E3D8E3D8E39
:104050005D965D967D965D9E5D9E5D9E5D9E5D9688
:104060005D963D963D8E3D8E3D7E1D76DC75BC6D2C
:10407000BB6DBC6DFC75FD75DC75DC75DC75DC6DD0
:104080009B655B555B4D5B553B4D3B4D3B4D3B4D08
:104090003B4D3B4D3B555B555B555B555B555B5510
:1040A0005B555B555B555B555B555B555B553B55B0
:1040B0003A553A553A553A555A555B557B5D7B5DB5
:1040C0005B5D5B5D5B5D5B5D5B5D5B5D5B5D5B5D30
:1040D0007B5D7B5D7B5D7B5D5B557B5D5B5D5B5590
:1040E0007B5D7B5D7B5D7B5D7B5D7B5D7B5D7B5D10
:1040F0005B5D5B5D5B5D5B5D5B555B553A553A5562
:104100003A553A553A553A553A553A553A553A5537
:104110003A553A553A553A553A553A553A553A5527
:104120003A553A553A553A553A553A553A553A5517
:104130003A553A553A553A553A553A553A553A5507
:104140003A555A555A55395D595D3A553A553A5D81
:104150003C86FB85596D5A6D7A6D5A6D5A6D7A752C
:104160009A75BB7DBA855975396D18651865F85C07
:10417000F85CF864F764F764F764F764F764F7646D
:10418000F764F76CF76CF76CF66CF66CF66CF6741B
:10419000F674F6741675167516751675F67C167D1A
:1041A000167D168516851685168516851585158541
:1041B0001685158D158D158D158D158D158D1495EF
:1041C000F494F494F494F494F494F49CF39CF39C99
:1041D000F39CD39CD29CD29CD29CB29CB2A4B29CA5
:1041E000B2A4B2A4B2A4B1A4B1ACB1ACB1ACB1AC04
:1041F000B1ACB1ACB1ACB1ACB1B4B1B491AC70AC28
:1042000070AC71AC91ACB2B4B2B4B2B4D3BCF3BCC8
:10421000F3BCF4BCF4BC14BDF4BCF4BCF3BCF3BC00
:10422000F3BCD3BCB2BCB2BCB2BCB2BCB2BCB2BCBC
:10423000D3C4F3C414C534CD35CD55CD55CD55CDEE
:1042400055CD76CD96D596CD96CD96D596D5D7D556
:10425000F7DDF8DDF8DDF7DDBC6D9B657B657B5D2B
:104260005B5D5B555B555B553B555B555B555B5DDE
:104270007C65BC6DBC6DBB6D9B75DC75FC7DFD7D8F
:10428000FD7DFD7DFD7DDC7DBC75BC6D9C6D9C6503
:104290009C659C659C659C659C5D9C659C659C651E
:1042A0009C657C5D7B5D7B5D7C559C559C559C5DD8
:1042B0009C5D7C5D7C5D7C5D9C5DBC65DD6DDD6DCC
:1042C000DC6DBC6DBB6DBB6DDC75FC7D3D863D8ED4
:1042D0005D8E5D965D967D967D9E5D9E5D9E3D9616
:1042E0005D965D965D965D963D8E3D86FD85DC7D99
:1042F000BC759B6DBC6DDC6DFD75DC75DC75BC75CE
:10430000DC6DBC659B5D5B553B553B4D5B4D5B4D33
:104310003B4D3B4D3B555B555B555B555B555B558D
:104320005B555B555B555B555B555B555B555B550D
:104330005B553A4D3A4D3A4D5A555A555B555B557A
:104340005B5D5B5D5B5D5B5D5B5D5B5D5B5D5B5DAD
:104350005B5D5B5D5B5D5B555B555B555B555B55C5
:104360007B5D7B5D5B5D5B5D5B5D5B5D5B5D5B5D4D
:104370005B5D5B5D5B5D5B555B555B553A553A55E7
:104380003A553A553A553A553A553A553A553A55B5
:104390003A553A553A553A553A553A553A553A55A5
:1043A0003A553A553A553A553A553A553A553A5595
:1043B0003A553A553A553A553A553A553A553A5585
:1043C0003A553A5539553955395D3A553A55395D69
:1043D0001C86DB85596D5A655A655A6D596D5A6D43
:1043E0009A75BB7DBA7D597539651865F85CF85CBE
:1043F000F864F864F764F764F764F764F764F764E3
:10440000F764F76CF76CF76CF66CF66CF66CF67498
:10441000F674F674F674F6741675F674F67C167DFA
:10442000167D167D168516851685168516851685C4
:104430001685158DF58CF58CF58CF48CF48CF48C3C
:10444000F494F494F494F494F494F49CF39CD39C36
:10445000D39CD29CB29CB29CB29CB29CB29CB29CAB
:1044600092A4B1A4B1A4B1A491A4B1AC91AC91AC0B
:10447000B1AC91ACB1ACB1B490B470AC50AC50A490
:1044800050AC71AC91ACB2B4B2B4D3B4D3BCF4BC44
:10449000F4BCF4BCF4BCF4BCF4C4F3BCF3BCD3BCB7
:1044A000B2BCB2BCB2BC92BCB2BCB2BCB2BCD3C493
:1044B000F3C414C534C554CD35CD55CD55CD76D5C1
:1044C00096D596D596CD76CD76CDB6D5D7DDF7DD1A
:1044D000F7DDF7D5F7D5F7DDDC75BC75BC6D9C6DE8
:1044E0009C657B5D5B5D7B5D5B5D5B557B555B557B
:1044F0005B557B5D9B5DBC65BC6DDC6DDC75DC7507
:10450000DC75DC7DFC7DFC7DDC7DDC75DC75BC6DEB
:10451000BC6DBC659C659C65BC65BC659C659C5D13
:104520009C659C659C5D9C5D9C559C559C5D7C5DE3
:104530007C5D7C5D9C5D9C5D7C5D7C5D9C65BD6DFA
:10454000DD6DBD6DBC6DBC6D9B6DBC75FC7D1D8650
:104550001D865D8E7D967D967D9E7D965D965D9E8B
:104560005D9E5D965D963D963D963D961D8E1D86A3
:10457000FC7DBC759C6D9C6DBC6DFD75DD75DC7541
:10458000DC75DC75BC6D7B5D5B553B553B4D3B5530
:104590003B4D5B4D5B4D5B4D3B4D5B557B557B55C3
:1045A0007B557B557B555B555B555B555B555B552B
:1045B0005B555B553B4D3A4D3A4D3A4D3A555A5540
:1045C0005B555B555A555B5D5B555B555B5D5B5D54
:1045D0005B555B555B555B555B555A555B555B555C
:1045E0005B555B555B5D5B5D5B5D5B5D5B5D5B5D1B
:1045F0005B5D5B5D5B5D5B555B555B553A553A5565
:104600003A553A553A553A553A553A553A553A5532
:104610003A553A553A553A553A553A553A553A5522
:104620001A551A551A551A553A553A553A553A5592
:104630001A551A551A551A553A553A553A553A5582
:104640003A553A553955395539553A551A55195D2E
:104650001C86DB7D396D5A655A653A6D3A6D596D28
:104660007A75BB7D9A7D386D1965F85CF85CF75CEE
:10467000D75CD75CD764D764D764D764D764F76452
:10468000F764F764F66CF66CF66CF66CD66CF67440
:10469000F674F674F674F674F674F674F67CF67CBA
:1046A000F67CF67CF68416851585158515851585A9
:1046B000F584F58CF58CF58CF58CF58CF48CF48CFC
:1046C000F494F494D494F494F494D394D39CD39C1D
:1046D000D29CD29CB29CB29CB29CB29C91A4919C64
:1046E00091A491A491A491A491A491A471AC90AC33
:1046F00090AC90AC90AC90AC50AC4FAC2FAC50A404
:1047000050AC71AC92B4B2B4B3B4D3B4D3BCD4BCD7
:10471000D4BCD4BCD4BCD4BCD3BCD3BCB3BCB2BC5E
:1047200092BC92BCB2BC92BC92BCB2BCD3C4F3C427
:10473000F4C414C534C554C535CD55CD76D596CD04
:1047400096CD75CD76CD96CDB7D5D7D5D7DDD7DD7E
:10475000D7D5F7D518DE18DEDC7DDC7DBC75BC75E1
:10476000BC6D9C6D7C657C5D5B5D5B5D5B557B556D
:104770007B555B4D5B555B5D7B5D9C65BC65BC6D36
:10478000DC75BC75DC7DDC7DFC7DFC7DDD75DD755F
:10479000DC75BC6DBC6DBB65BC65BC659C659C6512
:1047A0009C659C659C65BD5DBD5DBD5D9C5D7C5DE6
:1047B0007C557C5D7C5D9D5D9D5D7C5D7C5D7C5DF7
:1047C0007C65BD6DDD6DDD75DC6DBC6DBB6DDC7557
:1047D000FC7D1D865D8E5D8E7E965D965D967D96DA
:1047E0005D965D965D965D965D963D963D8E5D8E81
:1047F0001D86FD7DDD75BC75BC6DBC6DDC75DC7D1D
:10480000DC7DBC75BB75BB6D9C655B5D3B553B55ED
:104810003B555B4D3B4D5B4D3B4D5B555B555B5598
:104820005B555B555B555B555B555B555B555B5508
:104830005B555B555B553A4D3A4D3A4D3A553A55B5
:104840005B555B5D5B555B555A555A555B555A55E3
:104850005A555B555B555A555A555A555A555B55DD
:104860005B555B555B5D5B555B555B5D5B5D5B5DA8
:104870005B555B5D5B5D5B555B555B555B553A55C9
:104880003A553A553A553A553A553A553A553A55B0
:104890003A553A553A553A553A553A553A553A55A0
:1048A0001A551A551A551A551A551A551A551A5590
:1048B0001A551A551A551A551A551A551A553A5560
:1048C0003A553A553955395519551A551A55195DEC
:1048D0001C86DB7D396D5A655A6539653965596DB8
:1048E0007A75BB7D797D386D1965F85CF75CD75CAE
:1048F000D75CD75CD764D764D764D664D764F664D2
:10490000F764F764D66CF66CD66CD66CD66CF6741D
:10491000F674F674F674F674F674F67CF57CF67C30
:10492000F67CF67CF68416851585F584F584F58489
:10493000F584F58CF58CF58CF58CF58CF58CF48C78
:10494000F494D494D494D394D394D394D394D39C04
:10495000D29CB29CB29CB29CB19C919C919C919C2B
:10496000919C71A471A490A490A470A470A470AC44
:1049700070AC50AC4FAC4FAC2FAC2FAC4FAC50AC7C
:1049800071AC91B4B2B4B2B4B3B4D3B4D3B4D3BCF5
:10499000D3BCD3BCD3BCD3BCB2BCB2B492B492BC73
:1049A00092BC92BCB2BCB2BCB2BCB3C4D3C414CD32
:1049B00014CD14C534C555CD75CD75D575CD75CD12
:1049C00075CD75CD96D5B7D5D7D5D7D5D7D5D7D5BC
:1049D000F7D5F8DD18DE18DEFC85FC7DFC7DFC7566
:1049E000DC75DC6DBC6D9C659C657B655B5D5B55BA
:1049F0005B557B555B555B555B555B555B5D7B65DF
:104A0000BC6DBC6DBC75DC75DC75DC75DC75FC7D66
:104A1000FC75DC75DC75BC6D9C6D9C65BC659C652E
:104A20009C659C65BC65BC659C65BC659C5D9C5D2E
:104A30009C5D9C5D7C5D7C5D7C5D9C5D9C5D7C5D2E
:104A40007C5D7C5D9C65BD65DD6DDC6DDC6DBC6D8C
:104A5000BC75DC75FD7D3D865D8E5D965D967D96B3
:104A60005D965D965D965C965D965D965D8E5D8EBF
:104A70003D8E3D861D86FC7DDC75BC759B75BC75C9
:104A8000DC7DDC7DDC75BC6DBC6D9C6D7B5D5B5D38
:104A90003B555B555B4D5B4D5B555B4D5B555B55CE
:104AA0005B555B5D5B5D5B555B557B5D7B555B552E
:104AB0005B555B555B555B553A553A553A551A4D22
:104AC0003A555B555B555A555A555A555A553A55AC
:104AD0003A553A553A553A555A555A555A555A55DE
:104AE0005B555B555B555B555B5D5B5D5B5D5B5D26
:104AF0005B555B555B555A553A555A555A553A557B
:104B00003A553A553A553A553A553A553A553A552D
:104B10003A553A553A553A553A553A553A553A551D
:104B20001A551A551A551A551A551A551A551A550D
:104B30001A551A551A551A551A551A553A553A55BD
:104B40003A553A553A553955195519551955195D6A
:104B50001C86DB7D39655A655A6539653965596D3D
:104B60007A75BB7D7975386D1965F85CF75CD75C33
:104B7000D75CD75CD764D764D764D764D764D6646E
:104B8000D664D664D66CF66CD66CD66CD66CF674DD
:104B9000F674F674F674F574F574F57CF67CF67CB0
:104BA000167D168516851685F584F584F584F584BD
:104BB000F584F58CF58CF58CF58CF58CF58CF48CF6
:104BC000F494D494D394D394D394D39CD39CB39C93
:104BD000B29CB29CB29CB19C919C919C919C91A4E2
:104BE00070A470A470A470A470A450A450A470AC5D
:104BF00050A44FA42FA42FA42FA450A450AC70AC49
:104C000091AC92B492B492B4B3B4D3B4D3BCD3BC89
:104C1000D3BCD3BCB3B4B2BCB2BCB2B491B471B463
:104C200071B492B492BCB2BCD3C4D3C4F4C414CD96
:104C300014C514C555CD75CD75CD55CD55CD75CD96
:104C400096D596D596D5B7D5B7D5D7D5F7D5F8D5C6
:104C5000F8DDF8DDF8DDF8DD1D861D7EFD7DFD7DCE
:104C6000FC7DFC7DDC75DC75BC6DBC6D7C657B5DA5
:104C70007B5D5B5D5B5D5B557B555B555B5D7B5D2C
:104C80007B5D7B65BC65BC6DDC75BC75BC75DC751E
:104C9000DC75DC75FC75DC75DC75DC6DBC6DBC65CC
:104CA000BC65BC65BC65BC65BC65BC659C659C653C
:104CB0009C5D9C5D9C5D7C5D7C557C5D7C5D9C5DB4
:104CC0007C5D7C5D7C5D9C5DBC65DC6DDC6DFC753C
:104CD000BC6D9C6DBC75DC7DFD853D865D8E5D96F5
:104CE0005D965D965D965D965D965D965D965D8E34
:104CF0005D8E5D8E3D861D86FC7DDC7DBB759B6D6E
:104D00009B75DC75FD75DC75BD75BC759C6D7B5D3B
:104D10005B555B555B4D5B4D5B4D5B4D5B555B5533
:104D20005B555B555B555B555B557B5D5B555B55DB
:104D30005B555B555B555B555A553A553A551A4D7F
:104D40003A553A555A555B555A553A553A553A558A
:104D50003A553A553A553A553A555A555A555A557B
:104D60005A555A555A555A555B555B555B555B55C7
:104D70005A555A555A553A553A555A555A553A551B
:104D80003A553A553A553A553A553A553A553A55AB
:104D90003A553A553A553A553A553A553A553A559B
:104DA0001A551A551A551A551A551A551A551A558B
:104DB0001A551A551A551A551A551A551A553A555B
:104DC0001A551A551A551955195519551955195570
:104DD000FC85BA7D39655A655A653A6D3965596DF4
:104DE0007A75BA7D597D38753865F85CF85CF75C82
:104DF000D75CF75CD764D764D764D664D664F764AD
:104E0000D664D664D66CF66CD66CD66CD66CF6745A
:104E1000F674F674F674F574F574D57CF67C167D2C
:104E20001685168516851685F584F584F584F58C2A
:104E3000F58CD58CF594F594F58CF58CF58CF48C7B
:104E4000F494D394D394D394D39CD39CB29CB29C2B
:104E5000B29CB29CB19C919C919C919C709C709CCA
:104E600070A470A470A470A44FA44FA44FA44FA426
:104E70002FA42FA42FA42FA430A450A470AC71ACE5
:104E800091AC92B4B2B4B2B4B3B4D3B4D3B4D3B4D7
:104E9000D2B4B2B4B2B491B491B491B471B471B4A7
:104EA00091BC92BCB2BCD2BCF3C4F3C414CD14C543
:104EB00034CD55CD55CD35C534C555CD75D575D504
:104EC00096D596D596D5B7D5B7D5D7D5D7D5F7D565
:104ED000F8DDF8DDF8DDF8DD1D7E1D7E1D7E1D7E12
:104EE0001D7EFD7DDC75DC75FD7DDC75BC75BC6DE6
:104EF0009C657B657B5D5B5D5B555B555B5D5C5D70
:104F00005B5D7B5D7B5D7B5D7C5DBC6DDC6DDC6DCD
:104F1000BC6DDC75DC75FC75FC7DDC75DD75DC6DF0
:104F20009C6DBC6DBC6DBC65BC65BC65BC659C65A1
:104F30009C659C659C5D9C5D9C5D7C5D7C5D7C5DF9
:104F40007C5D7C5D9C5D9C659C659C65BC6DDD6D40
:104F5000DD75FC75DC75BC75BC75FC7D3D865D8EB4
:104F60005D967D967D967D965D965E963D965D9668
:104F70005D963D8E3D8E1D8E1C86FC7DDC7DDB7539
:104F8000BB759B6DBC6DFD75FD75DD75BC6D9C6560
:104F90007B655B5D5B555A555B555B553B553B559A
:104FA0003B555B555B555B555B555B555B5D5B5D91
:104FB0005B555B555B555B555B555B553A553A55B3
:104FC0003A553A553A553A553A553A553A553A5569
:104FD0003A553A553A553A553A553A553A553A5559
:104FE0005A555A553A553A555A555A555A555A5589
:104FF0003A553A553A553A555A553A555A555A55D9
:105000003A553A553A553A553A553A553A551A4D50
:105010003A553A553A551A553A553A553A551A5558
:105020001A551A551A551A4D1A551A551A551A5510
:105030001A551A551A551A551A5519551A551955FA
:1050400019551A551A5519551955194DF954F95438
:105050001C86BB7D39655A655A6539653965596D58
:105060007A759A7D797558753865F85CF85CF85CE6
:10507000D75CD764D764D764D764D764D764D76C58
:10508000D66CD664D664D66CD66CD66CD66CF674F8
:10509000F674F674F674F674F67CF67CF67C167D7F
:1050A0001685158515851585F584F584158DF58C82
:1050B000F58CF58CF58CF594F594F594F494F494C2
:1050C000B494B394B394D394D394D39CB29CB29C31
:1050D000B29CB29C919C919C709C709C709C709CAA
:1050E000709C6F9C4FA450A44FA44FA44FA42FA416
:1050F0002FA42FA42FA42FA450A450AC71AC91AC1A
:1051000091B492B4B2B4B2B4B2B4B3B4B2B4B2B4AF
:10511000B2B492B491B471B471B491B491B491B485
:1051200092BCB2BCD2BCF3C4F3C4F3C414CD55CD0D
:1051300055CD35CD14C514C555CD75D596D595D558
:1051400095D596D596D5B7D5D7D5D7D5D7D5D7D5E3
:10515000D7DDD7DDD7D5D7D51D7EFD7DFD7DFD7D86
:105160001D7E1D7E1D7EFD7DFD7DDC75BC75DD75A6
:10517000BD6DBC6D9C6D7C657C655B5D5B5D5B5DE9
:105180007B5D7B5D7B5D7B555B5D7B5D9C65BC6D0D
:10519000BC6DDC75DC75DC75DC75DC75DD75FC758E
:1051A000DC75BC6D9C6D9C6DBC659C65BC659C652F
:1051B0009C659C659C659C5D9C5D9C659C5D7C5D27
:1051C0007C5D7C5D7C5D7C5D7B5D9C659C659C65A0
:1051D000BC65DC6DFD75FD75DC75DC7DDC7D1C86DC
:1051E0003D8E3D8E5E965D965D965E965E965D9674
:1051F0005D963D963D8E3D8E1C8E1C861C86FC7DEC
:10520000DC7DBC759C6D9C6DDC75DD75DD75BC6DE4
:10521000BC657B655B5D5B555B553B553B553B55C5
:105220003B553B555B555B555B555B5D5B5D5B5D26
:105230005B555B555B555B555B555B553A553A5530
:105240003A551A551A551A553A553A553A553A5546
:105250003A553A553A553A553A553A553A553A55D6
:105260003A553A553A553A555A555A555A553A5566
:105270003A553A553A553A555A555A555A555A5536
:105280003A553A553A553A553A553A553A551A4DCE
:105290001A553A553A553A553A553A553A551A55D6
:1052A0001A551A551A551A551A551A4D1A551A558E
:1052B0001A551A551A551A551A551A551A551A5576
:1052C00019551A551A5519551955194DF954F954B6
:1052D0001C86BB7D39655A655A653965396D596DCE
:1052E0007A759A7D797D59751865F85CF85CF85C7B
:1052F000D75CD764D764D764D764D764D764D664DF
:10530000D66CD664D664D66CD66CD66CD66CF67475
:10531000F674F674F674F674F67CF67CF67C167DFC
:10532000157D1585158515851585F584F58CF58C08
:10533000F58CF58CF58CF594F594F594F494F4943F
:10534000D394B394B394D394B394B394B294B29CDF
:10535000B29CB29C919C919C709C709C709C709C27
:105360004F9C4FA44FA44FA44FA42FA42FA42FA40D
:105370002FA42FA42FA42FAC50AC70AC71AC91B45F
:10538000B2B4B2B4B2B4B2B4B2B4B2B4B2B492B40D
:1053900091B471B471B470B470B491B491B491BC5F
:1053A000B2BCB2BCD2BCF3C4F3C414CD34CD34CD42
:1053B00014C514C534C555CD75D575D575D595CDE0
:1053C00095D596D5B7D5B7D5B7D5D7D5D7DDD7D558
:1053D000D7D5B7D596CD96CD1D7E1D7E1D861D8653
:1053E0001D7E1D7E1D861D86FD7DFD7DFD7DDD7D79
:1053F000BD75DD75BD75BD759C6D7C657C657B5D22
:105400007B5D5B5D5B5D7C559C5D7C5D7B5D7B5D01
:105410007B65BB6DBC6DDC75DD75DC75DC75DC75C5
:10542000DC75DC75BC75BC6DBB6D9C6D9C6D9C6D3D
:105430009C65BC659C659C657C5D9C5D9C5D9C657C
:105440009C659C5D7C5D7C5D7C5D7C5D9C659C65FC
:105450009C65BC65DC6DDD75FD75FD7DFC7DDC7DD1
:10546000DC7D1C863D8E5D8E5D8E5D965E965E96C5
:105470005D963D963D961D8E3C8E1C8E1C86FD8550
:10548000FD7DDC7DBC75BC75BB75DC75DC75DC75C4
:10549000DC75BC6D9B657B5D5B555A553A553A553D
:1054A0003B553A555A555B555B5D5B5D5B5D5B5D9E
:1054B0005B5D5B5D5B5D3A555B555B553A555B5596
:1054C0003A553A551A551A553A553A553A553A55A4
:1054D0003A553A553A553A553A553A553A553A5554
:1054E0003A553A553A553A553A553A553A553A5544
:1054F0003A555A555A555A555A555A553A553A5594
:105500003A553A553A553A553A553A553A551A5543
:105510003A553A553A553A553A551A551A551A5573
:105520001A551A551A551A551A551A4D1A4D1A4D1B
:105530001A4D1A4D1A4D1A4D1A551A551A551A5513
:105540001A551A551A55195519551955F954195509
:105550001C86BB7D39655A655A6539653965396D73
:105560007A759A7D797D59751865F85CF85CF75CF9
:10557000D75CF764F764D764D764D764D764D6641C
:10558000D66CD664D66CD66CD66CD66CD66CF674EB
:10559000F674F674F674F674F67CF67CF67C167D7A
:1055A000157D15851585158515851585158DF58C44
:1055B000F58CF58CF58CF594F594F494F494D494DE
:1055C000D494D394D394D394B394B294B294929445
:1055D000919C919C919C709C709C709C709C4F9C29
:1055E0004F9C4F9C2FA42FA42FA42F9C0F9C2FA423
:1055F0002FA42FA44FA450AC70AC70AC91ACB2B43B
:10560000B2B4B2B4B2B4B2B492B491B471B471B42D
:1056100071B470B450B450B491B491B491B4B2BCFC
:10562000B2BCD2BCF3C413C534CD34CD14C5F3C45D
:1056300013C534CD75CD75CD74CD75CD95CD95CDC6
:1056400096D5B6D5B7D5B7D5B7D5D7D5B7D5B7D5FC
:1056500096D576CD55CD55CDFD7DFD7D1D7E1D8626
:105660001D861D861D861D861D861D86FD7DFD7D74
:10567000FD7DDD7DDC7DBC75DC75BC6D9C6D9C6D40
:105680007C657B5D7B5D5B557C557B5D7B5D7B6578
:105690007B657B657B659C65BC6DDD6DDD75DC7553
:1056A000BC75BC75DC75BC75DC75DC6DBC6D9C6D4A
:1056B0009C6D9C659C65BC659C659C657C5D9C65E2
:1056C0009C659C659C659C659C657C5D7C5D7C5D4A
:1056D0009C5D9C65BC65BC65BC6DDD75FD7DDD7547
:1056E000DC7DDC7DFC7D1C863D8E5D8E5E965D9650
:1056F0005D965D963D961D8E3D8E1D8E1D8E1D8682
:105700001D86FC7DDC7DDC7DBB759B75BB75DC750A
:10571000DC75DC75BC6D9B6D9B5D5B5D5A553A55C8
:105720005A555A555A555A553B555B5D5B5D5B5D05
:105730005B5D5B5D5B5D5B5D5B5D5B5D3A553B55FA
:105740003B553A551A551A551A553A553A553A5540
:105750003A553A553A553A553A553A555A553A55B1
:105760003A553A553A553A553A553A553A553A55C1
:105770003A555A555A555A555B555A553A553A5510
:105780003A5D3A5D3A553A553A553A553A553A5591
:105790003A553A553A553A553A551A551A551A55F1
:1057A0001A551A551A551A551A551A4D1A4D1A4D99
:1057B0001A4D1A4D1A4D1A4D1A551A553A553A5551
:1057C0001A551A551A55195519551A551955195D5D
:1057D0001C86DB7D39655A655A6539653965396DD1
:1057E0007A759A7D797D597518651865F85CF75C4E
:1057F000F764F764F764F764F764D764D764D66432
:10580000D66CF66CF76CF66CD66CD66CF674F674D7
:10581000F674F674F674F674F67C167D167D167DB5
:105820001685158515851685158515851585F58CBF
:10583000F58CF58CF58CF594F494F494F494D4945C
:10584000D394D394D394B394B294B294B29C919CD5
:10585000B19C919C709C709C709C709C4F9C4F9CC8
:105860004F9C4F9C2FA40FA40F9C0E9C0E9C0F9C32
:105870002FA42FA44FAC50AC70AC71AC71AC91B4F0
:10588000B2B492B492B492B491B471B471B450B44D
:1058900050B450B450B450B491B491B4B1BCB2BC93
:1058A000B2BCF3C413CD34CD14C5F3C4F3C434CDAA
:1058B00054CD54CD54CD34C575CD95D595D595CD14
:1058C000B6D5B6D5B6D5B7D5B7D5B7D596D576CDE5
:1058D00055CD55CD55CD55CD1D7EFD7DFD7DFD7D37
:1058E000FD7D1D7E1D861D863D861D861D861D7EB9
:1058F0001D7EFD7DFD7DFD7DDC75DC75BC75BC759B
:105900009C6D9C6D7C657B5D5B5D5B5D7B5D7B5DAC
:105910007B659C659C659C659C659C659C6DBC6D70
:10592000DC75DD75DC75BC75BC6DDC75DC75DC6D3E
:10593000BC6D9C6D7C659C659C659C659C659C654F
:105940009C659C659C659C657C659C5D7C5D7C5DC7
:105950007C5D9C5D9C65BC659C659C6DBC6DFD75AE
:10596000FD7DFD7DFC7DDC7DFC7D1C863D8E5D9698
:105970005D965D963D963D963D8E3D8E3D8E1D8E8F
:105980001D861D86FC85FC85DC7D9B75BB75BC7505
:10599000BC75DC75DC75BC75BC6D7B655B5D5B5D8A
:1059A0005A555A555A555A553A553B555B5D5B5DAC
:1059B0005B5D5B5D5B5D5B5D5B5D5B5D5B5D5B5D27
:1059C0005B5D3B5D3A551A553A553A553A553A554D
:1059D0003A553A553A553A553A553A553A553A5D47
:1059E0003A5D3A555A555A553A553A553A553A55F7
:1059F0005A555A555A555A555B5D3A5D3A5D3A5D6E
:105A00003A5D3A5D3A5D3A5D3A5D3A5D3A553A55EE
:105A10003A553A553A553A553A553A553A553A550E
:105A20001A551A551A551A551A551A551A551A55FE
:105A30001A551A551A551A553A551A553A553A558E
:105A40001A551A551A55195519551A55F954195503
:105A50001C86DB7D39653A655A655A653965596D2D
:105A60007A759A7D9A7D597518651865F85CD75CCA
:105A7000F764F764F764F764F764F764D764D76C86
:105A8000F66CF76CF76CF66CF674D66CF674F6740C
:105A9000F674F674F67CF67C167D167D167D167D02
:105AA000168515851585168515851585158DF58C35
:105AB000F58CF58CF58CF594F494F494F494D394DB
:105AC000D394B394B394B394B2949294929C919CD3
:105AD000919C719C709C709C6F9C4F9C4F9C4F9CA8
