:020000040800F2
:10000000C805002099010008810800087D08000843
:100010007F080008E1010008E10F0008000000006F
:100020000000000000000000000000002D0D00088E
:10003000E30100080000000009090008C90D0008DC
:10004000B3010008B3010008B3010008B3010008C0
:10005000B3010008B3010008B3010008B3010008B0
:10006000B3010008B3010008B3010008B3010008A0
:10007000B3010008B3010008B3010008B301000890
:10008000B3010008B3010008B3010008B301000880
:10009000B3010008B3010008B3010008B301000870
:1000A000B3010008B3010008B3010008B301000860
:1000B000B3010008B3010008B3010008B301000850
:1000C000B3010008B3010008B3010008B301000840
:1000D000B30100081D0E0008B3010008B3010008B9
:1000E000B3010008B3010008B3010008B301000820
:1000F000B3010008B3010008B3010008B301000810
:10010000B3010008B3010008B3010008B3010008FF
:10011000B3010008B3010008B3010008B3010008EF
:10012000B3010008B3010008B3010008B3010008DF
:10013000B3010008B3010008B3010008B3010008CF
:10014000B3010008B3010008B3010008B3010008BF
:10015000B3010008B3010008B3010008B3010008AF
:10016000B3010008B3010008B3010008B30100089F
:10017000B3010008B3010008B3010008B30100088F
:10018000B3010008DFF80CD000F018F80048004771
:1001900001100008C80500200648804706480047AF
:1001A000FEE7FEE7FEE7FEE7FEE7FEE7FEE7FEE727
:1001B000FEE7FEE7CD0D000885010008064C074D5F
:1001C00006E0E06840F0010394E807009847103427
:1001D000AC42F6D3FFF7DAFF6C1100088C1100086F
:1001E000FEE770474FF02041102802D0D1F894006C
:1001F0007047486F704700004FF0204251B11028FF
:1002000004D052F8800F40F0040009E0106E40F076
:10021000040009E00549102804D052F8800F084076
:1002200010607047106E084010667047FBFF0F00AB
:100230004FF0204251B1102804D052F8800F40F006
:10024000400009E0106E40F0400009E00549102828
:1002500004D052F8800F084010607047106E0840BC
:1002600010667047BFFF0F0030B5D0E9011211438F
:10027000D0E903231A431143426941EA42218269CA
:1002800041EA4231C26941F00804D2E9001341EA6F
:1002900003211389127B1B0443EA0262036A1143A0
:1002A000D3E9002542EA05221D891B7B2D0445EA7E
:1002B00003631A4303684FF02040102B04D040F82A
:1002C000804F8160C26030BD04668166C26630BD09
:1002D00082884FF48071521C92B28280402A10D1E1
:1002E0000022828043885B1C9BB24380B3F5806F01
:1002F00007D142800288521C92B20280012A00D1AA
:100300004900084670470000000C01EB80100C49C2
:1003100010B560220A700B4A1070000A1070D020CD
:1003200008704FF47A7000F0F9FE074C4021204627
:1003300000F09DFA0028F9D0BDE8104000F006B8A2
:1003400000000170000002700018024000B54FF07C
:10035000807300F02BF902E000F028F95B1E4028C2
:1003600002D0002BF8D101E0002B01D14FF48060C6
:1003700000BD00002DE9F04190B00121782000F08F
:10038000C5FA0121084600F0CDFA02258DF8055086
:100390004DF6B3008DF804500024DFF80C81009076
:1003A0008DF806408DF807406946404600F0FEF99A
:1003B0000C220021404600F04AFA0C22012140465E
:1003C00000F045FA0C220421404600F040FA0C22CD
:1003D0000521404600F03BFA0C220721404600F080
:1003E00036FA0C220B21404600F031FA0C2211465D
:1003F000404600F02CFA0C220E21404600F027FA6D
:100400000C220F21404600F022FA4FF4F060274EF4
:1004100000906946304600F0C9F90C2207213046A9
:1004200000F015FA0C220821304600F010FA0C22D8
:100430000921304600F00BFA0C220A21304600F068
:1004400006FA8DF8055040278DF8044001260097E4
:100450008DF807606946404600F0A8F90C22062195
:10046000404600F0F4F969461148009700F09EF903
:100470000320CDE90B601020CDE902044FF4C02029
:100480000494CDE905400BA8CDE908400A900794F3
:10049000CDE90D5602A8FFF7E7FE01211020FFF776
:1004A000ABFE10B0BDE8F081000C0240001002402D
:1004B0000018024010B50A49044690200870094906
:1004C00000200870642000F029FE4FF0E040016831
:1004D0002170080A6070080CA070080EE07010BD52
:1004E00000000170000002702DE9FC470024CDE9F6
:1004F00000124FF48079294F1E468246A0464D4691
:100500004021384600F0B3F90028F9D03EE000BFA2
:10051000BDF80400BDF80210214B00EB8110002152
:100520001970204A117011701070000A107030207C
:1005300018704FF47A7000F0F1FD4021384600F059
:1005400096F90028F9D04FF4006101EBC82501218C
:100550001020FFF76DFE4FF0E04103E00A780AF843
:100560000420641CAC42F9D31020FFF73BFE0E4977
:10057000086000211020FFF75BFEFFF7E7FE08F19F
:1005800001086846761EFFF7A3FE05460EB14D45ED
:10059000BED0FFF7DBFEBDE8FC870000001802407C
:1005A0000000017000000270A4000020064A002034
:1005B0007021117009060978CA0701D0012070471F
:1005C0004906FCD54020704700000170044910B571
:1005D000FF2008704FF47A7000F0A0FD402010BD9D
:1005E000000001702DE9FF4F83B00024CDE9001217
:1005F0004FF480792F4F1E46A3464D464FF0400AD8
:100600004021B846384600F032F90028F8D045E0DD
:10061000DFF8A4A0BDF80400BDF80210802200EBB2
:1006200081108AF80020254900220A700A7008709B
:10063000000A08704FF47A7000F070FD4FF400610A
:1006400001EBCB2701211020FFF7F2FD4FF0E04135
:1006500003E00398005D0870641CBC42F9D31021CC
:100660008AF8001047464021384600F000F900287B
:10067000F9D01020FFF7B6FD1149086000211020C5
:10068000FFF7D6FDFFF762FE8246402806D10BF148
:10069000010B6846761EFFF71BFE054626B14D4549
:1006A00002D1BAF1400FB3D00548006807B0BDE8E9
:1006B000F08F00000018024000000170000002707E
:1006C000A40000208000A0F1C0400029016802D0F1
:1006D00041F0010101E0024A114001607047000051
:1006E000FEFF0F0010B5D0E901121143D0E903233A
:1006F0001A4311434269114382691143C26911438C
:10070000026A1143426A1143826A1143C26A114369
:10071000026B114302689200A2F1C042116081682D
:10072000082907D101688900A1F1C0410A6842F097
:1007300040020A60416BD1E9002342EA03128B6850
:100740008C891B0243EA04431A430B8A42EA035290
:100750000B7D896942EA03620A4301688900A1F1BD
:10076000C0414A60C16AB1F5804F08D000686FF09F
:1007700070418000A0F1C040C0F8041110BD816B31
:10078000D1E9002342EA03128B680C8A1B0243EA78
:1007900004531A430B7D896942EA036200680A43E5
:1007A0008000A0F1C040C0F8042110BDF0B50023C6
:1007B000012403270D6804FA03F21540954242D143
:1007C000D0F800C05E0007FA06F52CEA050CC0F868
:1007D00000C091F804C0D0F800E00CFA06FC4CEA26
:1007E0000E0CC0F800C091F804C0BCF1010F02D09B
:1007F000BCF1020F1FD1D0F808C02CEA050CC0F8DC
:1008000008C091F805C0D0F808E00CFA06FC4CEAE4
:100810000E0CC0F808C0D0F804C02CEA020CC0F8D6
:1008200004C0426891F806C00CFA03FC1FFA8CFC65
:1008300042EA0C024260C268AA43C260CA79C56833
:10084000B2402A43C2605B1C102BB3D3F0BD4B07F0
:10085000DB0E9A40C90810B500EB8100016A0F2435
:100860009C40A1430162016A1143016210BD02462E
:10087000002012690A4200D001207047FEE7FEE71F
:10088000704708B525208DF8000000208DF8010084
:100890008DF8020001208DF80300684600F002F890
:1008A00008BD000030B50F22C47801780123FCB1E7
:1008B000144C246801F1E02104F4E064C4F5E06420
:1008C000C4F30724C4F10405E2404478AC408578C1
:1008D000154025432A0181F80024007800F01F010B
:1008E0008B404009800000F1E020C0F8003130BDAD
:1008F00001F01F0083404809800000F1E020C0F8AB
:10090000803130BD0CED00E070470000044A002942
:10091000116801D0014300E081431160704700007D
:1009200030380240044A0029116801D0014300E038
:10093000814311607047000038380240044A0029A2
:10094000116801D0014300E081431160704700004D
:100950004438024070B5204A1168204C11F00C0157
:1009600004D01F4E042903D0082903D004601BE0E3
:10097000066019E01849091F0B68C3F380550B681E
:1009800003F03F0315B1B6FBF3F301E0B4FBF3F35F
:100990000C680968C4F388146343C1F30141491C1E
:1009A0004900B3FBF1F1016011680F2303EA111153
:1009B0000C4B5C5C0168E14041601468072505EA66
:1009C00094241C5D21FA04F48460126805EA523212
:1009D0009A5CD140C16070BD083802400024F40028
:1009E00040787D01A8000020F0B599B00121782061
:1009F000FFF78CFF01210846FFF794FF4CF20370CC
:100A0000009002208DF804008DF805000024954D1B
:100A10008DF806408DF8074069462846FFF7C6FE68
:100A20000C2200212846FFF712FF0C220121284644
:100A3000FFF70DFF0C2208212846FFF708FF0C22C4
:100A400009212846FFF703FF0C220A212846FFF759
:100A5000FEFE0C220E212846FFF7F9FE0C220F2184
:100A60002846FFF7F4FE4FF680707F4E00906946EF
:100A70003046FFF79BFE0C2207213046FFF7E7FECA
:100A80000C2208213046FFF7E2FE0C2209213046F5
:100A9000FFF7DDFE0C220A213046FFF7D8FE0C22BC
:100AA0000B213046FFF7D3FE0C2211463046FFF7EC
:100AB000CEFE0C220D213046FFF7C9FE0C220E217E
:100AC0003046FFF7C4FE0C220F213046FFF7BFFE71
:100AD0004FF23F00654F009069463846FFF766FECB
:100AE0000C2200213846FFF7B2FE0C2201213846C5
:100AF000FFF7ADFE0C2202213846FFF7A8FE0C22BC
:100B000003213846FFF7A3FE0C2204213846FFF7E5
:100B10009EFE0C2205213846FFF799FE0C22114655
:100B20003846FFF794FE0C220D213846FFF78FFE62
:100B30000C220E213846FFF78AFE0C220F21384680
:100B4000FFF785FE3F204A4F009069463846FFF781
:100B50002DFE0C2200213846FFF779FE0C220121E0
:100B60003846FFF774FE0C2202213846FFF76FFE6D
:100B70000C2203213846FFF76AFE0C220421384676
:100B8000FFF765FE0C2205213846FFF760FE4FF4A3
:100B90006050009069462846FFF708FE0C220B21A2
:100BA0002846FFF754FE0C2211462846FFF74FFE59
:100BB0000C220D212846FFF74AFE3020009069469E
:100BC0002846FFF7F3FD0C2204212846FFF73FFEDD
:100BD0000C2205212846FFF73AFE4FF4A050009062
:100BE00069463846FFF7E2FD0C2211463846FFF70A
:100BF0002EFE0C220A213846FFF729FE0320009022
:100C000069463046FFF7D2FD0C2200213046FFF73F
:100C10001EFE0C2201213046FFF719FE0420CDE90B
:100C20001240119416941794CDE9020414941020E4
:100C3000CDE90440159406940002CDE90A4011A8BC
:100C40000994CDE90E400794089410900C940D94EB
:100C500002A8FFF747FD01210420FFF733FD19B07B
:100C6000F0BD0000000C02400010024000140240E1
:100C7000001802402DE9FC418846044629492948CC
:100C8000091D50F8240051F8241008430121FFF7F2
:100C90003DFE2CB923480121001F0068FFF74EFEDE
:100CA0002048214E1A38025D801E015D56F824004E
:100CB000FFF7CDFD1B48371D1938025D801E015D11
:100CC00057F82400FFF7C3FD00208DF8060001202F
:100CD0008DF807001348022512388DF8045030F8BB
:100CE000140000908DF8055056F824006946FFF76F
:100CF0005DFD0C488DF804501038694630F814003A
:100D0000009057F82400FFF751FD351F414655F874
:100D1000240000F007F955F82400012100F0C0F884
:100D2000BDE8FC81441100088000002070470000ED
:100D30000CB50021214801910091026842F48032F3
:100D400002604FF4A063026802F400320092019A3C
:100D5000521C0192009A12B9019A9A42F3D1026888
:100D6000920329D501210091144908310A680A60CB
:100D70000A6842F400420A600A6842F4A0520A601B
:100D80000B1F0F4A1A60026842F08072026002680C
:100D90009201FCD50B4A40F203701060086820F005
:100DA00003000860086840F0020008600868C0F3AB
:100DB00081000228FAD10CBD00910CBD0038024020
:100DC000193C4005003C0240704700000F4810B538
:100DD000016841F0010101600C4A002108321160F4
:100DE00002680B4B1A400260031D0A4A1A6002682F
:100DF00022F48022026005480C300160FFF798FF62
:100E000005494FF00060086010BD00000038024046
:100E1000FFFFF6FE1030002408ED00E070B51D4D18
:100E200040F225563146284600F044F81A4C98B155
:100E3000284600F0CDF8A0700146A068174A024489
:100E4000401CA0601170A0686168884204D1002233
:100E50003146284600F04DF840F2277631462846C4
:100E600000F028F8002814D060780B490C310144B8
:100E7000401C60700978284600F0AEF86078217850
:100E8000884206D131462846BDE87040002200F075
:100E900030B870BD00100140100000200001006853
:100EA0000029818902D041F4005101E021F4005170
:100EB0008181704730B501F01F0201240025C1F384
:100EC000421304FA02F2012B0FD0022B0FD0838AB7
:100ED0004FEA11210088134204FA01F400EA0400E9
:100EE00001D000B10125284630BD8389F0E7038A8F
:100EF000EEE710B5C1F3421301F01F040121A14038
:100F0000012B07D0022B07D01430002A026805D02D
:100F10000A4304E00C30F8E71030F6E78A43026039
:100F200010BD00007FB50446008A0D4620F44051F4
:100F3000E88808432082A08941F20C618843A9888F
:100F40002A8911436A8902431143A181A08A20F4AE
:100F50004071A8890843A0826846FFF7FBFC1A4845
:100F6000844202D01948844201D1039800E00298DB
:100F7000A189090400EBC00101EB0010296801D52B
:100F8000490000E08900B0FBF1F26420B2FBF0F10F
:100F900009010B096FF018056B4302EB8302A3896B
:100FA0001D044FF0320306D503EBC202B2FBF0F092
:100FB00000F0070005E003EB0212B2FBF0F000F0D6
:100FC0000F00084320817FBD001001400014014044
:100FD0008088C0F308007047C1F308018180704722
:100FE000FEE702E008C8121F08C1002AFAD17047C4
:100FF0007047002001E001C1121F002AFBD1704799
:101000001CB5FFF73EFCFFF7EFFCFFF7B3F9FFF766
:10101000DDFA3C48FFF74EFA3A480024051F0178F4
:10102000071DEC2916D14078F12813D13C807C8033
:10103000BC8000264FF480687E803C80BC80A8681D
:10104000ADF8044000900199FFF75EF9761CB6B246
:101050004645F1D32C487C804FF4E1310160848017
:10106000C480048184810C2141810146B84600205E
:10107000FFF700FE00204FF4805224490C54401C1E
:1010800080B29042F9D3DFF888B0DFF88890224F21
:10109000002640F2255A012251465846FFF729FF03
:1010A000D9F8000039688142FCD3A9680091A88969
:1010B000ADF804002B681548019AFFF793FAB8F8C9
:1010C00004102A684046114489B2A8F804103F2948
:1010D00004D984804188491CA8F802103C60761C21
:1010E000F6B21F2ED7D304804480A8F80440A96824
:1010F0000548ADF80440009101231030019AFFF734
:10110000F3F9FEE704000020B800002000010068A9
:10111000001001401400002018000020002100E011
:10112000491C8142FCDB7047090A070706000F00D3
:101130002806000200040080010000800100000079
:1011400010000000010000000100000040008000CD
:101150000002000440000000010000002000000028
:101160002000000020000000200000008C1100087A
:1011700000000020B8000000E20F00084412000840
:10118000B800002010050000F20F00084000000029
:101190000000000000000000000000005D000000F2
:1011A00000000200000000000A0D55534152542077
:1011B00048797065727465726D696E616C20496EF4
:1011C0007465727275707473204578616D706C65AA
:1011D0003A2055534152542D4879706572746572A6
:1011E0006D696E616C20636F6D6D756E696361749E
:1011F000696F6E207573696E6720496E74657272CF
:101200007570740A0D0000000010014000000240DB
:1012100000000240000000000018024000000240F0
:101220000014024000140240001402400014024066
:10123000000000000000000001020304010203049A
:04124000060708098C
:040000050800018569
:00000001FF
