:020000040800F2
:1000000098040020815D0008790200087B02000846
:100010007F02000883020008870200080000000039
:100020000000000000000000000000008B0200083B
:100030008D020008000000008F02000891020008F5
:100040009B5D00089B5D00089B5D00089B5D0008B0
:100050009B5D00089B5D00089B5D00089B5D0008A0
:100060009B5D00089B5D00089B5D00089B5D000890
:100070009B5D00089B5D00089B5D00089B5D000880
:100080009B5D00089B5D00089B5D00089B5D000870
:100090009B5D00089B5D00089B5D00089B5D000860
:1000A0009B5D00089B5D00089B5D00089B5D000850
:1000B0009B5D00089B5D00089B5D00089B5D000840
:1000C0009B5D00089B5D00089B5D00089B5D000830
:1000D0009B5D00089B5D00089B5D00089B5D000820
:1000E0009B5D00089B5D00089B5D00089B5D000810
:1000F0009B5D00089B5D00089B5D00089B5D000800
:100100009B5D00089B5D00089B5D00089B5D0008EF
:100110009B5D00089B5D00089B5D00089B5D0008DF
:100120009B5D00089B5D00089B5D00089B5D0008CF
:100130009B5D00089B5D00089B5D00089B5D0008BF
:100140009B5D00089B5D00089B5D00089B5D0008AF
:100150009B5D00089B5D00089B5D00089B5D00089F
:100160009B5D00089B5D00089B5D00089B5D00088F
:100170009B5D00089B5D00089B5D00089B5D00087F
:100180009B5D0008DFF80CD006F0E4F8004800475B
:10019000A9010008980400203349086000BF3249D3
:1001A00009680029FBD17047012005F0FBFD022002
:1001B00005F0F8FD032005F0F5FD022005F014FE22
:1001C0002A4800684FF47A72B0FBF2F1B1F1807FF7
:1001D00002D34FF0010028E021F07F40A0F10100A0
:1001E0004FF0E02250614FF0FF304FF00F02002837
:1001F0000ADA4FEA02734FEA13631D4C00F00F0551
:10020000A5F10405635505E04FEA02734FEA136355
:10021000184C235400BF4FF000004FF0E0229061D3
:100220004FF0070010614FF0000008B100BFFEE77B
:100230000CE0012005F0E8FD032005F0E5FD0220BB
:1002400005F0E2FD4FF49670FFF7A6FFF1E70648D0
:10025000006828B104480068A0F101000249086064
:10026000704700BFFEE70000080000200C000020DF
:1002700018ED00E000E400E0704700BFFEE700BFBB
:10028000FEE700BFFEE700BFFEE77047704770471C
:1002900010B5FFF7DCFF10BD4FF00002114610460D
:1002A000764A126842F48032754BC3F8002800BFCA
:1002B000724A126802F40032104601F1010211463E
:1002C00010B9B1F5A06FF3D16C4A126812F4003F77
:1002D00003D04FF00102104602E04FF0000210463A
:1002E00001283DD1674A1268654BC3F808281A46B1
:1002F000D2F8082842F40042C3F808281A46D2F877
:10030000082842F4A0525F4B1A605F4A5C4BC3F866
:1003100004281A46D2F8002842F08072574B1A601F
:1003200000BF564A126812F0007FFAD040F2037202
:10033000564B1A60524AD2F8082822F00302504B5A
:10034000C3F808281A46D2F8082842F002024D4B9A
:100350001A6000BF4B4A126802F00C02082AF9D159
:10036000704710B54548006840F001004449C1F8A5
:1003700000084FF00000C1F80808404800684449F0
:1003800000EA01003D49086042483D49C1F80408BF
:100390000846D0F8000820F48020384908604FF063
:1003A00000003D490860FFF777FF4FF000604FF015
:1003B000E021C1F8080D10BD70B54FF000052846CA
:1003C0002A464FF002052B464FF000052C464FF011
:1003D000020529462B4D2D6805F00C05284620B155
:1003E000042806D0082835D107E02C4D2C4E356066
:1003F00034E02C4D2A4E356030E02B4D2D68C5F38E
:1004000080552C461E4DD5F8045805F03F05294669
:100410004CB1244DB5FBF1F5234E3668C6F3881672
:1004200005FB06F208E01D4DB5FBF1F51E4E3668E2
:10043000C6F3881605FB06F21B4D2D68C5F3014572
:1004400005F101054FEA45052B46B2FBF3F5144EC5
:10045000356003E0114D124E356000BF00BF094DFD
:100460002D68C5F30315114E755D28460C4D2D689A
:1004700025FA00F50A4E356070BD000000380240D4
:100480000030024008380240193C4005003C024060
:10049000FFFFF6FE103000240C3802400024F40068
:1004A0000C00002040787D0104380240100000203C
:1004B00010B50446B4F5E06F0BD0B4F5C06F08D0AA
:1004C000B4F5A06F05D0B4F5806F02D0B4F5407FCD
:1004D00000D103E073216DA0FFF7C3FE7A4844EA20
:1004E00000007A49086010BD2DE9F04104464FF044
:1004F0000000054607464FF00F000646E07810B1B1
:10050000E078012800D103E0872160A0FFF7A9FE71
:100510006078102800DA03E088215CA0FFF7A1FED4
:10052000A078102800DA03E0892158A0FFF799FE8F
:10053000E078A0B36548006800F4E060C0F5E060D2
:10054000C0F307200546C5F10400C0B2074646FACD
:1005500005F0C0B20646607800FA07F0C0B2054662
:10056000A07800EA060040EA050005464FEA05705B
:100570004FEA10600546564821784554207800F02F
:100580001F014FF0010000FA01F021784FEA6111DC
:100590004FF0E02202EB8101C1F800010DE0FFE71E
:1005A000207800F01F014FF0010000FA01F04949E6
:1005B00022784FEA621241F82200BDE8F08170B55E
:1005C00004460D46B4F1005F02D0B4F1006F00D1D3
:1005D00003E0B1212DA0FFF744FE3F48854200D241
:1005E00003E0B22129A0FFF73CFE3C4905EA0100E7
:1005F00040EA04003A49086070BD70B504460D46F3
:10060000102C03D0042C01D0022C00D103E0C42113
:100610001EA0FFF726FE0DB1012D00D103E0C5217C
:100620001AA0FFF71EFE45B12E48006840EA0400FC
:100630004FF0E021C1F8100D07E02A48006820EAD9
:1006400004004FF0E021C1F8100D70BD10B5044654
:10065000042C01D0601D00D103E0DC210BA0FFF7CA
:1006600000FE042C08D14FF0E020006940F00400A7
:100670004FF0E021086107E04FF0E020006920F032
:1006800004004FF0E021086110BD00002E2E5C2E0A
:100690002E5C2E2E5C4C69627261726965735C53CC
:1006A000544D3332463278785F53746450657269C2
:1006B00070685F4472697665725C7372635C6D69C1
:1006C00073632E63000000000000FA050CED00E0EB
:1006D00000E400E080E100E0FFFF0F0080FFFF1F6B
:1006E00008ED00E010ED00E010B50446FB48844240
:1006F0003AD0FA481830844236D0F8483030844234
:1007000032D0F648483084422ED0F44860308442DB
:100710002AD0F2487830844226D0F0489030844283
:1007200022D0EE48A83084421ED0ED4884421BD02F
:10073000EB481830844217D0E9483030844213D057
:10074000E748483084420FD0E548603084420BD0FF
:10075000E3487830844207D0E1489030844203D0A7
:10076000DF48A830844200D103E0BF21DD48FFF715
:1007700078FD206820F0010020604FF0000020602C
:100780006060A060E06020614FF021006061D348AC
:10079000844204D14FF03D00D34988607EE0CF48C9
:1007A0001830844204D14FF47460CF49886075E0FA
:1007B000CA483030844204D14FF47410CA4988606A
:1007C0006CE0C6484830844204D14FF07460C6499A
:1007D000886063E0C1486030844203D1C348C249A5
:1007E000C8605BE0BD487830844203D1C048BE4950
:1007F000C86053E0B9489030844203D1BD48BA493B
:10080000C8604BE0B548A830844204D14FF03D5059
:10081000B549C86042E0B248844204D14FF03D007F
:10082000B54908603AE0AE481830844204D14FF42C
:100830007460B149086031E0A9483030844204D185
:100840004FF47410AC49086028E0A5484830844251
:1008500004D14FF07460A84908601FE0A0486030E0
:10086000844203D1A148A549086017E09C4878302C
:10087000844203D19E48A14908600FE09848903017
:10088000844203D19B489D49086007E09448A83002
:10089000844203D14FF03D509849086010BD70B5B7
:1008A00005460C464FF0000006468C4885423AD07B
:1008B0008A481830854236D088483030854232D058
:1008C0008648483085422ED08448603085422AD000
:1008D00082487830854226D080489030854222D0A8
:1008E0007E48A83085421ED07D4885421BD07C487A
:1008F0001830854217D07A483030854213D0784876
:10090000483085420FD07648603085420BD074481D
:100910007830854207D072489030854203D07048C5
:10092000A830854200D104E04FF49E716D48FFF776
:1009300098FC2068D8B12068B0F1007F17D02068FB
:10094000B0F1806F13D02068B0F1C06F0FD0206875
:10095000B0F1006F0BD02068B0F1206F07D0206895
:10096000B0F1406F03D02068B0F1606F00D104E0B7
:1009700040F23D115B48FFF774FCE06828B1E06885
:10098000402802D0E068802800D104E04FF49F7135
:100990005448FFF766FC206920B12069B0F5803F1C
:1009A00000D204E040F23F114E48FFF75AFC606964
:1009B000B0F5007F01D0606900B904E04FF4A07188
:1009C0004848FFF74EFCA069B0F5806F01D0A069E0
:1009D00000B904E040F241114248FFF742FCE069EF
:1009E00038B1E069B0F5006F03D0E069B0F5805F21
:1009F00000D104E04FF4A1713A48FFF732FC206ABD
:100A000038B1206AB0F5005F03D0206AB0F5804F9E
:100A100000D104E040F243113248FFF722FC606A43
:100A200018B1606AB0F5807F00D104E04FF4A27184
:100A30002C48FFF716FCA06A58B1A06AB0F5803FB9
:100A400007D0A06AB0F5003F03D0A06AB0F5403FE0
:100A500000D104E040F245112248FFF702FCE06AB1
:100A600010B1E06A042800D104E04FF4A3711D48DE
:100A7000FFF7F7FB206B40B1206B012805D0206BFE
:100A8000022802D0206B032800D104E040F2471175
:100A90001448FFF7E6FB606B58B1606BB0F5000FD0
:100AA00007D0606BB0F1807F03D0606BB0F1C07F86
:100AB00000D104E04FF4A4710A48FFF7D2FBA06B09
:100AC00058B1A06BB0F5001F07D0A06BB0F5800F38
:100AD00003D0A06BB0F5C00F12D116E01060024039
:100AE0001064024098630008006002403D0000204E
:100AF000400F002000003D20086402400C640240CA
:100B000040F24911F948FFF7ACFB28680646F8485F
:100B100006EA00000646E168206840EA01006169D3
:100B200040EA0100A16940EA0100E16940EA0100F0
:100B3000216A40EA0100616A40EA0100A16A40EAD4
:100B40000100616B40EA0100A16B40EA010040EA4C
:100B5000060006462E606869064626F0070006462F
:100B6000D4E90B0140EA010040EA060006466E6146
:100B7000206968606068A860A068E86070BD4FF098
:100B80000001016041608160C1600161416181617A
:100B9000C161016241628162C1620163416381633B
:100BA000704770B504460D46D24884423AD0D148C9
:100BB0001830844236D0CF483030844232D0CD48CD
:100BC000483084422ED0CB48603084422AD0C94875
:100BD0007830844226D0C7489030844222D0C5481D
:100BE000A83084421ED0C44884421BD0C24818306A
:100BF000844217D0C0483030844213D0BE484830B9
:100C000084420FD0BC48603084420BD0BA48783060
:100C1000844207D0B8489030844203D0B648A83008
:100C2000844200D104E040F2D911B048FFF719FB2B
:100C30000DB1012D00D104E04FF4ED71AB48FFF789
:100C400010FB25B1206840F00100206003E020681F
:100C500020F00100206070BD70B504460D46A54827
:100C600084423AD0A3481830844236D0A14830306C
:100C7000844232D09F48483084422ED09D48603014
:100C800084422AD09B487830844226D099489030BC
:100C9000844222D09748A83084421ED0964884428D
:100CA0001BD095481830844217D093483030844286
:100CB00013D09148483084420FD08F48603084422E
:100CC0000BD08D487830844207D08B4890308442D6
:100CD00003D08948A830844200D104E040F2FD11DD
:100CE0008248FFF7BEFA15B1B5F5004F00D104E018
:100CF0004FF4FF717D48FFF7B4FA25B1206840F446
:100D00000040206003E0206820F40040206070BDB7
:100D100070B504460D46774884423AD0754818307D
:100D2000844236D073483030844232D071484830E3
:100D300084422ED06F48603084422AD06D4878308B
:100D4000844226D06B489030844222D06948A83033
:100D500084421ED0684884421BD0674818308442C1
:100D600017D065483030844213D0634848308442FD
:100D70000FD06148603084420BD05F4878308442A5
:100D800007D05D489030844203D05B48A83084424D
:100D900000D104E040F221215448FFF762FA0DB17E
:100DA000202D00D104E040F222215048FFF759FAEB
:100DB00025B1206840F02000206003E0206820F08A
:100DC0002000206070BD70B504460D46494884423D
:100DD0003AD048481830844236D0464830308442B1
:100DE00032D04448483084422ED042486030844259
:100DF0002AD040487830844226D03E489030844201
:100E000022D03C48A83084421ED03B4884421BD0AC
:100E100039481830844217D037483030844213D0D4
:100E20003548483084420FD03348603084420BD07C
:100E300031487830844207D02F489030844203D024
:100E40002D48A830844200D104E040F275212748A3
:100E5000FFF707FA656070BD10B504462548844267
:100E60003AD024481830844236D022483030844268
:100E700032D02048483084422ED01E486030844210
:100E80002AD01C487830844226D01A4890308442B8
:100E900022D01848A83084421ED0174884421BD064
:100EA00015481830844217D013483030844213D08C
:100EB0001148483084420FD00F48603084420BD034
:100EC0000D487830844207D00B489030844203D0DC
:100ED0000948A830844200D104E04FF4217103484E
:100EE000FFF7BFF9606880B210BD0000986300088A
:100EF0003F801CF0106002401064024070B5044650
:100F00000E461546FD4884423AD0FC4818308442CB
:100F100036D0FA483030844232D0F84848308442E3
:100F20002ED0F648603084422AD0F448783084428B
:100F300026D0F2489030844222D0F048A830844233
:100F40001ED0EF4884421BD0ED481830844217D0A1
:100F5000EB483030844213D0E948483084420FD007
:100F6000E748603084420BD0E5487830844207D0AF
:100F7000E3489030844203D0E148A830844200D155
:100F800004E040F2D221DF48FFF76BF915B1B5F567
:100F9000002F00D104E040F2D321DA48FFF761F9D5
:100FA00025B1206840F40020206003E0206820F490
:100FB00000202060266170BD70B504460D46CF4804
:100FC00084423AD0CD481830844236D0CB483030B5
:100FD000844232D0C948483084422ED0C74860305D
:100FE00084422AD0C5487830844226D0C348903005
:100FF000844222D0C148A83084421ED0C0488442D6
:101000001BD0BF481830844217D0BD4830308442CE
:1010100013D0BB48483084420FD0B9486030844276
:101020000BD0B7487830844207D0B548903084421E
:1010300003D0B348A830844200D104E04FF43C719F
:10104000B048FFF70EF90DB1012D00D104E040F2D8
:10105000F121AC48FFF705F925B1206840F4802064
:10106000206003E0206820F48020206070BD70B50F
:1010700004460E461546A14884423AD09F4818308F
:10108000844236D09D483030844232D09B4848302C
:1010900084422ED09948603084422AD097487830D4
:1010A000844226D095489030844222D09348A8307C
:1010B00084421ED0924884421BD09148183084420A
:1010C00017D08F483030844213D08D484830844246
:1010D0000FD08B48603084420BD0894878308442EE
:1010E00007D087489030844203D08548A830844296
:1010F00000D104E040F21A318248FFF7B2F815B18E
:10110000B5F5002F00D104E040F21B317D48FFF718
:10111000A8F80DB1266100E0E66070BD70B5044628
:101120004FF000000546754884423AD073481830A5
:10113000844236D071483030844232D06F484830D3
:1011400084422ED06D48603084422AD06B4878307B
:10115000844226D069489030844222D06748A83023
:1011600084421ED0664884421BD0654818308442B1
:1011700017D063483030844213D0614848308442ED
:101180000FD05F48603084420BD05D487830844295
:1011900007D05B489030844203D05948A83084423D
:1011A00000D104E040F235315648FFF75AF8206884
:1011B00010F4002F03D04FF00100054602E04FF07D
:1011C00000000546284670BD70B504464FF000008B
:1011D00005464A4884423AD048481830844236D0BE
:1011E00046483030844232D04448483084422ED081
:1011F0004248603084422AD040487830844226D029
:101200003E489030844222D03C48A83084421ED0D0
:101210003B4884421BD03A481830844217D03848A3
:101220003030844213D03648483084420FD034489E
:10123000603084420BD032487830844207D0304846
:101240009030844203D02E48A830844200D104E07C
:1012500040F2A2312B48FFF704F8206810F0010F8C
:1012600003D04FF00100054602E04FF000000546B4
:10127000284670BD70B504464FF0000005461F4873
:1012800084423AD01D481830844236D01B48303052
:10129000844232D01948483084422ED017486030FA
:1012A00084422AD015487830844226D013489030A2
:1012B000844222D01148A83084421ED01048844273
:1012C0001BD00F481830844217D00D48303084426C
:1012D00013D00B48483084420FD009486030844214
:1012E0000BD007487830844207D0054890308442BC
:1012F00003D00348A830844206D10AE010600240BF
:1013000010640240986300084FF47171FF48FEF7C3
:10131000A8FF606900F038000546284670BD2DE939
:10132000F04105460C464FF0000080460746F8485D
:1013300085423AD0F6481830854236D0F4483030ED
:10134000854232D0F248483085422ED0F048603095
:1013500085422AD0EE487830854226D0EC4890303D
:10136000854222D0EA48A83085421ED0E94885420D
:101370001BD0E8481830854217D0E6483030854207
:1013800013D0E448483085420FD0E24860308542AF
:101390000BD0E0487830854207D0DE489030854257
:1013A00003D0DC48A830854200D104E040F2E131AE
:1013B000D648FEF756FFA4F18050203874D0103084
:1013C00072D0083070D0A4F18450001F6CD0D24885
:1013D000844269D0D148844266D0D148844263D0E7
:1013E000D048844260D0D04884425DD0A4F180507F
:1013F000403859D0B4F1815F56D0CC48844253D0A4
:10140000CB48844250D0CB4884424DD0CA48844215
:101410004AD0B4F1C05F47D0B4F1A05F44D0B4F17A
:10142000905F41D0B4F1885F3ED0B4F1825F3BD091
:10143000A4F10050203837D0103035D0083033D0E8
:10144000001D31D0BD4884422ED0BD4884422BD0EF
:10145000BC48844228D0BC48844225D0B748FF30DD
:10146000844221D0A4F1005040381DD0B7488442B6
:101470001AD0B748844217D0B648844214D0B64830
:10148000844211D0B54884420ED0B4F1205F0BD015
:10149000B4F1105F08D0B4F1085F05D0B4F1045F77
:1014A00002D0B4F1015F00D104E040F2E23197488C
:1014B000FEF7D7FE9748854201D2A94E00E0A94E1B
:1014C00014F0005F02D07068074601E030680746FC
:1014D000A54807EA00000746274203D04FF0010065
:1014E000804602E04FF0000080464046BDE8F081B3
:1014F00070B504460D46864884423AD08448183078
:10150000844236D082483030844232D080484830DD
:1015100084422ED07E48603084422AD07C48783085
:10152000844226D07A489030844222D07848A8302D
:1015300084421ED0774884421BD0764818308442BB
:1015400017D074483030844213D0724848308442F7
:101550000FD07048603084420BD06E48783084429F
:1015600007D06C489030844203D06A48A830844247
:1015700000D104E040F222416448FEF772FE05F01B
:101580004050B0F1405F07D015F0405F04D077487D
:10159000054201D105B104E040F223415B48FEF76A
:1015A00060FE5C48844201D26D4E00E06D4E15F045
:1015B000005F04D06C4805EA0000F06003E06A4870
:1015C00005EA0000B06070BD70B504460D461646D1
:1015D0004F4884423AD04E481830844236D04C4866
:1015E0003030844232D04A48483084422ED0484875
:1015F000603084422AD046487830844226D044481D
:101600009030844222D04248A83084421ED04148C3
:1016100084421BD03F481830844217D03D483030B8
:10162000844213D03B48483084420FD03948603060
:1016300084420BD037487830844207D03548903008
:10164000844203D03348A830844200D104E040F201
:101650004F412E48FEF705FE35F09E0001D105B141
:1016600004E04FF48A612948FEF7FBFD0EB1012E1C
:1016700000D104E040F251412448FEF7F2FD15F09C
:10168000800F09D026B1606940F08000606103E0FE
:10169000606920F080006061802D0DD036B1206837
:1016A00005F01E0140EA0100206005E0206805F019
:1016B0001E0120EA0100206070BD2DE9F0470546BB
:1016C0000C464FF000008046074681461048854290
:1016D0006DD00F481830854269D00D4830308542B2
:1016E00065D00B484830854261D00948603085425A
:1016F0005DD007487830854259D005489030854202
:1017000055D00348A830854251D031E09863000895
:1017100010600240106402400100801000080010B8
:101720000004001000020010000100100000101062
:10173000000008100000041000000110010000204B
:1017400000080020000400200002002000002020EB
:1017500000001020000008200000042000000120EC
:1017600000600240006402407D0F7D0F82F082C065
:10177000A24885421BD0A1481830854217D09F4807
:101780003030854213D09D48483085420FD09B4869
:10179000603085420BD099487830854207D0974811
:1017A0009030854203D09548A830854200D104E0AE
:1017B00040F287419248FEF754FD9248844279D026
:1017C0009148844276D09148844273D0A4F110208D
:1017D000001F6FD08E4884426CD08E48844269D0FE
:1017E0008D48844266D08D48844263D08C488442C0
:1017F00060D087483F3084425CD08A48844259D0C8
:101800008948844256D08948844253D088488442CB
:1018100050D0884884424DD0874884424AD0874877
:10182000844247D08648844244D08648844241D08E
:10183000854884423ED0854884423BD084488442D7
:1018400038D0A4F12020083834D08248844231D0E6
:10185000814884422ED0814884422BD080488442E3
:1018600028D08048844225D07A48FC30844221D058
:1018700079483F3084421DD07B4884421AD07B484F
:10188000844217D07A48844214D07A48844211D0D6
:10189000794884420ED0794884420BD078488442FB
:1018A00008D07848844205D07748844202D07748EF
:1018B000844200D104E04FF491615148FEF7D1FC1D
:1018C0004E48854201D2724E00E0724E7248044288
:1018D00009D04FF01E0000EAD4200746286800EA2D
:1018E0000700814603E0686900F08000814614F03B
:1018F000005F02D07068074601E03068074667481D
:1019000007EA00000746274206D0B9F1000F03D0CE
:101910004FF00100804602E04FF000008046404654
:10192000BDE8F08770B504460D465D4884423AD064
:101930005B481830844236D059483030844232D027
:101940005748483084422ED05548603084422AD0CF
:1019500053487830844226D051489030844222D077
:101960004F48A83084421ED0244884421BD02348CC
:101970001830844217D021483030844213D01F4899
:10198000483084420FD01D48603084420BD01B4841
:101990007830844207D019489030844203D01748E9
:1019A000A830844200D104E040F2D7411448FEF749
:1019B00058FC05F04050B0F1405F07D015F0405F93
:1019C00004D01DB13748054200D104E04FF49B61BB
:1019D0000B48FEF746FC0948844201D22C4E00E039
:1019E0002C4E15F0005F04D02C4805EA0000F06092
:1019F00003E02A4805EA0000B06070BD10640240B0
:101A0000986300082080001010400010082000108B
:101A10000100009000880010004400100022001017
:101A2000001100100080201000401010002008104D
:101A30000010041000000190008000180040001405
:101A400000200012001000110000409020800020B3
:101A50001040002004100020010000A00088002099
:101A600000440020002200200080202000401020A0
:101A70000020082000100420000001A000800028A1
:101A8000004000240020002200100021000040A09F
:101A900000600240006402403C0F3C0F7D0F7D0F50
:101AA00010600240820082404FF00000C24908608E
:101AB000C249C1F8040CC249086001F10401086080
:101AC000C048C1490860704770B504464FF0000037
:101AD0000546207910B12079042800D103E07C214B
:101AE000BA48FEF7BEFB6079082805D060790C285B
:101AF00002D06079102800D103E07D21B348FEF7C1
:101B0000B0FB2068C00DC00502D1206800B103E021
:101B10007E21AE48FEF7A5FBA07910B1A07901287F
:101B200000D103E07F21A948FEF79BFBA2480546B0
:101B3000A079E8B3A148D0F8000C216820EA0100A0
:101B40009E49C1F8000C0846D0F8040C216820EA30
:101B500001009F49086020792844054628682168CB
:101B600040EA010028609548D0F8080C216820EA76
:101B700001009249C1F8080C0846D0F80C0C216805
:101B800020EA0100934908606079102814D18B483D
:101B9000D0F8080C216840EA01008849C1F8080C17
:101BA0000846D0F80C0C216840EA0100834900E0A7
:101BB0000DE0C1F80C0C12E07F480546607928441E
:101BC00005462868216840EA0100286007E020797E
:101BD000284405462868216820EA0100286070BD75
:101BE0004FF00001016001714FF00C0141714FF0A5
:101BF00000018171704710B50446E00DC00501D1A8
:101C000004B103E0C1217148FEF72BFB7248006864
:101C100040EA04006949C1F8100C10BD70B50446D3
:101C20004FF000000546012C3AD0022C38D0042C8D
:101C300036D0082C34D0102C32D0202C30D0402C70
:101C40002ED0802C2CD0B4F5807F29D0B4F5007F25
:101C500026D0B4F5806F23D0B4F5006F20D0B4F552
:101C6000805F1DD0B4F5005F1AD0B4F5804F17D057
:101C7000B4F5004F14D0B4F5803F11D0B4F5003F57
:101C80000ED0B4F5802F0BD0B4F5002F08D0B4F5EA
:101C9000801F05D0B4F5001F02D0B4F5800F00D12D
:101CA00003E0E0214948FEF7DCFA4748006820429B
:101CB00003D04FF00100054602E04FF0000005465A
:101CC000284670BD10B50446E00DC00501D104B131
:101CD00003E0F6213D48FEF7C4FA3B48046010BD1E
:101CE00070B504464FF0000005460646012C3AD078
:101CF000022C38D0042C36D0082C34D0102C32D002
:101D0000202C30D0402C2ED0802C2CD0B4F5807FCD
:101D100029D0B4F5007F26D0B4F5806F23D0B4F578
:101D2000006F20D0B4F5805F1DD0B4F5005F1AD0ED
:101D3000B4F5804F17D0B4F5004F14D0B4F5803F00
:101D400011D0B4F5003F0ED0B4F5802F0BD0B4F510
:101D5000002F08D0B4F5801F05D0B4F5001F02D0C5
:101D6000B4F5800F00D104E04FF483711748FEF7FB
:101D700078FA1148006800EA040006460F48D0F8D7
:101D8000140C204204D01EB14FF00100054602E0C1
:101D90004FF000000546284670BD10B50446E00D22
:101DA000C00501D104B104E040F21D110748FEF75F
:101DB00058FA0548046010BD003C01400030014065
:101DC000083C0140FFFF7F00143C0140DC63000839
:101DD000043C01400C3C0140103C014010B504465D
:101DE000FD48844217D0FD48844214D0FC48844208
:101DF00011D0FC4884420ED0FB4884420BD0FB48F3
:101E0000844208D0FA48844205D0FA48844202D07D
:101E1000F948844200D103E07B21F848FEF721FA1B
:101E2000ED48844208D10121084601F0FDFF002160
:101E3000012001F0F9FF5EE0E848844208D1012169
:101E4000022001F0F1FF0021022001F0EDFF52E03D
:101E5000E348844208D10121042001F0E5FF00217C
:101E6000042001F0E1FF46E0DE48844208D1012170
:101E7000082001F0D9FF0021082001F0D5FF3AE049
:101E8000D948844208D10121102001F0CDFF002162
:101E9000102001F0C9FF2EE0D448844208D101216E
:101EA000202001F0C1FF0021202001F0BDFF22E031
:101EB000CF48844208D10121402001F0B5FF002124
:101EC000402001F0B1FF16E0CA48844208D1012148
:101ED000802001F0A9FF0021802001F0A5FF0AE089
:101EE000C548844207D10121801501F09DFF0021E2
:101EF000A01501F099FF10BD2DE9F04104460D46F3
:101F00004FF00000064607468046B348844217D08B
:101F1000B248844214D0B248844211D0B1488442BD
:101F20000ED0B14884420BD0B048844208D0B048AB
:101F3000844205D0AF48844202D0AF48844200D1E9
:101F400003E0BB21AD48FEF78CF9002010B92868EA
:101F500000B103E0BC21A948FEF783F9287940B11C
:101F60002879012805D02879022802D02879032869
:101F700000D103E0BD21A148FEF773F9E87928B14B
:101F8000E879012802D0E879022800D103E0BE21D7
:101F90009A48FEF766F94FF00000064676E04FF0EB
:101FA000010000FA06F00746286800EA07008046AC
:101FB000B84568D120684FEA46024FF0030101FAA4
:101FC00002F120EA0100206028794FEA460100FA78
:101FD00001F0216840EA010020602879012802D040
:101FE000287902283CD1687940B16879012805D068
:101FF0006879022802D06879032800D103E0D02153
:102000007E48FEF72EF9A0684FEA46024FF0030122
:1020100001FA02F120EA0100A06068794FEA460166
:1020200000FA01F0A16840EA0100A060A87910B1AF
:10203000A879012800D103E0D7217048FEF711F9F3
:1020400060684FF0010101FA06F120EA01006060CA
:102050006068A97901FA06F189B240EA010060607E
:10206000E0684FEA46024FF0030101FA02F120EA6C
:102070000100E060E8794FEA460100FA01F0E1680A
:1020800040EA0100E06006F101000646102E86D30A
:10209000BDE8F0814FF6FF7101604FF00001017162
:1020A00041718171C171704770B504460D464FF49E
:1020B000803006464848844217D04848844214D0AD
:1020C0004748844211D0474884420ED04648844253
:1020D0000BD04648844208D04548844205D0454844
:1020E000844202D04448844200D104E04FF482711B
:1020F0004248FEF7B6F8002008B905B104E040F206
:1021000005113E48FEF7ADF846EA05000646E661D1
:10211000E561E661E0690646E069064670BD70B5B6
:1021200005460C464FF0000006462B48854217D066
:102130002A48854214D02A48854211D02948854230
:102140000ED0294885420BD02848854208D028481F
:10215000854205D02748854202D02748854200D1D4
:1021600004E04FF498712548FEF77BF8012C25D048
:10217000022C23D0042C21D0082C1FD0102C1DD0D1
:10218000202C1BD0402C19D0802C17D0B4F5807F88
:1021900014D0B4F5007F11D0B4F5806F0ED0B4F533
:1021A000006F0BD0B4F5805F08D0B4F5005F05D0A8
:1021B000B4F5804F02D0B4F5004F00D104E040F2F6
:1021C00031110E48FEF74DF82869204218D04FF023
:1021D0000100064617E00000000002400004024033
:1021E00000080240000C02400010024000140240AF
:1021F00000180240001C0240002002402064000839
:102200004FF000000646304670BD10B50446FF484A
:10221000844217D0FE48844214D0FE48844211D034
:10222000FD4884420ED0FD4884420BD0FC488442D5
:1022300008D0FC48844205D0FB48844202D0FB48C9
:10224000844200D104E04FF4A371F948FEF709F885
:10225000206980B210BD70B505460C464FF00000F5
:102260000646EA48854217D0E948854214D0E94835
:10227000854211D0E84885420ED0E84885420BD00F
:10228000E748854208D0E748854205D0E6488542C0
:1022900002D0E648854200D104E040F25711E448FC
:1022A000FDF7DFFF012C25D0022C23D0042C21D0F8
:1022B000082C1FD0102C1DD0202C1BD0402C19D046
:1022C000802C17D0B4F5807F14D0B4F5007F11D0E6
:1022D000B4F5806F0ED0B4F5006F0BD0B4F5805F0D
:1022E00008D0B4F5005F05D0B4F5804F02D0B4F546
:1022F000004F00D104E04FF4AC71CD48FDF7B1FFC1
:102300006869204203D04FF00100064602E04FF01A
:1023100000000646304670BD10B50446BB488442F6
:1023200017D0BB48844214D0BA48844211D0BA486E
:1023300084420ED0B94884420BD0B948844208D0B8
:10234000B848844205D0B848844202D0B748844295
:1023500000D104E040F26D11B548FDF782FF6069DD
:1023600080B210BD70B504460D46A848844217D00F
:10237000A748844214D0A748844211D0A64884427A
:102380000ED0A64884420BD0A548844208D0A54868
:10239000844205D0A448844202D0A448844200D19B
:1023A00004E040F27F11A248FDF75BFF002008B96E
:1023B00005B104E04FF4C0719D48FDF752FF25833D
:1023C00070BD70B504460D469048844217D09048C1
:1023D000844214D08F48844211D08F4884420ED05A
:1023E0008E4884420BD08E48844208D08D48844267
:1023F00005D08D48844202D08C48844200D104E04C
:102400004FF4C9718A48FDF72CFF002008B905B1C7
:1024100004E040F293118648FDF723FF658370BD09
:1024200070B505460C4616467848854217D0784860
:10243000854214D07748854211D0774885420ED026
:10244000764885420BD07648854208D0754885424B
:1024500005D07548854202D07448854200D104E019
:102460004FF4D3717248FDF7FCFE012C25D0022CED
:1024700023D0042C21D0082C1FD0102C1DD0202CB0
:102480001BD0402C19D0802C17D0B4F5807F14D0ED
:10249000B4F5007F11D0B4F5806F0ED0B4F5006FA5
:1024A0000BD0B4F5805F08D0B4F5005F05D0B4F56B
:1024B000804F02D0B4F5004F00D104E040F2A711E4
:1024C0005B48FDF7CEFE0EB1012E00D104E04FF4C3
:1024D000D4715748FDF7C5FE0EB12C8300E06C8324
:1024E00070BD70B504460D464848844217D0484830
:1024F000844214D04748844211D0474884420ED0C9
:10250000464884420BD04648844208D0454884421D
:1025100005D04548844202D04448844200D104E0BA
:1025200040F2BD114248FDF79CFE656170BD70B57B
:1025300004460D463548844217D03548844214D0AD
:102540003448844211D0344884420ED03348844207
:102550000BD03348844208D03248844205D03248F8
:10256000844202D03148844200D104E040F2CB11D1
:102570002F48FDF776FE606980EA0500606170BD56
:102580002DE9F04106460D4614464FF0000007467F
:1025900080461E48864217D01D48864214D01D48EA
:1025A000864211D01C4886420ED01C4886420BD071
:1025B0001B48864208D01B48864205D01A488642EE
:1025C00002D01A48864200D104E040F21621184891
:1025D000FDF747FE75B3012D31D0022D2FD0032D0D
:1025E0002DD0042D2BD0052D29D0062D27D0072D39
:1025F00025D0082D23D0092D21D00A2D1FD00B2D39
:102600001DD00C2D1BD00D2D19D014E00000024060
:102610000004024000080240000C0240001002408A
:102620000014024000180240001C0240002002403A
:102630002064000803E00E2D01D00F2D00D104E02E
:1026400040F217213548FDF70CFE9CB3092C31D020
:1026500084B37CB374B36CB3012C2BD02AD0022C7E
:1026600028D027D026D0032C24D0042C22D021D04F
:1026700020D0052C1ED01DD0092C1BD0062C19D023
:10268000092C17D0072C15D014D013D0082C11D03A
:1026900010D00FD0092C0DD00CD00A2C0AD009D0A4
:1026A0000B2C07D00C2C05D004D003D00D2C01D05E
:1026B0000F2C00D104E04FF406711848FDF7D1FD4E
:1026C0004FEA45704FEAD06004FA00F007464FEA3F
:1026D000E50106F1200050F821004FEA45714FEA6C
:1026E000D1624FF00F0101FA02F120EA01004FEA36
:1026F000E50206F1200141F822004FEAE50106F16A
:10270000200050F8210040EA070080464FEAE5012A
:1027100006F1200040F82180BDE8F0812064000827
:1027200010B50446FB48844202D0FB48844200D1E5
:1027300003E08721F948FDF794FDF648844209D16A
:102740000121480501F0E5FB00214FF4001001F0E4
:10275000E0FB18E0F048844209D10121880501F02E
:10276000D8FB00214FF4800001F0D3FB0BE0EC48D4
:10277000844208D10121C80501F0CBFB00214FF4B0
:10278000000001F0C6FB10BD2DE9FF4705460C46D1
:102790004FF00000064681464FF004000746E1482E
:1027A0008046DC48854202D0DB48854200D103E008
:1027B000B621DA48FDF755FD206820B1DA492068D6
:1027C000884200D803E0B721D448FDF74AFDA0882D
:1027D00028B1A088022802D0A0880A2800D103E0EE
:1027E000B821CE48FDF73DFDE088B0F5804F04D01C
:1027F000E088A0F53F41FF3900D103E0B921C74887
:10280000FDF72FFD2089B0F5806F00DA03E0BA21D3
:10281000C248FDF726FD6089B0F5806F01D0608960
:1028200000B903E0BB21BD48FDF71BFDA089B0F551
:10283000804F03D0A089B0F5404F00D103E0BC2108
:10284000B648FDF70EFDA88806464FF6C07106EAA9
:1028500001000646684601F094F802988046B348A5
:10286000B8FBF0F080B2814646EA09000646AE8029
:1028700028884FF6FE7100EA010028804FF0000022
:102880000646AB492068884212D820684FEA4000CB
:10289000B8FBF0F080B20746042F02DA4FF00400D4
:1028A000074646EA0700064609F1010028842EE0A3
:1028B000E088A0F53F41FF3907D1206800EB4000D8
:1028C000B8FBF0F080B207460BE0206800EBC001D7
:1028D00001EB0010B8FBF0F080B2074647F48040EF
:1028E00007463805000D02D147F00100074647F4BE
:1028F000004040EA060006464FF4967009FB00F0DF
:102900004FF47A7190FBF1F000F101002884AE835E
:10291000288840F001002880288806464FF6F531C7
:1029200006EA01000646A088618940EA010040EA03
:10293000060006462E80A089218940EA01002881F0
:10294000BDE8FF8741F2883101604FF000018180CE
:102950004BF6FF71C1804FF00001018141814FF4BE
:1029600080418181704770B504460D4669488442B4
:1029700002D06948844200D104E040F23711674830
:10298000FDF76FFC0DB1012D00D104E04FF49C71F7
:102990006248FDF766FC25B1208840F001002080E8
:1029A00005E020884FF6FE7100EA0100208070BD2E
:1029B00070B504460D465748844202D056488442BA
:1029C00000D104E040F24F115448FDF74AFC0DB12C
:1029D000012D00D104E04FF4A8715048FDF741FCEF
:1029E00025B1208840F48070208005E020884FF6D3
:1029F000FF6100EA0100208070BD70B504460D46FD
:102A00004448844202D04448844200D104E040F269
:102A100067114248FDF725FC0DB1012D00D104E0FE
:102A20004FF4B4713D48FDF71CFC25B1208840F4FB
:102A30000070208005E020884FF6FF5100EA010079
:102A4000208070BD70B504460D461646314884425C
:102A500002D03148844200D104E040F283112F4873
:102A6000FDF7FFFB0EB1012E00D104E04FF4C2715F
:102A70002A48FDF7F6FB1EB145F00100054602E0CD
:102A800005F0FE000546258270BD70B504460D4672
:102A90002048844202D02048844200D104E04FF410
:102AA000CF711E48FDF7DDFB0DB1012D00D104E013
:102AB00040F29F111948FDF7D4FB25B1208840F45E
:102AC0008060208005E020884FF6FF3100EA010099
:102AD000208070BD70B504460E464FF000000546DC
:102AE0000C48844202D00C48844200D104E040F2F9
:102AF000B7110A48FDF7B5FBA08905464FF60171ED
:102B000005EA0100054606F0FE0040EA050005461C
:102B1000A58170BD00540040005800406464000866
:102B2000005C004000127A00801A060040420F004C
:102B3000A086010070B504460D46F848844202D0D4
:102B4000F748844200D104E04FF4E871F548FDF7FE
:102B500088FB0DB1012D00D104E040F2D111F14804
:102B6000FDF77FFB25B1A08940F00100A08105E0C1
:102B7000A0894FF6FE7100EA0100A08170BD70B51A
:102B800004460D46E548844202D0E548844200D11F
:102B900004E04FF4F471E348FDF763FB0DB1012D40
:102BA00000D104E040F2E911DE48FDF75AFB25B1FF
:102BB000208840F04000208005E020884FF6BF715B
:102BC00000EA0100208070BD70B504460D46D34870
:102BD000844202D0D248844200D104E040F2022173
:102BE000D048FDF73EFB0DB1012D00D104E040F2CD
:102BF0000321CC48FDF735FB25B1208840F4004087
:102C0000208003E02088C0F30E00208070BD70B5E6
:102C100004460D46C148844202D0C148844200D1D6
:102C200004E040F21A21BF48FDF71BFB0DB1012D56
:102C300000D104E040F21B21BA48FDF712FB25B990
:102C4000208840F08000208005E020884FF67F71CA
:102C500000EA0100208070BD70B504460D46AF4803
:102C6000844202D0AE48844200D104E04FF40D719A
:102C7000AC48FDF7F6FAB5F5804F03D0A5F53F4017
:102C8000FF3800D104E040F23521A648FDF7E9FA0B
:102C9000B5F5804F06D0A08B4BF6FF7100EA01001E
:102CA000A08303E0A08B40F48040A08370BD70B58A
:102CB00004460D469948844202D09948844200D186
:102CC00004E040F25A219748FDF7CBFAB5F5006FC2
:102CD00003D0A5F57740FF3800D104E040F25B2136
:102CE0009048FDF7BEFAB5F5006F04D1208840F496
:102CF0000060208005E020884FF2FF7100EA0100AB
:102D0000208070BD70B504460D468448844202D0D0
:102D10008348844200D104E040F276218148FDF7E7
:102D2000A0FAB5F5005F03D0A5F55F40FF3800D1EC
:102D300004E040F277217B48FDF793FAB5F5005F98
:102D400004D1208840F40050208005E020884DF612
:102D5000FF7100EA0100208070BD70B504460D4689
:102D60006E48844202D06E48844200D104E040F2B2
:102D70008E216C48FDF775FA0DB1012D00D104E0EC
:102D800040F28F216748FDF76CFA25B1208840F0AA
:102D90001000208005E020884FF6EF7100EA010066
:102DA000208070BD70B504460D465C48844202D058
:102DB0005B48844200D104E04FF42D715948FDF77F
:102DC00050FA258270BD10B504465448844202D0A2
:102DD0005348844200D104E040F2C1215148FDF73C
:102DE00040FA208AC0B210BD70B504460D464B486B
:102DF000844202D04A48844200D104E04FF4387142
:102E00004848FDF72EFA0DB1012D00D104E040F243
:102E1000E1214448FDF725FA25B1208840F480508F
:102E2000208005E020884EF6FF7100EA0100208036
:102E300070BD70B504460D463848844202D038480B
:102E4000844200D104E040F2FF213648FDF709FA40
:102E5000B5F5006F03D0A5F57740FF3800D104E049
:102E60004FF440712F48FDF7FCF9B5F5006F04D120
:102E7000208840F40060208005E020884FF2FF7138
:102E800000EA0100208070BD70B504460D4623485D
:102E9000844202D02248844200D104E040F217313B
:102EA0002048FDF7DEF90DB1012D00D104E04FF40B
:102EB00046711C48FDF7D5F925B1208840F0200067
:102EC000208005E020884FF6DF7100EA01002080B5
:102ED00070BD10B504461148844202D010488442A7
:102EE00000D104E040F22D310E48FDF7BAF9208BF5
:102EF000001210BD70B504460D460848844202D049
:102F00000748844200D104E040F24E310548FDF705
:102F1000A8F90DB1012D07D10BE0000000540040CD
:102F2000005800406464000840F24F31FF48FDF74C
:102F300098F925B1A08840F40060A08005E0A08841
:102F40004FF2FF7100EA0100A08070BD70B5044629
:102F50000D46F748844202D0F648844200D104E08E
:102F600040F26631F148FDF77CF90DB1012D00D139
:102F700004E040F26731ED48FDF773F925B1A08810
:102F800040F48050A08005E0A0884EF6FF7100EA72
:102F90000100A08070BD70B505460C464FF00000E2
:102FA0000646E348854202D0E248854200D104E06B
:102FB00040F2F231DD48FDF754F97CB1042C0DD01C
:102FC000082C0BD00C2C09D0102C07D0142C05D0B9
:102FD000182C03D01C2C01D0202C00D104E040F28E
:102FE000F331D248FDF73DF92E4606EB04000646C4
:102FF000308870BD70B504460D461646CC488442F4
:1030000002D0CC48844200D104E040F20B41C748D2
:10301000FDF727F90EB1012E00D104E040F20C417A
:10302000C248FDF71EF94FF6FF00054201D105B178
:1030300004E040F20D41BD48FDF713F926B1A08828
:1030400040EA0500A08006E0A0886FEA050189B289
:1030500000EA0100A08070BD2DE9F04705460C464E
:103060004FF000000746814606468046B04885423C
:1030700002D0B048854200D104E040F24A41AB485A
:10308000FDF7EFF8A4F5C02082383CD0B4F1021F60
:1030900039D0A4F50600803835D0B4F5020F32D00F
:1030A000B4F5901F2FD0A4F5003040382BD0B0F5E8
:1030B000000028D010F5E00025D0A4F5C020843809
:1030C00021D0B0F500001ED010F5E0001BD0102C70
:1030D00019D09948844216D0A4F5E020823812D045
:1030E000A4F54030801E0ED03E380CD0A4F5E02070
:1030F000843808D0001D06D0A4F54030083802D02E
:10310000B4F5806F00D104E040F24B418748FDF7F1
:10311000A8F8A88A8146288B06464FEA064006464C
:1031200049EA060020F07F40074607EA0400A04273
:1031300003D14FF00100804602E04FF000008046CE
:103140004046BDE8F0872DE9F04104464FF000000D
:103150000646074605467648844202D075488442B2
:1031600000D104E040F279417048FDF77AF8A08A76
:103170000746208B05464FEA0540054647EA05000D
:1031800020F07F4006463046BDE8F0812DE9F04151
:1031900005460C464FF00000074680460646644848
:1031A000854202D06348854200D104E04FF4966125
:1031B0005E48FDF756F8B4F5000F38D0B4F5800F2F
:1031C00035D0B4F5001F32D0B4F5801F2FD0B4F540
:1031D000802F2CD0B4F5003F29D0B4F5803F26D005
:1031E0005648844223D05648844220D0B4F1102F50
:1031F0001DD0544884421AD05348844217D05348B3
:10320000844214D05248844211D0A4F180508038B6
:103210000DD040300BD0303009D0083007D0001D21
:1032200005D0801C03D04A48FF38844200D104E016
:1032300040F2B1413D48FDF714F82E464FEA1470B4
:10324000804624F07F400446B8F1000F03D006F119
:103250001400064605E04FEA1440044606F1180043
:1032600006463068204203D04FF00100074602E0D6
:103270004FF0000007463846BDE8F08170B50446BF
:103280000D464FF0000006462948844202D02948E6
:10329000844200D104E040F2FB412448FCF7E1FF06
:1032A00042F2FF00054201D105B104E040F2FC41C9
:1032B0001E48FCF7D6FF25F07F4006466FEA060061
:1032C000A08270BD2DE9F04105460C464FF000008C
:1032D000064607461648854202D01648854200D168
:1032E00004E040F21F511148FCF7BBFF194884422B
:1032F00045D01948844242D0184884423FD01848EB
:1033000084423CD01748844239D01748844236D092
:10331000B4F1012F33D0A4F1C06080382FD04030F9
:103320002DD0A4F10070103829D01FE0646400088B
:1033300000540040005800400100030000800010CD
:1033400000400010000800100004001000020010EF
:103350000001001000800001004000010010000189
:10336000000800010004000100020001083006D03E
:10337000001D04D0801C02D02148844200D104E00A
:103380004FF4A4611F48FCF76CFFA88804F0E061CB
:1033900000EA1140074624F07F400446A88A2042F4
:1033A00004D01FB14FF00100064602E04FF00000CC
:1033B00006463046BDE8F08170B504460D464FF034
:1033C000000006461048844202D01048844200D1D2
:1033D00004E040F259510B48FCF743FF42F2FF0072
:1033E000054201D105B104E040F25A510548FCF70D
:1033F00038FF25F07F4006466FEA0600A08270BDC8
:1034000001000002646400080054004000580040BD
:10341000F948006840F00100F849C1F800084FF091
:103420000000C1F80808F4480068F54900EA010006
:10343000F1490860F348F149C1F804080846D0F89A
:10344000000820F48020EC4908604FF00000EE49AD
:103450000860704710B504461CB1012C01D0052C42
:1034600000D103E0F021E948FCF7FBFE4FF000003B
:10347000E7490870E14880F8024810BD2DE9F041A5
:1034800004464FF00000054606460746212C17D09B
:10349000312C15D0392C13D0412C11D0612C0FD0E8
:1034A000792C0DD07A2C0BD07B2C09D07C2C07D01A
:1034B0007D2C05D07E2C03D07F2C01D03B2C00D15D
:1034C00004E040F29F61D148FCF7CBFE4FEA641064
:1034D0000546012D03D1C8480068064608E0022DC4
:1034E00003D1CC480068064602E0CB480068064697
:1034F00004F01F0005464FF0010000FA05F03042CD
:1035000003D04FF00100074602E04FF000000746ED
:103510003846BDE8F08170B54FF00000044605461E
:10352000064600BF3120FFF7A9FF064604F101005F
:103530000446B4F5A06F01D0002EF3D03120FFF780
:103540009DFF18B14FF00100054602E04FF000006A
:103550000546284670BD70B504464FF0000005468C
:103560001F2C00DC04E04FF49471A848FCF779FEAE
:10357000A1480068054625F0F800054645EAC40064
:1035800005469E48C0F8005870BD10B504460CB101
:10359000012C00D104E040F24B119C48FCF761FE85
:1035A0009E48046010BD10B504461CB1012C01D02A
:1035B000042C00D104E04FF4B2719448FCF751FEA2
:1035C0004FF00000934908708C4981F87008012C75
:1035D00002D0042C0AD104E04FF001008D4908709C
:1035E00005E04FF005008B49087000E000BF00BF08
:1035F00010BD10B504460CB1012C00D104E04FF40D
:10360000C6718248FCF72DFE8548046010BD2DE987
:10361000F04105460F4616461C46DDF8188015B1E8
:10362000B5F5800F00D104E040F2B7117748FCF700
:1036300018FE3F2F00D804E04FF4DC717348FCF70C
:1036400010FEC02E03D3B6F5D87F00D804E040F2B8
:10365000B9116E48FCF705FE022C05D0042C03D0EE
:10366000062C01D0082C00D104E04FF4DD7167482E
:10367000FCF7F7FDB8F1040F03D3B8F10F0F00D832
:1036800004E040F2BB116148FCF7EBFD47EA86100D
:103690004FF00101C1EB540140EA014040EA05004E
:1036A00040EA08605F490860BDE8F08110B5044653
:1036B0000CB1012C00D104E04FF4E7715348FCF742
:1036C000D0FD5648046610BD70B505460C46C02DA9
:1036D00003D3B5F5D87F00D804E040F2E9114B4898
:1036E000FCF7BFFD022C02D3072C00D804E04FF4F6
:1036F000F5714648FCF7B5FD4FEA851040EA0470C5
:103700004949086070BD10B504460CB1012C00D1C8
:1037100004E040F2F9113D48FCF7A3FD3F48846600
:1037200010BD10B504460CB1012C00D104E040F2EC
:103730000B213648FCF795FD3848C46410BD70B5C0
:1037400005460C464FF00000064645B1B5F5001F92
:1037500005D0B5F5800F02D0B5F5C00F00D104E05B
:1037600040F226212948FCF77CFD5CB1B4F1806F62
:1037700008D0B4F1A06F05D0B4F1C06F02D0B4F19D
:10378000E06F00D104E040F227212048FCF769FDFA
:1037900026480068064626F0EC60064645EA040026
:1037A00040EA060006461548C0F8086870BD70B5C6
:1037B00005460C464FF00000064645B1B5F1804F76
:1037C00005D0B5F1004F02D0B5F1404F00D104E073
:1037D0004FF413710D48FCF744FD5CB1B4F1005F88
:1037E00008D0B4F1205F05D0B4F1405F02D0B4F14D
:1037F000605F1DD121E0000000380240003002402F
:10380000FFFFF6FE103000240C380240A8640008C8
:1038100002380240703802407438024000004742CB
:10382000800E474204380240843802400838024083
:1038300040F24D21FE48FCF714FDFE4800680646A4
:1038400026F07840064645EA040040EA06000646AF
:10385000F948C0F8086870BD70B504464FF0000024
:1038600005461CB1012C01D0022C00D104E040F22D
:10387000B521EF48FCF7F5FCEE480068054625F059
:103880000300054645EA04000546EB48C0F8085821
:1038900070BDE848006800F00C00704770B5044641
:1038A0004FF0000005467CB1802C0DD0902C0BD041
:1038B000A02C09D0B02C07D0C02C05D0D02C03D020
:1038C000E02C01D0F02C00D104E040F2EA21D848ED
:1038D000FCF7C7FCD7480068054625F0F000054610
:1038E00045EA04000546D448C0F8085870BD70B5D4
:1038F00004464FF0000005465CB1B4F5805F08D087
:10390000B4F5A05F05D0B4F5C05F02D0B4F5E05FB8
:1039100000D104E040F20A31C548FCF7A2FCC548DA
:103920000068054625F4E050054645EA04000546D2
:10393000C148C0F8085870BD70B504464FF000008B
:1039400005465CB1B4F5805F08D0B4F5A05F05D042
:10395000B4F5C05F02D0B4F5E05F00D104E040F2FE
:103960002931B348FCF77DFCB2480068054625F4D0
:103970006040054645EAC4000546AF48C0F808580F
:1039800070BDF0B54FF0000739463A463C464FF05F
:1039900002073D464FF000073E464FF002073B4608
:1039A000A44F3F6807F00C07394621B1042905D020
:1039B000082936D105E0A14F076035E0A04F076028
:1039C00032E0A04F3F68C7F380573E469A4FD7F882
:1039D000047807F03F073B465EB1994FB7FBF3F71A
:1039E000DFF854C2DCF804C8CCF3881C07FB0CF4E5
:1039F0000AE0924FB7FBF3F7DFF83CC2DCF804C8EB
:103A0000CCF3881C07FB0CF48E4F3F68C7F30147CB
:103A100007F101074FEA47073D46B4FBF5F707609A
:103A200002E0864F076000BF00BF824F3F6807F08B
:103A3000F00739464FEA11173946834F7F5C3A4603
:103A4000076827FA02F747607B4FD7F8087807F432
:103A5000E05739464FEA912739467B4F7F5C3A461B
:103A6000476827FA02F78760724F3F6807F460479C
:103A700039464FEA51373946734F7F5C3A464768BB
:103A800027FA02F7C760F0BD70B504464FF000009A
:103A90000546B4F5807F5CD0B4F5007F59D06B4803
:103AA000844256D06A48844253D06A48844250D0F7
:103AB000694884424DD0694884424AD0684884426B
:103AC00047D06848844244D06748844241D0674820
:103AD00084423ED0664884423BD06648844238D017
:103AE0006548844235D06548844232D06448844277
:103AF0002FD0644884422CD06348844229D0634844
:103B0000844226D06248844223D06248844220D036
:103B1000614884421DD0614884421AD06048844282
:103B200017D06048844214D05F48844211D05F4867
:103B300084420ED05E4884420BD05E48844208D056
:103B40005D48844205D05D48844202D05C4884428E
:103B500000D104E040F2DA313548FCF782FB04F48E
:103B60004070B0F5407F0ED132480068054625F41C
:103B7000F8100546534904EA010040EA05000546ED
:103B80002D48C0F8085850480068C4F30B0140EABB
:103B900001002949C1F8700870BD10B504460CB188
:103BA000012C00D104E04FF47E712148FCF759FB51
:103BB0004648046010BD10B504460CB1012C00D17C
:103BC00004E040F209411A48FCF74BFB404804600E
:103BD00010BD10B504460CB1012C00D104E040F238
:103BE0001D411348FCF73DFB3A48046010BD70B519
:103BF00004460D463848044201D104B104E040F2C5
:103C000043410B48FCF72DFB0DB1012D00D104E021
:103C100040F245410648FCF724FB3DB12F480068BF
:103C200040EA04000449C1F8300860E058E00000B0
:103C3000A864000808380240003002400024F40064
:103C400040787D010438024020000020000302007B
:103C50000003030000030400000305000003060046
:103C600000030700000308000003090000030A0026
:103C700000030B0000030C0000030D0000030E0006
:103C800000030F00000310000003110000031200E6
:103C900000031300000314000003150000031600C6
:103CA00000031700000318000003190000031A00A6
:103CB00000031B0000031C0000031D0000031E0086
:103CC00000031F00FFFCFF0F703802403C0E47420C
:103CD000400E47425C01474200EE9B813038024073
:103CE000FD48006820EA0400FC49C1F8300870BDB6
:103CF00070B504460D4634F0F10001D104B104E082
:103D000040F26341F648FCF7ACFA0DB1012D00D149
:103D100004E040F26441F248FCF7A3FA3DB1F148F7
:103D2000006840EA0400ED49C1F8340806E0ED48B7
:103D3000006820EA0400E949C1F8340870BD70B594
:103D400004460D4634F0010001D104B104E040F214
:103D50007E41E348FCF785FA0DB1012D00D104E066
:103D600040F27F41DE48FCF77CFA3DB1DE48006856
:103D700040EA0400D949C1F8380806E0DA4800688A
:103D800020EA0400D549C1F8380870BD70B5044672
:103D90000D46D648044201D104B104E04FF49661C7
:103DA000CF48FCF75EFA0DB1012D00D104E040F2DE
:103DB000B141CB48FCF755FA3DB1CD48006840EA27
:103DC0000400C649C1F8400806E0C948006820EA76
:103DD0000400C249C1F8400870BD70B504460D46E4
:103DE000C448044201D104B104E04FF49B61BC48D3
:103DF000FCF737FA0DB1012D00D104E040F2D941B2
:103E0000B748FCF72EFA3DB1BB48006840EA040011
:103E1000B249C1F8440806E0B748006820EA040047
:103E2000AE49C1F8440870BD70B504460D46B348AC
:103E3000044201D104B104E040F2FF41A848FCF77C
:103E400010FA0DB1012D00D104E04FF4A061A44897
:103E5000FCF707FA3DB1AA48006840EA04009F4910
:103E6000C1F8100806E0A648006820EA04009B4953
:103E7000C1F8100870BD70B504460D4634F0F1006D
:103E800001D104B104E040F21C519548FCF7E9F976
:103E90000DB1012D00D104E040F21D519048FCF716
:103EA000E0F93DB19748006840EA04008B49C1F849
:103EB000140806E09348006820EA04008749C1F826
:103EC000140870BD70B504460D4634F0010001D1F0
:103ED00004B104E040F234518148FCF7C2F90DB15D
:103EE000012D00D104E040F235517D48FCF7B9F9CD
:103EF0003DB18548006840EA04007849C1F81808D7
:103F000006E08148006820EA04007449C1F81808F6
:103F100070BD70B504460D467448044201D104B129
:103F200004E040F263516E48FCF79BF90DB1012D9E
:103F300000D104E040F264516948FCF792F93DB1C8
:103F40007248006840EA04006449C1F8200806E0AD
:103F50006E48006820EA04006049C1F8200870BD7E
:103F600070B504460D466A48044201D104B104E02C
:103F700040F287515A48FCF774F90DB1012D00D178
:103F800004E04FF4B1615648FCF76BF93DB161486C
:103F9000006840EA04005149C1F8240806E05D4881
:103FA000006820EA04004D49C1F8240870BD70B5CE
:103FB00004460D465848044201D104B104E040F2E1
:103FC000B5514748FCF74DF90DB1012D00D104E082
:103FD00040F2B6514248FCF744F93DB14F48006801
:103FE00040EA04003D49C1F8500806E04B4800682B
:103FF00020EA04003949C1F8500870BD70B5044684
:104000000D4634F0F10001D104B104E040F2D55185
:104010003348FCF726F90DB1012D00D104E040F240
:10402000D6512F48FCF71DF93DB13D48006840EAE4
:1040300004002A49C1F8540806E03948006820EA1B
:1040400004002649C1F8540870BD70B504460D46F9
:1040500034F0010001D104B104E04FF4BE61204806
:10406000FCF7FFF80DB1012D00D104E040F2F15151
:104070001B48FCF7F6F83DB12A48006840EA040006
:104080001649C1F8580806E02648006820EA0400EE
:104090001249C1F8580870BD70B504460D46134862
:1040A000044201D104B104E040F222610C48FCF763
:1040B000D8F80DB1012D00D104E040F22361084889
:1040C000FCF7CFF83DB11848006840EA0400034906
:1040D000C1F8600831E029E0303802400030024089
:1040E000A86400083438024038380240003601C95C
:1040F00040380240CCA0F8FF4438024000EE9FDD7B
:10410000103802401438024018380240203802406B
:10411000CCA6F8FF24380240006E98815038024047
:104120005438024058380240603802404B4800681A
:1041300020EA04004A49C1F8600870BD70B5044621
:104140000D464848044201D104B104E040F24A61FE
:104150004548FCF786F80DB1012D00D104E040F28E
:104160004B614148FCF77DF83DB14048006840EAAA
:1041700004003B49C1F8640806E03C48006820EAB6
:1041800004003749C1F8640870BD70B504460D4697
:1041900014F0C00F01D104B104E040F2776132485D
:1041A000FCF75FF80DB1012D00D104E04FF4CF61B1
:1041B0002D48FCF756F83DB12D48007840EA040040
:1041C000274981F80D0809E0294800786FEA0401C1
:1041D000C9B200EA0100224981F80D0870BD2548E6
:1041E000006840F080701E49C1F87408704770B5CF
:1041F00004464FF000000546012C0BD0022C09D0DC
:10420000042C07D0082C05D0102C03D0802C01D012
:10421000202C00D104E040F2DD611348FCF721F8C6
:104220001348401E0068204203D04FF001000546AD
:1042300002E04FF000000546284670BD10B5044668
:1042400014F0400F01D104B104E040F2FC610648D3
:10425000FCF707F80848047010BD00006038024001
:1042600000300240CCA0F8FFA86400086438024087
:104270000D380240743802400E38024010B5044632
:10428000FF48844205D0FF48844202D0FE48844261
:1042900000D103E0AE21FD48FBF7E3FFF84884427C
:1042A00008D101218014FFF75BFE0021A014FFF765
:1042B00057FE16E0F348844208D101210014FFF7AD
:1042C00028FE00212014FFF724FE0AE0EE48844275
:1042D00007D10121C013FFF71CFE0021E013FFF7F7
:1042E00018FE10BD70B505460C464FF0000006469E
:1042F000E348854205D0E348854202D0E248854242
:1043000000D103E0D721E148FBF7ABFF208858B18B
:104310002088B0F5806F07D02088B0F5004F03D01B
:104320002088B0F5404F00D103E0DA21D748FBF7F1
:1043300098FF6088B0F5827F01D0608800B903E003
:10434000DB21D248FBF78DFFA088B0F5006F01D0CC
:10435000A08800B903E0DC21CC48FBF782FFE088AD
:1043600010B1E088022800D103E0DD21C748FBF747
:1043700078FF208910B12089012800D103E0DE21D7
:10438000C248FBF76EFF6089B0F5007F01D06089FD
:1043900000B903E0DF21BD48FBF763FFA089A0B1AE
:1043A000A089082811D0A08910280ED0A08918282B
:1043B0000BD0A089202808D0A089282805D0A08962
:1043C000302802D0A089382800D103E0E021AF488E
:1043D000FBF747FFE08910B1E089802800D103E0B6
:1043E000E121AA48FBF73DFF208A012800DB03E01A
:1043F000E221A648FBF735FF2888064606F441501F
:1044000006462088618840EA0100A18840EA010050
:10441000E18840EA0100218940EA0100618940EA1F
:104420000100A18940EA0100E18940EA010040EA77
:10443000060006462E80A88B4FF2FF7100EA0100AD
:10444000A883208A288270BD2DE9FE4F05460C46C0
:104450004FF0000081464FF0020007464FF0000089
:1044600080464FF0010083464FF00000064682462A
:104470000290019000908348854202D08248854294
:1044800000D104E040F21B118048FBF7EAFE2088CF
:1044900058B12088B0F5807F07D02088B0F5007F24
:1044A00003D02088B0F5407F00D104E04FF48E7136
:1044B0007648FBF7D6FE608858B16088102808D08F
:1044C0006088202805D06088302802D06088B02815
:1044D00000D104E040F21D116C48FBF7C2FEA08839
:1044E00040B1A088012805D0A088032802D0A08868
:1044F000052800D104E04FF48F716448FBF7B1FE4A
:10450000E088B0F5007F01D0E08800B904E040F217
:104510001F115E48FBF7A5FEA068B0F5FA5F03D354
:104520005B49A068884202D9A068022800D104E053
:104530004FF490715548FBF794FEA08910B1A08903
:10454000082800D104E040F221115048FBF789FE11
:10455000A88B4FF2400100EA0100A8834FF002004F
:104560002884A88B8146A068022806D14FF000005D
:1045700080464FF0020007465EE0A08818B94FF071
:104580000100834602E04FF0020083464148006884
:1045900010F4000F06D03F48006820F400003E49A8
:1045A000C1F808083D480068C0F3881001903A48F7
:1045B000D0F88408C0F3027000903948006800F019
:1045C0003F00029037490298B1FBF0F0019900FBDF
:1045D00001F00099B0FBF1F08246E088B0F5007F71
:1045E0000CD14FEA1A2000EB80004FEA4000A1688E
:1045F000B0FBF1F000F1050086B20DE04FEA4B1080
:10460000BAFBF0F000EB80004FEA4000A168B0FB7D
:10461000F1F000F1050086B24FF00A00B6FBF0F0B1
:10462000064606F001008046A6EB0800C0F34F00E6
:1046300007464FEA08208046022F01DBFF2F05DDE9
:104640004FF0020007464FF000008046E08840EA45
:10465000080040EA07002884A088A18940EA0100F8
:10466000618840EA0100218840EA010040F40060CE
:1046700040EA09008146A5F81C90BDE8FE8F0000C5
:104680000030014000380040003C0040EC6400086D
:1046900000EE020008380240003002408438024038
:1046A0000438024040787D014FF0000101804180D4
:1046B0008180C180018141818181C1814FF00701E9
:1046C000018270474FF00001018041808180C180EC
:1046D0004FF0020181604FF000018181704770B599
:1046E00004460D46F848844205D0F848844202D07A
:1046F000F748844200D104E04FF4E971F548FBF734
:10470000B0FD0DB1012D00D104E040F2D311F1480C
:10471000FBF7A7FD25B1208840F04000208005E090
:1047200020884FF6BF7100EA0100208070BD70B58F
:1047300004460D46E548844202D0E548844200D153
:1047400004E04FF4F571E348FBF78BFD0DB1012D4B
:1047500000D104E040F2EB11DE48FBF782FD25B109
:10476000A08B40F48060A08305E0A08B4FF6FF3162
:1047700000EA0100A08370BD70B504460D46D24822
:10478000844205D0D148844202D0D148844200D12D
:1047900004E040F20521CF48FBF763FDB5F5006F5B
:1047A00000D005B904E040F20621CA48FBF759FDE4
:1047B00020884FF2FF7100EA01002080208840EA43
:1047C0000500208070BD70B504460D46BE48844289
:1047D00005D0BE48844202D0BD48844200D104E0E6
:1047E00040F21921BB48FBF73CFDA5F53F40FF38DF
:1047F00002D0B5F5804F00D104E040F21A21B5484F
:10480000FBF72FFDB5F5804F04D1208840F48040A0
:10481000208005E020884BF6FF7100EA010020802F
:1048200070BD70B504460D46A748844205D0A74820
:10483000844202D0A648844200D104E040F23321F1
:10484000A448FBF70EFDB5F5807F03D0A5F57E40AB
:10485000FF3800D104E04FF40D719E48FBF701FDD5
:10486000A5F57E40FF3804D0208840F48070208079
:1048700005E020884FF6FF6100EA0100208070BD4E
:1048800070B504460D469048844205D08F48844256
:1048900002D08F48844200D104E040F24B218D4881
:1048A000FBF7DFFC0DB1012D00D104E04FF41371D3
:1048B0008848FBF7D6FC25B1A08840F00400A08012
:1048C00005E0A0884FF6FB7100EA0100A08070BDF2
:1048D00070B504460D467C48844205D07B4884422E
:1048E00002D07B48844200D104E040F26A2179483A
:1048F000FBF7B7FC0DB1012D00D104E040F26B21B4
:104900007448FBF7AEFC25B1A08840F01000A080F1
:1049100005E0A0884FF6EF7100EA0100A08070BDAD
:1049200010B504466848844205D06848844202D0E5
:104930006748844200D104E040F29D216548FBF7BE
:1049400090FCA08910BD70B504460D465E488442B7
:1049500005D05E48844202D05D48844200D104E024
:1049600040F2AD215B48FBF77CFCA58170BD70B5C2
:1049700004460D465448844205D05448844202D02F
:104980005348844200D104E040F206315148FBF71D
:1049900068FC0DB1012D00D104E040F207314D4813
:1049A000FBF75FFC25B1208840F40050208005E033
:1049B00020884DF6FF7100EA0100208070BD10B51F
:1049C00004464148844205D04048844202D04048D1
:1049D000844200D104E04FF447713E48FBF741FCAC
:1049E000208840F48050208010BD70B504460D46EC
:1049F0004FF0000006463448844205D033488442D4
:104A000002D03348844200D104E040F22F313148D3
:104A1000FBF727FC0DB1012D00D104E04FF44C71E0
:104A20002C48FBF71EFC012D02D0208B064601E02E
:104A3000A08A0646304670BD10B50446224884421E
:104A400005D02248844202D02148844200D104E0AB
:104A500040F247311F48FBF704FC208A10BD70B5B7
:104A600004460D4616461848844205D0174884422D
:104A700002D01748844200D104E04FF45B7115481E
:104A8000FBF7EFFB0EB1012E00D104E040F26D31D7
:104A90001048FBF7E6FB4FF6FC70054201D105B16B
:104AA00004E040F26E310B48FBF7DBFB26B1A08837
:104AB00040EA0500A08006E0A0886FEA050189B2FF
:104AC00000EA0100A08070BD0030014000380040C5
:104AD000003C0040EC6400082DE9F04104460D461E
:104AE00016464FF00000804607468848844205D0AD
:104AF0008748844202D08748844200D104E040F2D3
:104B0000DB318548FBF7ADFB0EB1012E00D104E08F
:104B10004FF477718048FBF7A4FB712D03D0602D13
:104B200001D0502D00D104E040F2DD317A48FBF78E
:104B300098FB4FEA251080464FF0010000FA08F07C
:104B400080B2074626B1A08840EA0700A08006E0B0
:104B5000A0886FEA070189B200EA0100A080BDE8E1
:104B6000F08170B505460C464FF0000006466748D8
:104B7000854205D06648854202D06648854200D10C
:104B800004E040F206416448FBF76BFB802C10D038
:104B9000402C0ED0202C0CD0102C0AD0082C08D081
:104BA000042C06D0022C04D0012C02D0B4F5807F56
:104BB00000D104E040F207415748FBF752FB288937
:104BC000204203D04FF00100064602E04FF0000003
:104BD0000646304670BD70B504460D464B488442CB
:104BE00005D04B48844202D04A48844200D104E0B8
:104BF00040F22E414848FBF734FB102D00D104E071
:104C000040F22F414448FBF72CFB6FEA050020815E
:104C100070BD2DE9F04705460C464FF000000746F1
:104C20008046064681463948854205D03848854247
:104C300002D03848854200D104E040F24A4136486B
:104C4000FBF70FFB602C0BD0712C09D0542C07D034
:104C5000552C05D0562C03D0532C01D0582C00D104
:104C600004E040F24B412C48FBF7FBFA04F00F0143
:104C70004FF0010000FA01F080B280464FEA2410A4
:104C800006464FF0010000FA06F080B20646A888FA
:104C900000EA06008146288910EA080F06D0B9F11B
:104CA000000F03D04FF00100074602E04FF0000074
:104CB00007463846BDE8F08770B504460D464FF00C
:104CC000000006461148844205D01148844202D0B3
:104CD0001048844200D104E040F27F410E48FBF7C7
:104CE000C0FA542D00D104E04FF490610A48FBF75C
:104CF000B8FA05F00F014FF0010000FA01F080B2A0
:104D000006466FEA0600208170BD000000300140B9
:104D100000380040003C0040EC64000810B5012160
:104D20008803FFF71DF900214FF48040FFF718F9C1
:104D300010BD10B504462CB1012C03D0032C01D0BA
:104D4000022C00D103E070214B48FBF78AFA4B4854
:104D5000046010BD70B505460C464FF000000646D5
:104D60007DB1012D0DD0022D0BD0032D09D0042DC6
:104D700007D0052D05D0062D03D0072D01D0082D15
:104D800000D103E083213C48FBF76BFAECB1012C26
:104D90001BD0022C19D0032C17D0042C15D0052CB5
:104DA00013D0062C11D0072C0FD0082C0DD0092CB5
:104DB0000BD00A2C09D00B2C07D00C2C05D00D2CB5
:104DC00003D00E2C01D00F2C00D103E084212A48FF
:104DD000FBF747FA4FEA84704FEA10714FF00F006B
:104DE00000FA01F0064626484FEAA40150F82100D7
:104DF00020EA060022494FEAA40241F822000846B0
:104E00004FEAA40150F821004FEA84714FEA117172
:104E100005FA01F140EA010019494FEAA40241F8FC
:104E2000220070BD10B504460CB1012C00D103E086
:104E300095211148FBF715FA1248046010BD10B512
:104E400004460CB1012C00D103E0A7210A48FBF76E
:104E500008FA0D48046010BD4FF0000108460B49E8
:104E6000096811F4807F03D04FF00101084602E089
:104E70004FF00001084670473065000800380140D7
:104E800008380140DC002742000427422038014056
:104E900010B50446FB4884420ED0FB4884420BD038
:104EA000FA48844208D0FA48844205D0F94884423E
:104EB00002D0F948844200D103E0B521F748FBF75E
:104EC000D0F9F048844208D101211020FFF748F8BA
:104ED00000211020FFF744F83EE0EB48844209D15E
:104EE00001214804FFF715F800214FF40030FFF7C7
:104EF00010F831E0E548844209D101218804FFF728
:104F000008F800214FF48020FFF703F824E0E04880
:104F1000844209D10121C804FEF7FBFF00214FF4B0
:104F20000020FEF7F6FF17E0DA48844209D101219C
:104F30000805FEF7EEFF00214FF48010FEF7E9FFB1
:104F40000AE0D548844207D101212020FFF708F864
:104F500000212020FFF704F810BD2DE9FF4705468A
:104F60000C464FF000000646814600BF8046C5480B
:104F700085420ED0C44885420BD0C448854208D033
:104F8000C348854205D0C348854202D0C248854205
:104F900000D103E0EB21C148FBF763F9206820B1A1
:104FA000BF492068884200D203E0EC21BB48FBF7F0
:104FB00058F9A08818B1A088B0F5805F00D103E04F
:104FC000ED21B648FBF74DF9E08858B1E088B0F51F
:104FD000805F07D0E088B0F5005F03D0E088B0F5CF
:104FE000405F00D103E0EE21AC48FBF73AF920899D
:104FF00038B12089B0F5806F03D02089B0F5C06F3B
:1050000000D103E0EF21A548FBF72BF960894FF6AB
:10501000F371084202D1608900B103E0F0219F489A
:10502000FBF71FF9A08958B1A089B0F5807F07D0A0
:10503000A089B0F5007F03D0A089B0F5407F00D1F2
:1050400003E0F1219548FBF70CF9A08980B18D4868
:10505000854208D08C48854205D08C48854202D0D4
:105060008D48854200D103E0F6218C48FBF7F9F822
:10507000288A064626F440500646E08840EA0600A4
:1050800006462E82A889064641F20C6026EA0000F8
:105090000646A088218940EA0100618940EA0100B2
:1050A00040EA06000646AE81A88A064626F440700D
:1050B0000646A08940EA06000646AE826846FEF72C
:1050C00060FC7048854202D07348854202D1039843
:1050D000814601E002988146A88910F4004F09D06A
:1050E00009EBC90000EB091021684FEA4101B0FB50
:1050F000F1F708E009EBC90000EB091021684FEA5D
:105100008101B0FBF1F74FF06400B7FBF0F04FEA1C
:10511000001006464FEA16104FF0640101FB1070B4
:105120008046A88910F4004F0BD04FF0320000EBFE
:10513000C800B0FBF1F000F0070040EA06000646A8
:105140000CE04FF0320000EB08104FF06401B0FBB0
:10515000F1F000F00F0040EA060006462E81BDE89F
:10516000FF874FF4165101604FF000018180C1802C
:1051700001814FF00C0141814FF0000181817047A6
:1051800070B505460C464FF0000006463D48854286
:1051900008D03D48854205D03C48854202D03E4873
:1051A000854200D104E04FF4B6713C48FBF759F852
:1051B000208818B12088B0F5006F00D104E040F2DB
:1051C0006D113648FBF74DF8608818B16088B0F56E
:1051D000806F00D104E04FF4B7713048FBF741F81D
:1051E000A08818B1A088B0F5007F00D104E040F29B
:1051F0006F112A48FBF735F8E08818B1E088B0F560
:10520000807F00D104E04FF4B8712448FBF729F8FF
:10521000288A064626F4706006462088618840EA9F
:105220000100A18840EA0100E18840EA010040EA6B
:10523000060006462E8270BD4FF0000101804180BD
:105240008180C180704770B504460D460D48844288
:105250000ED00D4884420BD00C48844208D00C4834
:10526000844205D00B48844202D00B48844200D1CE
:1052700004E040F29B110948FAF7F3FF0DB1012D4C
:1052800010D114E0001001400044004000480040EC
:10529000004C0040005000400014014078650008B8
:1052A000E17072004FF4CE71FE48FAF7DAFF25B1D3
:1052B000A08940F40050A08105E0A0894DF6FF715F
:1052C00000EA0100A08170BD70B504460D46F648A5
:1052D00084420ED0F54884420BD0F548844208D071
:1052E000F448844205D0F448844202D0F348844212
:1052F00000D104E040F2B511EA48FAF7B2FF208B82
:1053000000F47F402083208B40EA0500208370BD9D
:1053100070B504460D46E44884420ED0E34884420A
:105320000BD0E348844208D0E248844205D0E248EA
:10533000844202D0E148844200D104E04FF4E57198
:10534000D848FAF78EFF0DB1012D00D104E040F2EC
:10535000CB11D448FAF785FF25B1A08940F400406D
:10536000A08103E0A089C0F30E00A08170BD70B5DC
:1053700004460D46CC4884420ED0CC4884420BD023
:10538000CB48844208D0CB48844205D0CA488442E6
:1053900002D0CA48844200D104E04FF4F271C148FF
:1053A000FAF75FFF0DB1012D00D104E040F2E511E5
:1053B000BC48FAF756FF25B1A08A40F40060A082ED
:1053C00005E0A08A4FF2FF7100EA0100A08270BDE3
:1053D00070B504460D46B44884420ED0B3488442AA
:1053E0000BD0B348844208D0B248844205D0B248BA
:1053F000844202D0B148844200D104E040F21D2131
:10540000A848FAF72EFFB5F5007F00DA04E040F275
:105410001E21A448FAF725FFC5F30800A08070BD3F
:1054200010B50446A04884420ED0A04884420BD058
:105430009F48844208D09F48844205D09E488442B9
:1054400002D09E48844200D104E040F22D219548CC
:10545000FAF707FFA088C0F3080010BD70B5044636
:105460000D46914884420ED0904884420BD090481B
:10547000844208D08F48844205D08F48844202D0AD
:105480008E48844200D104E04FF418718548FAF741
:10549000E8FE0F2D00DC04E040F261218148FAF7BC
:1054A000E0FE208A4FF6F07100EA01002082208A97
:1054B00040EA0500208270BD70B504460D467A486A
:1054C00084420ED0794884420BD07948844208D077
:1054D0007848844205D07848844202D07748844294
:1054E00000D104E04FF41D716E48FAF7BAFE0DB119
:1054F000012D00D104E040F275216A48FAF7B1FEAF
:1055000025B1A08940F00200A08105E0A0894FF6F6
:10551000FD7100EA0100A08170BD70B504460D4622
:10552000614884420ED0614884420BD06048844276
:1055300008D06048844205D05F48844202D05F486A
:10554000844200D104E040F28F215648FAF789FEE8
:1055500015B1B5F5006F00D104E04FF42471514846
:10556000FAF77FFEA0894FF2FF7100EA0100A081E7
:10557000A08940EA0500A08170BD70B504460D46C3
:10558000494884420ED0494884420BD0484884425E
:1055900008D04848844205D04748844202D0474852
:1055A000844200D104E04FF435713E48FAF759FEC9
:1055B0000DB1202D00D104E040F2D5213948FAF791
:1055C00050FE208A4FF6DF7100EA01002082208A17
:1055D00040EA0500208270BD70B504460D46324891
:1055E00084420ED0314884420BD03148844208D0E6
:1055F0003048844205D03048844202D02F4884424B
:1056000000D104E040F2E6212648FAF72AFE0DB167
:10561000012D00D104E040F2E7212248FAF721FEF3
:1056200025B1208A40F48040208205E0208A4BF694
:10563000FF7100EA0100208270BD10B504461A48CF
:1056400084420ED0194884420BD01948844208D0B5
:105650001848844205D01848844202D01748844232
:1056600000D104E040F2FE210E48FAF7FAFDA089CD
:1056700040F00100A08110BD70B504460D460A48F7
:1056800084420ED0094884420BD00948844208D095
:105690000848844205D00848844202D00748844222
:1056A0000ED112E07865000800100140004400406F
:1056B00000480040004C00400050004000140140F1
:1056C00040F23331FF48FAF7CCFD0DB1012D00D186
:1056D00004E04FF44D71FB48FAF7C3FD25B1A08AF1
:1056E00040F00800A08205E0A08A4FF6F77100EABA
:1056F0000100A08270BD70B504460D46F248844298
:1057000008D0F248844205D0F148844202D0F148E2
:10571000844200D104E04FF46271EA48FAF7A1FD37
:10572000208BC0B22083208B40EA0520208370BDEF
:1057300070B504460D46E448844208D0E3488442EC
:1057400005D0E348844202D0E248844200D104E01C
:1057500040F29B31DB48FAF784FD0DB1012D00D1F9
:1057600004E04FF46771D748FAF77BFD25B1A08AB2
:1057700040F02000A08205E0A08A4FF6DF7100EA29
:105780000100A08270BD70B504460D46CE4884422B
:1057900008D0CE48844205D0CD48844202D0CD48BE
:1057A000844200D104E04FF46D71C648FAF759FD08
:1057B0000DB1012D00D104E040F2B531C148FAF736
:1057C00050FD25B1A08A40F01000A08205E0A08A1B
:1057D0004FF6EF7100EA0100A08270BD70B504467B
:1057E0000D46B94884420ED0B84884420BD0B84820
:1057F000844208D0B848844205D0B848844202D0D8
:10580000B448844200D104E040F2FB31AD48FAF7DD
:1058100028FD042D00D005B904E04FF47F71A9489C
:10582000FAF71FFDA08A4FF6FB7100EA0100A08283
:10583000A08A40EA0500A08270BD70B504460D46FE
:10584000A14884420ED0A14884420BD0A048844293
:1058500008D0A148844205D0A048844202D09D4887
:10586000844200D104E040F20D419648FAF7F9FC79
:105870000DB1012D00D104E040F20E419148FAF73C
:10588000F0FC25B1A08A40F00200A08205E0A08AC9
:105890004FF6FD7100EA0100A08270BD70B50446AC
:1058A0000D461646884884420ED0884884420BD064
:1058B0008748844208D08848844205D0874884427B
:1058C00002D08448844200D104E040F23B417D484C
:1058D000FAF7C7FC4FF63F70054201D105B104E06D
:1058E00040F23C417748FAF7BCFC0EB1012E00D1E2
:1058F00004E040F23D417348FAF7B3FC26B1A08AB8
:1059000040EA0500A08206E0A08A6FEA050189B29C
:1059100000EA0100A08270BD2DE9F04704460D4663
:1059200017464FF00000804682468146064666488C
:1059300084420ED0654884420BD06548844208D02A
:105940006548844205D06548844202D0614884425B
:1059500000D104E040F2BD415A48FAF782FC282DFC
:1059600018D0A5F5E060273814D0A5F5C06026381A
:1059700010D0A5F5A06025380CD0A5F5806024389E
:1059800008D0A5F50060463804D0B0F5927001D07B
:10599000602D00D104E040F2BE414A48FAF761FCB4
:1059A0000FB1012F00D104E040F2BF414548FAF7A2
:1059B00058FCA5F510606A3811D14348844208D0DC
:1059C0004248844205D04248844202D04148844241
:1059D00000D104E040F2C4413A48FAF742FC2646BE
:1059E000C5F34210804605F01F0082464FF00100CB
:1059F00000FA0AF08146B8F1010F03D106F10C005C
:105A0000064609E0B8F1020F03D106F11000064680
:105A100002E006F11400064627B1306840EA0900AA
:105A2000306003E0306820EA09003060BDE8F087AC
:105A300070B505460C464FF00000064622488542E8
:105A40000ED0224885420BD02148854208D02248FA
:105A5000854205D02148854202D01E48854200D1AA
:105A600004E040F2FC411748FAF7FBFB012C13D08D
:105A7000802C11D0402C0FD0202C0DD0102C0BD00E
:105A8000B4F5807F08D0B4F5007F05D0082C03D092
:105A9000042C01D0022C00D104E040F2FD41094861
:105AA000FAF7DFFBB4F5007F1FD10748854208D025
:105AB0000648854205D00648854202D00548854201
:105AC0000ED112E07865000800100140004400404B
:105AD0000048004000140140004C004000500040CD
