:020000040800F2
:10000000E80600205958000899020008B9020008C3
:10001000BD020008C1020008C5020008000000007F
:10002000000000000000000000000000C9020008FD
:10003000CB02000800000000CD020008CF0200083B
:100040007358000873580008735800087358000864
:1000500073580008D102000873580008735800084C
:100060007358000873580008735800087358000844
:100070007358000873580008735800087358000834
:100080007358000873580008735800087358000824
:100090007358000873580008735800087358000814
:1000A0007358000873580008735800087358000804
:1000B00073580008735800087358000873580008F4
:1000C00073580008735800087358000873580008E4
:1000D00073580008735800087358000873580008D4
:1000E00073580008735800087358000873580008C4
:1000F00073580008735800087358000873580008B4
:1001000073580008735800087358000873580008A3
:100110007358000873580008735800087358000893
:100120007358000873580008735800087358000883
:100130007358000873580008735800087358000873
:100140007358000873580008735800087358000863
:100150007358000873580008735800087358000853
:100160007358000873580008735800087358000843
:100170007358000873580008735800087358000833
:100180007358000800F002F800F03AF80AA090E86E
:10019000000C82448344AAF10107DA4501D100F042
:1001A0002FF8AFF2090EBAE80F0013F0010F18BFD5
:1001B000FB1A43F001031847D45E0000F45E000010
:1001C000103A24BF78C878C1FAD8520724BF30C883
:1001D00030C144BF04680C60704700000023002455
:1001E00000250026103A28BF78C1FBD8520728BF47
:1001F00030C148BF0B6070471FB51FBD10B510BDA3
:1002000005F0D5FD1146FFF7F7FF00F012F805F0F5
:10021000F3FD03B4FFF7F2FF03BC05F0FBFD0000A4
:1002200001B502E00098401E009000980028F9D126
:1002300008BD08B5012005F02FFB022005F02CFBBE
:10024000032005F029FB022005F043FB012003F009
:1002500059F905208DF8000000208DF801008DF877
:10026000020001208DF80300684600F05CF90021CF
:100270004FF4800003F054F908E0012005F039FB49
:10028000032005F036FB0348FFF7CAFFF5E700BF80
:10029000FEE70000FFFF070010B5802003F011FE0D
:1002A00048B1012002F0E2FF0121182003F0CCFD4B
:1002B000802003F027FE10BD00BFFEE700BFFEE771
:1002C00000BFFEE700BFFEE770477047704770470A
:1002D00010B5082003F0F5FD48B1082003F012FE28
:1002E000312002F0D6FF10B1012003F0D0F8102029
:1002F00003F0E7FD48B1102003F004FE392002F0BE
:10030000C8FF10B1022003F071F910BD0CB5002038
:10031000019000906C48006840F001006A49086054
:1003200000BF6948006800F0020000900198401C7E
:100330000190009818B90198B0F5A06FF1D162480A
:10034000006800F4003010B10120009001E00020AE
:1003500000900098012838D15B480830006840F0D0
:10036000A0005949083108600846006840F4004080
:1003700008600846006808605448091F0860081FA4
:10038000006840F08070091F086000BF4E48006898
:1003900000F000700028F9D040F203704C4908606A
:1003A00049480830006820F00300474908310860D8
:1003B0000846006840F00200086000BF424808306C
:1003C000006800F00C000828F8D10CBD10B53E48BC
:1003D000006840F001003C49086000203A490831BB
:1003E0000860394800683B490840374908603A4886
:1003F000091D0860081F006820F48020091F08609C
:10040000002031490C310860FFF780FF4FF0006099
:100410003249086010BDF0B50020002202230024FC
:1004200002210025284E0836366806F00C000546E5
:1004300020B1042806D0082834D107E0284E294FDF
:100440003E6033E0284E274F3E602FE01E4E361DA3
:100450003668C6F380541C4E361D366806F03F01E0
:1004600054B1214EB6FBF1F6174F3F1D3F68C7F35D
:10047000881706FB07F209E0194EB6FBF1F6124F9A
:100480003F1D3F68C7F3881706FB07F20E4E361D67
:100490003668C6F30146761C7300B2FBF3F6114FC3
:1004A0003E6003E00E4E0F4F3E6000BF00BF064EA1
:1004B00008363668C6F303160C4FB85D094E366829
:1004C000C640084F3E60F0BD00380240193C400570
:1004D000003C0240FFFFF6FE1030002408ED00E073
:1004E0000024F4000000002040787D01040000207A
:1004F00010B50446B4F5E06F0BD0B4F5C06F08D06A
:10050000B4F5A06F05D0B4F5806F02D0B4F5407F8C
:1005100000D103E073215FA0FFF7B9FE6C482043D0
:100520006C49086010BD2DE9F04104460025002704
:100530000F26E07810B1E078012800D103E0872190
:1005400054A0FFF7A4FE6078102800DA03E08821A9
:1005500050A0FFF79CFEA078102800DA03E0892164
:100560004CA0FFF794FEE07818B35A48006800F4F6
:10057000E060C0F5E060C0F30725C5F10400C7B234
:100580002E416078B840C5B2A078304005432807B6
:10059000050E514821784554207800F01F010120B4
:1005A000884021784911890001F1E021C1F800015A
:1005B00009E0207800F01F01012088404749227897
:1005C000521141F82200BDE8F08170B504460D4695
:1005D000B4F1005F02D0B4F1006F00D103E0B121AB
:1005E0002CA0FFF754FE3E48854200D203E0B22122
:1005F00028A0FFF74CFE3B4905EA0100204335499E
:10060000091F086070BD70B504460D46102C03D05C
:10061000042C01D0022C00D103E0C4211DA0FFF75F
:1006200036FE0DB1012D00D103E0C52119A0FFF761
:100630002EFE3DB12748001D006820432549091DB5
:10064000086006E02348001D0068A0432149091DF9
:10065000086070BD10B50446042C01D0601D00B9BF
:1006600003E0DC210BA0FFF712FE042C08D14FF0B1
:10067000E020006940F004004FF0E021086107E04D
:100680004FF0E020006920F004004FF0E021086105
:1006900010BD00002E2E5C2E2E5C2E2E5C4C69624E
:1006A0007261726965735C53544D333246327878A7
:1006B0005F5374645065726970685F4472697665EF
:1006C000725C7372635C6D6973632E63000000007B
:1006D0000000FA050CED00E000E400E080E100E03D
:1006E000FFFF0F0080FFFF1F10B50446FE48844245
:1006F0003AD0FD481830844236D0FB48303084422E
:1007000032D0F948483084422ED0F74860308442D5
:100710002AD0F5487830844226D0F348903084427D
:1007200022D0F148A83084421ED0F04884421BD029
:10073000EE481830844217D0EC483030844213D051
:10074000EA48483084420FD0E848603084420BD0F9
:10075000E6487830844207D0E4489030844203D0A1
:10076000E248A830844200D103E0BF21E048FFF70F
:100770008EFD206820F00100206000202060606075
:10078000A060E060206121206061D748844204D1EC
:100790003D20D549103988608CE0D3481830844218
:1007A00005D14FF47460D0491039886082E0CE489A
:1007B0003030844205D14FF47410CB491039886031
:1007C00078E0C9484830844205D14FF07460C6498A
:1007D000103988606EE0C4486030844204D1C54856
:1007E000C1491039C86065E0BF487830844204D1FF
:1007F000C148BD491039C8605CE0BB4890308442B4
:1008000004D1BE48B8491039C86053E0B648A83092
:10081000844205D14FF03D50B3491039C86049E0DA
:10082000B248844204D13D20B0490839086041E013
:10083000AE481830844205D14FF47460AB49083992
:10084000086037E0A9483030844205D14FF4741075
:10085000A649083908602DE0A4484830844205D1F3
:100860004FF07460A1490839086023E09F48603068
:10087000844204D19F489D49091F08601AE09B48A3
:100880007830844204D19C489849091F086011E0DF
:1008900096489030844204D198489449091F0860D2
:1008A00008E09248A830844204D14FF03D508F496F
:1008B000091F086010BD70B505460C4600268A4821
:1008C00085423AD088481830854236D08648303044
:1008D000854232D08448483085422ED082486030EC
:1008E00085422AD080487830854226D07E48903094
:1008F000854222D07C48A83085421ED07B48854264
:100900001BD07A481830854217D07848303085425D
:1009100013D07648483085420FD074486030854205
:100920000BD072487830854207D0704890308542AD
:1009300003D06E48A830854200D104E04FF49E7188
:100940006B48FFF7A4FC2068D8B12068B0F1007FA5
:1009500017D02068B0F1806F13D02068B0F1C06F5D
:100960000FD02068B0F1006F0BD02068B0F1206F7D
:1009700007D02068B0F1406F03D02068B0F1606FFD
:1009800000D104E040F23D115948FFF780FCE068D7
:1009900028B1E068402802D0E068802800D104E057
:1009A0004FF49F715248FFF772FC206920B1206913
:1009B000B0F5803F00D204E040F23F114C48FFF711
:1009C00066FC6069B0F5007F01D0606900B904E0A1
:1009D0004FF4A0714648FFF75AFCA069B0F5806F4C
:1009E00001D0A06900B904E040F241114048FFF78E
:1009F0004EFCE06938B1E069B0F5006F03D0E06902
:100A0000B0F5805F00D104E04FF4A1713848FFF7E2
:100A10003EFC206A38B1206AB0F5005F03D0206A3E
:100A2000B0F5804F00D104E040F243113048FFF7A9
:100A30002EFC606A18B1606AB0F5807F00D104E0D6
:100A40004FF4A2712A48FFF722FCA06A58B1A06AAD
:100A5000B0F5803F07D0A06AB0F5003F03D0A06A90
:100A6000B0F5403F00D104E040F245112048FFF7C7
:100A70000EFCE06A10B1E06A042800D104E04FF4F3
:100A8000A3711B48FFF703FC206B40B1206B0128CA
:100A900005D0206B022802D0206B032800D104E08F
:100AA00040F247111248FFF7F2FB606B58B1606BE0
:100AB000B0F5000F07D0606BB0F1807F03D0606BA2
:100AC000B0F1C07F00D104E04FF4A4710848FFF7F3
:100AD000DEFBA06BC0B1A06BB0F5001F14D0A06B03
:100AE000B0F5800F10D00BE010600240106402409F
:100AF000685E00083D000020400F002000003D20FF
:100B0000A06BB0F5C00F00D104E040F24911FE48DF
:100B1000FFF7BDFB2E68FD480640E16820680843EA
:100B200061690843A1690843E1690843216A0843F0
:100B3000616A0843A16A0843616B0843A16B0843DB
:100B400006432E606E6926F00706D4E90B010843C0
:100B500006436E61206968606068A860A068E8600C
:100B600070BD0021016041608160C160016141612F
:100B70008161C161016241628162C162016341635D
:100B80008163704770B504460D46E14884423AD00F
:100B9000DF481830844236D0DD483030844232D0CD
:100BA000DB48483084422ED0D948603084422AD075
:100BB000D7487830844226D0D5489030844222D01D
:100BC000D348A83084421ED0D24884421BD0D1489A
:100BD0001830844217D0CF483030844213D0CD48EB
:100BE000483084420FD0CB48603084420BD0C94893
:100BF0007830844207D0C7489030844203D0C5483B
:100C0000A830844200D104E040F2D911BE48FFF779
:100C10003EFB0DB1012D00D104E04FF4ED71BA4857
:100C2000FFF735FB25B1206840F00100206003E0AC
:100C3000206820F00100206070BD70B504460D46AC
:100C4000B34884423AD0B2481830844236D0B048D3
:100C50003030844232D0AE48483084422ED0AC4846
:100C6000603084422AD0AA487830844226D0A848EE
:100C70009030844222D0A648A83084421ED0A54895
:100C800084421BD0A3481830844217D0A14830308A
:100C9000844213D09F48483084420FD09D48603032
:100CA00084420BD09B487830844207D099489030DA
:100CB000844203D09748A830844200D104E040F237
:100CC000FD119148FFF7E3FA15B1B5F5004F00D1DA
:100CD00004E04FF4FF718C48FFF7D9FA25B1206882
:100CE00040F40040206003E0206820F400402060D1
:100CF00070BD70B504460D46854884423AD084489C
:100D00001830844236D082483030844232D0804815
:100D1000483084422ED07E48603084422AD07C48BD
:100D20007830844226D07A489030844222D0784865
:100D3000A83084421ED0774884421BD075481830B2
:100D4000844217D073483030844213D07148483001
:100D500084420FD06F48603084420BD06D487830A9
:100D6000844207D06B489030844203D06948A83051
:100D7000844200D104E040F221216348FFF787FA62
:100D80000DB1202D00D104E040F222215E48FFF792
:100D90007EFA25B1206840F02000206003E0206842
:100DA00020F02000206070BD70B504460D46584804
:100DB00084423AD056481830844236D054483030B5
:100DC000844232D05248483084422ED0504860305D
:100DD00084422AD04E487830844226D04C48903005
:100DE000844222D04A48A83084421ED049488442D6
:100DF0001BD048481830844217D0464830308442CF
:100E000013D04448483084420FD042486030844276
:100E10000BD040487830844207D03E48903084421E
:100E200003D03C48A830844200D104E040F2752150
:100E30003548FFF72CFA656070BD10B5044634489C
:100E400084423AD032481830844236D0304830306C
:100E5000844232D02E48483084422ED02C48603014
:100E600084422AD02A487830844226D028489030BC
:100E7000844222D02648A83084421ED0254884428D
:100E80001BD024481830844217D022483030844286
:100E900013D02048483084420FD01E48603084422E
:100EA0000BD01C487830844207D01A4890308442D6
:100EB00003D01848A830844200D104E04FF42171D7
:100EC0001148FFF7E4F9606880B210BD70B50446C0
:100ED0000E4615460E48844242D00D4818308442D2
:100EE0003ED00B48303084423AD0094848308442E2
:100EF00036D007486030844232D00548783084428A
:100F00002ED00348903007E0685E00083F801CF058
:100F10001060024010640240844221D0FE488442A6
:100F20001ED0FE4884421BD0FC481830844217D0A3
:100F3000FA483030844213D0F848483084420FD009
:100F4000F648603084420BD0F4487830844207D0B1
:100F5000F2489030844203D0F048A830844200D157
:100F600004E040F2D221EE48FFF791F915B1B5F552
:100F7000002F00D104E040F2D321E948FFF787F9C0
:100F800025B1206840F40020206003E0206820F4B0
:100F900000202060266170BD70B504460D46DE4815
:100FA000A838844239D0DC489038844235D0DA48B9
:100FB0007838844231D0D848603884422DD0D64821
:100FC0004838844229D0D4483038844225D0D24889
:100FD0001838844221D0D04884421ED0CF48844261
:100FE0001BD0CE481830844217D0CC4830308442D1
:100FF00013D0CA48483084420FD0C8486030844279
:101000000BD0C6487830844207D0C4489030844220
:1010100003D0C248A830844200D104E04FF43C71B0
:10102000BF48FFF734F90DB1012D00D104E040F2C3
:10103000F121BB48FFF72BF925B1206840F480204F
:10104000206003E0206820F48020206070BD70B52F
:1010500004460E461546B048A838844239D0AE48FA
:101060009038844235D0AC487838844231D0AA4890
:10107000603884422DD0A8484838844229D0A648F8
:101080003038844225D0A4481838844221D0A24860
:1010900084421ED0A14884421BD0A048183084420C
:1010A00017D09E483030844213D09C484830844248
:1010B0000FD09A48603084420BD0984878308442F0
:1010C00007D096489030844203D09448A830844298
:1010D00000D104E040F21A319148FFF7D8F815B179
:1010E000B5F5002F00D104E040F21B318C48FFF72A
:1010F000CEF80DB1266100E0E66070BD70B5044623
:1011000000258548A838844239D0834890388442E5
:1011100035D081487838844231D07F486038844265
:101120002DD07D484838844229D07B4830388442CD
:1011300025D079481838844221D0774884421ED07F
:10114000764884421BD075481830844217D07348C3
:101150003030844213D07148483084420FD06F48F9
:10116000603084420BD06D487830844207D06B48A1
:101170009030844203D06948A830844200D104E012
:1011800040F235316648FFF782F8206800F400200D
:1011900008B1012500E00025284670BD70B5044661
:1011A00000255D48A838844239D05B489038844295
:1011B00035D059487838844231D057486038844215
:1011C0002DD055484838844229D05348303884427D
:1011D00025D051481838844221D04F4884421ED02F
:1011E0004E4884421BD04D481830844217D04B489B
:1011F0003030844213D04948483084420FD04748A9
:10120000603084420BD045487830844207D0434850
:101210009030844203D04148A830844200D104E099
:1012200040F2A2313E48FFF732F8206800F001009A
:1012300008B1012500E00025284670BD70B50446C0
:1012400000253548A838844239D033489038844244
:1012500035D031487838844231D02F4860388442C4
:101260002DD02D484838844229D02B48303884422C
:1012700025D029481838844221D0274884421ED0DE
:10128000264884421BD025481830844217D0234872
:101290003030844213D02148483084420FD01F4858
:1012A000603084420BD01D487830844207D01B4800
:1012B0009030844203D01948A830844200D104E021
:1012C0004FF471711648FEF7E2FF606900F03805CF
:1012D000284670BD2DE9F04105460C464FF0000848
:1012E00000270D48A838854240D00B4890388542E9
:1012F0003CD009487838854238D007486038854264
:1013000034D005484838854230D0034830388542CB
:101310002CD00148183805E0B86002401064024043
:10132000685E0008854221D0F94885421ED0F94800
:1013300085421BD0F7481830854217D0F548303029
:10134000854213D0F348483085420FD0F1486030D1
:1013500085420BD0EF487830854207D0ED48903079
:10136000854203D0EB48A830854200D104E040F22A
:10137000E131E948FEF78BFFE84884427CD0E7483A
:101380001038844278D0E5481838844274D0E44854
:10139000844271D0C01E84426ED0E24884426BD039
:1013A000E148844268D0E148844265D0DB48E030BF
:1013B000844261D0D948203084425DD0B4F1815F4D
:1013C0005AD0DB48844257D0DA48844254D0DA48B5
:1013D000844251D0D94884424ED0B4F1C05F4BD042
:1013E000B4F1A05F48D0B4F1905F45D0B4F1885F0C
:1013F00042D0B4F1825F3FD0D14884423CD0D04843
:101400001038844238D0CE481838844234D0001F77
:10141000844231D0C01E84422ED0CA4884422BD090
:10142000C948844228D0C948844225D0C448E03005
:10143000844221D0C248203084421DD0C448844216
:101440001AD0C448844217D0C348844214D0C34839
:10145000844211D0C24884420ED0B4F1205F0BD038
:10146000B4F1105F08D0B4F1085F05D0B4F1045FA7
:1014700002D0B4F1015F00D104E040F2E231A648AD
:10148000FEF705FFA348854202D2A14EB83E01E017
:10149000A04E103E04F0005008B1776800E03768B5
:1014A000B048074007EA040010B14FF0010801E01E
:1014B0004FF000084046BDE8F08170B504460D4687
:1014C0009348A838844239D091489038844235D026
:1014D0008F487838844231D08D48603884422DD08E
:1014E0008B484838844229D089483038844225D0F6
:1014F00087481838844221D0854884421ED08548C8
:1015000084421BD083481830844217D08148303041
:10151000844213D07F48483084420FD07D486030E9
:1015200084420BD07B487830844207D07948903091
:10153000844203D07748A830844200D104E040F2CE
:1015400022417548FEF7A3FE05F04050B0F1405F20
:1015500007D005F0405020B18348284008B905B1B4
:1015600004E040F223416C48FEF791FE6948844252
:1015700002D2674EB83E01E0664E103E05F00050C4
:1015800018B178482840F06002E076482840B06002
:1015900070BD70B504460D4616465D48A8388442B5
:1015A00039D05B489038844235D0594878388442E5
:1015B00031D05748603884422DD05548483884424D
:1015C00029D053483038844225D0514818388442B5
:1015D00021D04F4884421ED04E4884421BD04D48F3
:1015E0001830844217D04B483030844213D04948D9
:1015F000483084420FD04748603084420BD0454881
:101600007830844207D043489030844203D0414828
:10161000A830844200D104E040F24F413E48FEF73A
:1016200036FE25F09E0008B905B104E04FF48A614A
:101630003948FEF72CFE0EB1012E00D104E040F235
:1016400051413548FEF723FE05F0800048B126B130
:10165000606940F08000606103E0606920F0800014
:101660006061802D0BD02EB1206805F01E0108436B
:10167000206004E0206805F01E018843206070BDF2
:101680002DE9F04705460C464FF000080027B94603
:101690001F48A838854239D01D489038854235D03A
:1016A0001B487838854231D01948603885422DD0A2
:1016B00017484838854229D015483038854225D00A
:1016C00013481838854221D0114885421ED0114850
:1016D00085421BD00F481830854217D00D48303056
:1016E000854213D00B48483085420FD009486030FE
:1016F00085420BD007487830854207D005489030A6
:10170000854203D00348A83085422FD133E0000042
:10171000B860024010640240685E000820000010BB
:1017200004008010000800100004001000020010E7
:10173000000010100000081000000410000001104C
:1017400020000020000800200004002000020020EB
:1017500000002020000010200000082000000420CD
:10176000000001207D0F7D0F82F082C040F2874192
:101770008D48FEF78CFD8D48844278D08C48844299
:1017800075D08C48844272D08B4884426FD08B488D
:1017900084426CD08A48844269D08A48844266D0A8
:1017A0008948844263D08448FC3084425FD08348B7
:1017B0003F3084425BD08548844258D0844884427C
:1017C00055D08448844252D0834884424FD08348C5
:1017D00084424CD08248844249D08248844246D0D8
:1017E0008148844243D08148844240D0804884422A
:1017F0003DD0804884423AD07F48844237D07F48E9
:10180000844234D07E48844231D07E4884422ED0F7
:101810007D4884422BD07D48844228D07C48844235
:1018200025D07748FC30844221D076483F3084422E
:101830001DD0784884421AD07748844217D0774820
:10184000844214D07648844211D0764884420ED027
:10185000754884420BD07548844208D0744884424D
:1018600005D07448844202D07348844200D104E019
:101870004FF491614C48FEF70AFD7048854201D251
:101880006F4E01E06D4E103E6E48204030B11E207C
:1018900000EAD427286800EA070902E0686900F036
:1018A000800904F0005008B1776800E037686648A6
:1018B000074007EA040028B1B9F1000F02D04FF049
:1018C000010801E04FF000084046BDE8F08770B520
:1018D00004460D465A48103084423AD058482830C1
:1018E000844236D056484030844232D05448583032
:1018F00084422ED05248703084422AD050488830DA
:10190000844226D04E48A030844222D04C48B83081
:1019100084421ED0494884421BD048481830844233
:1019200017D046483030844213D04448483084426F
:101930000FD04248603084420BD040487830844217
:1019400007D03E489030844203D03C48A8308442BF
:1019500000D104E040F2D7411348FEF798FC05F0AF
:101960004050B0F1405F07D005F0405020B11DB1AC
:101970003648284000B904E04FF49B610A48FEF75E
:1019800086FC2E48844201D22D4E01E02B4E103EA3
:1019900005F0005018B12C482840F06002E02A48B9
:1019A0002840B06070BD0000685E00082080001014
:1019B00010400010082000100410001001000090DA
:1019C0000088001000440010002200100080201049
:1019D00000401010002008100010041000000190BA
:1019E00000800018004000140020001200100011B8
:1019F000000040902080002010400020082000209F
:101A000004100020010000A00088002000440020F5
:101A1000002200200080202000401020002008200C
:101A200000100420000001A00080002800400024D5
:101A30000020002200100021000040A0106402409D
:101A4000006002403C0F3C0F7D0F7D0F8200824002
:101A50000020B1490860091D0860091D0860091DC2
:101A60000860AE48AC4914310860704770B5044650
:101A70000025207910B12079042800D103E07C21D1
:101A8000A748FEF704FC6079082805D060790C2887
:101A900002D06079102800D103E07D21A048FEF734
:101AA000F6FB20686FF3160010B9206800B103E060
:101AB0007E219B48FEF7EBFBA07910B1A0790128AD
:101AC00000D103E07F219648FEF7E1FB924DA0791B
:101AD00090B3284600682168884329460860081D9D
:101AE000006821688843291D08602079054428681A
:101AF00021680843286088480830006821688843C6
:101B0000854908310860081D0068216888438249BA
:101B10000C310860607910280FD1081F0068216817
:101B200008437D4908310860081D006821680843A2
:101B300079490C3108600EE007E0774D6079054483
:101B4000286821680843286005E020790544286852
:101B500021688843286070BD0021016001710C215B
:101B6000417100218171704710B50446E00DC00538
:101B700008B904B103E0C1216948FEF788FB664853
:101B800010300068204364491031086010BD70B502
:101B900004460025012C3AD0022C38D0042C36D033
:101BA000082C34D0102C32D0202C30D0402C2ED009
:101BB000802C2CD0B4F5807F29D0B4F5007F26D0BE
:101BC000B4F5806F23D0B4F5006F20D0B4F5805FFA
:101BD0001DD0B4F5005F1AD0B4F5804F17D0B4F51E
:101BE000004F14D0B4F5803F11D0B4F5003F0ED0B3
:101BF000B4F5802F0BD0B4F5002F08D0B4F5801FBA
:101C000005D0B4F5001F02D0B4F5800F00D103E079
:101C1000E0214348FEF73BFB3F481430006820407A
:101C200008B1012500E00025284670BD10B5044626
:101C3000E00DC00508B904B103E0F6213848FEF70D
:101C400026FB35481430046010BD70B504460025ED
:101C50000026012C3AD0022C38D0042C36D0082C87
:101C600034D0102C32D0202C30D0402C2ED0802CD0
:101C70002CD0B4F5807F29D0B4F5007F26D0B4F500
:101C8000806F23D0B4F5006F20D0B4F5805F1DD0F5
:101C9000B4F5005F1AD0B4F5804F17D0B4F5004FFB
:101CA00014D0B4F5803F11D0B4F5003F0ED0B4F598
:101CB000802F0BD0B4F5002F08D0B4F5801F05D0CD
:101CC000B4F5001F02D0B4F5800F00D104E04FF44A
:101CD00083711348FEF7DBFA0F48006800EA040638
:101CE0000D4814300068204010B10EB1012500E00D
:101CF0000025284670BD10B50446E00DC00508B9A2
:101D000004B104E040F21D110548FEF7C0FA024894
:101D10001430046010BD0000003C0140FFFF7F0054
:101D2000AC5E000810B50446FA48844217D0FA4861
:101D3000844214D0F948844211D0F94884420ED02C
:101D4000F84884420BD0F848844208D0F7488442CF
:101D500005D0F748844202D0F648844200D103E01F
:101D60007B21F548FEF793FAEA48844208D1012125
:101D7000084601F0E3FE0021012001F0DFFE5EE0F5
:101D8000E548844208D10121022001F0D7FE00215C
:101D9000022001F0D3FE52E0E048844208D1012144
:101DA000042001F0CBFE0021042001F0C7FE46E034
:101DB000DB48844208D10121082001F0BFFE002148
:101DC000082001F0BBFE3AE0D648844208D1012148
:101DD000102001F0B3FE0021102001F0AFFE2EE034
:101DE000D148844208D10121202001F0A7FE002122
:101DF000202001F0A3FE22E0CC48844208D101213A
:101E0000402001F09BFE0021402001F097FE16E0EB
:101E1000C748844208D10121802001F08FFE0021B3
:101E2000802001F08BFE0AE0C248844207D10121E4
:101E3000801501F083FE0021A01501F07FFE10BD8A
:101E40002DE9F04104460D4600260027B046B14872
:101E5000844217D0B048844214D0B048844211D094
:101E6000AF4884420ED0AF4884420BD0AE48844283
:101E700008D0AE48844205D0AD48844202D0AD4877
:101E8000844200D103E0BB21AB48FEF700FA0020FA
:101E900010B9286800B103E0BC21A748FEF7F7F9A4
:101EA000287940B12879012805D02879022802D064
:101EB0002879032800D103E0BD219F48FEF7E7F908
:101EC000E87928B1E879012802D0E879022800D120
:101ED00003E0BE219848FEF7DAF9002657E001201A
:101EE00000FA06F7286800EA0708B8454ED12068CE
:101EF0007200032191408843206028797100884056
:101F00002168084320602879012802D02879022816
:101F100030D1687940B16879012805D06879022804
:101F200002D06879032800D103E0D0218248FEF76F
:101F3000AEF9A0687200032191408843A0606879DF
:101F400071008840A1680843A060A87910B1A87901
:101F5000012800D103E0D7217748FEF798F961689E
:101F60000120B040814361606068A979B14089B2C5
:101F700008436060E0687200032191408843E0609C
:101F8000E87971008840E1680843E060761C102E13
:101F9000A5D3BDE8F0814FF6FF710160002101710A
:101FA00041718171C171704738B504460D464FF4D7
:101FB000803000905748844217D05748844214D04C
:101FC0005648844211D0564884420ED05548844227
:101FD0000BD05548844208D05448844205D0544818
:101FE000844202D05348844200D104E04FF482710D
:101FF0005148FEF74CF9002008B905B104E040F261
:1020000005114D48FEF743F90098284300900098C9
:10201000E061E5610098E061E0690090E0690090AE
:1020200038BD70B505460C4600263A48854217D0A3
:102030003948854214D03948854211D03848854204
:102040000ED0384885420BD03748854208D03748F3
:10205000854205D03648854202D03648854200D1B7
:1020600004E04FF498713448FEF711F9012C25D0A3
:10207000022C23D0042C21D0082C1FD0102C1DD0D2
:10208000202C1BD0402C19D0802C17D0B4F5807F89
:1020900014D0B4F5007F11D0B4F5806F0ED0B4F534
:1020A000006F0BD0B4F5805F08D0B4F5005F05D0A9
:1020B000B4F5804F02D0B4F5004F00D104E040F2F7
:1020C00031111D48FEF7E3F82869204008B10126C8
:1020D00000E00026304670BD10B504460D4884422D
:1020E00017D00D48844214D00C48844211D00C48BB
:1020F00084420ED00B4884420BD00B48844208D057
:102100000A48844205D00A48844202D009488442E1
:1021100014D118E000000240000402400008024010
:10212000000C02400010024000140240001802405F
:10213000001C024000200240F05E00084FF4A37132
:10214000FE48FEF7A4F8206980B210BD70B50546C0
:102150000C460026FA48854217D0FA48854214D02A
:10216000F948854211D0F94885420ED0F848854299
:102170000BD0F848854208D0F748854205D0F7488B
:10218000854202D0F648854200D104E040F2571162
:10219000EA48FEF77CF8012C25D0022C23D0042C31
:1021A00021D0082C1FD0102C1DD0202C1BD0402C4F
:1021B00019D0802C17D0B4F5807F14D0B4F5007FEF
:1021C00011D0B4F5806F0ED0B4F5006F0BD0B4F51C
:1021D000805F08D0B4F5005F05D0B4F5804F02D021
:1021E000B4F5004F00D104E04FF4AC71D348FEF7D2
:1021F0004EF86869204008B1012600E0002630460C
:1022000070BD10B50446CE48844217D0CD488442F4
:1022100014D0CD48844211D0CC4884420ED0CC4852
:1022200084420BD0CB48844208D0CB48844205D0AE
:10223000CA48844202D0CA48844200D104E040F235
:102240006D11BE48FEF723F8606980B210BD70B50D
:1022500004460D46BA48844217D0BA48844214D086
:10226000B948844211D0B94884420ED0B84884425B
:102270000BD0B848844208D0B748844205D0B7484C
:10228000844202D0B648844200D104E040F27F117B
:10229000AA48FDF7FCFF002008B905B104E04FF49F
:1022A000C071A648FDF7F3FF258370BD70B50446E5
:1022B0000D46A348844217D0A248844214D0A248B5
:1022C000844211D0A14884420ED0A14884420BD050
:1022D000A048844208D0A048844205D09F48844248
:1022E00002D09F48844200D104E04FF4C971934862
:1022F000FDF7CDFF002008B905B104E040F29311CD
:102300008E48FDF7C4FF658370BD70B505460C4669
:1023100016468B48854217D08A48854214D08A4891
:10232000854211D0894885420ED0894885420BD01C
:102330008848854208D08848854205D0874885422C
:1023400002D08748854200D104E04FF4D3717B4826
:10235000FDF79DFF012C25D0022C23D0042C21D089
:10236000082C1FD0102C1DD0202C1BD0402C19D095
:10237000802C17D0B4F5807F14D0B4F5007F11D035
:10238000B4F5806F0ED0B4F5006F0BD0B4F5805F5C
:1023900008D0B4F5005F05D0B4F5804F02D0B4F595
:1023A000004F00D104E040F2A7116448FDF76FFF31
:1023B0000EB1012E00D104E04FF4D4715F48FDF757
:1023C00066FF0EB12C8300E06C8370BD70B50446CF
:1023D0000D465B48844217D05A48844214D05A486C
:1023E000844211D0594884420ED0594884420BD0BF
:1023F0005848844208D05848844205D057488442FF
:1024000002D05748844200D104E040F2BD114B484D
:10241000FDF73DFF656170BD70B504460D46484847
:10242000844217D04748844214D04748844211D090
:10243000464884420ED0464884420BD045488442E8
:1024400008D04548844205D04448844202D04448DC
:10245000844200D104E040F2CB113848FDF717FF69
:1024600060696840606170BD2DE9F04106460D4627
:1024700014460027B8463248864217D03148864273
:1024800014D03148864211D0304886420ED03048B0
:1024900086420BD02F48864208D02F48864205D06E
:1024A0002E48864202D02E48864200D104E040F2F7
:1024B00016212248FDF7EBFEEDB1012D1BD0022DB8
:1024C00019D0032D17D0042D15D0052D13D0062DAE
:1024D00011D0072D0FD0082D0DD0092D0BD00A2DAE
:1024E00009D00B2D07D00C2D05D00D2D03D00E2DAE
:1024F00001D00F2D00D104E040F217210F48FDF765
:10250000C6FE7CB3092C47D064B35CB354B34CB360
:10251000012C41D040D0022C3ED03DD03CD0032CE9
:102520003AD0042C38D037D036D0052C34D033D024
:10253000092C31D0062C2FD0092C14E0F05E0008B5
:10254000000002400004024000080240000C02406B
:10255000001002400014024000180240001C02401B
:102560000020024018E017D0072C15D014D013D04B
:10257000082C11D010D00FD0092C0DD00CD00A2C63
:102580000AD009D00B2C07D00C2C05D004D003D0D6
:102590000D2C01D00F2C00D104E04FF4067112482D
:1025A000FDF775FE6807C00E04FA00F7E91006F1A2
:1025B000200050F821006907CA0E0F21914088437E
:1025C000EA1006F1200141F82200E91006F120008E
:1025D00050F8210040EA0708E91006F1200040F811
:1025E0002180BDE8F0810000F05E000810B50446CF
:1025F000F648844202D0F648844200D103E08721A5
:10260000F448FDF744FEF148844209D10121480510
:1026100001F009FB00214FF4001001F004FB18E069
:10262000EB48844209D10121880501F0FCFA002120
:102630004FF4800001F0F7FA0BE0E748844208D13C
:102640000121C80501F0EFFA00214FF4000001F06C
:10265000EAFA10BD2DE9FF4705460C460026B146B3
:102660000427DFF87883D948854202D0D8488542CC
:1026700000D103E0B621D748FDF709FE206820B15C
:10268000D7492068884200D803E0B721D148FDF738
:10269000FEFDA08828B1A088022802D0A0880A28C0
:1026A00000D103E0B821CB48FDF7F1FDE088B0F59B
:1026B000804F04D0E0884BF6FF71884200D103E0E0
:1026C000B921C448FDF7E3FD2089B0F5806F00DA39
:1026D00003E0BA21BF48FDF7DAFD6089B0F5806FED
:1026E00001D0608900B903E0BB21BA48FDF7CFFDF6
:1026F000A089B0F5804F03D0A089B0F5404F00D13C
:1027000003E0BC21B348FDF7C2FDAE884FF6C070B0
:102710000640684600F0EDFFDDF80880B148B8FBE0
:10272000F0F01FFA80F946EA0906AE8028884FF6D5
:10273000FE71084028800026AB49206888420CD8EA
:1027400020684000B8FBF0F087B2042F00DA0427BD
:102750003E4309F10100288427E0E0884BF6FF7131
:10276000884206D1206800EB4000B8FBF0F087B249
:1027700009E0206800EBC00101EB0010B8FBF0F0AD
:1027800087B247F48047C7F30B0008B947F0010749
:1027900047F4004006434FF4967009FB00F04FF4F5
:1027A0007A7190FBF1F0401C2884AE83288840F0B9
:1027B000010028802E884FF6F5300640A0886189F8
:1027C000084306432E80A089218908432881BDE85B
:1027D000FF8741F288310160002181804BF6FF7153
:1027E000C1800021018141814FF480418181704786
:1027F00070B504460D467548844202D07448844240
:1028000000D104E040F237117248FDF740FD0DB1F0
:10281000012D00D104E04FF49C716E48FDF737FDA7
:1028200025B1208840F00100208004E020884FF688
:10283000FE710840208070BD70B504460D466348A7
:10284000844202D06248844200D104E040F24F1139
:102850006048FDF71CFD0DB1012D00D104E04FF4DF
:10286000A8715C48FDF713FD25B1208840F4807005
:10287000208004E020884FF6FF610840208070BD72
:1028800070B504460D465148844202D050488442F7
:1028900000D104E040F267114E48FDF7F8FC0DB19D
:1028A000012D00D104E04FF4B4714A48FDF7EFFC6C
:1028B00025B1208840F40070208004E020884FF685
:1028C000FF510840208070BD70B504460E46154685
:1028D0003E48844202D03E48844200D104E040F2A7
:1028E00083113C48FDF7D3FC0DB1012D00D104E06C
:1028F0004FF4C2713748FDF7CAFC15B146F0010626
:1029000001E006F0FE06268270BD70B504460D4655
:102910002E48844202D02E48844200D104E04FF475
:10292000CF712C48FDF7B3FC0DB1012D00D104E0AF
:1029300040F29F112748FDF7AAFC25B1208840F4FA
:102940008060208004E020884FF6FF31084020801E
:1029500070BD70B504460E4600251C48844202D066
:102960001B48844200D104E040F2B7111948FDF73A
:102970008EFCA5894FF60170054006F0FE00054368
:10298000A58170BD70B504460D461048844202D042
:102990000F48844200D104E04FF4E8710D48FDF780
:1029A00076FC0DB1012D00D104E040F2D1110948AF
:1029B000FDF76DFC25B1A08940F00100A08104E085
:1029C000A0894FF6FE710840A08170BD0054004000
:1029D00000580040345F0008005C004000127A009C
:1029E000801A060040420F00A086010070B5044620
:1029F0000D46F848844202D0F748844200D104E0F2
:102A00004FF4F471F548FDF742FC0DB1012D00D1F2
:102A100004E040F2E911F148FDF739FC25B12088C6
:102A200040F04000208004E020884FF6BF7108404D
:102A3000208070BD70B504460D46E648844202D041
:102A4000E548844200D104E040F20221E348FDF76A
:102A50001EFC0DB1012D00D104E040F20321DF483E
:102A6000FDF715FC25B1208840F40040208003E0EC
:102A70002088C0F30E00208070BD70B504460D465E
:102A8000D448844202D0D448844200D104E040F2C9
:102A90001A21D248FDF7FBFB0DB1012D00D104E056
:102AA00040F21B21CD48FDF7F2FB25B9208840F00C
:102AB0008000208004E020884FF67F71084020804D
:102AC00070BD70B504460D46C248844202D0C2486B
:102AD000844200D104E04FF40D71C048FDF7D7FBEC
:102AE000B5F5804F03D04BF6FF70854200D104E06E
:102AF00040F23521B948FDF7CAFBB5F5804F05D046
:102B0000A08B4BF6FF710840A08303E0A08B40F43C
:102B10008040A08370BD70B504460D46AD48844228
:102B200002D0AD48844200D104E040F25A21AB48C3
:102B3000FDF7ADFBB5F5006F03D04FF2FF70854296
:102B400000D104E040F25B21A448FDF7A0FBB5F5FD
:102B5000006F04D1208840F40060208004E02088C9
:102B60004FF2FF710840208070BD70B504460D46DD
:102B70009848844202D09848844200D104E040F250
:102B800076219648FDF783FBB5F5005F03D04DF63F
:102B9000FF70854200D104E040F277218F48FDF7B5
:102BA00076FBB5F5005F04D1208840F4005020800A
:102BB00004E020884DF6FF710840208070BD70B59C
:102BC00004460D468348844202D08348844200D1A3
:102BD00004E040F28E218148FDF759FB0DB1012D33
:102BE00000D104E040F28F217C48FDF750FB25B175
:102BF000208840F01000208004E020884FF6EF711C
:102C00000840208070BD70B504460D46714884426E
:102C100002D07148844200D104E04FF42D716F4816
:102C2000FDF735FB258270BD10B504466948844226
:102C300002D06948844200D104E040F2C1216748D3
:102C4000FDF725FB208AC0B210BD70B504460D46C5
:102C50006048844202D06048844200D104E04FF4CE
:102C600038715E48FDF713FB0DB1012D00D104E072
:102C700040F2E1215948FDF70AFB25B1208840F4D4
:102C80008050208004E020884EF6FF7108402080AC
:102C900070BD70B504460D464E48844202D04E4881
:102CA000844200D104E040F2FF214C48FDF7EFFAE6
:102CB000B5F5006F03D04FF2FF70854200D104E0FC
:102CC0004FF440714548FDF7E2FAB5F5006F04D1C5
:102CD000208840F40060208004E020884FF2FF71DB
:102CE0000840208070BD70B504460D4639488442C6
:102CF00002D03948844200D104E040F2173137480D
:102D0000FDF7C5FA0DB1012D00D104E04FF4467175
:102D10003248FDF7BCFA25B1208840F02000208021
:102D200004E020884FF6DF710840208070BD10B5A8
:102D300004462848844202D02748844200D104E057
:102D400040F22D312548FDF7A2FA208B001210BD6C
:102D500070B504460D461F48844202D01E48844286
:102D600000D104E040F24E311C48FDF790FA0DB15D
:102D7000012D00D104E040F24F311848FDF787FAE9
:102D800025B1A08840F40060A08004E0A0884FF244
:102D9000FF710840A08070BD70B504460D460D4817
:102DA000844202D00C48844200D104E040F26631F3
:102DB0000A48FDF76CFA0DB1012D00D104E040F294
:102DC00067310648FDF763FA55B1A08840F480509A
:102DD000A0800AE00054004000580040345F000822
:102DE000A0884EF6FF710840A08070BD38B505463A
:102DF0000C4600200090F548854202D0F4488542F8
:102E000000D104E040F2F231F248FDF740FA7CB123
:102E1000042C0DD0082C0BD00C2C09D0102C07D072
:102E2000142C05D0182C03D01C2C01D0202C00D140
:102E300004E040F2F331E748FDF729FA00950098E5
:102E4000204400900098008838BD70B504460D46B7
:102E50001646DE48844202D0DD48844200D104E0B8
:102E600040F20B41DB48FDF712FA0EB1012E00D102
:102E700004E040F20C41D748FDF709FA4FF6FF0095
:102E8000284008B905B104E040F20D41D148FDF7F2
:102E9000FEF91EB1A0882843A08002E0A088A843C4
:102EA000A08070BD2DE9F04705460C460027B946C5
:102EB0000026B046C548854202D0C548854200D1AB
:102EC00004E040F24A41C348FDF7E1F9C2488442B8
:102ED0003DD0B4F1021F3AD0C048844237D0B4F597
:102EE000020F34D0B4F5901F31D0BD4884422ED0AB
:102EF000BC4884422BD0BC48844228D0B648801CB1
:102F0000844224D0B548001D844220D0B748844272
:102F10001DD0102C1BD0B648844218D0B54884422E
:102F200015D0B348401C844211D0B1483F30844290
:102F30000DD0B048801C844209D0001F844206D0C6
:102F4000AB48C01D844202D0B4F5806F00D104E0CC
:102F500040F24B419F48FDF79AF9B5F814902E8B3B
:102F6000360449EA060020F07F4707EA0400A04241
:102F700002D14FF0010801E04FF000084046BDE8E3
:102F8000F0872DE9F04104460026002700258F48F0
:102F9000844202D08E48844200D104E040F279415C
:102FA0008C48FDF774F9A78A258B2D0447EA0500A4
:102FB00020F07F463046BDE8F0817CB505460C46E2
:102FC00000260020019000908048854202D0804871
:102FD000854200D104E04FF496617E48FDF757F931
:102FE000B4F5000F3FD0B4F5800F3CD0B4F5001F0E
:102FF00039D0B4F5801F36D0B4F5802F33D0B4F576
:10300000003F30D0B4F5803F2DD07B4884422AD099
:103010007A48844227D0B4F1102F24D078488442D3
:1030200021D0784884421ED0774884421BD077480C
:10303000844218D075488038844214D07348C03810
:10304000844210D07148F03884420CD06F48F83870
:10305000844208D0001F844205D0801E844202D0E2
:10306000401E844200D104E040F2B1415948FDF7CE
:103070000EF90095200F019024F07F44019818B1BB
:1030800000981430009003E0240C00981830009051
:1030900000980068204008B1012600E00026304674
:1030A0007CBD70B504460D4600264848844202D0D7
:1030B0004748844200D104E040F2FB414548FDF717
:1030C000E6F842F2FF00284008B905B104E040F2FA
:1030D000FC414048FDF7DBF825F07F46F043A08235
:1030E00070BD2DE9F04105460C4600260027374803
:1030F000854202D03648854200D104E040F21F519B
:103100003448FDF7C4F84248844228D041488442FC
:1031100025D04148844222D0404884421FD04048B4
:1031200084421CD03F48844219D0B4F1012F16D0FC
:103130003D48844213D03C48403884420FD03B483D
:1031400084420CD039480838844208D0001F844299
:1031500005D0801E844202D0401E844200D104E08B
:103160004FF4A4611B48FDF792F8A88804F0E061D1
:1031700000EA114724F07F44A88A204010B10FB123
:10318000012600E000263046BDE8F08170B5044617
:103190000D4600260D48844202D00D48844200D1DD
:1031A00004E040F259510B48FDF771F842F2FF007C
:1031B000284008B905B104E040F25A510548FDF72E
:1031C00066F825F07F46F043A08270BD00540040B1
:1031D00000580040345F000882000600800086002E
:1031E00040000200400082004000120084001600EF
:1031F0000100030082000700008000100040001062
:10320000000800100004001000020010000100106F
:1032100000800001004000010010000100080001D2
:1032200000040001000200018000000610000002FE
:10323000F948006840F00100F74908600020F649AD
:1032400008310860F4480068F4490840F249086011
:10325000F348091D0860081F006820F48020091F3A
:1032600008600020EC490C310860704710B5044636
:103270001CB1012C01D0052C00D103E0F021E9485C
:10328000FDF705F80020E449891C08700846047021
:1032900010BD2DE9F0410446002500260027212C11
:1032A00017D0312C15D0392C13D0412C11D0612CD2
:1032B0000FD0792C0DD07A2C0BD07B2C09D07C2C04
:1032C00007D07D2C05D07E2C03D07F2C01D03B2C49
:1032D00000D104E040F29F61D248FCF7D8FF6511AD
:1032E000012D02D1CC48066808E0022D03D1CA485E
:1032F0007030066802E0C8487430066804F01F05A4
:103300000120A840304008B1012700E000273846DE
:10331000BDE8F08138B5002000900024002500BFF2
:103320003120FFF7B6FF05460098401C009000983A
:10333000B0F5A06F01D0002DF2D03120FFF7A9FF2A
:1033400008B1012400E00024204638BD70B50446D1
:1033500000251F2C00DC04E04FF49471B148FCF709
:1033600096FFAD48056825F0F80545EAC4050560F7
:1033700070BD10B504460CB1012C00D104E040F240
:103380004B11A848FCF783FFA748046010BD10B597
:1033900004461CB1012C01D0042C00D104E04FF4F0
:1033A000B271A048FCF773FF00209B497031087090
:1033B0000870012C02D0042C0AD104E001209649A7
:1033C0007031087005E0052093497031087000E005
:1033D00000BF00BF10BD10B504460CB1012C00D1D8
:1033E00004E04FF4C6718F48FCF751FF8F4804602A
:1033F00010BD2DE9F04105460F4616461C46DDF886
:10340000188015B1B5F5800F00D104E040F2B71176
:103410008448FCF73CFF3F2F00D804E04FF4DC71F8
:103420008048FCF734FFC02E03D3B6F5D87F00D810
:1034300004E040F2B9117B48FCF729FF022C05D0CB
:10344000042C03D0062C01D0082C00D104E04FF44A
:10345000DD717448FCF71BFFB8F1040F03D3B8F11A
:103460000F0F00D804E040F2BB116E48FCF70FFFCD
:1034700047EA86100121C1EB540140EA014028438C
:1034800040EA08606449091D0860BDE8F08110B594
:1034900004460CB1012C00D104E04FF4E7716148FF
:1034A000FCF7F5FE6048046610BD70B505460C4695
:1034B000C02D03D3B5F5D87F00D804E040F2E91160
:1034C0005848FCF7E4FE022C02D3072C00D804E095
:1034D0004FF4F5715348FCF7DAFEA80140EA047096
:1034E0004D498431086070BD10B504460CB1012C03
:1034F00000D104E040F2F9114A48FCF7C8FE4A48FE
:10350000846610BD10B504460CB1012C00D104E056
:1035100040F20B214348FCF7BAFE4348C46410BD97
:1035200070B505460C46002645B1B5F5001F05D01F
:10353000B5F5800F02D0B5F5C00F00D104E040F220
:1035400026213848FCF7A3FE5CB1B4F1806F08D0A7
:10355000B4F1A06F05D0B4F1C06F02D0B4F1E06F48
:1035600000D104E040F227212E48FCF790FE2A48C3
:103570000830066826F0EC6645EA04000643264853
:103580000830066070BD70B505460C46002645B192
:10359000B5F1804F05D0B5F1004F02D0B5F1404FE5
:1035A00000D104E04FF413711E48FCF770FE5CB1CB
:1035B000B4F1005F08D0B4F1205F05D0B4F1405FF2
:1035C00002D0B4F1605F00D104E040F24D21154813
:1035D000FCF75DFE10480830066826F0784645EA9C
:1035E000040006430C480830066070BD70B5044600
:1035F00000251CB1012C01D0022C00D104E040F2C6
:10360000B5210848FCF743FE03480830056825F05B
:1036100003052543056070BD00380240FFFFF6FE3C
:1036200010300024785F000800004742800E4742B7
:10363000F648006800F00C00704770B5044600259D
:103640007CB1802C0DD0902C0BD0A02C09D0B02CAC
:1036500007D0C02C05D0D02C03D0E02C01D0F02C0A
:1036600000D104E040F2EA21E948FCF710FEE74807
:10367000056825F0F0052543056070BD70B504466A
:1036800000255CB1B4F5805F08D0B4F5A05F05D02B
:10369000B4F5C05F02D0B4F5E05F00D104E040F2C1
:1036A0000A31DB48FCF7F3FDD848056825F4E055FE
:1036B0002543056070BD70B5044600255CB1B4F5C6
:1036C000805F08D0B4F5A05F05D0B4F5C05F02D02C
:1036D000B4F5E05F00D104E040F22931CC48FCF7BA
:1036E000D6FDCA48056825F4604545EAC40505606D
:1036F00070BDF0B50021002200240225002602231F
:10370000C24F3F6807F00C0121B1042905D00829F8
:1037100037D105E0BF4F076036E0BF4F076033E0A9
:10372000BA4F3F1F3F68C7F38056B84F3F1F3F68EF
:1037300007F03F036EB1B84FB7FBF3F7DFF8CCC229
:10374000ACF1040CDCF800C0CCF3881C07FB0CF4D3
:103750000CE0B04FB7FBF3F7DFF8B0C2ACF1040CEC
:10376000DCF800C0CCF3881C07FB0CF4A74F3F1F0C
:103770003F68C7F301477F1C7D00B4FBF5F7076086
:1037800002E0A44F076000BF00BFA04F3F6807F0F2
:10379000F0010909A14F7A5C0768D74047609B4F49
:1037A0003F6807F4E051890A9C4F7A5C4768D7402C
:1037B0008760964F3F6807F46041490B974F7A5CEA
:1037C0004768D740C760F0BD70B504460025B4F522
:1037D000807F5CD0B4F5007F59D09148844256D0A8
:1037E0009048844253D09048844250D08F488442BD
:1037F0004DD08F4884424AD08E48844247D08E486C
:10380000844244D08D48844241D08D4884423ED089
:103810008C4884423BD08C48844238D08B488442C8
:1038200035D08B48844232D08A4884422FD08A488F
:1038300084422CD08948844229D08948844226D0A9
:103840008848844223D08848844220D087488442D4
:103850001DD0874884421AD08648844217D08648B3
:10386000844214D08548844211D0854884420ED0C9
:10387000844884420BD08448844208D083488442E0
:1038800005D08348844202D08248844200D104E0BB
:1038900040F2DA315E48FCF7FAFC04F44070B0F50F
:1038A000407F09D15948056825F4F8157A4904EA9A
:1038B0000100054355480560544868300068C4F36A
:1038C0000B01084351496831086070BD10B50446CA
:1038D0000CB1012C00D104E04FF47E714C48FCF790
:1038E000D6FC6E48046010BD10B504460CB1012C26
:1038F00000D104E040F209414548FCF7C8FC6748A4
:10390000001D046010BD10B504460CB1012C00D19F
:1039100004E040F21D413E48FCF7B9FC60480460F9
:1039200010BD70B504460D465E48204008B904B18C
:1039300004E040F243413648FCF7A9FC0DB1012DEB
:1039400000D104E040F245413148FCF7A0FC3DB114
:103950002E482830006820432C492831086006E0B2
:103960002A4828300068A04328492831086070BDE3
:1039700070B504460D4624F0F10008B904B104E026
:1039800040F263412248FCF782FC0DB1012D00D1C9
:1039900004E040F264411E48FCF779FC3DB11B484D
:1039A0002C300068204319492C31086006E0174884
:1039B0002C300068A04315492C31086070BD70B5EB
:1039C00004460D4624F0010008B904B104E040F2B9
:1039D0007E410F48FCF75BFC0DB1012D00D104E0E6
:1039E00040F27F410A48FCF752FC3DB107483030B5
:1039F0000068204305493031086006E00348303054
:103A00000068A04301493031086070BD08380240A9
:103A1000785F00080024F40040787D011400002045
:103A2000000302000003030000030400000305007C
:103A3000000306000003070000030800000309005C
:103A400000030A0000030B0000030C0000030D003C
:103A500000030E0000030F0000031000000311001C
:103A600000031200000313000003140000031500FC
:103A700000031600000317000003180000031900DC
:103A800000031A0000031B0000031C0000031D00BC
:103A900000031E0000031F00FFFCFF0F3C0E474207
:103AA0005C01474200EE9B8170B504460D46FA4822
:103AB000204008B904B104E04FF49661F748FCF7E0
:103AC000E6FB0DB1012D00D104E040F2B141F34815
:103AD000FCF7DDFB2DB1F24800682043F049086097
:103AE00004E0EF480068A043ED49086070BD70B580
:103AF00004460D46EB48204008B904B104E04FF4F9
:103B00009B61E648FCF7C3FB0DB1012D00D104E039
:103B100040F2D941E148FCF7BAFB3DB1E048001D55
:103B200000682043DE49091D086006E0DC48001DEE
:103B30000068A043DA49091D086070BD70B50446ED
:103B40000D46D948204008B904B104E040F2FF41D5
:103B5000D248FCF79CFB0DB1012D00D104E04FF4DD
:103B6000A061CE48FCF793FB3DB1CD4830380068EA
:103B70002043CB493039086006E0C9483038006836
:103B8000A043C7493039086070BD70B504460D4682
:103B900024F0F10008B904B104E040F21C51BF4820
:103BA000FCF775FB0DB1012D00D104E040F21D5171
:103BB000BA48FCF76CFB3DB1B9482C38006820438B
:103BC000B7492C39086006E0B5482C380068A04396
:103BD000B3492C39086070BD70B504460D4624F019
:103BE000010008B904B104E040F23451AB48FCF7DD
:103BF0004EFB0DB1012D00D104E040F23551A74834
:103C0000FCF745FB3DB1A648283800682043A4498D
:103C10002839086006E0A24828380068A043A04977
:103C20002839086070BD70B504460D469A4820409A
:103C300008B904B104E040F263519848FCF727FB4F
:103C40000DB1012D00D104E040F264519348FCF71E
:103C50001EFB3DB19248203800682043904920392E
:103C6000086006E08E4820380068A0438C4920395F
:103C7000086070BD70B504460D468C48204008B9F8
:103C800004B104E040F287518448FCF700FB0DB119
:103C9000012D00D104E04FF4B1618048FCF7F7FA40
:103CA0003DB17F481C38006820437D491C390860BD
:103CB00006E07B481C380068A04379491C3908603D
:103CC00070BD70B504460D467948204008B904B16E
:103CD00004E040F2B5517148FCF7D9FA0DB1012D5D
:103CE00000D104E040F2B6516C48FCF7D0FA3DB187
:103CF0006B4810300068204369491031086006E0C5
:103D0000674810300068A04365491031086070BDF5
:103D100070B504460D4624F0F10008B904B104E082
:103D200040F2D5515D48FCF7B2FA0DB1012D00D13A
:103D300004E040F2D6515948FCF7A9FA3DB1584881
:103D400014300068204356491431086006E0544896
:103D500014300068A04352491431086070BD70B53A
:103D600004460D4624F0010008B904B104E04FF404
:103D7000BE614A48FCF78BFA0DB1012D00D104E079
:103D800040F2F1514548FCF782FA3DB14448183001
:103D90000068204342491831086006E04048183066
:103DA0000068A0433E491831086070BD70B50446F4
:103DB0000D463948204008B904B104E040F22261C0
:103DC0003648FCF764FA0DB1012D00D104E040F251
:103DD00023613248FCF75BFA3DB13148203000687E
:103DE00020432F492031086006E02D48203000682C
:103DF000A0432B492031086070BD70B504460D46C4
:103E00002848204008B904B104E040F24A61234840
:103E1000FCF73DFA0DB1012D00D104E040F24B61F9
:103E20001E48FCF734FA3DB11D4824300068204399
:103E30001B492431086006E0194824300068A0437B
:103E400017492431086070BD70B504460D4604F072
:103E5000C00008B904B104E040F277610F48FCF7F4
:103E600016FA0DB1012D00D104E04FF4CF610B48DB
:103E7000FCF70DFA3DB10A48333800782043084971
:103E80003339087006E0064833380078A043044907
:103E90003339087070BD0000003601C9785F000832
:103EA00040380240CCA0F8FF00EE9FDDCCA6F8FF22
:103EB000006E98811B48006840F0807019490860C6
:103EC000704770B504460025012C0BD0022C09D098
:103ED000042C07D0082C05D0102C03D0802C01D046
:103EE000202C00D104E040F2DD610F48FCF7CFF94F
:103EF0000C4868380068204008B1012500E0002522
:103F0000284670BD10B5044604F0400008B904B15D
:103F100004E040F2FC610448FCF7B9F90148663856
:103F2000047010BD74380240785F000810B5044674
:103F3000FB48844205D0FB48844202D0FA488442C0
:103F400000D103E0AE21F948FCF7A1F9F44884421E
:103F500008D101218014FFF78DFE0021A014FFF786
:103F600089FE16E0EF48844208D101210014FFF7D2
:103F70005AFE00212014FFF756FE0AE0EA48844268
:103F800007D10121C013FFF74EFE0021E013FFF718
:103F90004AFE10BD70B505460C460026E048854235
:103FA00005D0E048854202D0DF48854200D103E0D9
:103FB000D721DE48FCF76BF9208858B12088B0F58E
:103FC000806F07D02088B0F5004F03D02088B0F56F
:103FD000404F00D103E0DA21D448FCF758F960885B
:103FE000B0F5827F01D0608800B903E0DB21CF48C3
:103FF000FCF74DF9A088B0F5006F01D0A08800B99A
:1040000003E0DC21C948FCF742F9E08810B1E08800
:10401000022800D103E0DD21C448FCF738F92089EB
:1040200010B12089012800D103E0DE21BF48FCF750
:104030002EF96089B0F5007F01D0608900B903E0F6
:10404000DF21BA48FCF723F9A089A0B1A08908288C
:1040500011D0A08910280ED0A08918280BD0A089D3
:10406000202808D0A089282805D0A089302802D08F
:10407000A089382800D103E0E021AC48FCF707F91B
:10408000E08910B1E089802800D103E0E121A74850
:10409000FCF7FDF8208A012800DB03E0E221A348B9
:1040A000FCF7F5F82E8806F441562088618808430D
:1040B000A1880843E18808432189084361890843AE
:1040C000A1890843E189084306432E80A88B4FF25B
:1040D000FF710840A883208A288270BD2DE9FE4F19
:1040E00005460C464FF0000902274FF000084FF03C
:1040F000010B0026B24600200290019000908948F2
:10410000854202D08848854200D104E040F21B116C
:104110008648FCF7BCF8208858B12088B0F5807F2D
:1041200007D02088B0F5007F03D02088B0F5407F0D
:1041300000D104E04FF48E717C48FCF7A8F8608849
:1041400058B16088102808D06088202805D0608881
:10415000302802D06088B02800D104E040F21D1160
:104160007248FCF794F8A08840B1A088012805D0D7
:10417000A088032802D0A088052800D104E04FF4CD
:104180008F716A48FCF783F8E088B0F5007F01D0B2
:10419000E08800B904E040F21F116448FCF777F8AA
:1041A000A068B0F5FA5F03D36149A068884202D9DC
:1041B000A068022800D104E04FF490715B48FCF73E
:1041C00066F8A08910B1A089082800D104E040F267
:1041D00021115648FCF75BF8A88B4FF240010840CC
:1041E000A88302202884B5F81C90A068022803D177
:1041F0004FF00008022754E0A08810B94FF0010BDF
:1042000001E04FF0020B4B48006800F4000028B1B9
:104210004848006820F400004649086045487C3062
:104220000068C0F38810019042487C300068C0F3F9
:10423000027000903F48001F006800F03F000290AD
:104240003D490298B1FBF0F0019948430099B0FB59
:10425000F1FAE088B0F5007F0AD14FEA1A2000EBAE
:1042600080004000A168B0FBF1F0401D86B20BE079
:104270004FEA4B10BAFBF0F000EB80004000A16861
:10428000B0FBF1F0401D86B20A20B6FBF0F606F056
:104290000108A6EB0800C0F34F074FF6FF7000EAD5
:1042A0000828022F01DBFF2F02DD02274FF0000854
:1042B000E08840EA080038432884A088A1890843A0
:1042C000618808432188084340F4006040EA0909F6
:1042D000A5F81C90BDE8FE8F0021018041808180FF
:1042E000C180018141818181C181072101827047A3
:1042F0000021018041808180C180022181600021F4
:104300008181704770B504460D460548844205D04A
:104310000448844202D0044884420FD113E00000D4
:104320000030014000380040003C0040BC5F000805
:1043300000EE02000838024040787D014FF4E97138
:10434000F748FBF7A4FF0DB1012D00D104E040F2C6
:10435000D311F348FBF79BFF25B1208840F04000C4
:10436000208004E020884FF6BF710840208070BD97
:1043700070B504460D46EB48844202D0EA488442B8
:1043800000D104E04FF4F571E548FBF780FF0DB173
:10439000012D00D104E040F2EB11E148FBF777FF7B
:1043A00025B1A08B40F48060A08304E0A08B4FF681
:1043B000FF310840A08370BD70B504460D46DB4850
:1043C000844205D0D748844202D0D748844200D1E5
:1043D00004E040F20521D248FBF759FFB5F5006F24
:1043E00000D005B904E040F20621CD48FBF74FFFAD
:1043F00020884FF2FF7108402080208828432080C9
:1044000070BD70B504460D46C848844205D0C54805
:10441000844202D0C448844200D104E040F2192111
:10442000BF48FBF734FF4BF6FF70854202D0B5F56D
:10443000804F00D104E040F21A21B948FBF727FF72
:10444000B5F5804F04D1208840F48040208004E0FE
:1044500020884BF6FF710840208070BD70B504467F
:104460000D46B248844205D0AE48844202D0AE48E0
:10447000844200D104E040F23321A948FBF707FF52
:10448000B5F5807F03D04FF6FF60854200D104E090
:104490004FF40D71A248FBF7FAFE4FF6FF6085421C
:1044A00004D0208840F48070208004E020884FF6FB
:1044B000FF610840208070BD70B504460D469B48E2
:1044C000844205D09748844202D09748844200D164
:1044D00004E040F24B219248FBF7D9FE0DB1012DCB
:1044E00000D104E04FF413718D48FBF7D0FE25B1E5
:1044F000A08840F00400A08004E0A0884FF6FB7183
:104500000840A08070BD70B504460D4687488442BF
:1045100005D08448844202D08348844200D104E01C
:1045200040F26A217E48FBF7B2FE0DB1012D00D1A9
:1045300004E040F26B217A48FBF7A9FE25B1A08880
:1045400040F01000A08004E0A0884FF6EF71084012
:10455000A08070BD10B504467448844205D07148EF
:10456000844202D07048844200D104E040F29D2190
:104570006B48FBF78CFEA08910BD70B504460D4654
:104580006A48844205D06748844202D06648844223
:1045900000D104E040F2AD216148FBF778FEA5812F
:1045A00070BD70B504460D466048844205D05D4834
:1045B000844202D05C48844200D104E040F20631DB
:1045C0005748FBF764FE0DB1012D00D104E040F225
:1045D00007315348FBF75BFE25B1208840F40050BB
:1045E000208004E020884DF6FF710840208070BDD7
:1045F00010B504464D48844205D04A48844202D052
:104600004948844200D104E04FF447714448FBF725
:104610003EFE208840F48050208010BD70B50446D6
:104620000D4600264148844205D03E48844202D0CF
:104630003D48844200D104E040F22F313848FBF776
:1046400026FE0DB1012D00D104E04FF44C71344829
:10465000FBF71DFE012D01D0268B00E0A68A304617
:1046600070BD10B504463148844205D02D488442BF
:1046700002D02D48844200D104E040F2473128485E
:10468000FBF705FE208A10BD70B504460D461646A0
:104690002648844205D02348844202D022488442DE
:1046A00000D104E04FF45B711D48FBF7F0FD0EB143
:1046B000012E00D104E040F26D311948FBF7E7FD0F
:1046C0004FF6FC70284008B905B104E040F26E31A5
:1046D0001348FBF7DCFD1EB1A0882843A08002E050
:1046E000A088A843A08070BD2DE9F04104460D4686
:1046F00016464FF0000800270C48844205D00948B0
:10470000844202D00848844200D104E040F2DB3108
:104710000348FBF7BCFD0EB1012E09D10DE00000EE
:10472000BC5F000800380040003C00400030014001
:104730004FF477716B48FBF7AAFD712D03D0602D04
:1047400001D0502D00D104E040F2DD316548FBF787
:104750009EFD4FEA2518012000FA08F087B21EB12D
:10476000A0883843A08002E0A088B843A080BDE8BC
:10477000F08170B505460C4600265B48854205D0A1
:104780005A48854202D05A48854200D104E040F29E
:1047900006415448FBF77BFD802C10D0402C0ED0F6
:1047A000202C0CD0102C0AD0082C08D0042C06D0B9
:1047B000022C04D0012C02D0B4F5807F00D104E09B
:1047C00040F207414748FBF762FD2889204008B1C5
:1047D000012600E00026304670BD70B504460D4647
:1047E0004148844205D04148844202D04048844236
:1047F00000D104E040F22E413A48FBF748FD102D6D
:1048000000D104E040F22F413648FBF740FDE84379
:10481000208170BD2DE9F04705460C460027B846BB
:104820000026B1463048854205D03048854202D046
:104830002F48854200D104E040F24A412948FBF765
:1048400026FD602C0BD0712C09D0542C07D0552C90
:1048500005D0562C03D0532C01D0582C00D104E0A5
:1048600040F24B411F48FBF712FD04F00F010120FD
:1048700088401FFA80F826110120B04086B2A8882F
:1048800000EA0609288900EA080020B1B9F1000F02
:1048900001D0012700E000273846BDE8F08770B559
:1048A00004460D4600261048844205D00F48844235
:1048B00002D00F48844200D104E040F27F41094811
:1048C000FBF7E5FC542D00D104E04FF4906105485E
:1048D000FBF7DDFC05F00F010120884086B2F043B4
:1048E000208170BDBC5F00080030014000380040EE
:1048F000003C004010B501218803FFF7BBF90021FF
:104900004FF48040FFF7B6F910BD10B504462CB146
:10491000012C03D0032C01D0022C00D103E0702124
:104920004348FBF7B4FC4348046010BD70B505462E
:104930000C4600267DB1012D0DD0022D0BD0032D8C
:1049400009D0042D07D0052D05D0062D03D0072D45
:1049500001D0082D00D103E083213548FBF797FCF7
:10496000ECB1012C1BD0022C19D0032C17D0042C35
:1049700015D0052C13D0062C11D0072C0FD0082CE5
:104980000DD0092C0BD00A2C09D00B2C07D00C2CE5
:1049900005D00D2C03D00E2C01D00F2C00D103E03C
:1049A00084212348FBF773FCA007010F0F2000FAB6
:1049B00001F620480830A11050F82100B0431D49ED
:1049C0000831A21041F822000846A11050F8210039
:1049D000A107090F05FA01F1084316490831A21091
:1049E00041F8220070BD10B504460CB1012C00D175
:1049F00003E095210E48FBF74AFC0F48046010BD08
:104A000010B504460CB1012C00D103E0A7210848E1
:104A1000FBF73DFC0948046010BD0020054920312A
:104A2000096801F4807109B1012000E0002070479D
:104A30000060000800380140DC00274200042742E3
:104A400010B50446F84884420ED0F84884420BD092
:104A5000F748844208D0F748844205D0F64884429B
:104A600002D0F648844200D103E0B521F448FBF7B8
:104A70000EFCED48844208D101211020FFF7FAF81E
:104A800000211020FFF7F6F83EE0E848844209D103
:104A900001214804FFF7C7F800214FF40030FFF769
:104AA000C2F831E0E248844209D101218804FFF7CD
:104AB000BAF800214FF48020FFF7B5F824E0DD4874
:104AC000844209D10121C804FFF7ADF800214FF459
:104AD0000020FFF7A8F817E0D748844209D1012148
:104AE0000805FFF7A0F800214FF48010FFF79BF8AE
:104AF0000AE0D248844207D101212020FFF7BAF80A
:104B000000212020FFF7B6F810BD2DE9FF4705462C
:104B10000C460026B14600BFB046C34885420ED0C1
:104B2000C24885420BD0C248854208D0C148854260
:104B300005D0C148854202D0C048854200D103E07B
:104B4000EB21BF48FBF7A3FB206820B1BD492068DB
:104B5000884200D203E0EC21B948FBF798FBA0881B
:104B600018B1A088B0F5805F00D103E0ED21B44812
:104B7000FBF78DFBE08858B1E088B0F5805F07D087
:104B8000E088B0F5005F03D0E088B0F5405F00D169
:104B900003E0EE21AA48FBF77AFB208938B120898F
:104BA000B0F5806F03D02089B0F5C06F00D103E06D
:104BB000EF21A348FBF76BFB60894FF6F3710840C8
:104BC00010B9608900B103E0F0219D48FBF75FFB5D
:104BD000A08958B1A089B0F5807F07D0A089B0F531
:104BE000007F03D0A089B0F5407F00D103E0F12120
:104BF0009348FBF74CFBA08980B18B48854208D0D5
:104C00008A48854205D08A48854202D08B48854231
:104C100000D103E0F6218A48FBF739FB2E8A26F4FF
:104C20004056E08806432E82AE8941F20C608643EE
:104C3000A08821890843618908430643AE81AE8A72
:104C400026F44076A0890643AE826846FEF751FD01
:104C50007548854202D07948854202D1DDF80C9032
:104C600001E0DDF80890A88900F4004040B109EBAC
:104C7000C90000EB091021684900B0FBF1F707E01B
:104C800009EBC90000EB091021688900B0FBF1F7BE
:104C90006420B7FBF0F006013009642101FB1078B5
:104CA000A88900F4004040B1322000EBC800B0FBFE
:104CB000F1F000F00700064308E0322000EB081096
:104CC0006421B0FBF1F000F00F0006432E81BDE837
:104CD000FF874FF41651016000218180C18001815E
:104CE0000C21418100218181704770B505460C4639
:104CF00000264D48854208D04C48854205D04C4896
:104D0000854202D04D48854200D104E04FF4B6718F
:104D10004B48FBF7BCFA208818B12088B0F5006F2B
:104D200000D104E040F26D114548FBF7B0FA60880D
:104D300018B16088B0F5806F00D104E04FF4B7710E
:104D40003F48FBF7A4FAA08818B1A088B0F5007F0F
:104D500000D104E040F26F113948FBF798FAE0887F
:104D600018B1E088B0F5807F00D104E04FF4B8714D
:104D70003348FBF78CFA2E8A26F470662088618807
:104D80000843A1880843E188084306432E8270BD8A
:104D90000021018041808180C180704770B5044648
:104DA0000D46214884420ED0204884420BD0204832
:104DB000844208D01F48844205D01F48844202D054
:104DC0001E48844200D104E040F29B111C48FBF7CE
:104DD0005EFA0DB1012D00D104E04FF4CE711848F8
:104DE000FBF755FA25B1A08940F40050A08104E0FA
:104DF000A0894DF6FF710840A08170BD70B50446D2
:104E00000D46094884420ED0084884420BD0084819
:104E1000844208D00748844205D00748844202D023
:104E20000648844210D114E00010014000440040C4
:104E300000480040004C0040005000400014014079
:104E400048600008E170720040F2B511FA48FBF7C3
:104E50001EFA208B00F47F402083208B2843208380
:104E600070BD70B504460D46F44884420ED0F44837
:104E700084420BD0F348844208D0F348844205D0E2
:104E8000F248844202D0F248844200D104E04FF458
:104E9000E571E948FBF7FBF90DB1012D00D104E004
:104EA00040F2CB11E448FBF7F2F925B1A08940F4B8
:104EB0000040A08103E0A089C0F30E00A08170BD76
:104EC00070B504460D46DD4884420ED0DC4884426D
:104ED0000BD0DC48844208D0DB48844205D0DB4854
:104EE000844202D0DA48844200D104E04FF4F271E7
:104EF000D148FBF7CCF90DB1012D00D104E040F20F
:104F0000E511CD48FBF7C3F925B1A08A40F4006054
:104F1000A08204E0A08A4FF2FF710840A08270BD19
:104F200070B504460D46C54884420ED0C44884423C
:104F30000BD0C448844208D0C348844205D0C3483B
:104F4000844202D0C248844200D104E040F21D21D4
:104F5000B948FBF79CF9B5F5007F00DA04E040F2B0
:104F60001E21B548FBF793F9C5F30800A08070BD7A
:104F700010B50446B14884420ED0B14884420BD0EB
:104F8000B048844208D0B048844205D0AF4884423B
:104F900002D0AF48844200D104E040F22D21A6485F
:104FA000FBF775F9A088C0F3080010BD70B5044682
:104FB0000D46A24884420ED0A14884420BD0A1489D
:104FC000844208D0A048844205D0A048844202D040
:104FD0009F48844200D104E04FF418719648FBF7D3
:104FE00056F90F2D00DC04E040F261219248FBF7F6
:104FF0004EF9208A4FF6F07108402082208A28431B
:10500000208270BD70B504460D468C4884420ED097
:105010008B4884420BD08B48844208D08A48844213
:1050200005D08A48844202D08948844200D104E0F5
:105030004FF41D718048FBF72AF90DB1012D00D105
:1050400004E040F275217C48FBF721F925B1A089E5
:1050500040F00200A08104E0A0894FF6FD710840F5
:10506000A08170BD70B504460D46744884420ED0D0
:10507000734884420BD07348844208D072488442FB
:1050800005D07248844202D07148844200D104E0C5
:1050900040F28F216848FBF7FAF815B1B5F5006FBB
:1050A00000D104E04FF424716348FBF7F0F8A089C5
:1050B0004FF2FF710840A081A0892843A08170BDF4
:1050C00070B504460D465D4884420ED05C4884426B
:1050D0000BD05C48844208D05B48844205D05B48D2
:1050E000844202D05A48844200D104E04FF4357122
:1050F0005148FBF7CCF80DB1202D00D104E040F26F
:10510000D5214D48FBF7C3F8208A4FF6DF710840E0
:105110002082208A2843208270BD70B504460D4647
:10512000464884420ED0464884420BD045488442CB
:1051300008D04548844205D04448844202D04448BF
:10514000844200D104E040F2E6213B48FBF79FF89F
:105150000DB1012D00D104E040F2E7213648FBF704
:1051600096F825B1208A40F48040208204E0208A0D
:105170004BF6FF710840208270BD10B504462F48E1
:1051800084420ED02E4884420BD02E48844208D050
:105190002D48844205D02D48844202D02C488442B8
:1051A00000D104E040F2FE212348FBF770F8A0890B
:1051B00040F00100A08110BD70B504460D461F48A7
:1051C00084420ED01E4884420BD01E48844208D030
:1051D0001D48844205D01D48844202D01C488442A8
:1051E00000D104E040F233311348FBF750F80DB121
:1051F000012D00D104E04FF44D710F48FBF747F843
:1052000025B1A08A40F00800A08204E0A08A4FF6F1
:10521000F7710840A08270BD70B504460D4607487E
:10522000844208D00648844205D00648844202D011
:10523000074884420ED112E0486000080010014087
:105240000044004000480040004C00400050004036
:10525000001401404FF46271FE48FBF718F8208BF0
:10526000C0B22083208B40EA0520208370BD70B53A
:1052700004460D46F848844208D0F848844205D0D8
:10528000F748844202D0F748844200D104E040F25B
:105290009B31F048FAF7FBFF0DB1012D00D104E07E
:1052A0004FF46771EB48FAF7F2FF25B1A08A40F09E
:1052B0002000A08204E0A08A4FF6DF710840A0829F
:1052C00070BD70B504460D46E348844208D0E348FB
:1052D000844205D0E248844202D0E248844200D1B0
:1052E00004E04FF46D71DB48FAF7D1FF0DB1012DE9
:1052F00000D104E040F2B531D648FAF7C8FF25B135
:10530000A08A40F01000A08204E0A08A4FF6EF715E
:105310000840A08270BD70B504460D46CE48844258
:105320000ED0CE4884420BD0CD48844208D0CE481F
:10533000844205D0CD48844202D0CA48844200D17C
:1053400004E040F2FB31C348FAF7A1FF042D00D07E
:1053500005B904E04FF47F71BE48FAF798FFA08AC0
:105360004FF6FB710840A082A08A2843A08270BD3E
:1053700070B504460D46B84884420ED0B748844202
:105380000BD0B748844208D0B748844205D0B7480C
:10539000844202D0B348844200D104E040F20D417F
:1053A000AC48FAF774FF0DB1012D00D104E040F2D2
:1053B0000E41A848FAF76BFF25B1A08A40F0020021
:1053C000A08204E0A08A4FF6FD710840A08270BD63
:1053D00070B504460D4616469F4884420ED09F483D
:1053E00084420BD09E48844208D09F48844205D016
:1053F0009E48844202D09B48844200D104E040F29F
:105400003B419448FAF743FF4FF63F70284008B9F4
:1054100005B104E040F23C418E48FAF738FF0EB186
:10542000012E00D104E040F23D418A48FAF72FFFF7
:105430001EB1A08A2843A08202E0A08AA843A082CD
:1054400070BD2DE9F04704460D4617464FF00008A1
:10545000C246C1460026804884420ED07F4884421E
:105460000BD07F48844208D07F48844205D07F48D3
:10547000844202D07B48844200D104E040F2BD4126
:105480007448FAF704FF282D19D040F2277085429E
:1054900015D040F22660854211D040F22550854259
:1054A0000DD040F22440854209D040F646008542A6
:1054B00005D040F66A10854201D0602D00D104E08D
:1054C00040F2BE416348FAF7E2FE0FB1012F00D16E
:1054D00004E040F2BF415F48FAF7D9FE40F66A1097
:1054E000854211D15C48844208D05C48844205D092
:1054F0005B48844202D05B48844200D104E040F221
:10550000C4415448FAF7C3FE2646C5F3421805F0D5
:105510001F0A012000FA0AF9B8F1010F01D10C3677
:1055200005E0B8F1020F01D1103600E0143627B1C2
:10553000306840EA0900306003E0306820EA090082
:105540003060BDE8F08770B505460C46002642483D
:1055500085420ED0414885420BD04148854208D053
:105560004148854205D04148854202D03D488542A8
:1055700000D104E040F2FC413648FAF788FE012CE5
:1055800013D0802C11D0402C0FD0202C0DD0102CFB
:105590000BD0B4F5807F08D0B4F5007F05D0082C7F
:1055A00003D0042C01D0022C00D104E040F2FD41D4
:1055B0002848FAF76CFEB4F5007F11D126488542E1
:1055C00008D02648854205D02548854202D0254886
:1055D000854200D104E040F202511E48FAF757FE1E
:1055E0002888204008B1012600E00026304670BD22
:1055F00070B504460D46184884420ED017488442C0
:105600000BD01748844208D01748844205D0174869
:10561000844202D01348844200D104E040F22C516D
:105620000C48FAF734FE4FF69F40284008B905B100
:1056300004E040F22D510748FAF729FE05F4007006
:10564000B0F5007F20D10448844217D0034884423B
:1056500014D00DE0486000080010014000440040F4
:105660000048004000140140004C00400050004041
:105670007248844202D07248844200D104E040F271
:1056800032517048FAF703FEE843208070BD2DE9DF
:10569000F04704460D4600270026B046B1466A484A
:1056A00084420ED0694884420BD06448844208D0BA
:1056B0006748844205D06748844202D060488442EB
:1056C00000D104E040F24F515E48FAF7E0FD282D8A
:1056D00020D040F2277085421CD040F226608542DF
:1056E00018D040F22550854214D040F22440854223
:1056F00010D040F6460085420CD040F66A10854234
:1057000008D0B5F5587F05D0B5F5187F02D0B5F5AE
:10571000B07F00D104E04FF4AA614A48FAF7B7FD20
:1057200040F66A10854211D14748844208D0474864
:10573000844205D04148844202D04148844200D18D
:1057400004E040F255513F48FAF7A1FDC5F3421875
:1057500005F01F06012000FA06F6B8F1010F02D18C
:10576000A089064007E0B8F1020F02D1208A064066
:1057700001E0A08A06402F12012000FA07F72088D6
:1057800007401EB117B14FF0010901E04FF00009C9
:105790004846BDE8F0872DE9F04104460D46002655
:1057A0000027294884420ED0284884420BD0234841
:1057B000844208D02648844205D02648844202D03C
:1057C0001F48844200D104E04FF4B3611D48FAF74A
:1057D0005EFD40F2266085420BD040F225508542A6
:1057E00007D040F64600854203D040F66A10854255
:1057F00000D104E040F299511248FAF748FD40F612
:105800006A10854211D11048844208D00F48844262
:1058100005D00A48844202D00948844200D104E0FD
:1058200040F29E510748FAF732FD2E120120B04097
:1058300087B2F8432080BDE8F081000000480040B6
:10584000001401404860000800100140004400407E
:10585000004C00400050004009488047094800477C
:10586000FEE7FEE7FEE7FEE7FEE7FEE7FEE7FEE710
:10587000FEE7FEE704480549054A064B704700006D
:10588000CD03000885010008E8000020E80600209C
:10589000E8020020E80200201CB50446FE4951F849
:1058A00024000121FEF73DF8FC4830F81400009078
:1058B00001208DF804008DF806008DF80700022005
:1058C0008DF80500F64951F824006946FCF7B8FA4E
:1058D0001CBDF24931F81010F14A52F820205183D2
:1058E0007047EE4931F81010ED4A52F8202011832C
:1058F0007047EB4951F820104969E84A32F8102006
:105900005140E74A52F820205161704730B585B0C8
:1059100004460D46E34951F824000121FEF701F841
:1059200001218803FEF7E3F800208DF810008DF8C0
:105930001300DD4830F814000390DC4951F82400CE
:1059400003A9FCF77DFA012D29D1D94A115DD94A65
:10595000105DFEF7EBFFD84830F8140001900020EE
:105960008DF808001CB10C208DF8090002E0082019
:105970008DF8090001208DF80A0001A8FCF776F8DF
:10598000CE48005D8DF800000F208DF801008DF8E5
:10599000020001208DF803006846FAF7C4FD05B047
:1059A00030BD10B50446C04A32F81410BF4A52F850
:1059B0002400FCF736FB10BD7CB504460D46C049FB
:1059C00051F82410BF4A52F8242041EA0200012174
:1059D000FDF7A7FF2CB9BC4951F824000121FEF7BF
:1059E00086F8BA4B1A5DBA4B195DBA4B53F82400CE
:1059F000FCF73AFDB84B1A5DB84B195DB84B53F83C
:105A00002400FCF731FD00208DF8060001208DF800
:105A1000070002208DF80400B24830F8140000900E
:105A200002208DF80500AB4951F824006946FCF7C7
:105A300007FA02208DF80400AB4830F814000090FB
:105A4000A74951F824006946FCF7FAF9A74951F82B
:105A500024002946FFF759F8A44951F824000121F0
:105A6000FFF79CF97CBD10B50021A148FEF74AFC68
:105A70009F48FEF75BFA10BD00B587B001210A20F0
:105A8000FDF74FFF0121C803FEF70EF838200590FF
:105A900002208DF818008DF8190005A99548FCF72B
:105AA000CFF9062203219348FCF7DEFC06220521EC
:105AB0009048FCF7D9FC062204218E48FCF7D4FC60
:105AC0008B48FEF733FA0020ADF800004FF48270E7
:105AD000ADF802000020ADF804000220ADF8060089
