:020000040800F2
:100000003004002099010008AD0C000845050008E7
:10001000830B00080D020008811300080000000097
:10002000000000000000000000000000491100086E
:100030000F02000800000000350D0008151200082E
:10004000B3010008B3010008B3010008B3010008C0
:10005000B3010008B3010008B3010008B3010008B0
:10006000B3010008B3010008B3010008B3010008A0
:10007000B3010008B3010008B3010008B301000890
:10008000B3010008B3010008B3010008B301000880
:10009000B3010008B3010008B3010008B301000870
:1000A000B3010008B3010008B3010008B301000860
:1000B000B301000895120008B3010008B30100085D
:1000C000B3010008B3010008B3010008B301000840
:1000D000B3010008B3010008B3010008B301000830
:1000E00045020008B3010008B3010008B30100088D
:1000F000B3010008B3010008B3010008B301000810
:10010000B3010008B3010008B3010008B3010008FF
:10011000B3010008B3010008B3010008B3010008EF
:10012000B3010008B3010008B3010008B3010008DF
:10013000B3010008B3010008B3010008B3010008CF
:10014000B3010008B3010008B3010008B3010008BF
:10015000B3010008B3010008B3010008B3010008AF
:10016000B3010008B3010008B3010008B30100089F
:10017000B3010008B3010008B3010008B30100088F
:10018000B3010008DFF80CD000F02EF8004800475B
:1001900071190008300400200648804706480047CF
:1001A000FEE7FEE7FEE7FEE7FEE7FEE7FEE7FEE727
:1001B000FEE7FEE7511200088501000830B50B4646
:1001C000014600202022012409E021FA02F59D4287
:1001D00005D303FA02F5491B04FA02F52844151E5B
:1001E000A2F10102F1DC30BD064C074D06E0E068EB
:1001F00040F0010394E8070098471034AC42F6D36E
:10020000FFF7C4FF3069000850690008FEE7704737
:1002100000EBC002002102EB001000E0491CB1EB32
:10022000C00FFBD370470000012800D10220044911
:1002300008600020087108790128FCD1704700008F
:100240001000002010B54FF40064204600F05EF866
:10025000002812D009496F2001F0B8FA0748007849
:100260004B2802D1064900200870204600F00AF809
:100270002046BDE8104000F00BB810BD240000205F
:10028000000000200149086070470000143C014054
:100290000149086070470000143C014070B586B009
:1002A0000121202000F048FD0121880300F06EFDAF
:1002B000002401258DF80D408DF80C40EE028DF8DC
:1002C0000F5002A91048029600F0E2F80B21052019
:1002D00000F03CFF8DF804400C208DF805000096DE
:1002E0008DF80650684600F021F828208DF810009F
:1002F0008DF811408DF812508DF8135004A800F0BD
:10030000D6FC06B070BD000000140240064A01464B
:1003100000201368526903EA01030A4202D0002B4D
:1003200000D0012070470000003C014030B51F4A5A
:100330008179036899B311460C6824EA03040C60C0
:100340004B68046823EA04034B60047904EB02035E
:100350001C68056844EA05041C608B68046823EA8D
:1003600004038B60CB68046823EA0403CB60437901
:10037000A1F54061102B05D099180A680068024366
:100380000A6030BD01F608410A68036842EA0302C8
:100390000A604A68006842EA00024A6030BDFFE72E
:1003A00000791044016899430160F7E7003C01407F
:1003B0004FF0204202EB80000029016802D041F09A
:1003C000010101E0014A114001607047FEFF0F008A
:1003D00030B5D0E901121143D0E903231A43114388
:1003E00042690368114382691143C2691143026A79
:1003F0001143426A1143826A1143C26A1143026B7C
:1004000011434FF0204242F823108168082906D199
:10041000016802EB81010B6843F040030B60416B04
:10042000D1E9003443EA04138C68CD68240244EA1D
:10043000054423430C6943EA04534C69896943EA40
:1004400004630B43016802EB81014B60C16AB1F5A3
:10045000804F07D000686FF0704102EB8000C0F859
:10046000041130BD816B0068D1E9003443EA041304
:100470008C680D69240244EA055423434C69896958
:1004800043EA046302EB80000B43C0F8043130BD43
:10049000F0B50022012303250E6803FA02F426407A
:1004A000A64230D10768540005FA04F6B743076046
:1004B0000F79D0F800C0A74047EA0C0707600F7912
:1004C000012F01D0022F12D18768B74387604E7980
:1004D0008768A6403E438660466803FA02F7BE433B
:1004E000466046688F799740BFB23E434660C66813
:1004F000570005FA07FC26EA0C06C660CE79A6402E
:10050000C4682643C660521C102AC5D3F0BD4B07F1
:10051000DB0E9A40C90810B500EB8100016A0F2478
:100520009C40A1430162016A1143016210BD024671
:10053000002012690A4200D00120704741837047B1
:1005400001837047FEE7000070B50F4D4FF4006463
:1005500021462846FFF7F4FF661031462846FFF78C
:10056000EFFF0120FFF754FE21462846FFF7E6FF84
:100570000120FFF74DFE31462846FFF7DFFFBDE8BB
:1005800070400120FFF744BE0004024070B50F4DDB
:100590004FF4006421462846FFF7D0FF661031462D
:1005A0002846FFF7CBFF0120FFF732FE31462846F1
:1005B000FFF7C6FF0120FFF72BFE21462846FFF775
:1005C000BFFFBDE870400120FFF722BE00040240DB
:1005D0001CB50121022000F0AFFB4FF440600090F9
:1005E00002208DF8050001218DF804108DF8061009
:1005F0008DF8070069461348FFF74AFF0520FFF70B
:1006000007FE0121642001F061F96420FFF700FE7C
:100610001121682001F05AF94021622001F056F9B9
:100620000948FFF7F5FD0121642001F04FF941F27F
:100630008830FFF7EDFDBDE81C401321682001F074
:1006400045B9000000040240A086010030B5002436
:1006500005462146204600F07DFA4FF0D841222081
:1006600048804FF496308D80641C8442FBD330BDAB
:100670007CB501213C2000F05FFB4CF2337002247A
:1006800000908DF804408DF8054000208DF806009C
:10069000404D8DF8070069462846FFF7F9FE0C2209
:1006A00000212846FFF733FF0C2201212846FFF7DF
:1006B0002EFF0C2204212846FFF729FF0C220521DA
:1006C0002846FFF724FF0C2208212846FFF71FFFCA
:1006D0000C2209212846FFF71AFF0C220A2128467E
:1006E000FFF715FF0C220E212846FFF710FF0C2202
:1006F0000F212846FFF70BFF4FF68070264D009024
:1007000069462846FFF7C4FE0C2207212846FFF75A
:10071000FEFE0C2208212846FFF7F9FE0C220921D3
:100720002846FFF7F4FE0C220A212846FFF7EFFEC9
:100730000C220B212846FFF7EAFE0C221146284620
:10074000FFF7E5FE0C220D212846FFF7E0FE0C2204
:100750000E212846FFF7DBFE0C220F212846FFF76B
:10076000D6FEE0020D4D009069462846FFF790FE48
:100770000C2211462846FFF7CAFE0094084C694631
:100780002046FFF785FE0C2201212046FFF7BFFE21
:100790007CBD0000000C0240001002400018024026
:1007A000001402402DE9F043804689461446002695
:1007B0001A4D2CE080290AD21948082300EB0112B7
:1007C0004946404600F052F808F108001BE014F8D2
:1007D000013F002B20D0002202EB021040002F5CD2
:1007E0008F4205D12F187F789F4201D1801C02E0F3
:1007F000521CAF2AF0D32A1810234946404600F075
:1008000035F808F1100080B2641C8046761C21780F
:10081000002901D0282ECDD3BDE8F083481D000863
:10082000863400082DE9F04104468846150018D0AA
:100830000D4E2878002814D02D380D2801D32034EF
:100840000CE0C7B206EB072220234146204600F009
:1008500071F8032FF3D2002FF1D01834A4B26D1C1D
:10086000E7E7BDE8F0810000864400082DE9FF4F6E
:1008700090461F460024CEB2009800F06BF9DFF8D6
:10088000B09099F80020FD084FF0800A22204FF028
:10089000D8414AB183468A46002005FB04FC4FF04C
:1008A0008009DFF88CE036E08B462220ABF80200AE
:1008B000002005FB04FC0EE008EBD00100F007036C
:1008C0001CF801202AFA03F10A42494610D049884F
:1008D000ABF80410401CB842EED3761CF6B2314699
:1008E000009800F037F9641C102CDED3BDE8FF8FB0
:1008F0008988EDE708EBD00100F007031CF8012020
:1009000029FA03F10A4205D0AAF802B0BEF8022083
:10091000AAF80420401CB842ECD3761CF6B231464B
:10092000009800F017F9641C102CB5D3DEE7000026
:10093000180000202DE9FF4F90461F460024CEB23C
:10094000009800F007F9DFF8B09099F80020FD0852
:100950004FF0800A22204FF0D8414AB183468A46A0
:10096000002005FB04FC4FF08009DFF88CE036E046
:100970008B462220ABF80200002005FB04FC0EE0B1
:1009800008EBD00100F007031CF801202AFA03F15C
:100990000A42494610D04988ABF80410401CB842BE
:1009A000EED3761CF6B23146009800F0D3F8641C02
:1009B000402CDED3BDE8FF8F8988EDE708EBD0013E
:1009C00000F007031CF8012029FA03F10A4205D0C0
:1009D000AAF802B0BEF80220AAF80420401CB842CF
:1009E000ECD3761CF6B23146009800F0B3F8641CE4
:1009F000402CB5D3DEE70000180000202DE9F047B9
:100A00001746984682460E46002400F0A3F822219D
:100A100010484FF0D845B8F1000F02D08946804603
:100A200014E0698002E04188A980641CBC42FAD3CA
:100A3000BDE8F087A5F80290B8F80200A880761CFF
:100A4000B6B23146504600F085F8641CBC42F1D382
:100A5000EEE7000018000020F0B51D4614460746DA
:100A60000E4600232A46FFF7C9FF301981B2002342
:100A70002A463846FFF7C2FF012322463146384650
:100A8000FFF7BCFF78190123621C3146BDE8F04036
:100A900080B2FFF7B3BF00002DE9F04381460D4659
:100AA00000F058F80024DFF83C8022274FF0D846A9
:100AB000002004EBC402434600EBC20103EB4101FA
:100AC00009887780B180401C4828F5DB6D1CADB2E9
:100AD0002946484600F03EF8641C2A2CE8DBBDE8B5
:100AE000F08300008651000800B5012197B0084648
:100AF00000F030F90121880300F048F901200F903F
:100B000000200921CDE91001149006211590CDE9AE
:100B1000001012901021CDE902011390049005906D
:100B2000069009020790CDE908010A900B900C90FD
:100B30000FA80D900E906846FFF74AFC0121062091
:100B4000FFF736FC17B000BD0149888070470000F0
:100B50001800002000B503464E2000F00DF819469D
:100B60004F205DF804EB00F007B800000149488011
:100B700070470000180000204FF0D842508091804C
:100B80007047FEE72DE9FC4101216F2000F0D4F809
:100B900001248DF8044002258DF8055000260094AC
:100BA0008DF8066069461F48FFF772FC8DF8044017
:100BB0008DF8055000948DF8066069461A48FFF7D5
:100BC00067FC04208DF8044000908DF805508DF8E6
:100BD000066069461548FFF75BFC8DF80440E703A3
:100BE0008DF8055000978DF8066069461048FFF7AC
:100BF0004FFC8DF804408DF8055000978DF8066085
:100C000069460C48FFF744FC08208DF8044000902A
:100C10008DF805508DF8066069460748FFF738FCE7
:100C2000BDE8FC81001402400008024000040240BC
:100C30000018024000000240000C024008B51D20D0
:100C40008DF8000000208DF8010002208DF80200D0
:100C500001208DF80300684600F029F808BD000067
:100C60003EB504460121022000F082F842F21070E5
:100C700090FBF4F0019040F6B730ADF80000002092
:100C8000094CADF80800ADF802006946204600F0B6
:100C900039FB01221146204600F02CFB01212046A1
:100CA00000F013FB3EBD000000040040704770B52B
:100CB0000F22C57803784FF0E0210124EDB1D1F87F
:100CC0000C5D0B4405F4E065C5F5E065C5F307254B
:100CD000C5F10406EA404578B540867816402E43B3
:100CE000320183F80024007800F01F02944040098C
:100CF00001EB8000C0F8004170BD03F01F0084408C
:100D0000580901EB8000C0F8804170BD02490843DA
:100D100002490860704700000000FA050CED00E091
:100D2000024A1140014302480160704780FFFF1FE3
:100D300008ED00E070470000054A0029D2F830189D
:100D400001D0014300E08143C2F830187047000031
:100D500000300240054A0029D2F8381801D001437A
:100D600000E08143C2F838187047000000300240AC
:100D7000054A0029D2F8401801D0014300E0814320
:100D8000C2F840187047000000300240054A0029B0
:100D9000D2F8441801D0014300E08143C2F844185E
:100DA000704700000030024003490A6822F46042A4
:100DB00042EAC00008607047083802402DE9F0415F
:100DC000FFF756FCFFF790FEDE48401EFDD10121E3
:100DD000FFF7D2FE0A20401EFDD14AF6A4010320EF
:100DE000FFF7CAFE0A20401EFDD100210C20FFF7AC
:100DF000C3FE0A20401EFDD140F60C010D20FFF776
:100E0000BBFE0A20401EFDD14FF42C510E20FFF7EF
:100E1000B3FE0A20401EFDD1B0211E20FFF7ACFE1C
:100E20000A20401EFDD146F63F310120FFF7A4FE07
:100E30000A20401EFDD14FF4C06841460220FFF752
:100E40009BFE0A20401EFDD100211020FFF794FEDA
:100E50000A20401EFDD146F268011120FFF78CFEEA
:100E60000A20401EFDD100210520FFF785FE0A2043
:100E7000401EFDD100210620FFF77EFE0A20401E05
:100E8000FDD14EF61C711620FFF776FE0A20401E9B
:100E9000FDD103211720FFF76FFE0A20401EFDD170
:100EA00040F233210720FFF767FE0A20401EFDD1E4
:100EB00000210B20FFF760FE0A20401EFDD100211B
:100EC0000F20FFF759FE0A20401EFDD100214120CE
:100ED000FFF752FE0A20401EFDD100214220FFF7FD
:100EE0004BFE0A20401EFDD100214820FFF744FEA2
:100EF0000A20401EFDD140F23F1421464920FFF751
:100F00003BFE0A20401EFDD100214A20FFF734FE9F
:100F10000A20401EFDD100214B20FFF72DFE0A20A4
:100F2000401EFDD14FF46F4529464420FFF724FEB3
:100F30000A20401EFDD100214520FFF71DFE0A209A
:100F4000401EFDD121464620FFF716FE0A20401E16
:100F5000FDD140F2077631463020FFF70DFE0A2022
:100F6000401EFDD14FF4017319463120FFF704FEF6
:100F70000A20401EFDD119463220FFF7FDFD0A2050
:100F8000401EFDD140F2025739463320FFF7F4FDF1
:100F90000A20401EFDD140F207513420FFF7ECFD3E
:100FA0000A20401EFDD119463520FFF7E5FD0A2035
:100FB000401EFDD119463620FFF7DEFD0A20401EF7
:100FC000FDD139463720FFF7D7FD0A20401EFDD15D
:100FD00040F2023319463A20FFF7CEFD0A20401EA8
:100FE000FDD119463B20FFF7C7FD0A20401EFDD169
:100FF00000212320FFF7C0FD0A20401EFDD1002163
:101000002420FFF7B9FD0A20401EFDD14FF4004116
:101010002520FFF7B1FD0A20401EFDD100214F2001
:10102000FFF7AAFD0A20401EFDD100214E20FFF748
:10103000A3FD0A20401EFDD14FF0D8412220488058
:1010400001210020FFF798FD41460220FFF794FDA3
:1010500007210C20FFF790FD06210D20FFF78CFDE6
:101060004FF448510E20FFF787FDBB211E20FFF7EC
:1010700083FD46F664210320FFF77EFD00210F204B
:10108000FFF77AFD29464420FFF776FD0021452031
:10109000FFF772FD21464620FFF76EFD002130204C
:1010A000FFF76AFD40F206713120FFF765FD40F25F
:1010B00006213220FFF760FD4FF440713320FFF727
:1010C0005BFD02213420FFF757FD00213520FFF79B
:1010D00053FD31463620FFF74FFD4FF400713720A6
:1010E000FFF74AFD40F608113A20FFF745FD40F6AC
:1010F0000D713B20FFF740FD06212820FFF73CFD46
:1011000041F2EB212F20FFF737FD4FF4E04126207D
:10111000FFF732FD4BF2E3012020FFF72DFD4421C4
:101120002720FFF729FD47F645612E20FFF724FD14
:1011300000211020FFF720FD0A20401EFDD1BDE850
:10114000F0810000400D03007047000010B58A07D1
:1011500021F003040849130F214401F608010F226E
:101160000C689A4024EA02040C600A6800FA03F052
:1011700042EA00020A6010BD00300140234800210D
:10118000D0F8002842F48032C0F800284FF4A06361
:10119000D0F8002801F1010112F4003F01D1994279
:1011A000F6D1D0F8001889032ED500F500608168CB
:1011B0008160816841F400418160816841F4A051FF
:1011C000816013494160016841F080710160A0F5C0
:1011D000006000BFD0F800188901FBD540F2037110
:1011E000C0F8001CD0F8081821F00301C0F8081856
:1011F000D0F8081841F00201C0F80818D0F8081813
:10120000C1F381010229F9D170470000003002408A
:10121000193C402510B500F007F802480168491C48
:10122000016010BD0400002010B50020074A012312
:1012300002EBC0010C6824B10C68641E0C6000D184
:101240000B71401C10F0FF00F2D010BD1000002008
:101250000E4810B5016841F0010101604FF0000136
:10126000816002680A4B02EA030202604160026880
:1012700022F480220260C160FFF780FF4FF0E0217E
:101280004FF00060C1F8080D10BD000000380240AA
:10129000FFFFF6FE10B5094C0121204600F01FF8B3
:1012A000002808D00121204600F00CF804480178FD
:1012B00011B10021017010BD0121FBE700040040C5
:1012C00008000020C943018270470029018802D02C
:1012D00041F0010101E021F0010101807047038A22
:1012E000002280890B4200EA010001D000B10122F6
:1012F00010467047002A828901D00A4300E08A43E1
:101300008281704730B50288164B174C98420DD039
:10131000A0420BD0B0F1804F08D0144DA84205D0A8
:10132000134DA84202D0134DA84203D122F07005FC
:101330004A882A43104DA84206D0104DA84203D037
:1013400022F440750A892A4302804A68C2620A88E8
:101350000285984201D0A04201D1897A01860121FB
:10136000818230BD000001400004014000040040C3
:1013700000080040000C0040001000400014004035
:10138000FEE700002DE9F041174E002405464FF41A
:101390000068371505FA04F000064146304602D5CC
:1013A000FFF7CEF801E0FFF7C9F80120FEF730FFA4
:1013B00039463046FFF7C2F80120FEF729FF3946CB
:1013C0003046FFF7BDF80120FEF722FF39463046D0
:1013D000FFF7B4F80120FEF71BFF641CE4B2082CF1
:1013E000D8D3BDE8F0810000000402400FB4084BE0
:1013F00010B504A902AA039800F01CF8044602A93B
:10140000002000F0DDF9204610BC5DF814FB000060
:10141000C117000802E008C8121F08C1002AFAD14B
:1014200070477047002001E001C1121F002AFBD164
:10143000704700002DE9FF4F8DB005468846002615
:1014400089E125287AD100246D1CC74AA146A3460C
:1014500001212B78203B01FA03F0104202D0044313
:101460006D1CF6E728782A2810D06FF02F02287814
:10147000A0F13001092918D809EB890102EB4101DB
:10148000084444F0020481466D1CF0E7D8F80010CF
:1014900008F10400B1F10009804603DA484244F43F
:1014A0000054814644F002046D1C28782E281BD17C
:1014B00015F8010F44F004042A280ED06FF02F0213
:1014C0002878A0F1300109290ED80BEB8B0102EB33
:1014D0004101084483466D1CF2E7D8F8001008F17A
:1014E00004008B4680466D1C28786C280FD006DCE3
:1014F0004C2817D068280DD06A2814D104E074282D
:1015000010D07A280FD10DE044F400140AE044F41E
:10151000801401E044F440146978814202D16D1CCA
:1015200004F580146D1C2878692874D007DC002825
:1015300070D0632829D0642807D16CE005E06E28BC
:1015400008D0732830D075287BD0DDE90F12904782
:10155000761CFFE0C4F3025002280AD003280ED004
:10156000D8F8001004280ED00E6008F10400804660
:10157000F0E0D8F80010F217C1E90062F5E7D8F8FA
:1015800000100E80F1E70E70EFE7D8F8001008F1B8
:10159000040080468DF800104FF000008DF8010027
:1015A000EA464FF0010007E0D8F8001008F1040007
:1015B00080468A464FF0FF3061074FF0000701D4A4
:1015C0000AE07F1C5F450DDA8742FADB1AF8071044
:1015D0000029F6D106E07F1C8742FCDB1AF80710D1
:1015E0000029F8D1DDE90F23A9EB07008146214648
:1015F00000F0CFF83044C61907E09AF800000AF16D
:1016000001018A46DDE90F1290477F1EF5D221467F
:1016100048469AE0A3E00A20074608F10401D8F8FA
:1016200000008846C4F30251032900D100B2042906
:1016300000D140B2002805DAC0F100004FF02D01C2
:1016400003E00EE0210504D52B218DF82C1001219B
:1016500003E0E10714D02021F7E7099108A98A46A1
:1016600019E00A20074608F10401D8F8000088466E
:10167000C4F30251032900D180B2042900D1C0B2C1
:101680000021EAE73946FEF799FD01F13002AAF19F
:1016900001018A460A700028F4D1ADEB0A0000F17E
:1016A00020000890600702D524F4803401E0012076
:1016B0008346089A00205946934501DDA1EB0200BC
:1016C000834600EB020109980144A9EB01000A904E
:1016D000E00306D4DDE90F2321460A9800F059F80B
:1016E000064400270DF12C0906E0DDE90F1219F878
:1016F00007009047761C7F1C09988742F5DBE003C2
:101700000CD5DDE90F2321460A9800F042F8064483
:1017100004E0DDE90F1230209047761CBBF1000198
:10172000ABF101008346F4DC08E09AF800000AF10E
:1017300001018A46DDE90F129047761C0899481E80
:1017400008900029F1DC0A982146DDE90F2300F01A
:101750000DF806446D1C287800287FF472AE11B095
:101760003046BDE8F08F0000092801002DE9F04166
:101770000446002517461E46880405D406E039466F
:101780002020B04705F10105641EF8D52846BDE8C4
:10179000F0812DE9F04104460025302790461E4691
:1017A000C80300D42027880405D506E04146384602
:1017B000B04705F10105641EF8D52846BDE8F08163
:1017C0000A68531C0B601070704700002DE9F34F3E
:1017D00083B005460024FEF7B7FE2846FFF7D2FD8A
:1017E0000120FEF715FD384F4FF4006631463846AC
:1017F000FEF7A6FE0120FEF70BFD4FF4806A55466A
:1018000051463846FEF79AFE0120FEF701FD2946B3
:101810003846FEF795FE0120FEF7FAFC29463846C9
:10182000FEF78CFE0120FEF7F3FC01210220FFF7FA
:1018300083FA4FF0020B8DF805B0A1468DF80490A5
:101840004FF001088DF8068000968DF807906946E4
:101850003846FEF71DFE3E46002557460120FEF79E
:10186000D7FC39463046FEF76BFE4FF40061304638
:10187000FEF75DFE40EA44040220FEF7C9FC39464B
:101880003046FEF75BFE0120FEF7C2FC6D1C082D02
:10189000E4DBFEF77BFE01210220FFF74DFA8DF815
:1018A00005B04FF400608DF8048000908DF806803C
:1018B0008DF8079069463046FEF7EAFD04980470FB
:1018C00005B00120BDE8F08F000402402DE9F04191
:1018D00005460C46FEF738FE2846FFF753FD234E1B
:1018E0004FF4006529463046FEF72AFE0120FEF738
:1018F0008FFC6F1039463046FEF720FE0120FEF7C0
:1019000087FC39463046FEF71BFE0120FEF780FCBF
:1019100039463046FEF712FE0120FEF779FC2046DC
:10192000FFF730FD0120FEF773FC29463046FEF735
:1019300007FE0120FEF76CFC39463046FEF7FEFD3F
:101940000120FEF765FC39463046FEF7F9FD01201F
:10195000FEF75EFC39463046FEF7F0FD0120FEF74B
:1019600057FCFEF713FE0120BDE8F08100040240A1
:1019700008B5FFF76DFC4FF48050FFF715FA012111
:101980000320FFF703FA01218803FFF7F1F9FEF7BF
:1019900085FC00214FF00060FFF7C2F94FF4C060F2
:1019A000FFF7B4F91C208DF8000000258DF80150D8
:1019B0008DF8025001248DF803406846FFF777F94F
:1019C000FFF7FCF918484FF47A710068B0FBF1F0AA
:1019D000B0F1807F0CD220F07F414FF0E020491E13
:1019E0004161124AF021117085614FF007010161D8
:1019F00000F024F8FEF7ECFDDFF834800D4D0E4FBB
:101A00004FF4004698F800004028FBD131462846A4
:101A1000FEF796FD3C7000F01FF931462846FEF7B0
:101A20008DFD00F00BF8EDE72800002023ED00E02D
:101A300024000020000002400000002010B59AB0F1
:101A40001F20FEF703FE1F20FFF77EF84FF6FF7002
:101A5000FFF78CF820A16846FFF7C8FC08216A460A
:101A60000846FEF79FFE26A16846FFF7BFFC6A46C0
:101A700025210820FEF796FE17A16846FFF7B6FC61
:101A80006A4642210820FEF78DFE18211220FFF73A
:101A900003F84FF496738C225A210820FEF7DCFFDE
:101AA0004FF6E0742046FFF761F81FA16846FFF784
:101AB0009DFC6A4682216420FEF774FE2046FFF7F3
:101AC00055F81DA16846FFF791FC6A46A0216420E5
:101AD000FEF768FE1AB010BD2F3D3D3D3D3D3D3D3A
:101AE0003D3D3D3D3D3D3D3D3D3D3D3D3D3D3D3D26
:101AF0003D3D3D3D3D3D3D3D3D3D3D3D3D2F00009E
:101B00003D202020202020202020202020202020B8
:101B1000B2BDBDF8B5E7BBFAB5E7BBFAB2E2CAD4CD
:101B200020202020203D0000B0B4BCFC313AB5E7B5
:101B3000BBFAB2E2CAD40000B0B4BCFC383AB7B5C4
:101B4000BBD8D6F7B2CBB5A50000000000B599B060
:101B50001F20FEF77BFD1F20FEF7F6FF4FF6FF70FC
:101B6000FFF704F821A16846FFF740FC08216A4608
:101B70000846FEF717FE27A16846FFF737FC6A46BE
:101B800025210820FEF70EFE18A16846FFF72EFC5F
:101B90006A4642210820FEF705FE18211220FEF7B2
:101BA0007BFF4FF496738C225A210820FEF754FFD6
:101BB0004FF47840FEF7DAFF20A16846FFF716FCE5
:101BC0006A4664212820FEF7EDFD4FF6E070FEF72F
:101BD000CDFF1F481FA142686846FFF707FC6A4611
:101BE00082213C20FEF71EFE19B000BD2F3D3D3D79
:101BF0003D3D3D3D3D3D3D3D3D3D3D3D3D3D3D3D15
:101C00003D3D3D3D3D3D3D3D3D3D3D3D3D3D3D3D04
:101C10003D2F00003D2020202020202020202020BB
:101C20002020B2BDBDF8B5E7BBFAB2E2CAD420208D
:101C30002020202020202020203D0000B2BDBDF823
:101C4000B5E7BBFAD7AACBD92FB7D6D6D33A00007F
:101C500008000020253464002DE9F047FEF792FFCC
:101C6000FEF7ECFFFFF772FF4FF47A794846FEF774
:101C7000DBFA2E4C01212046FEF760FCC820FEF75F
:101C8000D3FA01212046FEF75BFC08212848FEF725
:101C900057FC4FF400412748FEF752FC4FF41670F2
:101CA000FEF7C2FA244C6068FEF7DAFFDFF88CA07A
:101CB0000026DFF88C80234F656832E0606885423B
:101CC00007D00546FEF7CCFF1F20FEF7BFFCFFF74D
:101CD0003DFF207810B1012805D008E001215046D1
:101CE000FEF72CFC03E001215046FEF729FC98F892
:101CF00000105A2902D05B2913D109E088F800604E
:101D000060680A2801D90A3800E00A20606008E00B
:101D100088F800606068484501D20A30F6E7C4F8E8
:101D2000049038780028C9D1BDE8F087001402403B
:101D3000000C024000180240080000200008024089
:101D40002400002000000020A1A2000000000000EC
:101D50000000000000000000000000000000000083
:101D600060003000100000000000A1A3000000008F
:101D70000000000000000000000000000000000063
:101D8000300048004800300000000000A1E62000BC
:101D900053F4240C08040804100010001000100074
:101DA0001000100008040804040803F00000B0B29A
:101DB000020001003FFE2004440806000400FFFE6C
:101DC0000820082008400680010006C01838E010EE
:101DD000B0B410401020102013FEFE041040144038
:101DE0001BFE3088D110119010601058118E5604CF
:101DF0002000B0E5101C11E011001100FD0011FCE5
:101E00003984354855485230921012301448108E9B
:101E100011040000B0EF04003FBE04243FA80428D2
:101E20007FA4043208AC10A02FF84888088808A8BE
:101E3000089000800080B1B1044004400440044494
:101E4000044E7C5804600440044004400C4034427A
:101E5000E4424442043E0000B2A82040104010403A
:101E600007FE84445440544017F825082490E49019
:101E7000246028602898310E2604B2C9000001F8B9
:101E80007E000010111008A001007FFE01800340B9
:101E900005200918310EC10401000100B2D921F852
:101EA000210821F8F80023BC22A42AA433BC6040F6
:101EB000A7FE206020D02148224EAC444040B2E230
:101EC000400227C22442845245525552155225528F
:101ED00025522552C552410242824242444A480498
:101EE000B3F60100010021042104210421043FFC78
:101EF0002104010021042104210421043FFC2004C9
:101F00000000B4B4080208021412131221D2409245
:101F1000BF12211221122512221220822082208A31
:101F20001F840000B4B9001001F83F0001007FFEDB
:101F300009200920FFFE092009207FFC0100010083
:101F400001003FFC0000B4F30100010001000100AA
:101F50000100FFFE010002800280024004400420D4
:101F600008101018200E4004B5C0021041202FFCAC
:101F70002080010003F0E21023F0221023F0221051
:101F800023F0221050008FFE0000B5E30100010095
:101F900001F8010001101FF81010101010101FF0B0
:101FA000101001102888244444440000B5F743FC75
:101FB0002244324423F40244E3F4220422F422941F
:101FC00022942AF432942404040408141008B6AFAE
:101FD000002000207E20002000FCFF24102410247C
:101FE000242422244F44FA444084011402080000AF
:101FF000B6C8010000803FFE222022202FFC2220B4
:1020000023E0200027F82210212020C04130460E76
:102010009804B7A202002240223022107FFE240042
:10202000040007E00C200A200A20114020804160B3
:10203000861C1808B7BD020001000080FFFE0200E8
:10204000020003F002100410041008100810101011
:102050002090C0600000B7C5104008600840FEFE38
:10206000208420843D442648242824302410243011
:102070004448448E95040800B7F9200023FE200050
:10208000F9FCA904A904A9FCA800ABFEAA22ABFE96
:10209000BA22222223FE22022000B8BB0200010045
:1020A0007FFE4004BFF800001FF010101FF000007A
:1020B0003FF821083FF821083FF82008B8CB10006E
:1020C00011FC1020FC20102030203BFE3420542036
:1020D0005020902010201020102010201020B9AB8C
:1020E0000000044006400440082008101018220E8A
:1020F000430402000420081011F83F1810100000DB
:10210000BBBB1080108011F8FD10122017F8124888
:102110001A483248DFFE104010A01090110E5604ED
:102120002000BBF20040005000487FFC004000400F
:102130003E40224C22483E30002002540C94730C46
:102140000C040000BCC640202020302020200020AD
:10215000F3FE102010201020102010201220142038
:10216000182010200020BCBC102010201020FDFEE4
:102170001020142019FC3108D088109010601060D5
:102180001090110E56042000BCE0048024C024806E
:1021900024FE254026202430041000003FF8248827
:1021A000248824882488FFFE0000BCFC20202020F6
:1021B000277C392441FE7A24A77C2120F97C252024
:1021C00023FE21202AA03460281E0000BDB909008A
:1021D00008841FFE308050809FFC10801FFC108000
:1021E00010841FFE10002888244466664222BDC762
:1021F000040007F8041008201FFC308450841FFCE2
:10220000108410841FFC1084108420842094408843
:10221000BDDA04200420FFFE0420042000003FF863
:102220000208020802080208022802100200020046
:102230000200BEA9020001087FFC000000001FF0A0
:10224000101010101FF0010009301918310C41084E
:1022500005000200BFAA00007FFE04200420042025
:102260000420FFFE04200420042008200820102061
:10227000202040200000BFC606087888084808488B
:10228000FE0818881C482A48280E48788B880808B9
:102290000808080808080808BFED020001007FFED2
:1022A0004444BFF8044000001FF011101110111039
:1022B000129002840484187C6000C0A910201010C1
:1022C0001010FDFE11001100150019003100D100A1
:1022D000110011001200520024000000C0B30420BD
:1022E00004207FFE042005203FFC11100910092066
:1022F000FFFE054009201118210E41040100C2CA49
:10230000020001007FFE4100222817D00480111036
:10231000224847C40120FFFE010001000100010026
:10232000C4A32090209027FC2090FBF8220873F88B
:102330006A08A3F8A04027FE204020A02098210E84
:102340002604C5A5100011F820483E4840487C48A6
:10235000904811F8FC881088108810881488188814
:1023600013FC0000C6B5080008FE4E20484048FC9B
:10237000FE8400A408A44AA44AA484A408501048D7
:102380002086C3020000C6BD7FFC01002110111889
:1023900009100D2009400100FFFE010001000100AD
:1023A0000100010001000100C6EC20801080FDFE4C
:1023B0002100228823FE3C8824F8248824F82488DD
:1023C00047FE5488890C02040000C7D0100010009A
:1023D00013FC104410441E44F04410441044128472
:1023E000148419041104021404080000C8FD00003C
:1023F00000007FFC00000000000000003FF800002B
:1024000000000000000000007FFE00000000C9CFB7
:1024100000000100010001000100010001F80100BD
:102420000100010001000100010001047FFE000025
:10243000C9E8400021F03110211001100110E20E16
:1024400025F8210821082090209028603090230E44
:102450000C04CAAA000023F8120813F8820843F8F3
:10246000500010A010A024A422A8E2B020A020A018
:102470002FFE2000CAB1001000107C10441047FE4F
:1024800044107C104510449044907C1000100010C3
:10249000001000500020CAB5010000803FFE280453
:1024A000468804800880068004807FFE008001400A
:1024B0000220041018186010CABE00001FF80000A7
:1024C000000000007FFE0100010011201110210812
:1024D000410C8104010005000200CABD00A0009863
:1024E00000907FFC0080008000803E800840084013
:1024F00008400B201C227012200A0004CAE420406D
:102500002040FCA0211843F65400FC0453D412547C
:102510001FD4F25413D4125412541344128CCBAE61
:1025200001000100010801107D2005C005400920BF
:10253000092011101118210EC1040100050002002C
:10254000CBBE00003FFC000400047FE40004000454
:102550003FC4204420443FC4204420040014000809
:102560000000CBF51040182033FE22044400F97C13
:102570001110227C4644FA44027C02443A44E27C34
:1025800002440000CCE1100011F81108FDF8110818
:1025900011F8180037FC50409240127C124016404F
:1025A00015C0587E2000CDA308400C200BFE100063
:1025B00011F8310851F8900017FE140211FC102098
:1025C0001020102010A01040CDA8400027F8209027
:1025D000006007F80448E7F82448244827F824480E
:1025E0002468245050008FFE0000CDCB400027F01F
:1025F000241007F004100410E7F02488245024204D
:1026000025102618240850008FFE0000CEBB0900BC
:102610000CC0104017FC20003410521852109110BA
:1026200011201120102010401FFE10000000CEC20B
:10263000400027F0241007F09410541017F02000E9
:102640002FFCC92449244924492449245FFE400021
:10265000CFC200047FFE01000100010001C0016043
:102660000130012001000100010001000100010012
:102670000000CFD20040F8200BFE08007840484808
:10268000408C4178FBD048200840088809044BFE64
:1026900029041000CFD400001FF010101FF01010FC
:1026A0001FF004400440444824481450146004407F
:1026B000FFFE00000000CFDE0000FBF8920893F858
:1026C000A208A20893F88A808A48AA509220822001
:1026D0008210828E83048200CFF2020004003FFC4D
:1026E0002004200427E4242424242424242427E46C
:1026F00024242004201420080000D0A1010001009F
:102700000100010009400D2019101118210C41068B
:10271000810401000100010005000200D0C2100088
:10272000080E7F7022401440FF7E08480848FF488A
:1027300008482C482A884A8889082A081008D0D0D6
:1027400008001C0031FC400088000C001BFE3020FB
:1027500050209020102010201020102010A0104099
:10276000D0CE00047F86120C121012201208FFCC6B
:102770001218122012441286120C221022204240FB
:102780008080D1E90000F840084048A04890490EF8
:102790004BF07C00048406443548C548041017FEFD
:1027A00008000000D1F9110810881090FDFE1020DB
:1027B000302039FC54205020902013FE102010208F
:1027C000102010201020D2A1101C13E01080124401
:1027D000FD48111015FC1A20102037FED0201222BF
:1027E0001222122253FE2202D2C60C40707C1084A8
:1027F0001508FE50302030D05B20547E9084118824
:1028000012501020104011801600D2DA08000DFC82
:102810000804100810103020504090801100110062
:10282000120012041404140413FC1000D3D001008D
:1028300001007FFE020004000FF0181028104FF076
:10284000881008100FF00810089008700820D3D2E4
:10285000020002000200FFFE04000400080018004D
:102860002FF848088808080808080FF8080800002A
:10287000D4CB400023FC30002000000007FEE080A5
:10288000212021102208247C2FCC2008580087FE0C
:102890000000D4DD08007EFC108028807EFE0888C1
:1028A0000E88F9080A081FF010101FF01010101001
:1028B0001FF00000D5B93FF8200820083FF822207B
:1028C00022202FFC22203FFE2508249C2460442047
:1028D00045188E0E0404D5FD00007FFE00800080A8
:1028E00000800080108010FC10801080108010800C
:1028F0001080FFFE00000000D6B1010001007FFC47
:1029000002001FF0101010101FF010101FF0101018
:102910001FF010101010FFFE0000D6B51040186018
:1029200017FC1040208033F86208A3F8220823F82F
:10293000220823F8220822082FFE2000D6C33FF8E1
:10294000244824483FF801007FFC02001FF01010CB
:102950001FF010101FF010101FF01010FFFED6FA1D
:1029600000203E202220222022FC3E242224222459
:102970003E24222422442744F88401140208000043
:10298000D7F3020003000200FFFE02000200040071
:1029900004000FF808801080108020804080BFFE67
:1029A0000000D7F708800C80090013FE12803488DD
:1029B00050FC90801080108410FE108010801080D9
:1029C00010801080B1B808000FF0082014202240B9
:1029D000418002400C30301EDFF411101FF0111046
:1029E00011101FF01010D7DB1040182013FE220228
:1029F0004800F9FC1000200043FEF82001280124C3
:102A00001A22E42200A00040BACF01000280044054
:102A100008201018202EDFF4000000001FF0101016
:102A2000101010101FF010100000CAD40020402811
:102A30002024302427FE0020E02027E02120211040
:102A40002110210A29CA360620020000B4AB10402A
:102A5000184817FC204020806084AFFE20802108A9
:102A600023FC2008211020A0204020200000B8D006
:102A7000005000483FFC20403F4820482F3029208C
:102A80004F32404A800609082884281667F0000063
:102A9000C6F73E7C224422443E7C01100108FFFC24
:102AA00006C01830E00E3EFC2288228822883EF8BC
:102AB0000000B5E70100010001003FF821082108EE
:102AC0003FF82108210821083FF8210801020102EE
:102AD00000FE0000CAD3200019FC1104FD240524C7
:102AE000092411242924552496541450109010922E
:102AF0001112120E1400BBFA100010F81088FE8894
:102B00001088108838883488548850889108110AB1
:102B1000120A120A14061000B7B5000843FC22007E
:102B2000320023F80208E308229022502420245087
:102B30002888230450008FFC0000BBD800007FFCD5
:102B4000400440044FE448244824482448244824AE
:102B50004FE44004400440047FFC0000D6F702002C
:102B60000180010000083FFC0100010001083FFC5A
:102B700001000100010001047FFE00000000B2CB53
:102B80000440FFFE044004403FF8220811100820D2
:102B900001007FFE038005400930111C610801001F
:102BA000B5A50820063004403FF821083FF8210869
:102BB00021083FF821080100FFFE0100010001008B
:102BC0000100D7AA102010202020FEFC20405040F9
:102BD00091FEFE40108011FC3C08D088105010205F
:102BE00010101010CBD9008040802FFC2080008076
:102BF00007F8E488248827F821A022982C882080D0
:102C000050808FFE0000C3BF100010003FFC20006A
:102C10004FF08A1009100810FFFE111010901010CC
:102C20001FFE001000500020B7D608800C8008401E
:102C3000102010302018400E9FE4042004200420AF
:102C40000420082010A020404000D6D310201020DF
:102C500020203DFC41247D2491241124FDFC1020E2
:102C6000102010201020142018201020D3B20000B3
:102C7000FDFE102011FC212421247DFC6524A524C7
:102C800025FC26403D4024C02130060E1804BCFE21
:102C900010401A401340324023FC6440A4402840B6
:102CA0002FFE204020402040204020402040204057
:102CB000BFE920802080208023F8F88820882088A1
:102CC00020882FFE20803940E1204218020E0404A3
:102CD0000800C5CC020004001FF012101110FFFE06
:102CE00012102110215040209FF81248124812481B
:102CF000FFFE0000BFD8100010201010FDFE1104D0
:102D00001050148C19043000D1FC10201020102019
:102D1000102053FE2000D6C62404340424243FA4EB
:102D2000442404247FA404243FA424A424A424A48D
:102D30002484278405140408D2F4010000803FFC99
:102D4000082004200440FFFE00001FF010101010A7
:102D50001FF0101010101FF01010CAFD082049308D
:102D60002A201C20FF7E1C442B4448C40828FF282E
:102D7000121034100C28324EC0840000D0C50880D8
:102D80000C60184017FE300033F8500093F8100024
:102D900013F812081208120813F812080000BAC536
:102DA0001FF01010101010101FF00000FFFE0800A0
:102DB00008001FF0081000100010011000A00040D3
:102DC000D4B4400027FE2440048085FC550415FC43
:102DD000150425FC2420C4A844A449224A2250A05A
:102DE0004040CEDE00003FFC010001000100010078
:102DF0007FFE018002800280048008801082208291
:102E0000C07E0000CFDF10401850104C204823FC3B
:102E10004840F84013FE20407C48003000221CD27D
:102E2000E30A00060002BAF40000003CFFC0884834
:102E30008A4C8948895088408FFEF840884000407D
:102E40000040004001400080CEFC000007F0F1107F
:102E500091109110929892889288F29094508420C8
:102E6000083008D8130E2C040000B5C6100010005E
:102E700011FE10105410541058109010101018100B
:102E8000241022104010405080200000D1B90000D2
:102E90003FFE20002080208020882FFC208020A062
:102EA0002090209840904080BFFE00000000B2C9F2
:102EB000000001F87E000010111008A001007FFE44
:102EC0000180034005200918310EC10401000100F2
:102ED000BCAF088008401FF830805FF810801FF8F2
:102EE00010801FFC01007FFE03400520191C6108B3
:102EF0000100C8EB0C000600020001000300028084
:102F0000028004400420082008101008200E40040D
:102F100080000000B2A5203C27C02248F95027FEBF
:102F200020E02950324E6FFCA248224823F8224864
:102F30002248A3F84208D6D00100010021083FFC36
:102F4000210821082108210821083FF82108010053
:102F50000100010001000100B3F60100010021049D
:102F60002104210421043FFC210401002104210447
:102F7000210421043FFC20040000C1BF1FF01010F9
:102F80001FF010101FF00000FFFE11101FF01110B5
:102F90001FF001001FF80100FFFE0000B4A5201083
:102FA0003F10211042107F7CC9547F54495449542A
:102FB0007F7C491049144912491E85F20200C3FE64
:102FC0001110111017FEF91013F812081BF832082F
:102FD000D3F8104017FE104010A01098510E260490
:102FE000C6C13FFC200420043FFC241022202FFCFB
:102FF000222022203FFE222022204420442088201C
:103000001020A1E6200053F4240C0804080410004A
:10301000100010001000100010000804080404083C
:1030200003F00000C2BC00003FF000101FF00010D1
:10303000FFFE011011300940058003400D30711C66
:10304000210805000200BDF801104110211037FCD5
:10305000211001100110F7FE1110111012101210A2
:103060001410280047FE0000C1F72080104017FE12
:103070000040808049104BF8100812501250E25066
:10308000225024522452284E2000CAF3040039F062
:1030900020103DF020103FF00000319029503110F9
:1030A00029902152290A318A21060000B1EA100034
:1030B00011FC10001000FC0013FE382034205528AD
:1030C0005124922614221022102010A01040BBB6CA
:1030D00000800080FC8005FE85044A48284010409E
:1030E0001840186024A024904118860E380400006F
:1030F000D3AD40002180367C244404440444E4449D
:1031000024442544265424482040204050008FFE6B
:103110000000B4ED109010903C9021FC40907C9009
:1031200093FE1000FDFC1104110411FC11041504A0
:1031300019FC1104CEF343F822083208220803F8E0
:103140000000E7FC2040204027FE204028A031104E
:10315000220C04060804B2BD0080008008F8088034
:1031600008807FFE008008800888108C6090002016
:1031700000C0070078000000D6D801F03F00010031
:10318000FFFE01001FF011101FF011101FF00100D1
:103190003FF801000100FFFE0000B9E2010021102C
:1031A00019180D10092001047FFE0440044004405A
:1031B0000440084208421042203E4000D5D501FCA0
:1031C0003C442444244424943D0826FC24843C8428
:1031D00024FC0084288824446666C2220000C1C101
:1031E00001007FFC00000FE008200FE000047FFEDC
:1031F000400487C80440044008421042603E00007A
:10320000C8C810801080FFF8109012901990F0D06C
:103210005168122A540A28060110288864CCC44434
:103220008000B1A811FC11041104FD14110815004F
:1032300019FC3184D1481148113011101138114E48
:1032400051842100BEAF14407F40147E7F4861A8A6
:10325000BD1025283D440282FFFE00001FF0000043
:103260001FF010101FF0D7B410A010901098908885
:1032700050805FFE10A010A031205120911012103C
:103280001208140E18041000CCAC010001007FFCE1
:1032900001000280024005200898300601000488E1
:1032A00024842412641243F00000D5F03FF801009A
:1032B0007FFE41045D7001001D7000003FF820009A
:1032C0002FF020003FFC44504620841CD1CC10003D
:1032D00013FE1222122256225AFA5222922212521D
:1032E00012522A8A2B0A4202420283FE0202C5A817
:1032F00040402040208007FE8484550851801344BC
:1033000023582520E5202910311021482186210449
:10331000C5BC000013F81A48124833F82248624826
:10332000A3F8204027FC2444245424FC278424149C
:103330002408CACD0DFC7088105054203858FD86E2
:103340001020382035FC502053FE902010201020F3
:1033500010200000C0E02108111009207FFE03802A
:103360000D603118C1040100FFFE0100028004401D
:103370000830300EC004D0CD00047F841224122403
:10338000FFE41224122422242204411401083FFCE9
:1033900001000100FFFE0000D7A220801040104075
:1033A00007FE804048404840104013FC2040E04069
:1033B0002040204020402FFE2000C7BF000079F8A9
:1033C0000908090879F8404043FC42447A440A4419
:1033D0000BFC084008480844287E13C4C4FA0800BF
:1033E000090011FE120434403250524894441144F2
:1033F0001080000029042892681207F00000BBF733
:103400000100010001003FF80100010001047FFEFE
:10341000010011081108110811081FF81008000018
:10342000B5C41080108020807CFC4504450446040F
:103430007C8444444464442444047C044428401070
:103440000000BBAC200013F8120883C8424847FEB6
:10345000140413F8120823F82208E3F822082208BB
:1034600022282210C2D610201020FE502050208882
:1034700051069284FC88109C16E03880D084108419
:103480001086107C1000000000000000000000000A
:1034900000000000000000007E81A58181BD9981AF
:1034A000817E0000000000007EFFDBFFFFC3E7FF1E
:1034B000FF7E00000000000000006CFEFEFEFE7CAF
:1034C0003810000000000000000010387CFE7C383E
:1034D000100000000000000000183C3CE7E7E7187F
:1034E000183C00000000000000183C7EFFFF7E1822
:1034F000183C00000000000000000000183C3C18D0
:10350000000000000000FFFFFFFFFFFFE7C3C3E76D
:10351000FFFFFFFFFFFF00000000003C6642426625
:103520003C0000000000FFFFFFFFFFC399BDBD99F5
:10353000C3FFFFFFFFFF00001E0E1A3278CCCCCC79
:10354000CC780000000000003C666666663C187E91
:1035500018180000000000003F333F30303030705A
:10356000F0E00000000000007F637F636363636737
:10357000E7E6C00000000000001818DB3CE73CDB79
:103580001818000000000080C0E0F0F8FEF8F0E03D
:10359000C080000000000002060E1E3EFE3E1E0E11
:1035A0000602000000000000183C7E1818187E3C3F
:1035B0001800000000000000666666666666660029
:1035C00066660000000000007FDBDBDB7B1B1B1B53
:1035D0001B1B00000000007CC660386CC6C66C383F
:1035E0000CC67C0000000000000000000000FEFE91
:1035F000FEFE000000000000183C7E1818187E3CFB
:10360000187E000000000000183C7E1818181818DA
:103610001818000000000000181818181818187E54
:103620003C18000000000000000000180CFE0C1800
:1036300000000000000000000000003060FE60306C
:10364000000000000000000000000000C0C0C0FE3C
:103650000000000000000000000000286CFE6C2844
:10366000000000000000000000001038387C7CFEE4
:10367000FE000000000000000000FEFE7C7C3838E8
:10368000100000000000000000000000000000002A
:103690000000000000000000183C3C3C1818180016
:1036A0001818000000000066666624000000000094
:1036B0000000000000000000006C6CFE6C6C6CFEF2
:1036C0006C6C0000000018187CC6C2C07C06068620
:1036D000C67C1818000000000000C2C60C1830603C
:1036E000C686000000000000386C6C3876DCCCCC5C
:1036F000CC76000000000030303060000000000098
:1037000000000000000000000C1830303030303075
:10371000180C00000000000030180C0C0C0C0C0CF5
:103720001830000000000000000000663CFF3C660E
:10373000000000000000000000000018187E1818AB
:103740000000000000000000000000000000001861
:1037500018183000000000000000000000FE00000B
:103760000000000000000000000000000000000059
:103770001818000000000000000002060C1830605D
:10378000C080000000000000386CC6C6D6D6C6C691
:103790006C38000000000000183878181818181845
:1037A000187E0000000000007CC6060C183060C0C7
:1037B000C6FE0000000000007CC606063C060606A9
:1037C000C67C0000000000000C1C3C6CCCFE0C0C05
:1037D0000C1E000000000000FEC0C0C0FC06060673
:1037E000C67C0000000000003860C0C0FCC6C6C631
:1037F000C67C000000000000FEC606060C18303033
:1038000030300000000000007CC6C6C67CC6C6C6BC
:10381000C67C0000000000007CC6C6C67E06060608
:103820000C780000000000000000181800000018CC
:103830001800000000000000000018180000001828
:10384000183000000000000000060C18306030182E
:103850000C060000000000000000007E00007E005A
:103860000000000000000000006030180C060C187A
:1038700030600000000000007CC6C60C181818005C
:103880001818000000000000007CC6C6DEDEDEDC8A
:10389000C07C00000000000010386CC6C6FEC6C622
:1038A000C6C6000000000000FC6666667C666666B0
:1038B00066FC0000000000003C66C2C0C0C0C0C280
:1038C000663C000000000000F86C6666666666668E
:1038D0006CF8000000000000FE66626878686062B4
:1038E00066FE000000000000FE66626878686060A6
:1038F00060F00000000000003C66C2C0C0DEC6C62A
:10390000663A000000000000C6C6C6C6FEC6C6C6AF
:10391000C6C60000000000003C1818181818181837
:10392000183C0000000000001E0C0C0C0C0CCCCC51
:10393000CC78000000000000E666666C78786C6663
:1039400066E6000000000000F06060606060606299
:1039500066FE000000000000C6EEFEFED6C6C6C62B
:10396000C6C6000000000000C6E6F6FEDECEC6C6F3
:10397000C6C60000000000007CC6C6C6C6C6C6C6D5
:10398000C67C000000000000FC6666667C6060602B
:1039900060F00000000000007CC6C6C6C6C6C6D6E1
:1039A000DE7C0C0E00000000FC6666667C6C6666C1
:1039B00066E60000000000007CC6C660380C06C643
:1039C000C67C0000000000007E7E5A1818181818E7
:1039D000183C000000000000C6C6C6C6C6C6C6C663
:1039E000C67C000000000000C6C6C6C6C6C6C66CBF
:1039F0003810000000000000C6C6C6C6D6D6D6FEE7
:103A0000EE6C000000000000C6C66C7C38387C6C90
:103A1000C6C6000000000000666666663C181818FE
:103A2000183C000000000000FEC6860C183060C282
:103A3000C6FE0000000000003C3030303030303036
:103A4000303C0000000000000080C0E070381C0E18
:103A500006020000000000003C0C0C0C0C0C0C0CCE
:103A60000C3C0000000010386CC600000000000094
:103A70000000000000000000000000000000000046
:103A8000000000FF000030301800000000000000BF
:103A90000000000000000000000000780C7CCCCC8E
:103AA000CC76000000000000E06060786C6666661E
:103AB000667C0000000000000000007CC6C0C0C0A2
:103AC000C67C0000000000001C0C0C3C6CCCCCCC74
:103AD000CC760000000000000000007CC6FEC0C0E4
:103AE000C67C000000000000386C6460F06060601C
:103AF00060F000000000000000000076CCCCCCCCD0
:103B0000CC7C0CCC78000000E060606C7666666669
:103B100066E6000000000000181800381818181891
:103B2000183C0000000000000606000E060606060F
:103B3000060666663C000000E06060666C78786CA3
:103B400066E6000000000000381818181818181849
:103B5000183C000000000000000000ECFED6D6D6A5
:103B6000D6C6000000000000000000DC6666666645
:103B700066660000000000000000007CC6C6C6C6E5
:103B8000C67C000000000000000000DC666666667F
:103B9000667C6060F000000000000076CCCCCCCCED
:103BA000CC7C0C0C1E000000000000DC766660601F
:103BB00060F00000000000000000007CC660380CCF
:103BC000C67C000000000000103030FC3030303087
:103BD000361C000000000000000000CCCCCCCCCC97
:103BE000CC76000000000000000000666666666695
:103BF0003C18000000000000000000C6C6D6D6D663
:103C0000FE6C000000000000000000C66C38383870
:103C10006CC6000000000000000000C6C6C6C6C694
:103C2000C67E060CF8000000000000FECC183060D4
:103C3000C6FE0000000000000E18181870181818B2
:103C4000180E0000000000001818181800181818A6
:103C50001818000000000000701818180E18181826
:103C6000187000000000000076DC0000000000007A
:103C70000000000000000000000010386CC6C6C63E
:103C8000FE000000000000003C66C2C0C0C0C2666A
:103C90003C0C067C00000000CC0000CCCCCCCCCC92
:103CA000CC7600000000000C1830007CC6FEC0C0BE
:103CB000C67C000000000010386C00780C7CCCCC76
:103CC000CC76000000000000CC0000780C7CCCCC4E
:103CD000CC76000000000060301800780C7CCCCC62
:103CE000CC760000000000386C3800780C7CCCCC1E
:103CF000CC7600000000000000003C666060663C7E
:103D00000C063C0000000010386C007CC6FEC0C0F1
:103D1000C67C000000000000C600007CC6FEC0C0DB
:103D2000C67C0000000000603018007CC6FEC0C0E9
:103D3000C67C000000000000660000381818181843
:103D4000183C0000000000183C66003818181818CD
:103D5000183C0000000000603018003818181818CF
:103D6000183C0000000000C60010386CC6C6FEC635
:103D7000C6C600000000386C3800386CC6C6FEC6E7
:103D8000C6C60000000018306000FE66607C6060FF
:103D900066FE000000000000000000CC76367ED8F1
:103DA000D86E0000000000003E6CCCCCFECCCCCC29
:103DB000CCCE000000000010386C007CC6C6C6C621
:103DC000C67C000000000000C600007CC6C6C6C657
:103DD000C67C0000000000603018007CC6C6C6C665
:103DE000C67C00000000003078CC00CCCCCCCCCC21
:103DF000CC76000000000060301800CCCCCCCCCCDD
:103E0000CC76000000000000C60000C6C6C6C6C6CC
:103E1000C67E060C780000C6007CC6C6C6C6C6C6EE
:103E2000C67C0000000000C600C6C6C6C6C6C6C620
:103E3000C67C000000000018183C66606060663CAC
:103E400018180000000000386C6460F0606060606A
:103E5000E6FC00000000000066663C187E187E1834
:103E600018180000000000F8CCCCF8C4CCDECCCC94
:103E7000CCC600000000000E1B1818187E18181879
:103E80001818D87000000018306000780C7CCCCC7A
:103E9000CC7600000000000C1830003818181818F4
:103EA000183C0000000000183060007CC6C6C6C682
:103EB000C67C000000000018306000CCCCCCCCCC1C
:103EC000CC7600000000000076DC00DC66666666EA
:103ED00066660000000076DC00C6E6F6FEDECEC6B2
:103EE000C6C600000000003C6C6C3E007E00000076
:103EF00000000000000000386C6C38007C000000FE
:103F00000000000000000000303000303060C0C60B
:103F1000C67C00000000000000000000FEC0C0C021
:103F2000C00000000000000000000000FE060606C1
:103F300006000000000000C0C0C2C6CC183060DC23
:103F4000860C183E000000C0C0C2C6CC183066CE39
:103F50009E3E0606000000001818001818183C3C89
:103F60003C18000000000000000000366CD86C36E1
:103F70000000000000000000000000D86C366CD883
:103F80000000000000001144114411441144114488
:103F900011441144114455AA55AA55AA55AA55AA27
:103FA00055AA55AA55AADD77DD77DD77DD77DD7770
:103FB000DD77DD77DD771818181818181818181815
:103FC00018181818181818181818181818F8181891
:103FD0001818181818181818181818F818F81818A1
:103FE00018181818181836363636363636F6363665
:103FF00036363636363600000000000000FE363613
:104000003636363636360000000000F818F8181834
:104010001818181818183636363636F606F63636A4
:104020003636363636363636363636363636363630
:104030003636363636360000000000FE06F63636D6
:104040003636363636363636363636F606FE000024
:1040500000000000000036363636363636FE0000E8
:104060000000000000001818181818F818F80000D0
:1040700000000000000000000000000000F8181818
:10408000181818181818181818181818181F0000D9
:1040900000000000000018181818181818FF000079
:1040A00000000000000000000000000000FF1818E1
:1040B000181818181818181818181818181F181879
:1040C00018181818181800000000000000FF000061
:1040D00000000000000018181818181818FF181809
:1040E00018181818181818181818181F181F181842
:1040F0001818181818183636363636363637363613
:10410000363636363636363636363637303F0000B7
:1041100000000000000000000000003F303736368D
:104120003636363636363636363636F700FF000047
:104130000000000000000000000000FF00F736361D
:104140003636363636363636363636373037363613
:104150003636363636360000000000FF00FF00001D
:104160000000000000003636363636F700F73636E7
:104170003636363636361818181818FF00FF000085
:1041800000000000000036363636363636FF0000B6
:104190000000000000000000000000FF00FF1818F1
:1041A00018181818181800000000000000FF363614
:1041B000363636363636363636363636363F000002
:1041C00000000000000018181818181F181F000021
:1041D00000000000000000000000001F181F181859
:1041E000181818181818000000000000003F363694
:1041F00036363636363636363636363636FF363696
:104200003636363636361818181818FF18FF1818AC
:1042100018181818181818181818181818F800006E
:10422000000000000000000000000000001F18183F
:10423000181818181818FFFFFFFFFFFFFFFFFFFFF8
:10424000FFFFFFFFFFFF00000000000000FFFFFF77
:10425000FFFFFFFFFFFFF0F0F0F0F0F0F0F0F0F004
:10426000F0F0F0F0F0F00F0F0F0F0F0F0F0F0F0F18
:104270000F0F0F0F0F0FFFFFFFFFFFFFFF000000EB
:10428000000000000000000000000076DCD8D8D854
:10429000DC7600000000000078CCCCCCD8CCC6C6C0
:1042A000C6CC000000000000FEC6C6C0C0C0C0C032
:1042B000C0C00000000000000000FE6C6C6C6C6C64
:1042C0006C6C00000000000000FEC660301830601A
:1042D000C6FE0000000000000000007ED8D8D8D83C
:1042E000D870000000000000000066666666667C0C
:1042F0006060C00000000000000076DC181818188C
:104300001818000000000000007E183C6666663C3D
:10431000187E00000000000000386CC6C6FEC6C64D
:104320006C38000000000000386CC6C6C66C6C6CAF
:104330006CEE0000000000001E30180C3E66666641
:10434000663C0000000000000000007EDBDBDB7E3E
:1043500000000000000000000003067EDBDBF37EAF
:1043600060C00000000000001C3060607C60606085
:10437000301C000000000000007CC6C6C6C6C6C6D1
:10438000C6C60000000000000000FE0000FE0000A5
:10439000FE00000000000000000018187E18180041
:1043A00000FF0000000000000030180C060C183060
:1043B000007E000000000000000C18306030180C77
:1043C000007E0000000000000E1B1B1818181818B3
:1043D0001818181818181818181818181818D8D8DD
:1043E000D87000000000000000001818007E0018BF
:1043F000180000000000000000000076DC0076DC01
:1044000000000000000000386C6C38000000000064
:10441000000000000000000000000000001818006C
:104420000000000000000000000000000000180074
:10443000000000000000000F0C0C0C0C0CEC6C6C6D
:104440003C1C0000000000D86C6C6C6C6C00000020
:104450000000000000000070D83060C8F8000000C4
:10446000000000000000000000007C7C7C7C7C7C64
:104470007C000000000000000000000000000000C0
:10448000000000000000000000000000000000002C
:10449000000000000000000000000000000000001C
:1044A000000000000000000000000000000000000C
:1044B00000000000000000000000000000000000FC
:1044C00000000000000000000000000000000000EC
:1044D00000000000000000000000000000000000DC
:1044E00000000000000000000000000000000000CC
:1044F00000000000000000000000000000000000BC
:10450000000000000000000000001FFF80001FFFEF
:1045100080001FFF80001FFF80001FFF80001FFF23
:1045200080001FFF8000000000000000000000006D
:10453000000000000000000000000000000000007B
:10454000000000000000000000000000000000006B
:10455000000000000000000000000000000000005B
:10456000000000000000000000000000000000004B
:10457000000000000000000000000000000000003B
:10458000000000000000000000000000000000002B
:10459000000000000000000000000000000000001B
:1045A000000000000000000000000000000000000B
:1045B00000000000000000000000000000000000FB
:1045C00000000000000000000000000000000000EB
:1045D00000000000000000000000000000000000DB
:1045E00000000000000000000000000000000000CB
:1045F00000000000000000000000000000000000BB
:1046000000000000000000000000000000000000AA
:10461000000000000000000000000000000000009A
:10462000000000000000000000000000000000008A
:1046300000000FF000000FF000000FF000000FF07E
:1046400000000FF000000FF000000FF000000FF06E
:10465000000000000000000000000000000000005A
:10466000000000000000000000000000000000004A
:10467000000000000000000000000000000000003A
:10468000000000000000000000000000000000002A
:10469000000000000000000000000000000000001A
:1046A000000000000000000000000000000000000A
:1046B000000000FE000000FE000000FE000000FE02
:1046C000000001FC000001FC000001FC000001FCF6
:1046D000000001F8000003F8000003F8000003F8F0
:1046E000000003F8000007F0000007F0000007F0EA
:1046F000000007F0000007E000000FE000000FE0FE
:1047000000000FE000000FE000001FC000001FC00D
:1047100000001FC000001FC000001F8000003F807D
:1047200000003F8000003F8000003F8000007F00CD
:1047300000007F0000007F0000007F000000FE00FE
:104740000000FE000000FE000000FE000000FE0071
:104750000000000000000000000000000000000059
:104760000000000000000000000000000000000049
:104770000000000000000000000000000000000039
:104780000000000000000000000000000000000029
:104790000000000000000000000000000000000019
:1047A0000000000000000000000000000000000009
:1047B0000000003FF00000FFFC0001FFFE0003FFCF
:1047C000FF0007FFFF8007FFFF800FFFFFC00FFC08
:1047D000FFC01FF03FE01FF03FE01FE01FE03FE0A1
:1047E0001FF03FE01FF03FE01FF03FE01FF03FE011
:1047F0001FF03FC00FF03FC00FF03FC00FF03FC0B1
:104800000FF03FC00FF03FC00FF03FC00FF03FC0B0
:104810000FF03FC00FF03FE01FF03FE01FF03FE020
:104820001FF03FE01FF03FE01FF01FE01FE01FF010
:104830003FE01FF03FE01FFCFFC00FFFFFC00FFF76
:10484000FF8007FFFF8003FFFF0001FFFE0000FF66
:10485000FC00003FF000000000000000000000002D
:104860000000000000000000000000000000000048
:104870000000000000000000000000000000000038
:104880000000000000000000000000000000000028
:104890000000000000000000000000000000000018
:1048A0000000000000000000000000000000000008
:1048B00000000001FC000001FC000003FC000007F8
:1048C000FC00000FFC00001FFC00003FFC0000FF8C
:1048D000FC0001FFFC000FFFFC000FFFFC000FFFBE
:1048E000FC000FFBFC000FF3FC000FE3FC000FC308
:1048F000FC000F03FC000C03FC000003FC000003A1
:10490000FC000003FC000003FC000003FC000003AB
:10491000FC000003FC000003FC000003FC0000039B
:10492000FC000003FC000003FC000003FC0000038B
:10493000FC000003FC000003FC000003FC0000037B
:10494000FC000003FC000003FC000003FC0000036B
:10495000FC0000000000000000000000000000005B
:104960000000000000000000000000000000000047
:104970000000000000000000000000000000000037
:104980000000000000000000000000000000000027
:104990000000000000000000000000000000000017
:1049A0000000000000000000000000000000000007
:1049B0000000003FF80000FFFE0001FFFF8003FF42
:1049C000FFC007FFFFC00FFFFFE00FFFFFF00FFE6C
:1049D0007FF01FF83FF01FF01FF01FF01FF01FF0D7
:1049E0000FF01FE00FF000001FF000001FF00000AC
:1049F0001FF000003FE000003FE000007FC000002B
:104A0000FF800001FF800003FF000007FE00000F91
:104A1000FC00001FF800003FF000007FE00000FFF6
:104A2000C00001FF000003FE000007FC000007FCBF
:104A300000000FFFFFF01FFFFFF01FFFFFF01FFF41
:104A4000FFF03FFFFFF03FFFFFF03FFFFFF03FFFB2
:104A5000FFF0000000000000000000000000000067
:104A60000000000000000000000000000000000046
:104A70000000000000000000000000000000000036
:104A80000000000000000000000000000000000026
:104A90000000000000000000000000000000000016
:104AA0000000000000000000000000000000000006
:104AB0000000003FF00000FFF80001FFFE0003FFD0
:104AC000FF0007FFFF000FFFFF800FFFFFC01FFC6D
:104AD000FFC01FF87FC01FF07FC01FF03FC007E07E
:104AE0003FC000007FC000007FC000007F80000149
:104AF000FF800007FF000007FE000007FC00000722
:104B0000FE000007FF800007FFC000067FE00000F6
:104B10003FE000001FF000001FF000000FF0000059
:104B20000FF03FC00FF03FE01FF03FE01FF03FE00D
:104B30001FF03FF03FF01FFCFFE01FFFFFE00FFF03
:104B4000FFC007FFFF8007FFFF8003FFFE0000FF9D
:104B5000FC00003FF000000000000000000000002A
:104B60000000000000000000000000000000000045
:104B70000000000000000000000000000000000035
:104B80000000000000000000000000000000000025
:104B90000000000000000000000000000000000015
:104BA0000000000000000000000000000000000005
:104BB00000000000000000007F8000007F800000F7
:104BC000FF800001FF800003FF800003FF800007DB
:104BD000FF80000FFF80000FFF80001FFF80003F5D
:104BE000FF80007FFF80007FFF8000FF7F8001FE4D
:104BF0007F8001FE7F8003FC7F8007F87F800FF8B5
:104C00007F800FF07F801FE07F803FC07F803FC0AC
:104C10007F807F807F807FFFFFFC7FFFFFFC7FFF27
:104C2000FFFC7FFFFFFC7FFFFFFC7FFFFFFC7FFFA0
:104C3000FFFC00007F8000007F8000007F8000007C
:104C40007F8000007F8000007F8000007F80000068
:104C50007F80000000000000000000000000000055
:104C60000000000000000000000000000000000044
:104C70000000000000000000000000000000000034
:104C80000000000000000000000000000000000024
:104C90000000000000000000000000000000000014
:104CA0000000000000000000000000000000000004
:104CB00000000000000001FFFFE003FFFFE003FF32
:104CC000FFE003FFFFE003FFFFE003FFFFE007FF5C
:104CD000FFE007FFFFE007FC000007FC000007F80B
:104CE000000007F800000FF800000FFFFC000FFFA6
:104CF000FF000FFFFF800FFFFFC01FFFFFE01FFF40
:104D0000FFE01FFFFFF01FFC7FF01FF01FF81FE008
:104D10000FF800000FF800000FF8000007F800007F
:104D200007F83FC007F83FE00FF83FE00FF83FF00B
:104D30000FF83FF81FF01FFC7FF01FFFFFE00FFF91
:104D4000FFE007FFFFC007FFFF8001FFFF0000FF3C
:104D5000FE00003FF800000000000000000000001E
:104D60000000000000000000000000000000000043
:104D70000000000000000000000000000000000033
:104D80000000000000000000000000000000000023
:104D90000000000000000000000000000000000013
:104DA0000000000000000000000000000000000003
:104DB0000000001FF800007FFE0000FFFF0001FF61
:104DC000FF8003FFFF8007FFFFC00FFFFFC00FFC46
:104DD000FFE01FF03FE01FE03FE01FE01FE01FE0AB
:104DE00000003FC000003FC000003FCFF8003FDFA1
:104DF000FE003FFFFF003FFFFF803FFFFFC03FFF80
:104E0000FFC03FFFFFE03FFCFFE03FF03FF03FE02F
:104E10001FF03FE01FF03FE01FF03FC00FF03FC02A
:104E20000FF03FC00FF03FE01FF01FE01FF01FF03A
:104E30001FF01FF03FF00FFCFFE00FFFFFE007FF48
:104E4000FFC003FFFFC003FFFF8001FFFF00007FE3
:104E5000FC00001FF0000000000000000000000047
:104E60000000000000000000000000000000000042
:104E70000000000000000000000000000000000032
:104E80000000000000000000000000000000000022
:104E90000000000000000000000000000000000012
:104EA0000000000000000000000000000000000002
:104EB0000000000000003FFFFFF03FFFFFF03FFF5A
:104EC000FFF03FFFFFF03FFFFFF03FFFFFF03FFF2E
:104ED000FFF03FFFFFE000001FC000003FC00000E8
:104EE0007F800000FF000000FE000001FE000003C4
:104EF000FC000003FC000007F8000007F800000FAA
:104F0000F000000FF000001FE000001FE000003F75
:104F1000E000003FC000007FC000007FC000007FB5
:104F2000800000FF800000FF800000FF800000FF85
:104F3000000001FF000001FF000001FF000001FF71
:104F4000000001FF000001FE000001FE000001FE64
:104F50000000000000000000000000000000000051
:104F60000000000000000000000000000000000041
:104F70000000000000000000000000000000000031
:104F80000000000000000000000000000000000021
:104F90000000000000000000000000000000000011
:104FA0000000000000000000000000000000000001
:104FB0000000007FF80001FFFE0003FFFF0007FF75
:104FC000FF800FFFFFC00FFFFFC01FFCFFE01FF0BF
:104FD0003FE01FF03FE01FF03FE01FE01FE01FE059
:104FE0001FE01FF03FE01FF03FE00FF03FC00FFC5D
:104FF000FFC007FFFF8003FFFF0001FFFC0001FF70
:10500000FE0007FFFF800FFFFFC00FFCFFE01FF057
:105010003FE03FE01FF03FE01FF03FE01FF03FC0E8
:105020000FF03FC00FF03FC00FF03FE01FF03FE038
:105030001FF03FE01FF03FF03FF01FFCFFE01FFFBD
:10504000FFE00FFFFFC007FFFF8003FFFF0000FF2F
:10505000FE00003FF800000000000000000000001B
:105060000000000000000000000000000000000040
:105070000000000000000000000000000000000030
:105080000000000000000000000000000000000020
:105090000000000000000000000000000000000010
:1050A0000000000000000000000000000000000000
:1050B0000000003FE00000FFF80003FFFE0007FFD4
:1050C000FF000FFFFF800FFFFF801FFFFFC01FFCCF
:1050D000FFC03FF03FE03FE03FE03FE01FE03FE048
:1050E0001FF03FC00FF03FC00FF03FC00FF03FE098
:1050F0001FF03FE01FF03FE01FF03FF03FF01FFCCC
:10510000FFF01FFFFFF00FFFFFF00FFFFFF007FFA3
:10511000FFF003FFFFF001FFEFF0007FCFF0000092
:105120000FF000000FF000001FE01FE01FE01FF075
:105130001FE01FF03FE01FFCFFC00FFFFFC00FFF8D
:10514000FF8007FFFF0007FFFE0003FFFC0001FFD9
:10515000F800007FE00000000000000000000000F8
:10516000000000000000000000000000000000003F
:10517000000000000000000000000000000000002F
:10518000000000000000FFFFFFFFFFFFFFFFFFFF29
:10519000FFFFFFFFFFFFFFFFFFFFFFFFFFFFFFFF1F
:1051A000FFFFFFFFFFFFFFFFFFFFFFFF7EE7BCBE2C
:1051B0005BB65AAE5BAE5BB69CBE3DD7BFF7FFFF9A
:1051C000FFFFFFFFFFFFFFFFFFFFFFFFFFFFFFFFEF
:1051D000FFFFFFFFFFFFFFFFFFFFFFFFFFFFFFFFDF
:1051E000FFFFFFFFFFFFFFFFFFFFFFFFFFFFFFFFCF
:1051F000FFFFFFFFFFFFFFFFFFFFFFFFFFFFFFFFBF
:10520000FFFFFFFFFFFFFFFFFFFFFFFFFFFFFFFFAE
:10521000FFFFFFFFFFFFFFFFFFFFFFFFFFFFFFFF9E
:10522000FFFFFFFFFFFFFFFFFFFFFFFFFFFFFFFF8E
:10523000FFFFFFFFBFF79BB6387D554CD42B732380
:105240007323731B531B731B7223B32B1444F76C10
:105250003AA67EE7FFFFFFFFFFFFFFFFFFFFFFFF15
:10526000FFFFFFFFFFFFFFFFFFFFFFFFFFFFFFFF4E
:10527000FFFFFFFFFFFFFFFFFFFFFFFFFFFFFFFF3E
:10528000FFFFFFFFFFFFFFFFFFFFFFFFFFFFFFFF2E
:10529000FFFFFFFFFFFFFFFFFFFFFFFFFFFFFFFF1E
:1052A000FFFFFFFFFFFFFFFFFFFFFFFFFFFFFFFF0E
:1052B000FFFFFFFFFFFFFFFFFFFFFFFFFFFFFFFFFE
:1052C0009EEFB99514447223531B9323932B932B76
:1052D000B32BB32BB32BB32BB42B932B932353238D
:1052E000531BD43337753DD7FFFFFFFFFFFFFFFF91
:1052F000FFFFFFFFFFFFFFFFFFFFFFFFFFFFFFFFBE
:10530000FFFFFFFFFFFFFFFFFFFFFFFFFFFFFFFFAD
:10531000FFFFFFFFFFFFFFFFFFFFFFFFFFFFFFFF9D
:10532000FFFFFFFFFFFFFFFFFFFFFFFFFFFFFFFF8D
:10533000FFFFFFFFFFFFFFFFFFFFFFFFFFFFFFFF7D
:10534000FFFFFFFFFFFFFFFFFFFFFFFFDFFF1AA6CB
:10535000D43B521B73237323531B731B531B721BAE
:10536000731B531B531B73239323B42BB32B932B0C
:10537000B32B9323721B932B587D7EEFFFFFFFFF10
:10538000FFFFFFFFFFFFFFFFFFFFFFFFFFFFFFFF2D
:10539000FFFFFFFFFFFFFFFFFFFFFFFFFFFFFFFF1D
:1053A000FFFFFFFFFFFFFFFFFFFFFFFFFFFFFFFF0D
:1053B000FFFFFFFFFFFFFFFFFFFFFFFFFFFFFFFFFD
:1053C000FFFFFFFFFFFFFFFFFFFFFFFFFFFFFFFFED
:1053D000FFFFFFFFFFFFFFFFFFFF5DDF965C521B3C
:1053E0007323531B93233444176D988D3AA67BB6D1
:1053F0005BAEFA9D587D965CD433731B7323B32B3D
:10540000B32BB32BB42B932B531BF43B9BBEFFFF4F
:10541000FFFFFFFFFFFFFFFFFFFFFFFFFFFFFFFF9C
:10542000FFFFFFFFFFFFFFFFFFFFFFFFFFFFFFFF8C
:10543000FFFFFFFFFFFFFFFFFFFFFFFFFFFFFFFF7C
:10544000FFFFFFFFFFFFFFFFFFFFFFFFFFFFFFFF6C
:10545000FFFFFFFFFFFFFFFFFFFFFFFFFFFFFFFF5C
:10546000FFFFFFFFFFFFFFFFBCC6D433521B531BE0
:10547000D433587DFDCEDFF7FFFFFFFFFFFFFFFFB7
:10548000FFFFFFFFFFFFFFFF7EE73AAE9654732357
:105490007323932BB32BB32BB32B73237323D99584
:1054A000FFFFFFFFFFFFFFFFFFFFFFFFFFFFFFFF0C
:1054B000FFFFFFFFFFFFFFFFFFFFFFFFFFFFFFFFFC
:1054C000FFFFFFFFFFFFFFFFFFFFFFFFFFFFFFFFEC
:1054D000FFFFFFFFFFFFFFFFFFFFFFFFFFFFFFFFDC
:1054E000FFFFFFFFFFFFFFFFFFFFFFFFFFFFFFFFCC
:1054F000FFFFFFFFFFFF9BBEB32B531B932B788552
:105500007EE7FFFFFFFFFFFFFFFFFFFFFFFFFFFF44
:10551000FFFFFFFFFFFFFFFFFFFFFFFFFFFF9CBE3F
:10552000554C531B932BB323B32B932B9323521B19
:105530009885FFFFFFFFFFFFFFFFFFFFFFFFFFFF5C
:10554000FFFFFFFFFFFFFFFFFFFFFFFFFFFFFFFF6B
:10555000FFFFFFFFFFFFFFFFFFFFFFFFFFFFFFFF5B
:10556000FFFFFFFFFFFFFFFFFFFFFFFFFFFFFFFF4B
:10557000FFFFFFFFFFFFFFFFFFFFFFFFFFFFFFFF3B
:10558000FFFFFFFFDCC6B32B321B554CFCCEFFFFE9
:10559000FFFFFFFFFFFFFFFFFFFFFFFFFFFFFFFF1B
:1055A000FFFFFFFFFFFFFFFFFFFFFFFFFFFFFFFF0B
:1055B000DFF7998D73237323B32BB32B932BB42372
:1055C000521BB98DFFFFFFFFFFFFFFFFFFFFFFFF34
:1055D000FFFFFFFFFFFFFFFFFFFFFFFFFFFFFFFFDB
:1055E000FFFFFFFFFFFFFFFFFFFFFFFFFFFFFFFFCB
:1055F000FFFFFFFFFFFFFFFFFFFFFFFFFFFFFFFFBB
:10560000FFFFFFFFFFFFFFFFFFFFFFFFFFFFFFFFAA
:10561000FFFF5EDFF4333213D764BFEFFFFFFFFFFE
:10562000FFFFFFFFFFFFFFFFFFFFFFFFFFFFFFFF8A
:10563000FFFFFFFFFFFFFFFFFFFFFFFFFFFFFFFF7A
:10564000FFFFFFFF7BB6B42B7323B32BB32BB32B1E
:10565000932B731B5BB6FFFFFFFFFFFFFFFFFFFFF7
:10566000FFFFFFFFFFFFFFFFFFFFFFFFFFFFFFFF4A
:10567000FFFFFFFFFFFFFFFFFFFFFFFFFFFFFFFF3A
:10568000FFFFFFFFFFFFFFFFFFFFFFFFFFFFFFFF2A
:10569000FFFFFFFFFFFFFFFFFFFFFFFFFFFFFFFF1A
:1056A000FFFFB65C120BD764DFF7FFFFFFFFFFFFC2
:1056B000FFFFFFFFFFFFFFFFFFFFFFFFFFFFFFFFFA
:1056C000FFFFFFFFFFFFFFFFFFFFFFFFFFFFFFFFEA
:1056D000FFFFFFFFFFFFBCBE932B9323932BB32B46
:1056E000B32B9323D4335EDFFFFFFFFFFFFFFFFFEA
:1056F000FFFFFFFFFFFFFFFFFFFFFFFFFFFFFFFFBA
:10570000FFFFFFFFFFFFFFFFFFFFFFFFFFFFFFFFA9
:10571000FFFFFFFFFFFFFFFFFFFFFFFFFFFFFFFF99
:10572000FFFFFFFFFFFFFFFFFFFFFFFFFFFFFFFF89
:105730001AA612137654BFEFFFFFFFFFFFFFFFFF14
:10574000FFFFFFFFFFFFFFFFFFFFFFFFFFFFFFFF69
:10575000FFFFFFFFFFFFFFFFFFFFFFFFFFFFFFFF59
:10576000FFFFFFFFFFFFFFFF5AAE721B932BB32B10
:10577000B323B32B531BF764FFFFFFFFFFFFFFFFB4
:10578000FFFFFFFFFFFFFFFFFFFFFFFFFFFFFFFF29
:10579000FFFFFFFFFFFFFFFFFFFFFFFFFFFFFFFF19
:1057A000FFFFFFFFFFFFFFFFFFFFFFFFFFFFFFFF09
:1057B000FFFFFFFFFFFFFFFFFFFFFFFFFFFF9EEF6A
:1057C000F433B32B3DDFFFFFFFFFFFFFFFFFFFFFC2
:1057D000FFFFFFFFFFFFFFFFFFFFFFFFFFFFFFFFD9
:1057E000FFFFFFFFFFFFFFFFFFFFFFFFFFFFFFFFC9
:1057F000FFFFFFFFFFFFFFFFFFFF587D3213521B2C
:10580000531B531B721B12137BB6FFFFFFFFFFFFDF
:10581000FFFFFFFFFFFFFFFFFFFFFFFFFFFFFFFF98
:10582000FFFFFFFFFFFFFFFFFFFFFFFFFFFFFFFF88
:10583000FFFFFFFFFFFFFFFFFFFFFFFFFFFFFFFF78
:10584000FFFFFFFFFFFFFFFFFFFFFFFFFFFFF99DD0
:10585000120BFA9DFFFFFFFFFFFFFFFFFFFFFFFFA0
:10586000FFFFFFFFFFFFFFFFFFFFFFFFFFFFFFFF48
:10587000FFFFFFFFFFFFFFFFFFFFFFFFFFFFFFFF38
:10588000FFFFFFFFFFFFFFFFFFFFBFF7FA9DDA9566
:10589000FA95B98DB98578857BB6FFFFFFFFFFFFCD
:1058A000FFFFFFFFFFFFFFFFFFFFFFFFFFFFFFFF08
:1058B000FFFFFFFFFFFFFFFFFFFFFFFFFFFFFFFFF8
:1058C000FFFFFFFFFFFFFFFFFFFFFFFFFFFFFFFFE8
:1058D000FFFFFFFFFFFFFFFFFFFFFFFFFFFF35445D
:1058E0001444BFF7FFFFFFFFFFFFFFFFFFFFFFFFB6
:1058F000FFFFFFFFFFFFFFFFDFFF59CE38C638C6AF
:1059000059CE38C638C639C638C638C639C638C67C
:1059100058CEDFFFFFFFFFFF5DEF58C679CE79CE8F
:1059200058CE1CE7FFFFFFFF7DEF38C638C639CEE3
:1059300039C638C638C638C638C638C638C638C676
:1059400038C638C67DEFFFFFDFFF79CE38C638C6D0
:1059500038C638C638C638C679CEFBDE9EF7FFFF9C
:10596000FFFFFFFFFFFFFFFFFFFFFFFFDCC632135C
:10597000FA9DFFFFFFFFFFFFFFFFFFFFFFFFFFFF9E
:10598000FFFFFFFFFFFFFFFFD7BD0000000000008B
:105990000000000000000000000000000000000007
:1059A0006529DFF7FFFFFFFFF07B0000000000002C
:1059B00000007194FFFFFFFF7194000000000000E1
:1059C00000000000000000000000000000000000D7
:1059D000000020009AD6FFFF59CE200000000000F2
:1059E0000000000000000000000061082421CF7BBF
:1059F0009EF7FFFFFFFFFFFFFFFFFFFF7885932369
:105A00007EE7FFFFFFFFFFFFFFFFFFFFFFFFFFFF3F
:105A1000FFFFFFFFFFFFFFFFCF7B00000000000044
:105A20000000000000000000000000000000000076
:105A30006D6BFFFFFFFFFFFF073A00000000000053
:105A400020009AD6FFFFFFFF694A00000000000017
:105A50000000000000000000000000000000000046
:105A60000000C739FFFFFFFF718C0000000000003D
:105A70000000000000000000000000000000000026
:105A8000694AFFFFFFFFFFFFFFFFFFFF754C7654E2
:105A9000FFFFFFFFFFFFFFFFFFFFFFFFFFFFFFFF16
:105AA000FFFFFFFFFFFFFFFFC739000000000000FE
:105AB00000000000000000000000000000000000E6
:105AC00096B5FFFFFFFFFBDE61080000000000004D
:105AD000A631DFFFFFFF1CE76108000000000000A7
