:020000040800F2
:100000005004002099010008B3020008AF02000864
:10001000B10200080D0200081D06000800000000E3
:100020000000000000000000000000005104000873
:100030000F02000800000000B5020008ED040008EF
:10004000B3010008B3010008B3010008B3010008C0
:10005000B3010008B3010008B3010008B3010008B0
:10006000B3010008B3010008B3010008B3010008A0
:10007000B3010008B3010008B3010008B301000890
:10008000B3010008B3010008B3010008B301000880
:10009000B3010008B3010008B3010008B301000870
:1000A000B3010008B3010008B3010008B301000860
:1000B000B3010008B3010008B3010008B301000850
:1000C000B3010008B3010008B3010008B301000840
:1000D000B3010008B3010008B3010008B301000830
:1000E000B3010008B3010008B3010008B301000820
:1000F000B3010008B3010008B3010008B301000810
:10010000B3010008B3010008B3010008B3010008FF
:10011000B3010008B3010008B3010008B3010008EF
:10012000B3010008B3010008B3010008B3010008DF
:10013000B3010008B3010008B3010008B3010008CF
:10014000B3010008B3010008B3010008B3010008BF
:10015000B3010008B3010008B3010008B3010008AF
:10016000B3010008B3010008B3010008B30100089F
:10017000B3010008B3010008B3010008B30100088F
:10018000B3010008DFF80CD000F02EF8004800475B
:10019000CD0A000850040020064880470648004762
:1001A000FEE7FEE7FEE7FEE7FEE7FEE7FEE7FEE727
:1001B000FEE7FEE7F10400088501000830B50B46B4
:1001C000014600202022012409E021FA02F59D4287
:1001D00005D303FA02F5491B04FA02F52844151E5B
:1001E000A2F10102F1DC30BD064C074D06E0E068EB
:1001F00040F0010394E8070098471034AC42F6D36E
:10020000FFF7C4FF940B0008B40B0008FEE770472B
:10021000F0B50022012303250E6803FA02F42640FC
:10022000A64230D10768540005FA04F6B7430760C8
:100230000F79D0F800C0A74047EA0C0707600F7994
:10024000012F01D0022F12D18768B74387604E7902
:100250008768A6403E438660466803FA02F7BE43BD
:10026000466046688F799740BFB23E434660C66895
:10027000570005FA07FC26EA0C06C660CE79A640B0
:10028000C4682643C660521C102AC5D3F0BD4B0774
:10029000DB0E9A40C90810B500EB8100016A0F24FB
:1002A0009C40A1430162016A1143016210BDFEE757
:1002B000FEE7704770470000054A0029D2F8301861
:1002C00001D0014300E08143C2F8301870470000BC
:1002D00000300240054A0029D2F8441801D00143F9
:1002E00000E08143C2F8441870470000003002402B
:1002F00030B52549D1F8082812F00C03234A04D060
:10030000234D042B03D0082B22D0026000E00560AF
:1003100001F608010A681F4B02F0F0024FEA1212C0
:100320009C5C026822FA04F242600C6804F4E05417
:100330004FEA94241C5D22FA04F48460096801F4F5
:1003400060414FEA5131595C22FA01F2C26030BD7E
:10035000D1F80438C3F38054D1F8043803F03F03D4
:1003600014B1B5FBF3F201E0B2FBF3F2D1F80438BB
:10037000C3F388135A43D1F80438C3F301435B1C19
:100380005B00B2FBF3F2C0E7003002400024F4004F
:1003900040787D01280000202DE9FC418846044674
:1003A00029492948091D50F8240051F82410084310
:1003B0000121FFF781FF2CB923480121001F0068AC
:1003C000FFF788FF2048214E1A38025D801E015D2C
:1003D00056F82400FFF75BFF1B48371D1938025DF4
:1003E000801E015D57F82400FFF751FF00208DF8B3
:1003F000060001208DF807001348022512388DF8F9
:10040000045030F8140000908DF8055056F8240080
:100410006946FFF7FDFE0C488DF804501038694618
:1004200030F81400009057F82400FFF7F1FE351F54
:10043000414655F8240000F091F855F824000121B8
:1004400000F07AF8BDE8FC816C0B00080400002085
:100450007047000023480021D0F8002842F4803281
:10046000C0F800284FF4A063D0F8002801F1010182
:1004700012F4003F01D19942F6D1D0F80018890357
:100480002ED500F5006081688160816841F40041EB
:100490008160816841F4A051816013494160016825
:1004A00041F080710160A0F5006000BFD0F8001835
:1004B0008901FBD540F20371C0F8001CD0F8081880
:1004C00021F00301C0F80818D0F8081841F0020123
:1004D000C0F80818D0F80818C1F381010229F9D131
:1004E0007047000000300240193C40057047000092
:1004F0000E4810B5016841F0010101604FF00001A4
:10050000816002680A4B02EA03020260094A426003
:10051000026822F480220260C160FFF79BFF4FF067
:10052000E0214FF00060C1F8080D10BD0038024016
:10053000FFFFF6FE103000240029818902D041F42B
:10054000005101E021F400518181704702460020F2
:1005500012880A4200D00120704700007FB504468F
:10056000008A0D4620F44051E88808432082A08983
:1005700041F20C618843A9882A8911436A890243A0
:100580001143A181A08A20F44071A8890843A08268
:100590006846FFF7ADFE1D48844202D01C488442E5
:1005A00001D1039800E00298A1890904002900EB19
:1005B000C00101EB0010296802DA4FEA410101E0B5
:1005C0004FEA8101B0FBF1F06422B0FBF2F14FEA97
:1005D00001114FEA11136FF018056B4300EB830014
:1005E000A3891D044FF0320306D503EBC000B0FB16
:1005F000F2F000F0070005E003EB0010B0FBF2F0B2
:1006000000F00F00084320817FBD00000010014072
:1006100000140140C1F3080181807047FEE700002B
:1006200070B5E4B023A000F059F8002001216D4618
:1006300000EB800245F8321005EBC20242F82010B0
:10064000401C0A28F4DB0220012101E001210EE018
:1006500000EB800205EBC20202EB8103A3F12C0345
:10066000D3E90043234442F8213001F101018142E2
:10067000EEDB401C0A28E9DB0024264601E00026C8
:1006800009E004EB840005EBC00050F8261010A030
:1006900000F024F8761C601C8642F2DB0EA000F00D
:1006A0001DF8641C0A2CEADB0BA000F017F864B0FC
:1006B00070BD00000A0D20BCC6CBE33130BDD7D1E0
:1006C000EEBBD4C8FDBDC7D0CEA3BA0A0D0A0D003B
:1006D00025336420200000000A0D00000FB4054BF4
:1006E00010B503A9044A029800F018F810BC5DF890
:1006F00014FB0000A90A00083800002002E008C826
:10070000121F08C1002AFAD170477047002001E08B
:1007100001C1121F002AFBD1704700002DE9FF4FD5
:100720008DB005468846002689E125287AD1002427
:100730006D1CC74AA146A34601212B78203B01FA34
:1007400003F0104202D004436D1CF6E728782A28F3
:1007500010D06FF02F022878A0F13001092918D8A5
:1007600009EB890102EB4101084444F0020481468F
:100770006D1CF0E7D8F8001008F10400B1F1000991
:10078000804603DA484244F40054814644F00204AF
:100790006D1C28782E281BD115F8010F44F0040495
:1007A0002A280ED06FF02F022878A0F130010929F5
:1007B0000ED80BEB8B0102EB4101084483466D1C04
:1007C000F2E7D8F8001008F104008B4680466D1C53
:1007D00028786C280FD006DC4C2817D068280DD05C
:1007E0006A2814D104E0742810D07A280FD10DE0C3
:1007F00044F400140AE044F4801401E044F440148A
:100800006978814202D16D1C04F580146D1C287832
:10081000692874D007DC002870D0632829D06428A8
:1008200007D16CE005E06E2808D0732830D0752819
:100830007BD0DDE90F129047761CFFE0C4F3025035
:1008400002280AD003280ED0D8F8001004280ED0B1
:100850000E6008F104008046F0E0D8F80010F217AE
:10086000C1E90062F5E7D8F800100E80F1E70E70DC
:10087000EFE7D8F8001008F1040080468DF800106A
:100880004FF000008DF80100EA464FF0010007E04C
:10089000D8F8001008F1040080468A464FF0FF3077
:1008A00061074FF0000701D40AE07F1C5F450DDAB5
:1008B0008742FADB1AF807100029F6D106E07F1C00
:1008C0008742FCDB1AF807100029F8D1DDE90F2375
:1008D000A9EB07008146214600F0CFF83044C61945
:1008E00007E09AF800000AF101018A46DDE90F12DB
:1008F00090477F1EF5D2214648469AE0A3E00A20A1
:10090000074608F10401D8F800008846C4F30251F4
:10091000032900D100B2042900D140B2002805DA31
:10092000C0F100004FF02D0103E00EE0210504D5D9
:100930002B218DF82C10012103E0E10714D0202198
:10094000F7E7099108A98A4619E00A20074608F145
:100950000401D8F800008846C4F30251032900D1ED
:1009600080B2042900D1C0B20021EAE73946FFF77E
:1009700025FC01F13002AAF101018A460A70002823
:10098000F4D1ADEB0A0000F120000890600702D519
:1009900024F4803401E001208346089A002059465F
:1009A000934501DDA1EB0200834600EB02010998AB
:1009B0000144A9EB01000A90E00306D4DDE90F230E
:1009C00021460A9800F059F8064400270DF12C0939
:1009D00006E0DDE90F1219F807009047761C7F1C2E
:1009E00009988742F5DBE0030CD5DDE90F232146AA
:1009F0000A9800F042F8064404E0DDE90F123020C6
:100A00009047761CBBF10001ABF101008346F4DC9A
:100A100008E09AF800000AF101018A46DDE90F12A8
:100A20009047761C0899481E08900029F1DC0A9826
:100A30002146DDE90F2300F00DF806446D1C2878EF
:100A400000287FF472AE11B03046BDE8F08F000090
:100A5000092801002DE9F0410446002517461E46ED
:100A6000880405D406E039462020B04705F1010589
:100A7000641EF8D52846BDE8F0812DE9F041044612
:100A80000025302790461E46C80300D4202788043E
:100A900005D506E041463846B04705F10105641E1C
:100AA000F8D52846BDE8F08170B5074D0446C1B2BF
:100AB0002846FFF7AFFD40212846FFF747FD0028F5
:100AC000F9D0204670BD0000001001400A484FF4E4
:100AD000E131016000218180C180018181810C218F
:100AE000418101460020FFF757FC0448FFF7F6FD5F
:100AF000FFF796FDFEE700003C000020000B000819
:100B00000A0D5553415254205072696E7466204547
:100B100078616D706C653A20726574617267657496
:100B2000207468652043206C69627261727920705C
:100B300072696E74662066756E6374696F6E207478
:100B40006F207468652055534152540A0D0000000F
:100B5000090A070706000F002806000200040080AB
:100B600001000080010000001000000001000000F2
:100B7000010000004000800000020004400000006E
:100B80000100000020000000200000002000000004
:100B900020000000B40B0008000000203C00000012
:100BA000FC060008F00B00083C00002014040000C4
:100BB0000C07000800100140000002400000024045
:100BC0000000000000180240000002400014024033
:100BD0000014024000140240001402400000000013
:100BE00001020304010203040607080900000000D3
:040000050800018569
:00000001FF
